{
	"data": {
		"bytecode": {
			"linkReferences": {},
			"object": "6080604052604051612d68380380612d68833981810160405281019061002591906102e2565b5f3411610067576040517f08c379a000000000000000000000000000000000000000000000000000000000815260040161005e9061042d565b60405180910390fd5b6040518060e001604052808681526020013373ffffffffffffffffffffffffffffffffffffffff168152602001858152602001848152602001838152602001828152602001348152505f80820151815f0190816100c4919061064f565b506020820151816001015f6101000a81548173ffffffffffffffffffffffffffffffffffffffff021916908373ffffffffffffffffffffffffffffffffffffffff16021790555060408201518160020155606082015181600301556080820151816004019081610134919061064f565b5060a082015181600501908161014a919061064f565b5060c08201518160060155905050505050505061071e565b5f604051905090565b5f80fd5b5f80fd5b5f80fd5b5f80fd5b5f601f19601f8301169050919050565b7f4e487b71000000000000000000000000000000000000000000000000000000005f52604160045260245ffd5b6101c18261017b565b810181811067ffffffffffffffff821117156101e0576101df61018b565b5b80604052505050565b5f6101f2610162565b90506101fe82826101b8565b919050565b5f67ffffffffffffffff82111561021d5761021c61018b565b5b6102268261017b565b9050602081019050919050565b8281835e5f83830152505050565b5f61025361024e84610203565b6101e9565b90508281526020810184848401111561026f5761026e610177565b5b61027a848285610233565b509392505050565b5f82601f83011261029657610295610173565b5b81516102a6848260208601610241565b91505092915050565b5f819050919050565b6102c1816102af565b81146102cb575f80fd5b50565b5f815190506102dc816102b8565b92915050565b5f805f805f60a086880312156102fb576102fa61016b565b5b5f86015167ffffffffffffffff8111156103185761031761016f565b5b61032488828901610282565b9550506020610335888289016102ce565b9450506040610346888289016102ce565b935050606086015167ffffffffffffffff8111156103675761036661016f565b5b61037388828901610282565b925050608086015167ffffffffffffffff8111156103945761039361016f565b5b6103a088828901610282565b9150509295509295909350565b5f82825260208201905092915050565b7f52657761726420616d6f756e74206d75737420626520677265617465722074685f8201527f616e203000000000000000000000000000000000000000000000000000000000602082015250565b5f6104176024836103ad565b9150610422826103bd565b604082019050919050565b5f6020820190508181035f8301526104448161040b565b9050919050565b5f81519050919050565b7f4e487b71000000000000000000000000000000000000000000000000000000005f52602260045260245ffd5b5f600282049050600182168061049957607f821691505b6020821081036104ac576104ab610455565b5b50919050565b5f819050815f5260205f209050919050565b5f6020601f8301049050919050565b5f82821b905092915050565b5f6008830261050e7fffffffffffffffffffffffffffffffffffffffffffffffffffffffffffffffff826104d3565b61051886836104d3565b95508019841693508086168417925050509392505050565b5f819050919050565b5f61055361054e610549846102af565b610530565b6102af565b9050919050565b5f819050919050565b61056c83610539565b6105806105788261055a565b8484546104df565b825550505050565b5f90565b610594610588565b61059f818484610563565b505050565b5b818110156105c2576105b75f8261058c565b6001810190506105a5565b5050565b601f821115610607576105d8816104b2565b6105e1846104c4565b810160208510156105f0578190505b6106046105fc856104c4565b8301826105a4565b50505b505050565b5f82821c905092915050565b5f6106275f198460080261060c565b1980831691505092915050565b5f61063f8383610618565b9150826002028217905092915050565b6106588261044b565b67ffffffffffffffff8111156106715761067061018b565b5b61067b8254610482565b6106868282856105c6565b5f60209050601f8311600181146106b7575f84156106a5578287015190505b6106af8582610634565b865550610716565b601f1984166106c5866104b2565b5f5b828110156106ec578489015182556001820191506020850194506020810190506106c7565b868310156107095784890151610705601f891682610618565b8355505b6001600288020188555050505b505050505050565b61263d8061072b5f395ff3fe608060405234801561000f575f80fd5b50600436106100b2575f3560e01c80638c14acd51161006f5780638c14acd5146101a1578063b88a802f146101c5578063c0ee5b4f146101cf578063d39eaf48146101eb578063d6b311d414610207578063dcf6359114610237576100b2565b80632c6d6609146100b657806335c1d349146100e85780633ccfd60b146101185780635b67bdb4146101225780635ecd45b91461015257806388409afa14610170575b5f80fd5b6100d060048036038101906100cb91906114c0565b61025b565b6040516100df9392919061166d565b60405180910390f35b61010260048036038101906100fd91906114c0565b610466565b60405161010f91906116ef565b60405180910390f35b6101206104a1565b005b61013c60048036038101906101379190611732565b6105e1565b6040516101499190611777565b60405180910390f35b61015a6105fe565b604051610167919061192b565b60405180910390f35b61018a600480360381019061018591906114c0565b6107c9565b60405161019892919061194b565b60405180910390f35b6101a961088a565b6040516101bc9796959493929190611988565b60405180910390f35b6101cd610a86565b005b6101e960048036038101906101e49190611c30565b610d1b565b005b61020560048036038101906102009190611d78565b610ef3565b005b610221600480360381019061021c9190611732565b61119a565b60405161022e9190611dbf565b60405180910390f35b61023f6111af565b6040516102529796959493929190611988565b60405180910390f35b606061026561138e565b5f60078054905084106102ad576040517f08c379a00000000000000000000000000000000000000000000000000000000081526004016102a490611e22565b60405180910390fd5b5f600785815481106102c2576102c1611e40565b5b905f5260205f2090600602016040518060600160405290815f820180546102e890611e9a565b80601f016020809104026020016040519081016040528092919081815260200182805461031490611e9a565b801561035f5780601f106103365761010080835404028352916020019161035f565b820191905f5260205f20905b81548152906001019060200180831161034257829003601f168201915b5050505050815260200160018201600480602002604051908101604052809291905f905b8282101561042457838201805461039990611e9a565b80601f01602080910402602001604051908101604052809291908181526020018280546103c590611e9a565b80156104105780601f106103e757610100808354040283529160200191610410565b820191905f5260205f20905b8154815290600101906020018083116103f357829003601f168201915b505050505081526020019060010190610383565b505050508152602001600582015f9054906101000a900460ff1660ff1660ff16815250509050805f015181602001518260400151935093509350509193909250565b600a8181548110610475575f80fd5b905f5260205f20015f915054906101000a900473ffffffffffffffffffffffffffffffffffffffff1681565b5f6001015f9054906101000a900473ffffffffffffffffffffffffffffffffffffffff1673ffffffffffffffffffffffffffffffffffffffff163373ffffffffffffffffffffffffffffffffffffffff1614610532576040517f08c379a000000000000000000000000000000000000000000000000000000000815260040161052990611f3a565b60405180910390fd5b5f600301544211610578576040517f08c379a000000000000000000000000000000000000000000000000000000000815260040161056f90611fa2565b60405180910390fd5b5f6001015f9054906101000a900473ffffffffffffffffffffffffffffffffffffffff1673ffffffffffffffffffffffffffffffffffffffff166108fc4790811502906040515f60405180830381858888f193505050501580156105de573d5f803e3d5ffd5b50565b6008602052805f5260405f205f915054906101000a900460ff1681565b60606007805480602002602001604051908101604052809291908181526020015f905b828210156107c0578382905f5260205f2090600602016040518060600160405290815f8201805461065190611e9a565b80601f016020809104026020016040519081016040528092919081815260200182805461067d90611e9a565b80156106c85780601f1061069f576101008083540402835291602001916106c8565b820191905f5260205f20905b8154815290600101906020018083116106ab57829003601f168201915b5050505050815260200160018201600480602002604051908101604052809291905f905b8282101561078d57838201805461070290611e9a565b80601f016020809104026020016040519081016040528092919081815260200182805461072e90611e9a565b80156107795780601f1061075057610100808354040283529160200191610779565b820191905f5260205f20905b81548152906001019060200180831161075c57829003601f168201915b5050505050815260200190600101906106ec565b505050508152602001600582015f9054906101000a900460ff1660ff1660ff168152505081526020019060010190610621565b50505050905090565b600781815481106107d8575f80fd5b905f5260205f2090600602015f91509050805f0180546107f790611e9a565b80601f016020809104026020016040519081016040528092919081815260200182805461082390611e9a565b801561086e5780601f106108455761010080835404028352916020019161086e565b820191905f5260205f20905b81548152906001019060200180831161085157829003601f168201915b505050505090806005015f9054906101000a900460ff16905082565b60605f805f6060805f805f015f6001015f9054906101000a900473ffffffffffffffffffffffffffffffffffffffff165f600201545f600301545f6004015f6005015f600601548680546108dd90611e9a565b80601f016020809104026020016040519081016040528092919081815260200182805461090990611e9a565b80156109545780601f1061092b57610100808354040283529160200191610954565b820191905f5260205f20905b81548152906001019060200180831161093757829003601f168201915b5050505050965082805461096790611e9a565b80601f016020809104026020016040519081016040528092919081815260200182805461099390611e9a565b80156109de5780601f106109b5576101008083540402835291602001916109de565b820191905f5260205f20905b8154815290600101906020018083116109c157829003601f168201915b505050505092508180546109f190611e9a565b80601f0160208091040260200160405190810160405280929190818152602001828054610a1d90611e9a565b8015610a685780601f10610a3f57610100808354040283529160200191610a68565b820191905f5260205f20905b815481529060010190602001808311610a4b57829003601f168201915b50505050509150965096509650965096509650965090919293949596565b5f600301544211610acc576040517f08c379a0000000000000000000000000000000000000000000000000000000008152600401610ac390611fa2565b60405180910390fd5b60085f3373ffffffffffffffffffffffffffffffffffffffff1673ffffffffffffffffffffffffffffffffffffffff1681526020019081526020015f205f9054906101000a900460ff16610b55576040517f08c379a0000000000000000000000000000000000000000000000000000000008152600401610b4c9061200a565b60405180910390fd5b5f60095f3373ffffffffffffffffffffffffffffffffffffffff1673ffffffffffffffffffffffffffffffffffffffff1681526020019081526020015f205411610bd4576040517f08c379a0000000000000000000000000000000000000000000000000000000008152600401610bcb90612072565b60405180910390fd5b5f805b600a80549050811015610c775760095f600a8381548110610bfb57610bfa611e40565b5b905f5260205f20015f9054906101000a900473ffffffffffffffffffffffffffffffffffffffff1673ffffffffffffffffffffffffffffffffffffffff1673ffffffffffffffffffffffffffffffffffffffff1681526020019081526020015f205482610c6891906120bd565b91508080600101915050610bd7565b505f8160095f3373ffffffffffffffffffffffffffffffffffffffff1673ffffffffffffffffffffffffffffffffffffffff1681526020019081526020015f20545f60060154610cc791906120f0565b610cd1919061215e565b90503373ffffffffffffffffffffffffffffffffffffffff166108fc8290811502906040515f60405180830381858888f19350505050158015610d16573d5f803e3d5ffd5b505050565b5f6001015f9054906101000a900473ffffffffffffffffffffffffffffffffffffffff1673ffffffffffffffffffffffffffffffffffffffff163373ffffffffffffffffffffffffffffffffffffffff1614610dac576040517f08c379a0000000000000000000000000000000000000000000000000000000008152600401610da390611f3a565b60405180910390fd5b5f600201544210158015610dc457505f600301544211155b610e03576040517f08c379a0000000000000000000000000000000000000000000000000000000008152600401610dfa906121d8565b60405180910390fd5b60018160ff1610158015610e1b575060048160ff1611155b610e5a576040517f08c379a0000000000000000000000000000000000000000000000000000000008152600401610e5190612266565b60405180910390fd5b600760405180606001604052808581526020018481526020018360ff16815250908060018154018082558091505060019003905f5260205f2090600602015f909190919091505f820151815f019081610eb39190612421565b50602082015181600101906004610ecb9291906113b5565b506040820151816005015f6101000a81548160ff021916908360ff1602179055505050505050565b5f600201544210158015610f0b57505f600301544211155b610f4a576040517f08c379a0000000000000000000000000000000000000000000000000000000008152600401610f41906121d8565b60405180910390fd5b60085f3373ffffffffffffffffffffffffffffffffffffffff1673ffffffffffffffffffffffffffffffffffffffff1681526020019081526020015f205f9054906101000a900460ff1615610fd4576040517f08c379a0000000000000000000000000000000000000000000000000000000008152600401610fcb9061253a565b60405180910390fd5b60078054905081511461101c576040517f08c379a0000000000000000000000000000000000000000000000000000000008152600401611013906125a2565b60405180910390fd5b5f805b60078054905081101561109e57600781815481106110405761103f611e40565b5b905f5260205f2090600602016005015f9054906101000a900460ff1660ff1683828151811061107257611071611e40565b5b602002602001015160ff160361109157818061108d906125c0565b9250505b808060010191505061101f565b50600160085f3373ffffffffffffffffffffffffffffffffffffffff1673ffffffffffffffffffffffffffffffffffffffff1681526020019081526020015f205f6101000a81548160ff0219169083151502179055508060095f3373ffffffffffffffffffffffffffffffffffffffff1673ffffffffffffffffffffffffffffffffffffffff1681526020019081526020015f2081905550600a33908060018154018082558091505060019003905f5260205f20015f9091909190916101000a81548173ffffffffffffffffffffffffffffffffffffffff021916908373ffffffffffffffffffffffffffffffffffffffff1602179055505050565b6009602052805f5260405f205f915090505481565b5f805f0180546111be90611e9a565b80601f01602080910402602001604051908101604052809291908181526020018280546111ea90611e9a565b80156112355780601f1061120c57610100808354040283529160200191611235565b820191905f5260205f20905b81548152906001019060200180831161121857829003601f168201915b505050505090806001015f9054906101000a900473ffffffffffffffffffffffffffffffffffffffff169080600201549080600301549080600401805461127b90611e9a565b80601f01602080910402602001604051908101604052809291908181526020018280546112a790611e9a565b80156112f25780601f106112c9576101008083540402835291602001916112f2565b820191905f5260205f20905b8154815290600101906020018083116112d557829003601f168201915b50505050509080600501805461130790611e9a565b80601f016020809104026020016040519081016040528092919081815260200182805461133390611e9a565b801561137e5780601f106113555761010080835404028352916020019161137e565b820191905f5260205f20905b81548152906001019060200180831161136157829003601f168201915b5050505050908060060154905087565b60405180608001604052806004905b606081526020019060019003908161139d5790505090565b82600481019282156113f0579160200282015b828111156113ef5782518290816113df9190612421565b50916020019190600101906113c8565b5b5090506113fd9190611401565b5090565b5b80821115611420575f81816114179190611424565b50600101611402565b5090565b50805461143090611e9a565b5f825580601f10611441575061145e565b601f0160209004905f5260205f209081019061145d9190611461565b5b50565b5b80821115611478575f815f905550600101611462565b5090565b5f604051905090565b5f80fd5b5f80fd5b5f819050919050565b61149f8161148d565b81146114a9575f80fd5b50565b5f813590506114ba81611496565b92915050565b5f602082840312156114d5576114d4611485565b5b5f6114e2848285016114ac565b91505092915050565b5f81519050919050565b5f82825260208201905092915050565b8281835e5f83830152505050565b5f601f19601f8301169050919050565b5f61152d826114eb565b61153781856114f5565b9350611547818560208601611505565b61155081611513565b840191505092915050565b5f60049050919050565b5f81905092915050565b5f819050919050565b5f82825260208201905092915050565b5f611592826114eb565b61159c8185611578565b93506115ac818560208601611505565b6115b581611513565b840191505092915050565b5f6115cb8383611588565b905092915050565b5f602082019050919050565b5f6115e98261155b565b6115f38185611565565b9350836020820285016116058561156f565b805f5b85811015611640578484038952815161162185826115c0565b945061162c836115d3565b925060208a01995050600181019050611608565b50829750879550505050505092915050565b5f60ff82169050919050565b61166781611652565b82525050565b5f6060820190508181035f8301526116858186611523565b9050818103602083015261169981856115df565b90506116a8604083018461165e565b949350505050565b5f73ffffffffffffffffffffffffffffffffffffffff82169050919050565b5f6116d9826116b0565b9050919050565b6116e9816116cf565b82525050565b5f6020820190506117025f8301846116e0565b92915050565b611711816116cf565b811461171b575f80fd5b50565b5f8135905061172c81611708565b92915050565b5f6020828403121561174757611746611485565b5b5f6117548482850161171e565b91505092915050565b5f8115159050919050565b6117718161175d565b82525050565b5f60208201905061178a5f830184611768565b92915050565b5f81519050919050565b5f82825260208201905092915050565b5f819050602082019050919050565b5f81905092915050565b5f6117cd8261155b565b6117d781856117b9565b9350836020820285016117e98561156f565b805f5b85811015611824578484038952815161180585826115c0565b9450611810836115d3565b925060208a019950506001810190506117ec565b50829750879550505050505092915050565b61183f81611652565b82525050565b5f606083015f8301518482035f86015261185f8282611588565b9150506020830151848203602086015261187982826117c3565b915050604083015161188e6040860182611836565b508091505092915050565b5f6118a48383611845565b905092915050565b5f602082019050919050565b5f6118c282611790565b6118cc818561179a565b9350836020820285016118de856117aa565b805f5b8581101561191957848403895281516118fa8582611899565b9450611905836118ac565b925060208a019950506001810190506118e1565b50829750879550505050505092915050565b5f6020820190508181035f83015261194381846118b8565b905092915050565b5f6040820190508181035f8301526119638185611523565b9050611972602083018461165e565b9392505050565b6119828161148d565b82525050565b5f60e0820190508181035f8301526119a0818a611523565b90506119af60208301896116e0565b6119bc6040830188611979565b6119c96060830187611979565b81810360808301526119db8186611523565b905081810360a08301526119ef8185611523565b90506119fe60c0830184611979565b98975050505050505050565b5f80fd5b5f80fd5b7f4e487b71000000000000000000000000000000000000000000000000000000005f52604160045260245ffd5b611a4882611513565b810181811067ffffffffffffffff82111715611a6757611a66611a12565b5b80604052505050565b5f611a7961147c565b9050611a858282611a3f565b919050565b5f67ffffffffffffffff821115611aa457611aa3611a12565b5b611aad82611513565b9050602081019050919050565b828183375f83830152505050565b5f611ada611ad584611a8a565b611a70565b905082815260208101848484011115611af657611af5611a0e565b5b611b01848285611aba565b509392505050565b5f82601f830112611b1d57611b1c611a0a565b5b8135611b2d848260208601611ac8565b91505092915050565b5f67ffffffffffffffff821115611b5057611b4f611a12565b5b602082029050919050565b5f80fd5b5f611b71611b6c84611b36565b611a70565b90508060208402830185811115611b8b57611b8a611b5b565b5b835b81811015611bd257803567ffffffffffffffff811115611bb057611baf611a0a565b5b808601611bbd8982611b09565b85526020850194505050602081019050611b8d565b5050509392505050565b5f82601f830112611bf057611bef611a0a565b5b6004611bfd848285611b5f565b91505092915050565b611c0f81611652565b8114611c19575f80fd5b50565b5f81359050611c2a81611c06565b92915050565b5f805f60608486031215611c4757611c46611485565b5b5f84013567ffffffffffffffff811115611c6457611c63611489565b5b611c7086828701611b09565b935050602084013567ffffffffffffffff811115611c9157611c90611489565b5b611c9d86828701611bdc565b9250506040611cae86828701611c1c565b9150509250925092565b5f67ffffffffffffffff821115611cd257611cd1611a12565b5b602082029050602081019050919050565b5f611cf5611cf084611cb8565b611a70565b90508083825260208201905060208402830185811115611d1857611d17611b5b565b5b835b81811015611d415780611d2d8882611c1c565b845260208401935050602081019050611d1a565b5050509392505050565b5f82601f830112611d5f57611d5e611a0a565b5b8135611d6f848260208601611ce3565b91505092915050565b5f60208284031215611d8d57611d8c611485565b5b5f82013567ffffffffffffffff811115611daa57611da9611489565b5b611db684828501611d4b565b91505092915050565b5f602082019050611dd25f830184611979565b92915050565b7f5175697a20696e646578206f7574206f6620626f756e647300000000000000005f82015250565b5f611e0c6018836114f5565b9150611e1782611dd8565b602082019050919050565b5f6020820190508181035f830152611e3981611e00565b9050919050565b7f4e487b71000000000000000000000000000000000000000000000000000000005f52603260045260245ffd5b7f4e487b71000000000000000000000000000000000000000000000000000000005f52602260045260245ffd5b5f6002820490506001821680611eb157607f821691505b602082108103611ec457611ec3611e6d565b5b50919050565b7f4f6e6c79206f776e65722063616e20706572666f726d207468697320616374695f8201527f6f6e000000000000000000000000000000000000000000000000000000000000602082015250565b5f611f246022836114f5565b9150611f2f82611eca565b604082019050919050565b5f6020820190508181035f830152611f5181611f18565b9050919050565b7f436f75727365206973207374696c6c20616374697665000000000000000000005f82015250565b5f611f8c6016836114f5565b9150611f9782611f58565b602082019050919050565b5f6020820190508181035f830152611fb981611f80565b9050919050565b7f596f7520646964206e6f742070617274696369706174650000000000000000005f82015250565b5f611ff46017836114f5565b9150611fff82611fc0565b602082019050919050565b5f6020820190508181035f83015261202181611fe8565b9050919050565b7f4e6f20636f727265637420616e737765727300000000000000000000000000005f82015250565b5f61205c6012836114f5565b915061206782612028565b602082019050919050565b5f6020820190508181035f83015261208981612050565b9050919050565b7f4e487b71000000000000000000000000000000000000000000000000000000005f52601160045260245ffd5b5f6120c78261148d565b91506120d28361148d565b92508282019050808211156120ea576120e9612090565b5b92915050565b5f6120fa8261148d565b91506121058361148d565b92508282026121138161148d565b9150828204841483151761212a57612129612090565b5b5092915050565b7f4e487b71000000000000000000000000000000000000000000000000000000005f52601260045260245ffd5b5f6121688261148d565b91506121738361148d565b92508261218357612182612131565b5b828204905092915050565b7f436f75727365206973206e6f74206163746976650000000000000000000000005f82015250565b5f6121c26014836114f5565b91506121cd8261218e565b602082019050919050565b5f6020820190508181035f8301526121ef816121b6565b9050919050565b7f436f727265637420616e73776572206d757374206265206265747765656e20315f8201527f20616e6420340000000000000000000000000000000000000000000000000000602082015250565b5f6122506026836114f5565b915061225b826121f6565b604082019050919050565b5f6020820190508181035f83015261227d81612244565b9050919050565b5f819050815f5260205f209050919050565b5f6020601f8301049050919050565b5f82821b905092915050565b5f600883026122e07fffffffffffffffffffffffffffffffffffffffffffffffffffffffffffffffff826122a5565b6122ea86836122a5565b95508019841693508086168417925050509392505050565b5f819050919050565b5f61232561232061231b8461148d565b612302565b61148d565b9050919050565b5f819050919050565b61233e8361230b565b61235261234a8261232c565b8484546122b1565b825550505050565b5f90565b61236661235a565b612371818484612335565b505050565b5b81811015612394576123895f8261235e565b600181019050612377565b5050565b601f8211156123d9576123aa81612284565b6123b384612296565b810160208510156123c2578190505b6123d66123ce85612296565b830182612376565b50505b505050565b5f82821c905092915050565b5f6123f95f19846008026123de565b1980831691505092915050565b5f61241183836123ea565b9150826002028217905092915050565b61242a826114eb565b67ffffffffffffffff81111561244357612442611a12565b5b61244d8254611e9a565b612458828285612398565b5f60209050601f831160018114612489575f8415612477578287015190505b6124818582612406565b8655506124e8565b601f19841661249786612284565b5f5b828110156124be57848901518255600182019150602085019450602081019050612499565b868310156124db57848901516124d7601f8916826123ea565b8355505b6001600288020188555050505b505050505050565b7f596f75206861766520616c726561647920616e737765726564000000000000005f82015250565b5f6125246019836114f5565b915061252f826124f0565b602082019050919050565b5f6020820190508181035f83015261255181612518565b9050919050565b7f4d75737420616e7377657220616c6c207175697a7a65730000000000000000005f82015250565b5f61258c6017836114f5565b915061259782612558565b602082019050919050565b5f6020820190508181035f8301526125b981612580565b9050919050565b5f6125ca8261148d565b91507fffffffffffffffffffffffffffffffffffffffffffffffffffffffffffffffff82036125fc576125fb612090565b5b60018201905091905056fea26469706673582212208ad9657216ed8a2c85343c3aaac1dd57c4796f616fc8a11ad6bb7914bc79306664736f6c634300081a0033",
			"opcodes": "PUSH1 0x80 PUSH1 0x40 MSTORE PUSH1 0x40 MLOAD PUSH2 0x2D68 CODESIZE SUB DUP1 PUSH2 0x2D68 DUP4 CODECOPY DUP2 DUP2 ADD PUSH1 0x40 MSTORE DUP2 ADD SWAP1 PUSH2 0x25 SWAP2 SWAP1 PUSH2 0x2E2 JUMP JUMPDEST PUSH0 CALLVALUE GT PUSH2 0x67 JUMPI PUSH1 0x40 MLOAD PUSH32 0x8C379A000000000000000000000000000000000000000000000000000000000 DUP2 MSTORE PUSH1 0x4 ADD PUSH2 0x5E SWAP1 PUSH2 0x42D JUMP JUMPDEST PUSH1 0x40 MLOAD DUP1 SWAP2 SUB SWAP1 REVERT JUMPDEST PUSH1 0x40 MLOAD DUP1 PUSH1 0xE0 ADD PUSH1 0x40 MSTORE DUP1 DUP7 DUP2 MSTORE PUSH1 0x20 ADD CALLER PUSH20 0xFFFFFFFFFFFFFFFFFFFFFFFFFFFFFFFFFFFFFFFF AND DUP2 MSTORE PUSH1 0x20 ADD DUP6 DUP2 MSTORE PUSH1 0x20 ADD DUP5 DUP2 MSTORE PUSH1 0x20 ADD DUP4 DUP2 MSTORE PUSH1 0x20 ADD DUP3 DUP2 MSTORE PUSH1 0x20 ADD CALLVALUE DUP2 MSTORE POP PUSH0 DUP1 DUP3 ADD MLOAD DUP2 PUSH0 ADD SWAP1 DUP2 PUSH2 0xC4 SWAP2 SWAP1 PUSH2 0x64F JUMP JUMPDEST POP PUSH1 0x20 DUP3 ADD MLOAD DUP2 PUSH1 0x1 ADD PUSH0 PUSH2 0x100 EXP DUP2 SLOAD DUP2 PUSH20 0xFFFFFFFFFFFFFFFFFFFFFFFFFFFFFFFFFFFFFFFF MUL NOT AND SWAP1 DUP4 PUSH20 0xFFFFFFFFFFFFFFFFFFFFFFFFFFFFFFFFFFFFFFFF AND MUL OR SWAP1 SSTORE POP PUSH1 0x40 DUP3 ADD MLOAD DUP2 PUSH1 0x2 ADD SSTORE PUSH1 0x60 DUP3 ADD MLOAD DUP2 PUSH1 0x3 ADD SSTORE PUSH1 0x80 DUP3 ADD MLOAD DUP2 PUSH1 0x4 ADD SWAP1 DUP2 PUSH2 0x134 SWAP2 SWAP1 PUSH2 0x64F JUMP JUMPDEST POP PUSH1 0xA0 DUP3 ADD MLOAD DUP2 PUSH1 0x5 ADD SWAP1 DUP2 PUSH2 0x14A SWAP2 SWAP1 PUSH2 0x64F JUMP JUMPDEST POP PUSH1 0xC0 DUP3 ADD MLOAD DUP2 PUSH1 0x6 ADD SSTORE SWAP1 POP POP POP POP POP POP POP PUSH2 0x71E JUMP JUMPDEST PUSH0 PUSH1 0x40 MLOAD SWAP1 POP SWAP1 JUMP JUMPDEST PUSH0 DUP1 REVERT JUMPDEST PUSH0 DUP1 REVERT JUMPDEST PUSH0 DUP1 REVERT JUMPDEST PUSH0 DUP1 REVERT JUMPDEST PUSH0 PUSH1 0x1F NOT PUSH1 0x1F DUP4 ADD AND SWAP1 POP SWAP2 SWAP1 POP JUMP JUMPDEST PUSH32 0x4E487B7100000000000000000000000000000000000000000000000000000000 PUSH0 MSTORE PUSH1 0x41 PUSH1 0x4 MSTORE PUSH1 0x24 PUSH0 REVERT JUMPDEST PUSH2 0x1C1 DUP3 PUSH2 0x17B JUMP JUMPDEST DUP2 ADD DUP2 DUP2 LT PUSH8 0xFFFFFFFFFFFFFFFF DUP3 GT OR ISZERO PUSH2 0x1E0 JUMPI PUSH2 0x1DF PUSH2 0x18B JUMP JUMPDEST JUMPDEST DUP1 PUSH1 0x40 MSTORE POP POP POP JUMP JUMPDEST PUSH0 PUSH2 0x1F2 PUSH2 0x162 JUMP JUMPDEST SWAP1 POP PUSH2 0x1FE DUP3 DUP3 PUSH2 0x1B8 JUMP JUMPDEST SWAP2 SWAP1 POP JUMP JUMPDEST PUSH0 PUSH8 0xFFFFFFFFFFFFFFFF DUP3 GT ISZERO PUSH2 0x21D JUMPI PUSH2 0x21C PUSH2 0x18B JUMP JUMPDEST JUMPDEST PUSH2 0x226 DUP3 PUSH2 0x17B JUMP JUMPDEST SWAP1 POP PUSH1 0x20 DUP2 ADD SWAP1 POP SWAP2 SWAP1 POP JUMP JUMPDEST DUP3 DUP2 DUP4 MCOPY PUSH0 DUP4 DUP4 ADD MSTORE POP POP POP JUMP JUMPDEST PUSH0 PUSH2 0x253 PUSH2 0x24E DUP5 PUSH2 0x203 JUMP JUMPDEST PUSH2 0x1E9 JUMP JUMPDEST SWAP1 POP DUP3 DUP2 MSTORE PUSH1 0x20 DUP2 ADD DUP5 DUP5 DUP5 ADD GT ISZERO PUSH2 0x26F JUMPI PUSH2 0x26E PUSH2 0x177 JUMP JUMPDEST JUMPDEST PUSH2 0x27A DUP5 DUP3 DUP6 PUSH2 0x233 JUMP JUMPDEST POP SWAP4 SWAP3 POP POP POP JUMP JUMPDEST PUSH0 DUP3 PUSH1 0x1F DUP4 ADD SLT PUSH2 0x296 JUMPI PUSH2 0x295 PUSH2 0x173 JUMP JUMPDEST JUMPDEST DUP2 MLOAD PUSH2 0x2A6 DUP5 DUP3 PUSH1 0x20 DUP7 ADD PUSH2 0x241 JUMP JUMPDEST SWAP2 POP POP SWAP3 SWAP2 POP POP JUMP JUMPDEST PUSH0 DUP2 SWAP1 POP SWAP2 SWAP1 POP JUMP JUMPDEST PUSH2 0x2C1 DUP2 PUSH2 0x2AF JUMP JUMPDEST DUP2 EQ PUSH2 0x2CB JUMPI PUSH0 DUP1 REVERT JUMPDEST POP JUMP JUMPDEST PUSH0 DUP2 MLOAD SWAP1 POP PUSH2 0x2DC DUP2 PUSH2 0x2B8 JUMP JUMPDEST SWAP3 SWAP2 POP POP JUMP JUMPDEST PUSH0 DUP1 PUSH0 DUP1 PUSH0 PUSH1 0xA0 DUP7 DUP9 SUB SLT ISZERO PUSH2 0x2FB JUMPI PUSH2 0x2FA PUSH2 0x16B JUMP JUMPDEST JUMPDEST PUSH0 DUP7 ADD MLOAD PUSH8 0xFFFFFFFFFFFFFFFF DUP2 GT ISZERO PUSH2 0x318 JUMPI PUSH2 0x317 PUSH2 0x16F JUMP JUMPDEST JUMPDEST PUSH2 0x324 DUP9 DUP3 DUP10 ADD PUSH2 0x282 JUMP JUMPDEST SWAP6 POP POP PUSH1 0x20 PUSH2 0x335 DUP9 DUP3 DUP10 ADD PUSH2 0x2CE JUMP JUMPDEST SWAP5 POP POP PUSH1 0x40 PUSH2 0x346 DUP9 DUP3 DUP10 ADD PUSH2 0x2CE JUMP JUMPDEST SWAP4 POP POP PUSH1 0x60 DUP7 ADD MLOAD PUSH8 0xFFFFFFFFFFFFFFFF DUP2 GT ISZERO PUSH2 0x367 JUMPI PUSH2 0x366 PUSH2 0x16F JUMP JUMPDEST JUMPDEST PUSH2 0x373 DUP9 DUP3 DUP10 ADD PUSH2 0x282 JUMP JUMPDEST SWAP3 POP POP PUSH1 0x80 DUP7 ADD MLOAD PUSH8 0xFFFFFFFFFFFFFFFF DUP2 GT ISZERO PUSH2 0x394 JUMPI PUSH2 0x393 PUSH2 0x16F JUMP JUMPDEST JUMPDEST PUSH2 0x3A0 DUP9 DUP3 DUP10 ADD PUSH2 0x282 JUMP JUMPDEST SWAP2 POP POP SWAP3 SWAP6 POP SWAP3 SWAP6 SWAP1 SWAP4 POP JUMP JUMPDEST PUSH0 DUP3 DUP3 MSTORE PUSH1 0x20 DUP3 ADD SWAP1 POP SWAP3 SWAP2 POP POP JUMP JUMPDEST PUSH32 0x52657761726420616D6F756E74206D7573742062652067726561746572207468 PUSH0 DUP3 ADD MSTORE PUSH32 0x616E203000000000000000000000000000000000000000000000000000000000 PUSH1 0x20 DUP3 ADD MSTORE POP JUMP JUMPDEST PUSH0 PUSH2 0x417 PUSH1 0x24 DUP4 PUSH2 0x3AD JUMP JUMPDEST SWAP2 POP PUSH2 0x422 DUP3 PUSH2 0x3BD JUMP JUMPDEST PUSH1 0x40 DUP3 ADD SWAP1 POP SWAP2 SWAP1 POP JUMP JUMPDEST PUSH0 PUSH1 0x20 DUP3 ADD SWAP1 POP DUP2 DUP2 SUB PUSH0 DUP4 ADD MSTORE PUSH2 0x444 DUP2 PUSH2 0x40B JUMP JUMPDEST SWAP1 POP SWAP2 SWAP1 POP JUMP JUMPDEST PUSH0 DUP2 MLOAD SWAP1 POP SWAP2 SWAP1 POP JUMP JUMPDEST PUSH32 0x4E487B7100000000000000000000000000000000000000000000000000000000 PUSH0 MSTORE PUSH1 0x22 PUSH1 0x4 MSTORE PUSH1 0x24 PUSH0 REVERT JUMPDEST PUSH0 PUSH1 0x2 DUP3 DIV SWAP1 POP PUSH1 0x1 DUP3 AND DUP1 PUSH2 0x499 JUMPI PUSH1 0x7F DUP3 AND SWAP2 POP JUMPDEST PUSH1 0x20 DUP3 LT DUP2 SUB PUSH2 0x4AC JUMPI PUSH2 0x4AB PUSH2 0x455 JUMP JUMPDEST JUMPDEST POP SWAP2 SWAP1 POP JUMP JUMPDEST PUSH0 DUP2 SWAP1 POP DUP2 PUSH0 MSTORE PUSH1 0x20 PUSH0 KECCAK256 SWAP1 POP SWAP2 SWAP1 POP JUMP JUMPDEST PUSH0 PUSH1 0x20 PUSH1 0x1F DUP4 ADD DIV SWAP1 POP SWAP2 SWAP1 POP JUMP JUMPDEST PUSH0 DUP3 DUP3 SHL SWAP1 POP SWAP3 SWAP2 POP POP JUMP JUMPDEST PUSH0 PUSH1 0x8 DUP4 MUL PUSH2 0x50E PUSH32 0xFFFFFFFFFFFFFFFFFFFFFFFFFFFFFFFFFFFFFFFFFFFFFFFFFFFFFFFFFFFFFFFF DUP3 PUSH2 0x4D3 JUMP JUMPDEST PUSH2 0x518 DUP7 DUP4 PUSH2 0x4D3 JUMP JUMPDEST SWAP6 POP DUP1 NOT DUP5 AND SWAP4 POP DUP1 DUP7 AND DUP5 OR SWAP3 POP POP POP SWAP4 SWAP3 POP POP POP JUMP JUMPDEST PUSH0 DUP2 SWAP1 POP SWAP2 SWAP1 POP JUMP JUMPDEST PUSH0 PUSH2 0x553 PUSH2 0x54E PUSH2 0x549 DUP5 PUSH2 0x2AF JUMP JUMPDEST PUSH2 0x530 JUMP JUMPDEST PUSH2 0x2AF JUMP JUMPDEST SWAP1 POP SWAP2 SWAP1 POP JUMP JUMPDEST PUSH0 DUP2 SWAP1 POP SWAP2 SWAP1 POP JUMP JUMPDEST PUSH2 0x56C DUP4 PUSH2 0x539 JUMP JUMPDEST PUSH2 0x580 PUSH2 0x578 DUP3 PUSH2 0x55A JUMP JUMPDEST DUP5 DUP5 SLOAD PUSH2 0x4DF JUMP JUMPDEST DUP3 SSTORE POP POP POP POP JUMP JUMPDEST PUSH0 SWAP1 JUMP JUMPDEST PUSH2 0x594 PUSH2 0x588 JUMP JUMPDEST PUSH2 0x59F DUP2 DUP5 DUP5 PUSH2 0x563 JUMP JUMPDEST POP POP POP JUMP JUMPDEST JUMPDEST DUP2 DUP2 LT ISZERO PUSH2 0x5C2 JUMPI PUSH2 0x5B7 PUSH0 DUP3 PUSH2 0x58C JUMP JUMPDEST PUSH1 0x1 DUP2 ADD SWAP1 POP PUSH2 0x5A5 JUMP JUMPDEST POP POP JUMP JUMPDEST PUSH1 0x1F DUP3 GT ISZERO PUSH2 0x607 JUMPI PUSH2 0x5D8 DUP2 PUSH2 0x4B2 JUMP JUMPDEST PUSH2 0x5E1 DUP5 PUSH2 0x4C4 JUMP JUMPDEST DUP2 ADD PUSH1 0x20 DUP6 LT ISZERO PUSH2 0x5F0 JUMPI DUP2 SWAP1 POP JUMPDEST PUSH2 0x604 PUSH2 0x5FC DUP6 PUSH2 0x4C4 JUMP JUMPDEST DUP4 ADD DUP3 PUSH2 0x5A4 JUMP JUMPDEST POP POP JUMPDEST POP POP POP JUMP JUMPDEST PUSH0 DUP3 DUP3 SHR SWAP1 POP SWAP3 SWAP2 POP POP JUMP JUMPDEST PUSH0 PUSH2 0x627 PUSH0 NOT DUP5 PUSH1 0x8 MUL PUSH2 0x60C JUMP JUMPDEST NOT DUP1 DUP4 AND SWAP2 POP POP SWAP3 SWAP2 POP POP JUMP JUMPDEST PUSH0 PUSH2 0x63F DUP4 DUP4 PUSH2 0x618 JUMP JUMPDEST SWAP2 POP DUP3 PUSH1 0x2 MUL DUP3 OR SWAP1 POP SWAP3 SWAP2 POP POP JUMP JUMPDEST PUSH2 0x658 DUP3 PUSH2 0x44B JUMP JUMPDEST PUSH8 0xFFFFFFFFFFFFFFFF DUP2 GT ISZERO PUSH2 0x671 JUMPI PUSH2 0x670 PUSH2 0x18B JUMP JUMPDEST JUMPDEST PUSH2 0x67B DUP3 SLOAD PUSH2 0x482 JUMP JUMPDEST PUSH2 0x686 DUP3 DUP3 DUP6 PUSH2 0x5C6 JUMP JUMPDEST PUSH0 PUSH1 0x20 SWAP1 POP PUSH1 0x1F DUP4 GT PUSH1 0x1 DUP2 EQ PUSH2 0x6B7 JUMPI PUSH0 DUP5 ISZERO PUSH2 0x6A5 JUMPI DUP3 DUP8 ADD MLOAD SWAP1 POP JUMPDEST PUSH2 0x6AF DUP6 DUP3 PUSH2 0x634 JUMP JUMPDEST DUP7 SSTORE POP PUSH2 0x716 JUMP JUMPDEST PUSH1 0x1F NOT DUP5 AND PUSH2 0x6C5 DUP7 PUSH2 0x4B2 JUMP JUMPDEST PUSH0 JUMPDEST DUP3 DUP2 LT ISZERO PUSH2 0x6EC JUMPI DUP5 DUP10 ADD MLOAD DUP3 SSTORE PUSH1 0x1 DUP3 ADD SWAP2 POP PUSH1 0x20 DUP6 ADD SWAP5 POP PUSH1 0x20 DUP2 ADD SWAP1 POP PUSH2 0x6C7 JUMP JUMPDEST DUP7 DUP4 LT ISZERO PUSH2 0x709 JUMPI DUP5 DUP10 ADD MLOAD PUSH2 0x705 PUSH1 0x1F DUP10 AND DUP3 PUSH2 0x618 JUMP JUMPDEST DUP4 SSTORE POP JUMPDEST PUSH1 0x1 PUSH1 0x2 DUP9 MUL ADD DUP9 SSTORE POP POP POP JUMPDEST POP POP POP POP POP POP JUMP JUMPDEST PUSH2 0x263D DUP1 PUSH2 0x72B PUSH0 CODECOPY PUSH0 RETURN INVALID PUSH1 0x80 PUSH1 0x40 MSTORE CALLVALUE DUP1 ISZERO PUSH2 0xF JUMPI PUSH0 DUP1 REVERT JUMPDEST POP PUSH1 0x4 CALLDATASIZE LT PUSH2 0xB2 JUMPI PUSH0 CALLDATALOAD PUSH1 0xE0 SHR DUP1 PUSH4 0x8C14ACD5 GT PUSH2 0x6F JUMPI DUP1 PUSH4 0x8C14ACD5 EQ PUSH2 0x1A1 JUMPI DUP1 PUSH4 0xB88A802F EQ PUSH2 0x1C5 JUMPI DUP1 PUSH4 0xC0EE5B4F EQ PUSH2 0x1CF JUMPI DUP1 PUSH4 0xD39EAF48 EQ PUSH2 0x1EB JUMPI DUP1 PUSH4 0xD6B311D4 EQ PUSH2 0x207 JUMPI DUP1 PUSH4 0xDCF63591 EQ PUSH2 0x237 JUMPI PUSH2 0xB2 JUMP JUMPDEST DUP1 PUSH4 0x2C6D6609 EQ PUSH2 0xB6 JUMPI DUP1 PUSH4 0x35C1D349 EQ PUSH2 0xE8 JUMPI DUP1 PUSH4 0x3CCFD60B EQ PUSH2 0x118 JUMPI DUP1 PUSH4 0x5B67BDB4 EQ PUSH2 0x122 JUMPI DUP1 PUSH4 0x5ECD45B9 EQ PUSH2 0x152 JUMPI DUP1 PUSH4 0x88409AFA EQ PUSH2 0x170 JUMPI JUMPDEST PUSH0 DUP1 REVERT JUMPDEST PUSH2 0xD0 PUSH1 0x4 DUP1 CALLDATASIZE SUB DUP2 ADD SWAP1 PUSH2 0xCB SWAP2 SWAP1 PUSH2 0x14C0 JUMP JUMPDEST PUSH2 0x25B JUMP JUMPDEST PUSH1 0x40 MLOAD PUSH2 0xDF SWAP4 SWAP3 SWAP2 SWAP1 PUSH2 0x166D JUMP JUMPDEST PUSH1 0x40 MLOAD DUP1 SWAP2 SUB SWAP1 RETURN JUMPDEST PUSH2 0x102 PUSH1 0x4 DUP1 CALLDATASIZE SUB DUP2 ADD SWAP1 PUSH2 0xFD SWAP2 SWAP1 PUSH2 0x14C0 JUMP JUMPDEST PUSH2 0x466 JUMP JUMPDEST PUSH1 0x40 MLOAD PUSH2 0x10F SWAP2 SWAP1 PUSH2 0x16EF JUMP JUMPDEST PUSH1 0x40 MLOAD DUP1 SWAP2 SUB SWAP1 RETURN JUMPDEST PUSH2 0x120 PUSH2 0x4A1 JUMP JUMPDEST STOP JUMPDEST PUSH2 0x13C PUSH1 0x4 DUP1 CALLDATASIZE SUB DUP2 ADD SWAP1 PUSH2 0x137 SWAP2 SWAP1 PUSH2 0x1732 JUMP JUMPDEST PUSH2 0x5E1 JUMP JUMPDEST PUSH1 0x40 MLOAD PUSH2 0x149 SWAP2 SWAP1 PUSH2 0x1777 JUMP JUMPDEST PUSH1 0x40 MLOAD DUP1 SWAP2 SUB SWAP1 RETURN JUMPDEST PUSH2 0x15A PUSH2 0x5FE JUMP JUMPDEST PUSH1 0x40 MLOAD PUSH2 0x167 SWAP2 SWAP1 PUSH2 0x192B JUMP JUMPDEST PUSH1 0x40 MLOAD DUP1 SWAP2 SUB SWAP1 RETURN JUMPDEST PUSH2 0x18A PUSH1 0x4 DUP1 CALLDATASIZE SUB DUP2 ADD SWAP1 PUSH2 0x185 SWAP2 SWAP1 PUSH2 0x14C0 JUMP JUMPDEST PUSH2 0x7C9 JUMP JUMPDEST PUSH1 0x40 MLOAD PUSH2 0x198 SWAP3 SWAP2 SWAP1 PUSH2 0x194B JUMP JUMPDEST PUSH1 0x40 MLOAD DUP1 SWAP2 SUB SWAP1 RETURN JUMPDEST PUSH2 0x1A9 PUSH2 0x88A JUMP JUMPDEST PUSH1 0x40 MLOAD PUSH2 0x1BC SWAP8 SWAP7 SWAP6 SWAP5 SWAP4 SWAP3 SWAP2 SWAP1 PUSH2 0x1988 JUMP JUMPDEST PUSH1 0x40 MLOAD DUP1 SWAP2 SUB SWAP1 RETURN JUMPDEST PUSH2 0x1CD PUSH2 0xA86 JUMP JUMPDEST STOP JUMPDEST PUSH2 0x1E9 PUSH1 0x4 DUP1 CALLDATASIZE SUB DUP2 ADD SWAP1 PUSH2 0x1E4 SWAP2 SWAP1 PUSH2 0x1C30 JUMP JUMPDEST PUSH2 0xD1B JUMP JUMPDEST STOP JUMPDEST PUSH2 0x205 PUSH1 0x4 DUP1 CALLDATASIZE SUB DUP2 ADD SWAP1 PUSH2 0x200 SWAP2 SWAP1 PUSH2 0x1D78 JUMP JUMPDEST PUSH2 0xEF3 JUMP JUMPDEST STOP JUMPDEST PUSH2 0x221 PUSH1 0x4 DUP1 CALLDATASIZE SUB DUP2 ADD SWAP1 PUSH2 0x21C SWAP2 SWAP1 PUSH2 0x1732 JUMP JUMPDEST PUSH2 0x119A JUMP JUMPDEST PUSH1 0x40 MLOAD PUSH2 0x22E SWAP2 SWAP1 PUSH2 0x1DBF JUMP JUMPDEST PUSH1 0x40 MLOAD DUP1 SWAP2 SUB SWAP1 RETURN JUMPDEST PUSH2 0x23F PUSH2 0x11AF JUMP JUMPDEST PUSH1 0x40 MLOAD PUSH2 0x252 SWAP8 SWAP7 SWAP6 SWAP5 SWAP4 SWAP3 SWAP2 SWAP1 PUSH2 0x1988 JUMP JUMPDEST PUSH1 0x40 MLOAD DUP1 SWAP2 SUB SWAP1 RETURN JUMPDEST PUSH1 0x60 PUSH2 0x265 PUSH2 0x138E JUMP JUMPDEST PUSH0 PUSH1 0x7 DUP1 SLOAD SWAP1 POP DUP5 LT PUSH2 0x2AD JUMPI PUSH1 0x40 MLOAD PUSH32 0x8C379A000000000000000000000000000000000000000000000000000000000 DUP2 MSTORE PUSH1 0x4 ADD PUSH2 0x2A4 SWAP1 PUSH2 0x1E22 JUMP JUMPDEST PUSH1 0x40 MLOAD DUP1 SWAP2 SUB SWAP1 REVERT JUMPDEST PUSH0 PUSH1 0x7 DUP6 DUP2 SLOAD DUP2 LT PUSH2 0x2C2 JUMPI PUSH2 0x2C1 PUSH2 0x1E40 JUMP JUMPDEST JUMPDEST SWAP1 PUSH0 MSTORE PUSH1 0x20 PUSH0 KECCAK256 SWAP1 PUSH1 0x6 MUL ADD PUSH1 0x40 MLOAD DUP1 PUSH1 0x60 ADD PUSH1 0x40 MSTORE SWAP1 DUP2 PUSH0 DUP3 ADD DUP1 SLOAD PUSH2 0x2E8 SWAP1 PUSH2 0x1E9A JUMP JUMPDEST DUP1 PUSH1 0x1F ADD PUSH1 0x20 DUP1 SWAP2 DIV MUL PUSH1 0x20 ADD PUSH1 0x40 MLOAD SWAP1 DUP2 ADD PUSH1 0x40 MSTORE DUP1 SWAP3 SWAP2 SWAP1 DUP2 DUP2 MSTORE PUSH1 0x20 ADD DUP3 DUP1 SLOAD PUSH2 0x314 SWAP1 PUSH2 0x1E9A JUMP JUMPDEST DUP1 ISZERO PUSH2 0x35F JUMPI DUP1 PUSH1 0x1F LT PUSH2 0x336 JUMPI PUSH2 0x100 DUP1 DUP4 SLOAD DIV MUL DUP4 MSTORE SWAP2 PUSH1 0x20 ADD SWAP2 PUSH2 0x35F JUMP JUMPDEST DUP3 ADD SWAP2 SWAP1 PUSH0 MSTORE PUSH1 0x20 PUSH0 KECCAK256 SWAP1 JUMPDEST DUP2 SLOAD DUP2 MSTORE SWAP1 PUSH1 0x1 ADD SWAP1 PUSH1 0x20 ADD DUP1 DUP4 GT PUSH2 0x342 JUMPI DUP3 SWAP1 SUB PUSH1 0x1F AND DUP3 ADD SWAP2 JUMPDEST POP POP POP POP POP DUP2 MSTORE PUSH1 0x20 ADD PUSH1 0x1 DUP3 ADD PUSH1 0x4 DUP1 PUSH1 0x20 MUL PUSH1 0x40 MLOAD SWAP1 DUP2 ADD PUSH1 0x40 MSTORE DUP1 SWAP3 SWAP2 SWAP1 PUSH0 SWAP1 JUMPDEST DUP3 DUP3 LT ISZERO PUSH2 0x424 JUMPI DUP4 DUP3 ADD DUP1 SLOAD PUSH2 0x399 SWAP1 PUSH2 0x1E9A JUMP JUMPDEST DUP1 PUSH1 0x1F ADD PUSH1 0x20 DUP1 SWAP2 DIV MUL PUSH1 0x20 ADD PUSH1 0x40 MLOAD SWAP1 DUP2 ADD PUSH1 0x40 MSTORE DUP1 SWAP3 SWAP2 SWAP1 DUP2 DUP2 MSTORE PUSH1 0x20 ADD DUP3 DUP1 SLOAD PUSH2 0x3C5 SWAP1 PUSH2 0x1E9A JUMP JUMPDEST DUP1 ISZERO PUSH2 0x410 JUMPI DUP1 PUSH1 0x1F LT PUSH2 0x3E7 JUMPI PUSH2 0x100 DUP1 DUP4 SLOAD DIV MUL DUP4 MSTORE SWAP2 PUSH1 0x20 ADD SWAP2 PUSH2 0x410 JUMP JUMPDEST DUP3 ADD SWAP2 SWAP1 PUSH0 MSTORE PUSH1 0x20 PUSH0 KECCAK256 SWAP1 JUMPDEST DUP2 SLOAD DUP2 MSTORE SWAP1 PUSH1 0x1 ADD SWAP1 PUSH1 0x20 ADD DUP1 DUP4 GT PUSH2 0x3F3 JUMPI DUP3 SWAP1 SUB PUSH1 0x1F AND DUP3 ADD SWAP2 JUMPDEST POP POP POP POP POP DUP2 MSTORE PUSH1 0x20 ADD SWAP1 PUSH1 0x1 ADD SWAP1 PUSH2 0x383 JUMP JUMPDEST POP POP POP POP DUP2 MSTORE PUSH1 0x20 ADD PUSH1 0x5 DUP3 ADD PUSH0 SWAP1 SLOAD SWAP1 PUSH2 0x100 EXP SWAP1 DIV PUSH1 0xFF AND PUSH1 0xFF AND PUSH1 0xFF AND DUP2 MSTORE POP POP SWAP1 POP DUP1 PUSH0 ADD MLOAD DUP2 PUSH1 0x20 ADD MLOAD DUP3 PUSH1 0x40 ADD MLOAD SWAP4 POP SWAP4 POP SWAP4 POP POP SWAP2 SWAP4 SWAP1 SWAP3 POP JUMP JUMPDEST PUSH1 0xA DUP2 DUP2 SLOAD DUP2 LT PUSH2 0x475 JUMPI PUSH0 DUP1 REVERT JUMPDEST SWAP1 PUSH0 MSTORE PUSH1 0x20 PUSH0 KECCAK256 ADD PUSH0 SWAP2 POP SLOAD SWAP1 PUSH2 0x100 EXP SWAP1 DIV PUSH20 0xFFFFFFFFFFFFFFFFFFFFFFFFFFFFFFFFFFFFFFFF AND DUP2 JUMP JUMPDEST PUSH0 PUSH1 0x1 ADD PUSH0 SWAP1 SLOAD SWAP1 PUSH2 0x100 EXP SWAP1 DIV PUSH20 0xFFFFFFFFFFFFFFFFFFFFFFFFFFFFFFFFFFFFFFFF AND PUSH20 0xFFFFFFFFFFFFFFFFFFFFFFFFFFFFFFFFFFFFFFFF AND CALLER PUSH20 0xFFFFFFFFFFFFFFFFFFFFFFFFFFFFFFFFFFFFFFFF AND EQ PUSH2 0x532 JUMPI PUSH1 0x40 MLOAD PUSH32 0x8C379A000000000000000000000000000000000000000000000000000000000 DUP2 MSTORE PUSH1 0x4 ADD PUSH2 0x529 SWAP1 PUSH2 0x1F3A JUMP JUMPDEST PUSH1 0x40 MLOAD DUP1 SWAP2 SUB SWAP1 REVERT JUMPDEST PUSH0 PUSH1 0x3 ADD SLOAD TIMESTAMP GT PUSH2 0x578 JUMPI PUSH1 0x40 MLOAD PUSH32 0x8C379A000000000000000000000000000000000000000000000000000000000 DUP2 MSTORE PUSH1 0x4 ADD PUSH2 0x56F SWAP1 PUSH2 0x1FA2 JUMP JUMPDEST PUSH1 0x40 MLOAD DUP1 SWAP2 SUB SWAP1 REVERT JUMPDEST PUSH0 PUSH1 0x1 ADD PUSH0 SWAP1 SLOAD SWAP1 PUSH2 0x100 EXP SWAP1 DIV PUSH20 0xFFFFFFFFFFFFFFFFFFFFFFFFFFFFFFFFFFFFFFFF AND PUSH20 0xFFFFFFFFFFFFFFFFFFFFFFFFFFFFFFFFFFFFFFFF AND PUSH2 0x8FC SELFBALANCE SWAP1 DUP2 ISZERO MUL SWAP1 PUSH1 0x40 MLOAD PUSH0 PUSH1 0x40 MLOAD DUP1 DUP4 SUB DUP2 DUP6 DUP9 DUP9 CALL SWAP4 POP POP POP POP ISZERO DUP1 ISZERO PUSH2 0x5DE JUMPI RETURNDATASIZE PUSH0 DUP1 RETURNDATACOPY RETURNDATASIZE PUSH0 REVERT JUMPDEST POP JUMP JUMPDEST PUSH1 0x8 PUSH1 0x20 MSTORE DUP1 PUSH0 MSTORE PUSH1 0x40 PUSH0 KECCAK256 PUSH0 SWAP2 POP SLOAD SWAP1 PUSH2 0x100 EXP SWAP1 DIV PUSH1 0xFF AND DUP2 JUMP JUMPDEST PUSH1 0x60 PUSH1 0x7 DUP1 SLOAD DUP1 PUSH1 0x20 MUL PUSH1 0x20 ADD PUSH1 0x40 MLOAD SWAP1 DUP2 ADD PUSH1 0x40 MSTORE DUP1 SWAP3 SWAP2 SWAP1 DUP2 DUP2 MSTORE PUSH1 0x20 ADD PUSH0 SWAP1 JUMPDEST DUP3 DUP3 LT ISZERO PUSH2 0x7C0 JUMPI DUP4 DUP3 SWAP1 PUSH0 MSTORE PUSH1 0x20 PUSH0 KECCAK256 SWAP1 PUSH1 0x6 MUL ADD PUSH1 0x40 MLOAD DUP1 PUSH1 0x60 ADD PUSH1 0x40 MSTORE SWAP1 DUP2 PUSH0 DUP3 ADD DUP1 SLOAD PUSH2 0x651 SWAP1 PUSH2 0x1E9A JUMP JUMPDEST DUP1 PUSH1 0x1F ADD PUSH1 0x20 DUP1 SWAP2 DIV MUL PUSH1 0x20 ADD PUSH1 0x40 MLOAD SWAP1 DUP2 ADD PUSH1 0x40 MSTORE DUP1 SWAP3 SWAP2 SWAP1 DUP2 DUP2 MSTORE PUSH1 0x20 ADD DUP3 DUP1 SLOAD PUSH2 0x67D SWAP1 PUSH2 0x1E9A JUMP JUMPDEST DUP1 ISZERO PUSH2 0x6C8 JUMPI DUP1 PUSH1 0x1F LT PUSH2 0x69F JUMPI PUSH2 0x100 DUP1 DUP4 SLOAD DIV MUL DUP4 MSTORE SWAP2 PUSH1 0x20 ADD SWAP2 PUSH2 0x6C8 JUMP JUMPDEST DUP3 ADD SWAP2 SWAP1 PUSH0 MSTORE PUSH1 0x20 PUSH0 KECCAK256 SWAP1 JUMPDEST DUP2 SLOAD DUP2 MSTORE SWAP1 PUSH1 0x1 ADD SWAP1 PUSH1 0x20 ADD DUP1 DUP4 GT PUSH2 0x6AB JUMPI DUP3 SWAP1 SUB PUSH1 0x1F AND DUP3 ADD SWAP2 JUMPDEST POP POP POP POP POP DUP2 MSTORE PUSH1 0x20 ADD PUSH1 0x1 DUP3 ADD PUSH1 0x4 DUP1 PUSH1 0x20 MUL PUSH1 0x40 MLOAD SWAP1 DUP2 ADD PUSH1 0x40 MSTORE DUP1 SWAP3 SWAP2 SWAP1 PUSH0 SWAP1 JUMPDEST DUP3 DUP3 LT ISZERO PUSH2 0x78D JUMPI DUP4 DUP3 ADD DUP1 SLOAD PUSH2 0x702 SWAP1 PUSH2 0x1E9A JUMP JUMPDEST DUP1 PUSH1 0x1F ADD PUSH1 0x20 DUP1 SWAP2 DIV MUL PUSH1 0x20 ADD PUSH1 0x40 MLOAD SWAP1 DUP2 ADD PUSH1 0x40 MSTORE DUP1 SWAP3 SWAP2 SWAP1 DUP2 DUP2 MSTORE PUSH1 0x20 ADD DUP3 DUP1 SLOAD PUSH2 0x72E SWAP1 PUSH2 0x1E9A JUMP JUMPDEST DUP1 ISZERO PUSH2 0x779 JUMPI DUP1 PUSH1 0x1F LT PUSH2 0x750 JUMPI PUSH2 0x100 DUP1 DUP4 SLOAD DIV MUL DUP4 MSTORE SWAP2 PUSH1 0x20 ADD SWAP2 PUSH2 0x779 JUMP JUMPDEST DUP3 ADD SWAP2 SWAP1 PUSH0 MSTORE PUSH1 0x20 PUSH0 KECCAK256 SWAP1 JUMPDEST DUP2 SLOAD DUP2 MSTORE SWAP1 PUSH1 0x1 ADD SWAP1 PUSH1 0x20 ADD DUP1 DUP4 GT PUSH2 0x75C JUMPI DUP3 SWAP1 SUB PUSH1 0x1F AND DUP3 ADD SWAP2 JUMPDEST POP POP POP POP POP DUP2 MSTORE PUSH1 0x20 ADD SWAP1 PUSH1 0x1 ADD SWAP1 PUSH2 0x6EC JUMP JUMPDEST POP POP POP POP DUP2 MSTORE PUSH1 0x20 ADD PUSH1 0x5 DUP3 ADD PUSH0 SWAP1 SLOAD SWAP1 PUSH2 0x100 EXP SWAP1 DIV PUSH1 0xFF AND PUSH1 0xFF AND PUSH1 0xFF AND DUP2 MSTORE POP POP DUP2 MSTORE PUSH1 0x20 ADD SWAP1 PUSH1 0x1 ADD SWAP1 PUSH2 0x621 JUMP JUMPDEST POP POP POP POP SWAP1 POP SWAP1 JUMP JUMPDEST PUSH1 0x7 DUP2 DUP2 SLOAD DUP2 LT PUSH2 0x7D8 JUMPI PUSH0 DUP1 REVERT JUMPDEST SWAP1 PUSH0 MSTORE PUSH1 0x20 PUSH0 KECCAK256 SWAP1 PUSH1 0x6 MUL ADD PUSH0 SWAP2 POP SWAP1 POP DUP1 PUSH0 ADD DUP1 SLOAD PUSH2 0x7F7 SWAP1 PUSH2 0x1E9A JUMP JUMPDEST DUP1 PUSH1 0x1F ADD PUSH1 0x20 DUP1 SWAP2 DIV MUL PUSH1 0x20 ADD PUSH1 0x40 MLOAD SWAP1 DUP2 ADD PUSH1 0x40 MSTORE DUP1 SWAP3 SWAP2 SWAP1 DUP2 DUP2 MSTORE PUSH1 0x20 ADD DUP3 DUP1 SLOAD PUSH2 0x823 SWAP1 PUSH2 0x1E9A JUMP JUMPDEST DUP1 ISZERO PUSH2 0x86E JUMPI DUP1 PUSH1 0x1F LT PUSH2 0x845 JUMPI PUSH2 0x100 DUP1 DUP4 SLOAD DIV MUL DUP4 MSTORE SWAP2 PUSH1 0x20 ADD SWAP2 PUSH2 0x86E JUMP JUMPDEST DUP3 ADD SWAP2 SWAP1 PUSH0 MSTORE PUSH1 0x20 PUSH0 KECCAK256 SWAP1 JUMPDEST DUP2 SLOAD DUP2 MSTORE SWAP1 PUSH1 0x1 ADD SWAP1 PUSH1 0x20 ADD DUP1 DUP4 GT PUSH2 0x851 JUMPI DUP3 SWAP1 SUB PUSH1 0x1F AND DUP3 ADD SWAP2 JUMPDEST POP POP POP POP POP SWAP1 DUP1 PUSH1 0x5 ADD PUSH0 SWAP1 SLOAD SWAP1 PUSH2 0x100 EXP SWAP1 DIV PUSH1 0xFF AND SWAP1 POP DUP3 JUMP JUMPDEST PUSH1 0x60 PUSH0 DUP1 PUSH0 PUSH1 0x60 DUP1 PUSH0 DUP1 PUSH0 ADD PUSH0 PUSH1 0x1 ADD PUSH0 SWAP1 SLOAD SWAP1 PUSH2 0x100 EXP SWAP1 DIV PUSH20 0xFFFFFFFFFFFFFFFFFFFFFFFFFFFFFFFFFFFFFFFF AND PUSH0 PUSH1 0x2 ADD SLOAD PUSH0 PUSH1 0x3 ADD SLOAD PUSH0 PUSH1 0x4 ADD PUSH0 PUSH1 0x5 ADD PUSH0 PUSH1 0x6 ADD SLOAD DUP7 DUP1 SLOAD PUSH2 0x8DD SWAP1 PUSH2 0x1E9A JUMP JUMPDEST DUP1 PUSH1 0x1F ADD PUSH1 0x20 DUP1 SWAP2 DIV MUL PUSH1 0x20 ADD PUSH1 0x40 MLOAD SWAP1 DUP2 ADD PUSH1 0x40 MSTORE DUP1 SWAP3 SWAP2 SWAP1 DUP2 DUP2 MSTORE PUSH1 0x20 ADD DUP3 DUP1 SLOAD PUSH2 0x909 SWAP1 PUSH2 0x1E9A JUMP JUMPDEST DUP1 ISZERO PUSH2 0x954 JUMPI DUP1 PUSH1 0x1F LT PUSH2 0x92B JUMPI PUSH2 0x100 DUP1 DUP4 SLOAD DIV MUL DUP4 MSTORE SWAP2 PUSH1 0x20 ADD SWAP2 PUSH2 0x954 JUMP JUMPDEST DUP3 ADD SWAP2 SWAP1 PUSH0 MSTORE PUSH1 0x20 PUSH0 KECCAK256 SWAP1 JUMPDEST DUP2 SLOAD DUP2 MSTORE SWAP1 PUSH1 0x1 ADD SWAP1 PUSH1 0x20 ADD DUP1 DUP4 GT PUSH2 0x937 JUMPI DUP3 SWAP1 SUB PUSH1 0x1F AND DUP3 ADD SWAP2 JUMPDEST POP POP POP POP POP SWAP7 POP DUP3 DUP1 SLOAD PUSH2 0x967 SWAP1 PUSH2 0x1E9A JUMP JUMPDEST DUP1 PUSH1 0x1F ADD PUSH1 0x20 DUP1 SWAP2 DIV MUL PUSH1 0x20 ADD PUSH1 0x40 MLOAD SWAP1 DUP2 ADD PUSH1 0x40 MSTORE DUP1 SWAP3 SWAP2 SWAP1 DUP2 DUP2 MSTORE PUSH1 0x20 ADD DUP3 DUP1 SLOAD PUSH2 0x993 SWAP1 PUSH2 0x1E9A JUMP JUMPDEST DUP1 ISZERO PUSH2 0x9DE JUMPI DUP1 PUSH1 0x1F LT PUSH2 0x9B5 JUMPI PUSH2 0x100 DUP1 DUP4 SLOAD DIV MUL DUP4 MSTORE SWAP2 PUSH1 0x20 ADD SWAP2 PUSH2 0x9DE JUMP JUMPDEST DUP3 ADD SWAP2 SWAP1 PUSH0 MSTORE PUSH1 0x20 PUSH0 KECCAK256 SWAP1 JUMPDEST DUP2 SLOAD DUP2 MSTORE SWAP1 PUSH1 0x1 ADD SWAP1 PUSH1 0x20 ADD DUP1 DUP4 GT PUSH2 0x9C1 JUMPI DUP3 SWAP1 SUB PUSH1 0x1F AND DUP3 ADD SWAP2 JUMPDEST POP POP POP POP POP SWAP3 POP DUP2 DUP1 SLOAD PUSH2 0x9F1 SWAP1 PUSH2 0x1E9A JUMP JUMPDEST DUP1 PUSH1 0x1F ADD PUSH1 0x20 DUP1 SWAP2 DIV MUL PUSH1 0x20 ADD PUSH1 0x40 MLOAD SWAP1 DUP2 ADD PUSH1 0x40 MSTORE DUP1 SWAP3 SWAP2 SWAP1 DUP2 DUP2 MSTORE PUSH1 0x20 ADD DUP3 DUP1 SLOAD PUSH2 0xA1D SWAP1 PUSH2 0x1E9A JUMP JUMPDEST DUP1 ISZERO PUSH2 0xA68 JUMPI DUP1 PUSH1 0x1F LT PUSH2 0xA3F JUMPI PUSH2 0x100 DUP1 DUP4 SLOAD DIV MUL DUP4 MSTORE SWAP2 PUSH1 0x20 ADD SWAP2 PUSH2 0xA68 JUMP JUMPDEST DUP3 ADD SWAP2 SWAP1 PUSH0 MSTORE PUSH1 0x20 PUSH0 KECCAK256 SWAP1 JUMPDEST DUP2 SLOAD DUP2 MSTORE SWAP1 PUSH1 0x1 ADD SWAP1 PUSH1 0x20 ADD DUP1 DUP4 GT PUSH2 0xA4B JUMPI DUP3 SWAP1 SUB PUSH1 0x1F AND DUP3 ADD SWAP2 JUMPDEST POP POP POP POP POP SWAP2 POP SWAP7 POP SWAP7 POP SWAP7 POP SWAP7 POP SWAP7 POP SWAP7 POP SWAP7 POP SWAP1 SWAP2 SWAP3 SWAP4 SWAP5 SWAP6 SWAP7 JUMP JUMPDEST PUSH0 PUSH1 0x3 ADD SLOAD TIMESTAMP GT PUSH2 0xACC JUMPI PUSH1 0x40 MLOAD PUSH32 0x8C379A000000000000000000000000000000000000000000000000000000000 DUP2 MSTORE PUSH1 0x4 ADD PUSH2 0xAC3 SWAP1 PUSH2 0x1FA2 JUMP JUMPDEST PUSH1 0x40 MLOAD DUP1 SWAP2 SUB SWAP1 REVERT JUMPDEST PUSH1 0x8 PUSH0 CALLER PUSH20 0xFFFFFFFFFFFFFFFFFFFFFFFFFFFFFFFFFFFFFFFF AND PUSH20 0xFFFFFFFFFFFFFFFFFFFFFFFFFFFFFFFFFFFFFFFF AND DUP2 MSTORE PUSH1 0x20 ADD SWAP1 DUP2 MSTORE PUSH1 0x20 ADD PUSH0 KECCAK256 PUSH0 SWAP1 SLOAD SWAP1 PUSH2 0x100 EXP SWAP1 DIV PUSH1 0xFF AND PUSH2 0xB55 JUMPI PUSH1 0x40 MLOAD PUSH32 0x8C379A000000000000000000000000000000000000000000000000000000000 DUP2 MSTORE PUSH1 0x4 ADD PUSH2 0xB4C SWAP1 PUSH2 0x200A JUMP JUMPDEST PUSH1 0x40 MLOAD DUP1 SWAP2 SUB SWAP1 REVERT JUMPDEST PUSH0 PUSH1 0x9 PUSH0 CALLER PUSH20 0xFFFFFFFFFFFFFFFFFFFFFFFFFFFFFFFFFFFFFFFF AND PUSH20 0xFFFFFFFFFFFFFFFFFFFFFFFFFFFFFFFFFFFFFFFF AND DUP2 MSTORE PUSH1 0x20 ADD SWAP1 DUP2 MSTORE PUSH1 0x20 ADD PUSH0 KECCAK256 SLOAD GT PUSH2 0xBD4 JUMPI PUSH1 0x40 MLOAD PUSH32 0x8C379A000000000000000000000000000000000000000000000000000000000 DUP2 MSTORE PUSH1 0x4 ADD PUSH2 0xBCB SWAP1 PUSH2 0x2072 JUMP JUMPDEST PUSH1 0x40 MLOAD DUP1 SWAP2 SUB SWAP1 REVERT JUMPDEST PUSH0 DUP1 JUMPDEST PUSH1 0xA DUP1 SLOAD SWAP1 POP DUP2 LT ISZERO PUSH2 0xC77 JUMPI PUSH1 0x9 PUSH0 PUSH1 0xA DUP4 DUP2 SLOAD DUP2 LT PUSH2 0xBFB JUMPI PUSH2 0xBFA PUSH2 0x1E40 JUMP JUMPDEST JUMPDEST SWAP1 PUSH0 MSTORE PUSH1 0x20 PUSH0 KECCAK256 ADD PUSH0 SWAP1 SLOAD SWAP1 PUSH2 0x100 EXP SWAP1 DIV PUSH20 0xFFFFFFFFFFFFFFFFFFFFFFFFFFFFFFFFFFFFFFFF AND PUSH20 0xFFFFFFFFFFFFFFFFFFFFFFFFFFFFFFFFFFFFFFFF AND PUSH20 0xFFFFFFFFFFFFFFFFFFFFFFFFFFFFFFFFFFFFFFFF AND DUP2 MSTORE PUSH1 0x20 ADD SWAP1 DUP2 MSTORE PUSH1 0x20 ADD PUSH0 KECCAK256 SLOAD DUP3 PUSH2 0xC68 SWAP2 SWAP1 PUSH2 0x20BD JUMP JUMPDEST SWAP2 POP DUP1 DUP1 PUSH1 0x1 ADD SWAP2 POP POP PUSH2 0xBD7 JUMP JUMPDEST POP PUSH0 DUP2 PUSH1 0x9 PUSH0 CALLER PUSH20 0xFFFFFFFFFFFFFFFFFFFFFFFFFFFFFFFFFFFFFFFF AND PUSH20 0xFFFFFFFFFFFFFFFFFFFFFFFFFFFFFFFFFFFFFFFF AND DUP2 MSTORE PUSH1 0x20 ADD SWAP1 DUP2 MSTORE PUSH1 0x20 ADD PUSH0 KECCAK256 SLOAD PUSH0 PUSH1 0x6 ADD SLOAD PUSH2 0xCC7 SWAP2 SWAP1 PUSH2 0x20F0 JUMP JUMPDEST PUSH2 0xCD1 SWAP2 SWAP1 PUSH2 0x215E JUMP JUMPDEST SWAP1 POP CALLER PUSH20 0xFFFFFFFFFFFFFFFFFFFFFFFFFFFFFFFFFFFFFFFF AND PUSH2 0x8FC DUP3 SWAP1 DUP2 ISZERO MUL SWAP1 PUSH1 0x40 MLOAD PUSH0 PUSH1 0x40 MLOAD DUP1 DUP4 SUB DUP2 DUP6 DUP9 DUP9 CALL SWAP4 POP POP POP POP ISZERO DUP1 ISZERO PUSH2 0xD16 JUMPI RETURNDATASIZE PUSH0 DUP1 RETURNDATACOPY RETURNDATASIZE PUSH0 REVERT JUMPDEST POP POP POP JUMP JUMPDEST PUSH0 PUSH1 0x1 ADD PUSH0 SWAP1 SLOAD SWAP1 PUSH2 0x100 EXP SWAP1 DIV PUSH20 0xFFFFFFFFFFFFFFFFFFFFFFFFFFFFFFFFFFFFFFFF AND PUSH20 0xFFFFFFFFFFFFFFFFFFFFFFFFFFFFFFFFFFFFFFFF AND CALLER PUSH20 0xFFFFFFFFFFFFFFFFFFFFFFFFFFFFFFFFFFFFFFFF AND EQ PUSH2 0xDAC JUMPI PUSH1 0x40 MLOAD PUSH32 0x8C379A000000000000000000000000000000000000000000000000000000000 DUP2 MSTORE PUSH1 0x4 ADD PUSH2 0xDA3 SWAP1 PUSH2 0x1F3A JUMP JUMPDEST PUSH1 0x40 MLOAD DUP1 SWAP2 SUB SWAP1 REVERT JUMPDEST PUSH0 PUSH1 0x2 ADD SLOAD TIMESTAMP LT ISZERO DUP1 ISZERO PUSH2 0xDC4 JUMPI POP PUSH0 PUSH1 0x3 ADD SLOAD TIMESTAMP GT ISZERO JUMPDEST PUSH2 0xE03 JUMPI PUSH1 0x40 MLOAD PUSH32 0x8C379A000000000000000000000000000000000000000000000000000000000 DUP2 MSTORE PUSH1 0x4 ADD PUSH2 0xDFA SWAP1 PUSH2 0x21D8 JUMP JUMPDEST PUSH1 0x40 MLOAD DUP1 SWAP2 SUB SWAP1 REVERT JUMPDEST PUSH1 0x1 DUP2 PUSH1 0xFF AND LT ISZERO DUP1 ISZERO PUSH2 0xE1B JUMPI POP PUSH1 0x4 DUP2 PUSH1 0xFF AND GT ISZERO JUMPDEST PUSH2 0xE5A JUMPI PUSH1 0x40 MLOAD PUSH32 0x8C379A000000000000000000000000000000000000000000000000000000000 DUP2 MSTORE PUSH1 0x4 ADD PUSH2 0xE51 SWAP1 PUSH2 0x2266 JUMP JUMPDEST PUSH1 0x40 MLOAD DUP1 SWAP2 SUB SWAP1 REVERT JUMPDEST PUSH1 0x7 PUSH1 0x40 MLOAD DUP1 PUSH1 0x60 ADD PUSH1 0x40 MSTORE DUP1 DUP6 DUP2 MSTORE PUSH1 0x20 ADD DUP5 DUP2 MSTORE PUSH1 0x20 ADD DUP4 PUSH1 0xFF AND DUP2 MSTORE POP SWAP1 DUP1 PUSH1 0x1 DUP2 SLOAD ADD DUP1 DUP3 SSTORE DUP1 SWAP2 POP POP PUSH1 0x1 SWAP1 SUB SWAP1 PUSH0 MSTORE PUSH1 0x20 PUSH0 KECCAK256 SWAP1 PUSH1 0x6 MUL ADD PUSH0 SWAP1 SWAP2 SWAP1 SWAP2 SWAP1 SWAP2 POP PUSH0 DUP3 ADD MLOAD DUP2 PUSH0 ADD SWAP1 DUP2 PUSH2 0xEB3 SWAP2 SWAP1 PUSH2 0x2421 JUMP JUMPDEST POP PUSH1 0x20 DUP3 ADD MLOAD DUP2 PUSH1 0x1 ADD SWAP1 PUSH1 0x4 PUSH2 0xECB SWAP3 SWAP2 SWAP1 PUSH2 0x13B5 JUMP JUMPDEST POP PUSH1 0x40 DUP3 ADD MLOAD DUP2 PUSH1 0x5 ADD PUSH0 PUSH2 0x100 EXP DUP2 SLOAD DUP2 PUSH1 0xFF MUL NOT AND SWAP1 DUP4 PUSH1 0xFF AND MUL OR SWAP1 SSTORE POP POP POP POP POP POP JUMP JUMPDEST PUSH0 PUSH1 0x2 ADD SLOAD TIMESTAMP LT ISZERO DUP1 ISZERO PUSH2 0xF0B JUMPI POP PUSH0 PUSH1 0x3 ADD SLOAD TIMESTAMP GT ISZERO JUMPDEST PUSH2 0xF4A JUMPI PUSH1 0x40 MLOAD PUSH32 0x8C379A000000000000000000000000000000000000000000000000000000000 DUP2 MSTORE PUSH1 0x4 ADD PUSH2 0xF41 SWAP1 PUSH2 0x21D8 JUMP JUMPDEST PUSH1 0x40 MLOAD DUP1 SWAP2 SUB SWAP1 REVERT JUMPDEST PUSH1 0x8 PUSH0 CALLER PUSH20 0xFFFFFFFFFFFFFFFFFFFFFFFFFFFFFFFFFFFFFFFF AND PUSH20 0xFFFFFFFFFFFFFFFFFFFFFFFFFFFFFFFFFFFFFFFF AND DUP2 MSTORE PUSH1 0x20 ADD SWAP1 DUP2 MSTORE PUSH1 0x20 ADD PUSH0 KECCAK256 PUSH0 SWAP1 SLOAD SWAP1 PUSH2 0x100 EXP SWAP1 DIV PUSH1 0xFF AND ISZERO PUSH2 0xFD4 JUMPI PUSH1 0x40 MLOAD PUSH32 0x8C379A000000000000000000000000000000000000000000000000000000000 DUP2 MSTORE PUSH1 0x4 ADD PUSH2 0xFCB SWAP1 PUSH2 0x253A JUMP JUMPDEST PUSH1 0x40 MLOAD DUP1 SWAP2 SUB SWAP1 REVERT JUMPDEST PUSH1 0x7 DUP1 SLOAD SWAP1 POP DUP2 MLOAD EQ PUSH2 0x101C JUMPI PUSH1 0x40 MLOAD PUSH32 0x8C379A000000000000000000000000000000000000000000000000000000000 DUP2 MSTORE PUSH1 0x4 ADD PUSH2 0x1013 SWAP1 PUSH2 0x25A2 JUMP JUMPDEST PUSH1 0x40 MLOAD DUP1 SWAP2 SUB SWAP1 REVERT JUMPDEST PUSH0 DUP1 JUMPDEST PUSH1 0x7 DUP1 SLOAD SWAP1 POP DUP2 LT ISZERO PUSH2 0x109E JUMPI PUSH1 0x7 DUP2 DUP2 SLOAD DUP2 LT PUSH2 0x1040 JUMPI PUSH2 0x103F PUSH2 0x1E40 JUMP JUMPDEST JUMPDEST SWAP1 PUSH0 MSTORE PUSH1 0x20 PUSH0 KECCAK256 SWAP1 PUSH1 0x6 MUL ADD PUSH1 0x5 ADD PUSH0 SWAP1 SLOAD SWAP1 PUSH2 0x100 EXP SWAP1 DIV PUSH1 0xFF AND PUSH1 0xFF AND DUP4 DUP3 DUP2 MLOAD DUP2 LT PUSH2 0x1072 JUMPI PUSH2 0x1071 PUSH2 0x1E40 JUMP JUMPDEST JUMPDEST PUSH1 0x20 MUL PUSH1 0x20 ADD ADD MLOAD PUSH1 0xFF AND SUB PUSH2 0x1091 JUMPI DUP2 DUP1 PUSH2 0x108D SWAP1 PUSH2 0x25C0 JUMP JUMPDEST SWAP3 POP POP JUMPDEST DUP1 DUP1 PUSH1 0x1 ADD SWAP2 POP POP PUSH2 0x101F JUMP JUMPDEST POP PUSH1 0x1 PUSH1 0x8 PUSH0 CALLER PUSH20 0xFFFFFFFFFFFFFFFFFFFFFFFFFFFFFFFFFFFFFFFF AND PUSH20 0xFFFFFFFFFFFFFFFFFFFFFFFFFFFFFFFFFFFFFFFF AND DUP2 MSTORE PUSH1 0x20 ADD SWAP1 DUP2 MSTORE PUSH1 0x20 ADD PUSH0 KECCAK256 PUSH0 PUSH2 0x100 EXP DUP2 SLOAD DUP2 PUSH1 0xFF MUL NOT AND SWAP1 DUP4 ISZERO ISZERO MUL OR SWAP1 SSTORE POP DUP1 PUSH1 0x9 PUSH0 CALLER PUSH20 0xFFFFFFFFFFFFFFFFFFFFFFFFFFFFFFFFFFFFFFFF AND PUSH20 0xFFFFFFFFFFFFFFFFFFFFFFFFFFFFFFFFFFFFFFFF AND DUP2 MSTORE PUSH1 0x20 ADD SWAP1 DUP2 MSTORE PUSH1 0x20 ADD PUSH0 KECCAK256 DUP2 SWAP1 SSTORE POP PUSH1 0xA CALLER SWAP1 DUP1 PUSH1 0x1 DUP2 SLOAD ADD DUP1 DUP3 SSTORE DUP1 SWAP2 POP POP PUSH1 0x1 SWAP1 SUB SWAP1 PUSH0 MSTORE PUSH1 0x20 PUSH0 KECCAK256 ADD PUSH0 SWAP1 SWAP2 SWAP1 SWAP2 SWAP1 SWAP2 PUSH2 0x100 EXP DUP2 SLOAD DUP2 PUSH20 0xFFFFFFFFFFFFFFFFFFFFFFFFFFFFFFFFFFFFFFFF MUL NOT AND SWAP1 DUP4 PUSH20 0xFFFFFFFFFFFFFFFFFFFFFFFFFFFFFFFFFFFFFFFF AND MUL OR SWAP1 SSTORE POP POP POP JUMP JUMPDEST PUSH1 0x9 PUSH1 0x20 MSTORE DUP1 PUSH0 MSTORE PUSH1 0x40 PUSH0 KECCAK256 PUSH0 SWAP2 POP SWAP1 POP SLOAD DUP2 JUMP JUMPDEST PUSH0 DUP1 PUSH0 ADD DUP1 SLOAD PUSH2 0x11BE SWAP1 PUSH2 0x1E9A JUMP JUMPDEST DUP1 PUSH1 0x1F ADD PUSH1 0x20 DUP1 SWAP2 DIV MUL PUSH1 0x20 ADD PUSH1 0x40 MLOAD SWAP1 DUP2 ADD PUSH1 0x40 MSTORE DUP1 SWAP3 SWAP2 SWAP1 DUP2 DUP2 MSTORE PUSH1 0x20 ADD DUP3 DUP1 SLOAD PUSH2 0x11EA SWAP1 PUSH2 0x1E9A JUMP JUMPDEST DUP1 ISZERO PUSH2 0x1235 JUMPI DUP1 PUSH1 0x1F LT PUSH2 0x120C JUMPI PUSH2 0x100 DUP1 DUP4 SLOAD DIV MUL DUP4 MSTORE SWAP2 PUSH1 0x20 ADD SWAP2 PUSH2 0x1235 JUMP JUMPDEST DUP3 ADD SWAP2 SWAP1 PUSH0 MSTORE PUSH1 0x20 PUSH0 KECCAK256 SWAP1 JUMPDEST DUP2 SLOAD DUP2 MSTORE SWAP1 PUSH1 0x1 ADD SWAP1 PUSH1 0x20 ADD DUP1 DUP4 GT PUSH2 0x1218 JUMPI DUP3 SWAP1 SUB PUSH1 0x1F AND DUP3 ADD SWAP2 JUMPDEST POP POP POP POP POP SWAP1 DUP1 PUSH1 0x1 ADD PUSH0 SWAP1 SLOAD SWAP1 PUSH2 0x100 EXP SWAP1 DIV PUSH20 0xFFFFFFFFFFFFFFFFFFFFFFFFFFFFFFFFFFFFFFFF AND SWAP1 DUP1 PUSH1 0x2 ADD SLOAD SWAP1 DUP1 PUSH1 0x3 ADD SLOAD SWAP1 DUP1 PUSH1 0x4 ADD DUP1 SLOAD PUSH2 0x127B SWAP1 PUSH2 0x1E9A JUMP JUMPDEST DUP1 PUSH1 0x1F ADD PUSH1 0x20 DUP1 SWAP2 DIV MUL PUSH1 0x20 ADD PUSH1 0x40 MLOAD SWAP1 DUP2 ADD PUSH1 0x40 MSTORE DUP1 SWAP3 SWAP2 SWAP1 DUP2 DUP2 MSTORE PUSH1 0x20 ADD DUP3 DUP1 SLOAD PUSH2 0x12A7 SWAP1 PUSH2 0x1E9A JUMP JUMPDEST DUP1 ISZERO PUSH2 0x12F2 JUMPI DUP1 PUSH1 0x1F LT PUSH2 0x12C9 JUMPI PUSH2 0x100 DUP1 DUP4 SLOAD DIV MUL DUP4 MSTORE SWAP2 PUSH1 0x20 ADD SWAP2 PUSH2 0x12F2 JUMP JUMPDEST DUP3 ADD SWAP2 SWAP1 PUSH0 MSTORE PUSH1 0x20 PUSH0 KECCAK256 SWAP1 JUMPDEST DUP2 SLOAD DUP2 MSTORE SWAP1 PUSH1 0x1 ADD SWAP1 PUSH1 0x20 ADD DUP1 DUP4 GT PUSH2 0x12D5 JUMPI DUP3 SWAP1 SUB PUSH1 0x1F AND DUP3 ADD SWAP2 JUMPDEST POP POP POP POP POP SWAP1 DUP1 PUSH1 0x5 ADD DUP1 SLOAD PUSH2 0x1307 SWAP1 PUSH2 0x1E9A JUMP JUMPDEST DUP1 PUSH1 0x1F ADD PUSH1 0x20 DUP1 SWAP2 DIV MUL PUSH1 0x20 ADD PUSH1 0x40 MLOAD SWAP1 DUP2 ADD PUSH1 0x40 MSTORE DUP1 SWAP3 SWAP2 SWAP1 DUP2 DUP2 MSTORE PUSH1 0x20 ADD DUP3 DUP1 SLOAD PUSH2 0x1333 SWAP1 PUSH2 0x1E9A JUMP JUMPDEST DUP1 ISZERO PUSH2 0x137E JUMPI DUP1 PUSH1 0x1F LT PUSH2 0x1355 JUMPI PUSH2 0x100 DUP1 DUP4 SLOAD DIV MUL DUP4 MSTORE SWAP2 PUSH1 0x20 ADD SWAP2 PUSH2 0x137E JUMP JUMPDEST DUP3 ADD SWAP2 SWAP1 PUSH0 MSTORE PUSH1 0x20 PUSH0 KECCAK256 SWAP1 JUMPDEST DUP2 SLOAD DUP2 MSTORE SWAP1 PUSH1 0x1 ADD SWAP1 PUSH1 0x20 ADD DUP1 DUP4 GT PUSH2 0x1361 JUMPI DUP3 SWAP1 SUB PUSH1 0x1F AND DUP3 ADD SWAP2 JUMPDEST POP POP POP POP POP SWAP1 DUP1 PUSH1 0x6 ADD SLOAD SWAP1 POP DUP8 JUMP JUMPDEST PUSH1 0x40 MLOAD DUP1 PUSH1 0x80 ADD PUSH1 0x40 MSTORE DUP1 PUSH1 0x4 SWAP1 JUMPDEST PUSH1 0x60 DUP2 MSTORE PUSH1 0x20 ADD SWAP1 PUSH1 0x1 SWAP1 SUB SWAP1 DUP2 PUSH2 0x139D JUMPI SWAP1 POP POP SWAP1 JUMP JUMPDEST DUP3 PUSH1 0x4 DUP2 ADD SWAP3 DUP3 ISZERO PUSH2 0x13F0 JUMPI SWAP2 PUSH1 0x20 MUL DUP3 ADD JUMPDEST DUP3 DUP2 GT ISZERO PUSH2 0x13EF JUMPI DUP3 MLOAD DUP3 SWAP1 DUP2 PUSH2 0x13DF SWAP2 SWAP1 PUSH2 0x2421 JUMP JUMPDEST POP SWAP2 PUSH1 0x20 ADD SWAP2 SWAP1 PUSH1 0x1 ADD SWAP1 PUSH2 0x13C8 JUMP JUMPDEST JUMPDEST POP SWAP1 POP PUSH2 0x13FD SWAP2 SWAP1 PUSH2 0x1401 JUMP JUMPDEST POP SWAP1 JUMP JUMPDEST JUMPDEST DUP1 DUP3 GT ISZERO PUSH2 0x1420 JUMPI PUSH0 DUP2 DUP2 PUSH2 0x1417 SWAP2 SWAP1 PUSH2 0x1424 JUMP JUMPDEST POP PUSH1 0x1 ADD PUSH2 0x1402 JUMP JUMPDEST POP SWAP1 JUMP JUMPDEST POP DUP1 SLOAD PUSH2 0x1430 SWAP1 PUSH2 0x1E9A JUMP JUMPDEST PUSH0 DUP3 SSTORE DUP1 PUSH1 0x1F LT PUSH2 0x1441 JUMPI POP PUSH2 0x145E JUMP JUMPDEST PUSH1 0x1F ADD PUSH1 0x20 SWAP1 DIV SWAP1 PUSH0 MSTORE PUSH1 0x20 PUSH0 KECCAK256 SWAP1 DUP2 ADD SWAP1 PUSH2 0x145D SWAP2 SWAP1 PUSH2 0x1461 JUMP JUMPDEST JUMPDEST POP JUMP JUMPDEST JUMPDEST DUP1 DUP3 GT ISZERO PUSH2 0x1478 JUMPI PUSH0 DUP2 PUSH0 SWAP1 SSTORE POP PUSH1 0x1 ADD PUSH2 0x1462 JUMP JUMPDEST POP SWAP1 JUMP JUMPDEST PUSH0 PUSH1 0x40 MLOAD SWAP1 POP SWAP1 JUMP JUMPDEST PUSH0 DUP1 REVERT JUMPDEST PUSH0 DUP1 REVERT JUMPDEST PUSH0 DUP2 SWAP1 POP SWAP2 SWAP1 POP JUMP JUMPDEST PUSH2 0x149F DUP2 PUSH2 0x148D JUMP JUMPDEST DUP2 EQ PUSH2 0x14A9 JUMPI PUSH0 DUP1 REVERT JUMPDEST POP JUMP JUMPDEST PUSH0 DUP2 CALLDATALOAD SWAP1 POP PUSH2 0x14BA DUP2 PUSH2 0x1496 JUMP JUMPDEST SWAP3 SWAP2 POP POP JUMP JUMPDEST PUSH0 PUSH1 0x20 DUP3 DUP5 SUB SLT ISZERO PUSH2 0x14D5 JUMPI PUSH2 0x14D4 PUSH2 0x1485 JUMP JUMPDEST JUMPDEST PUSH0 PUSH2 0x14E2 DUP5 DUP3 DUP6 ADD PUSH2 0x14AC JUMP JUMPDEST SWAP2 POP POP SWAP3 SWAP2 POP POP JUMP JUMPDEST PUSH0 DUP2 MLOAD SWAP1 POP SWAP2 SWAP1 POP JUMP JUMPDEST PUSH0 DUP3 DUP3 MSTORE PUSH1 0x20 DUP3 ADD SWAP1 POP SWAP3 SWAP2 POP POP JUMP JUMPDEST DUP3 DUP2 DUP4 MCOPY PUSH0 DUP4 DUP4 ADD MSTORE POP POP POP JUMP JUMPDEST PUSH0 PUSH1 0x1F NOT PUSH1 0x1F DUP4 ADD AND SWAP1 POP SWAP2 SWAP1 POP JUMP JUMPDEST PUSH0 PUSH2 0x152D DUP3 PUSH2 0x14EB JUMP JUMPDEST PUSH2 0x1537 DUP2 DUP6 PUSH2 0x14F5 JUMP JUMPDEST SWAP4 POP PUSH2 0x1547 DUP2 DUP6 PUSH1 0x20 DUP7 ADD PUSH2 0x1505 JUMP JUMPDEST PUSH2 0x1550 DUP2 PUSH2 0x1513 JUMP JUMPDEST DUP5 ADD SWAP2 POP POP SWAP3 SWAP2 POP POP JUMP JUMPDEST PUSH0 PUSH1 0x4 SWAP1 POP SWAP2 SWAP1 POP JUMP JUMPDEST PUSH0 DUP2 SWAP1 POP SWAP3 SWAP2 POP POP JUMP JUMPDEST PUSH0 DUP2 SWAP1 POP SWAP2 SWAP1 POP JUMP JUMPDEST PUSH0 DUP3 DUP3 MSTORE PUSH1 0x20 DUP3 ADD SWAP1 POP SWAP3 SWAP2 POP POP JUMP JUMPDEST PUSH0 PUSH2 0x1592 DUP3 PUSH2 0x14EB JUMP JUMPDEST PUSH2 0x159C DUP2 DUP6 PUSH2 0x1578 JUMP JUMPDEST SWAP4 POP PUSH2 0x15AC DUP2 DUP6 PUSH1 0x20 DUP7 ADD PUSH2 0x1505 JUMP JUMPDEST PUSH2 0x15B5 DUP2 PUSH2 0x1513 JUMP JUMPDEST DUP5 ADD SWAP2 POP POP SWAP3 SWAP2 POP POP JUMP JUMPDEST PUSH0 PUSH2 0x15CB DUP4 DUP4 PUSH2 0x1588 JUMP JUMPDEST SWAP1 POP SWAP3 SWAP2 POP POP JUMP JUMPDEST PUSH0 PUSH1 0x20 DUP3 ADD SWAP1 POP SWAP2 SWAP1 POP JUMP JUMPDEST PUSH0 PUSH2 0x15E9 DUP3 PUSH2 0x155B JUMP JUMPDEST PUSH2 0x15F3 DUP2 DUP6 PUSH2 0x1565 JUMP JUMPDEST SWAP4 POP DUP4 PUSH1 0x20 DUP3 MUL DUP6 ADD PUSH2 0x1605 DUP6 PUSH2 0x156F JUMP JUMPDEST DUP1 PUSH0 JUMPDEST DUP6 DUP2 LT ISZERO PUSH2 0x1640 JUMPI DUP5 DUP5 SUB DUP10 MSTORE DUP2 MLOAD PUSH2 0x1621 DUP6 DUP3 PUSH2 0x15C0 JUMP JUMPDEST SWAP5 POP PUSH2 0x162C DUP4 PUSH2 0x15D3 JUMP JUMPDEST SWAP3 POP PUSH1 0x20 DUP11 ADD SWAP10 POP POP PUSH1 0x1 DUP2 ADD SWAP1 POP PUSH2 0x1608 JUMP JUMPDEST POP DUP3 SWAP8 POP DUP8 SWAP6 POP POP POP POP POP POP SWAP3 SWAP2 POP POP JUMP JUMPDEST PUSH0 PUSH1 0xFF DUP3 AND SWAP1 POP SWAP2 SWAP1 POP JUMP JUMPDEST PUSH2 0x1667 DUP2 PUSH2 0x1652 JUMP JUMPDEST DUP3 MSTORE POP POP JUMP JUMPDEST PUSH0 PUSH1 0x60 DUP3 ADD SWAP1 POP DUP2 DUP2 SUB PUSH0 DUP4 ADD MSTORE PUSH2 0x1685 DUP2 DUP7 PUSH2 0x1523 JUMP JUMPDEST SWAP1 POP DUP2 DUP2 SUB PUSH1 0x20 DUP4 ADD MSTORE PUSH2 0x1699 DUP2 DUP6 PUSH2 0x15DF JUMP JUMPDEST SWAP1 POP PUSH2 0x16A8 PUSH1 0x40 DUP4 ADD DUP5 PUSH2 0x165E JUMP JUMPDEST SWAP5 SWAP4 POP POP POP POP JUMP JUMPDEST PUSH0 PUSH20 0xFFFFFFFFFFFFFFFFFFFFFFFFFFFFFFFFFFFFFFFF DUP3 AND SWAP1 POP SWAP2 SWAP1 POP JUMP JUMPDEST PUSH0 PUSH2 0x16D9 DUP3 PUSH2 0x16B0 JUMP JUMPDEST SWAP1 POP SWAP2 SWAP1 POP JUMP JUMPDEST PUSH2 0x16E9 DUP2 PUSH2 0x16CF JUMP JUMPDEST DUP3 MSTORE POP POP JUMP JUMPDEST PUSH0 PUSH1 0x20 DUP3 ADD SWAP1 POP PUSH2 0x1702 PUSH0 DUP4 ADD DUP5 PUSH2 0x16E0 JUMP JUMPDEST SWAP3 SWAP2 POP POP JUMP JUMPDEST PUSH2 0x1711 DUP2 PUSH2 0x16CF JUMP JUMPDEST DUP2 EQ PUSH2 0x171B JUMPI PUSH0 DUP1 REVERT JUMPDEST POP JUMP JUMPDEST PUSH0 DUP2 CALLDATALOAD SWAP1 POP PUSH2 0x172C DUP2 PUSH2 0x1708 JUMP JUMPDEST SWAP3 SWAP2 POP POP JUMP JUMPDEST PUSH0 PUSH1 0x20 DUP3 DUP5 SUB SLT ISZERO PUSH2 0x1747 JUMPI PUSH2 0x1746 PUSH2 0x1485 JUMP JUMPDEST JUMPDEST PUSH0 PUSH2 0x1754 DUP5 DUP3 DUP6 ADD PUSH2 0x171E JUMP JUMPDEST SWAP2 POP POP SWAP3 SWAP2 POP POP JUMP JUMPDEST PUSH0 DUP2 ISZERO ISZERO SWAP1 POP SWAP2 SWAP1 POP JUMP JUMPDEST PUSH2 0x1771 DUP2 PUSH2 0x175D JUMP JUMPDEST DUP3 MSTORE POP POP JUMP JUMPDEST PUSH0 PUSH1 0x20 DUP3 ADD SWAP1 POP PUSH2 0x178A PUSH0 DUP4 ADD DUP5 PUSH2 0x1768 JUMP JUMPDEST SWAP3 SWAP2 POP POP JUMP JUMPDEST PUSH0 DUP2 MLOAD SWAP1 POP SWAP2 SWAP1 POP JUMP JUMPDEST PUSH0 DUP3 DUP3 MSTORE PUSH1 0x20 DUP3 ADD SWAP1 POP SWAP3 SWAP2 POP POP JUMP JUMPDEST PUSH0 DUP2 SWAP1 POP PUSH1 0x20 DUP3 ADD SWAP1 POP SWAP2 SWAP1 POP JUMP JUMPDEST PUSH0 DUP2 SWAP1 POP SWAP3 SWAP2 POP POP JUMP JUMPDEST PUSH0 PUSH2 0x17CD DUP3 PUSH2 0x155B JUMP JUMPDEST PUSH2 0x17D7 DUP2 DUP6 PUSH2 0x17B9 JUMP JUMPDEST SWAP4 POP DUP4 PUSH1 0x20 DUP3 MUL DUP6 ADD PUSH2 0x17E9 DUP6 PUSH2 0x156F JUMP JUMPDEST DUP1 PUSH0 JUMPDEST DUP6 DUP2 LT ISZERO PUSH2 0x1824 JUMPI DUP5 DUP5 SUB DUP10 MSTORE DUP2 MLOAD PUSH2 0x1805 DUP6 DUP3 PUSH2 0x15C0 JUMP JUMPDEST SWAP5 POP PUSH2 0x1810 DUP4 PUSH2 0x15D3 JUMP JUMPDEST SWAP3 POP PUSH1 0x20 DUP11 ADD SWAP10 POP POP PUSH1 0x1 DUP2 ADD SWAP1 POP PUSH2 0x17EC JUMP JUMPDEST POP DUP3 SWAP8 POP DUP8 SWAP6 POP POP POP POP POP POP SWAP3 SWAP2 POP POP JUMP JUMPDEST PUSH2 0x183F DUP2 PUSH2 0x1652 JUMP JUMPDEST DUP3 MSTORE POP POP JUMP JUMPDEST PUSH0 PUSH1 0x60 DUP4 ADD PUSH0 DUP4 ADD MLOAD DUP5 DUP3 SUB PUSH0 DUP7 ADD MSTORE PUSH2 0x185F DUP3 DUP3 PUSH2 0x1588 JUMP JUMPDEST SWAP2 POP POP PUSH1 0x20 DUP4 ADD MLOAD DUP5 DUP3 SUB PUSH1 0x20 DUP7 ADD MSTORE PUSH2 0x1879 DUP3 DUP3 PUSH2 0x17C3 JUMP JUMPDEST SWAP2 POP POP PUSH1 0x40 DUP4 ADD MLOAD PUSH2 0x188E PUSH1 0x40 DUP7 ADD DUP3 PUSH2 0x1836 JUMP JUMPDEST POP DUP1 SWAP2 POP POP SWAP3 SWAP2 POP POP JUMP JUMPDEST PUSH0 PUSH2 0x18A4 DUP4 DUP4 PUSH2 0x1845 JUMP JUMPDEST SWAP1 POP SWAP3 SWAP2 POP POP JUMP JUMPDEST PUSH0 PUSH1 0x20 DUP3 ADD SWAP1 POP SWAP2 SWAP1 POP JUMP JUMPDEST PUSH0 PUSH2 0x18C2 DUP3 PUSH2 0x1790 JUMP JUMPDEST PUSH2 0x18CC DUP2 DUP6 PUSH2 0x179A JUMP JUMPDEST SWAP4 POP DUP4 PUSH1 0x20 DUP3 MUL DUP6 ADD PUSH2 0x18DE DUP6 PUSH2 0x17AA JUMP JUMPDEST DUP1 PUSH0 JUMPDEST DUP6 DUP2 LT ISZERO PUSH2 0x1919 JUMPI DUP5 DUP5 SUB DUP10 MSTORE DUP2 MLOAD PUSH2 0x18FA DUP6 DUP3 PUSH2 0x1899 JUMP JUMPDEST SWAP5 POP PUSH2 0x1905 DUP4 PUSH2 0x18AC JUMP JUMPDEST SWAP3 POP PUSH1 0x20 DUP11 ADD SWAP10 POP POP PUSH1 0x1 DUP2 ADD SWAP1 POP PUSH2 0x18E1 JUMP JUMPDEST POP DUP3 SWAP8 POP DUP8 SWAP6 POP POP POP POP POP POP SWAP3 SWAP2 POP POP JUMP JUMPDEST PUSH0 PUSH1 0x20 DUP3 ADD SWAP1 POP DUP2 DUP2 SUB PUSH0 DUP4 ADD MSTORE PUSH2 0x1943 DUP2 DUP5 PUSH2 0x18B8 JUMP JUMPDEST SWAP1 POP SWAP3 SWAP2 POP POP JUMP JUMPDEST PUSH0 PUSH1 0x40 DUP3 ADD SWAP1 POP DUP2 DUP2 SUB PUSH0 DUP4 ADD MSTORE PUSH2 0x1963 DUP2 DUP6 PUSH2 0x1523 JUMP JUMPDEST SWAP1 POP PUSH2 0x1972 PUSH1 0x20 DUP4 ADD DUP5 PUSH2 0x165E JUMP JUMPDEST SWAP4 SWAP3 POP POP POP JUMP JUMPDEST PUSH2 0x1982 DUP2 PUSH2 0x148D JUMP JUMPDEST DUP3 MSTORE POP POP JUMP JUMPDEST PUSH0 PUSH1 0xE0 DUP3 ADD SWAP1 POP DUP2 DUP2 SUB PUSH0 DUP4 ADD MSTORE PUSH2 0x19A0 DUP2 DUP11 PUSH2 0x1523 JUMP JUMPDEST SWAP1 POP PUSH2 0x19AF PUSH1 0x20 DUP4 ADD DUP10 PUSH2 0x16E0 JUMP JUMPDEST PUSH2 0x19BC PUSH1 0x40 DUP4 ADD DUP9 PUSH2 0x1979 JUMP JUMPDEST PUSH2 0x19C9 PUSH1 0x60 DUP4 ADD DUP8 PUSH2 0x1979 JUMP JUMPDEST DUP2 DUP2 SUB PUSH1 0x80 DUP4 ADD MSTORE PUSH2 0x19DB DUP2 DUP7 PUSH2 0x1523 JUMP JUMPDEST SWAP1 POP DUP2 DUP2 SUB PUSH1 0xA0 DUP4 ADD MSTORE PUSH2 0x19EF DUP2 DUP6 PUSH2 0x1523 JUMP JUMPDEST SWAP1 POP PUSH2 0x19FE PUSH1 0xC0 DUP4 ADD DUP5 PUSH2 0x1979 JUMP JUMPDEST SWAP9 SWAP8 POP POP POP POP POP POP POP POP JUMP JUMPDEST PUSH0 DUP1 REVERT JUMPDEST PUSH0 DUP1 REVERT JUMPDEST PUSH32 0x4E487B7100000000000000000000000000000000000000000000000000000000 PUSH0 MSTORE PUSH1 0x41 PUSH1 0x4 MSTORE PUSH1 0x24 PUSH0 REVERT JUMPDEST PUSH2 0x1A48 DUP3 PUSH2 0x1513 JUMP JUMPDEST DUP2 ADD DUP2 DUP2 LT PUSH8 0xFFFFFFFFFFFFFFFF DUP3 GT OR ISZERO PUSH2 0x1A67 JUMPI PUSH2 0x1A66 PUSH2 0x1A12 JUMP JUMPDEST JUMPDEST DUP1 PUSH1 0x40 MSTORE POP POP POP JUMP JUMPDEST PUSH0 PUSH2 0x1A79 PUSH2 0x147C JUMP JUMPDEST SWAP1 POP PUSH2 0x1A85 DUP3 DUP3 PUSH2 0x1A3F JUMP JUMPDEST SWAP2 SWAP1 POP JUMP JUMPDEST PUSH0 PUSH8 0xFFFFFFFFFFFFFFFF DUP3 GT ISZERO PUSH2 0x1AA4 JUMPI PUSH2 0x1AA3 PUSH2 0x1A12 JUMP JUMPDEST JUMPDEST PUSH2 0x1AAD DUP3 PUSH2 0x1513 JUMP JUMPDEST SWAP1 POP PUSH1 0x20 DUP2 ADD SWAP1 POP SWAP2 SWAP1 POP JUMP JUMPDEST DUP3 DUP2 DUP4 CALLDATACOPY PUSH0 DUP4 DUP4 ADD MSTORE POP POP POP JUMP JUMPDEST PUSH0 PUSH2 0x1ADA PUSH2 0x1AD5 DUP5 PUSH2 0x1A8A JUMP JUMPDEST PUSH2 0x1A70 JUMP JUMPDEST SWAP1 POP DUP3 DUP2 MSTORE PUSH1 0x20 DUP2 ADD DUP5 DUP5 DUP5 ADD GT ISZERO PUSH2 0x1AF6 JUMPI PUSH2 0x1AF5 PUSH2 0x1A0E JUMP JUMPDEST JUMPDEST PUSH2 0x1B01 DUP5 DUP3 DUP6 PUSH2 0x1ABA JUMP JUMPDEST POP SWAP4 SWAP3 POP POP POP JUMP JUMPDEST PUSH0 DUP3 PUSH1 0x1F DUP4 ADD SLT PUSH2 0x1B1D JUMPI PUSH2 0x1B1C PUSH2 0x1A0A JUMP JUMPDEST JUMPDEST DUP2 CALLDATALOAD PUSH2 0x1B2D DUP5 DUP3 PUSH1 0x20 DUP7 ADD PUSH2 0x1AC8 JUMP JUMPDEST SWAP2 POP POP SWAP3 SWAP2 POP POP JUMP JUMPDEST PUSH0 PUSH8 0xFFFFFFFFFFFFFFFF DUP3 GT ISZERO PUSH2 0x1B50 JUMPI PUSH2 0x1B4F PUSH2 0x1A12 JUMP JUMPDEST JUMPDEST PUSH1 0x20 DUP3 MUL SWAP1 POP SWAP2 SWAP1 POP JUMP JUMPDEST PUSH0 DUP1 REVERT JUMPDEST PUSH0 PUSH2 0x1B71 PUSH2 0x1B6C DUP5 PUSH2 0x1B36 JUMP JUMPDEST PUSH2 0x1A70 JUMP JUMPDEST SWAP1 POP DUP1 PUSH1 0x20 DUP5 MUL DUP4 ADD DUP6 DUP2 GT ISZERO PUSH2 0x1B8B JUMPI PUSH2 0x1B8A PUSH2 0x1B5B JUMP JUMPDEST JUMPDEST DUP4 JUMPDEST DUP2 DUP2 LT ISZERO PUSH2 0x1BD2 JUMPI DUP1 CALLDATALOAD PUSH8 0xFFFFFFFFFFFFFFFF DUP2 GT ISZERO PUSH2 0x1BB0 JUMPI PUSH2 0x1BAF PUSH2 0x1A0A JUMP JUMPDEST JUMPDEST DUP1 DUP7 ADD PUSH2 0x1BBD DUP10 DUP3 PUSH2 0x1B09 JUMP JUMPDEST DUP6 MSTORE PUSH1 0x20 DUP6 ADD SWAP5 POP POP POP PUSH1 0x20 DUP2 ADD SWAP1 POP PUSH2 0x1B8D JUMP JUMPDEST POP POP POP SWAP4 SWAP3 POP POP POP JUMP JUMPDEST PUSH0 DUP3 PUSH1 0x1F DUP4 ADD SLT PUSH2 0x1BF0 JUMPI PUSH2 0x1BEF PUSH2 0x1A0A JUMP JUMPDEST JUMPDEST PUSH1 0x4 PUSH2 0x1BFD DUP5 DUP3 DUP6 PUSH2 0x1B5F JUMP JUMPDEST SWAP2 POP POP SWAP3 SWAP2 POP POP JUMP JUMPDEST PUSH2 0x1C0F DUP2 PUSH2 0x1652 JUMP JUMPDEST DUP2 EQ PUSH2 0x1C19 JUMPI PUSH0 DUP1 REVERT JUMPDEST POP JUMP JUMPDEST PUSH0 DUP2 CALLDATALOAD SWAP1 POP PUSH2 0x1C2A DUP2 PUSH2 0x1C06 JUMP JUMPDEST SWAP3 SWAP2 POP POP JUMP JUMPDEST PUSH0 DUP1 PUSH0 PUSH1 0x60 DUP5 DUP7 SUB SLT ISZERO PUSH2 0x1C47 JUMPI PUSH2 0x1C46 PUSH2 0x1485 JUMP JUMPDEST JUMPDEST PUSH0 DUP5 ADD CALLDATALOAD PUSH8 0xFFFFFFFFFFFFFFFF DUP2 GT ISZERO PUSH2 0x1C64 JUMPI PUSH2 0x1C63 PUSH2 0x1489 JUMP JUMPDEST JUMPDEST PUSH2 0x1C70 DUP7 DUP3 DUP8 ADD PUSH2 0x1B09 JUMP JUMPDEST SWAP4 POP POP PUSH1 0x20 DUP5 ADD CALLDATALOAD PUSH8 0xFFFFFFFFFFFFFFFF DUP2 GT ISZERO PUSH2 0x1C91 JUMPI PUSH2 0x1C90 PUSH2 0x1489 JUMP JUMPDEST JUMPDEST PUSH2 0x1C9D DUP7 DUP3 DUP8 ADD PUSH2 0x1BDC JUMP JUMPDEST SWAP3 POP POP PUSH1 0x40 PUSH2 0x1CAE DUP7 DUP3 DUP8 ADD PUSH2 0x1C1C JUMP JUMPDEST SWAP2 POP POP SWAP3 POP SWAP3 POP SWAP3 JUMP JUMPDEST PUSH0 PUSH8 0xFFFFFFFFFFFFFFFF DUP3 GT ISZERO PUSH2 0x1CD2 JUMPI PUSH2 0x1CD1 PUSH2 0x1A12 JUMP JUMPDEST JUMPDEST PUSH1 0x20 DUP3 MUL SWAP1 POP PUSH1 0x20 DUP2 ADD SWAP1 POP SWAP2 SWAP1 POP JUMP JUMPDEST PUSH0 PUSH2 0x1CF5 PUSH2 0x1CF0 DUP5 PUSH2 0x1CB8 JUMP JUMPDEST PUSH2 0x1A70 JUMP JUMPDEST SWAP1 POP DUP1 DUP4 DUP3 MSTORE PUSH1 0x20 DUP3 ADD SWAP1 POP PUSH1 0x20 DUP5 MUL DUP4 ADD DUP6 DUP2 GT ISZERO PUSH2 0x1D18 JUMPI PUSH2 0x1D17 PUSH2 0x1B5B JUMP JUMPDEST JUMPDEST DUP4 JUMPDEST DUP2 DUP2 LT ISZERO PUSH2 0x1D41 JUMPI DUP1 PUSH2 0x1D2D DUP9 DUP3 PUSH2 0x1C1C JUMP JUMPDEST DUP5 MSTORE PUSH1 0x20 DUP5 ADD SWAP4 POP POP PUSH1 0x20 DUP2 ADD SWAP1 POP PUSH2 0x1D1A JUMP JUMPDEST POP POP POP SWAP4 SWAP3 POP POP POP JUMP JUMPDEST PUSH0 DUP3 PUSH1 0x1F DUP4 ADD SLT PUSH2 0x1D5F JUMPI PUSH2 0x1D5E PUSH2 0x1A0A JUMP JUMPDEST JUMPDEST DUP2 CALLDATALOAD PUSH2 0x1D6F DUP5 DUP3 PUSH1 0x20 DUP7 ADD PUSH2 0x1CE3 JUMP JUMPDEST SWAP2 POP POP SWAP3 SWAP2 POP POP JUMP JUMPDEST PUSH0 PUSH1 0x20 DUP3 DUP5 SUB SLT ISZERO PUSH2 0x1D8D JUMPI PUSH2 0x1D8C PUSH2 0x1485 JUMP JUMPDEST JUMPDEST PUSH0 DUP3 ADD CALLDATALOAD PUSH8 0xFFFFFFFFFFFFFFFF DUP2 GT ISZERO PUSH2 0x1DAA JUMPI PUSH2 0x1DA9 PUSH2 0x1489 JUMP JUMPDEST JUMPDEST PUSH2 0x1DB6 DUP5 DUP3 DUP6 ADD PUSH2 0x1D4B JUMP JUMPDEST SWAP2 POP POP SWAP3 SWAP2 POP POP JUMP JUMPDEST PUSH0 PUSH1 0x20 DUP3 ADD SWAP1 POP PUSH2 0x1DD2 PUSH0 DUP4 ADD DUP5 PUSH2 0x1979 JUMP JUMPDEST SWAP3 SWAP2 POP POP JUMP JUMPDEST PUSH32 0x5175697A20696E646578206F7574206F6620626F756E64730000000000000000 PUSH0 DUP3 ADD MSTORE POP JUMP JUMPDEST PUSH0 PUSH2 0x1E0C PUSH1 0x18 DUP4 PUSH2 0x14F5 JUMP JUMPDEST SWAP2 POP PUSH2 0x1E17 DUP3 PUSH2 0x1DD8 JUMP JUMPDEST PUSH1 0x20 DUP3 ADD SWAP1 POP SWAP2 SWAP1 POP JUMP JUMPDEST PUSH0 PUSH1 0x20 DUP3 ADD SWAP1 POP DUP2 DUP2 SUB PUSH0 DUP4 ADD MSTORE PUSH2 0x1E39 DUP2 PUSH2 0x1E00 JUMP JUMPDEST SWAP1 POP SWAP2 SWAP1 POP JUMP JUMPDEST PUSH32 0x4E487B7100000000000000000000000000000000000000000000000000000000 PUSH0 MSTORE PUSH1 0x32 PUSH1 0x4 MSTORE PUSH1 0x24 PUSH0 REVERT JUMPDEST PUSH32 0x4E487B7100000000000000000000000000000000000000000000000000000000 PUSH0 MSTORE PUSH1 0x22 PUSH1 0x4 MSTORE PUSH1 0x24 PUSH0 REVERT JUMPDEST PUSH0 PUSH1 0x2 DUP3 DIV SWAP1 POP PUSH1 0x1 DUP3 AND DUP1 PUSH2 0x1EB1 JUMPI PUSH1 0x7F DUP3 AND SWAP2 POP JUMPDEST PUSH1 0x20 DUP3 LT DUP2 SUB PUSH2 0x1EC4 JUMPI PUSH2 0x1EC3 PUSH2 0x1E6D JUMP JUMPDEST JUMPDEST POP SWAP2 SWAP1 POP JUMP JUMPDEST PUSH32 0x4F6E6C79206F776E65722063616E20706572666F726D20746869732061637469 PUSH0 DUP3 ADD MSTORE PUSH32 0x6F6E000000000000000000000000000000000000000000000000000000000000 PUSH1 0x20 DUP3 ADD MSTORE POP JUMP JUMPDEST PUSH0 PUSH2 0x1F24 PUSH1 0x22 DUP4 PUSH2 0x14F5 JUMP JUMPDEST SWAP2 POP PUSH2 0x1F2F DUP3 PUSH2 0x1ECA JUMP JUMPDEST PUSH1 0x40 DUP3 ADD SWAP1 POP SWAP2 SWAP1 POP JUMP JUMPDEST PUSH0 PUSH1 0x20 DUP3 ADD SWAP1 POP DUP2 DUP2 SUB PUSH0 DUP4 ADD MSTORE PUSH2 0x1F51 DUP2 PUSH2 0x1F18 JUMP JUMPDEST SWAP1 POP SWAP2 SWAP1 POP JUMP JUMPDEST PUSH32 0x436F75727365206973207374696C6C2061637469766500000000000000000000 PUSH0 DUP3 ADD MSTORE POP JUMP JUMPDEST PUSH0 PUSH2 0x1F8C PUSH1 0x16 DUP4 PUSH2 0x14F5 JUMP JUMPDEST SWAP2 POP PUSH2 0x1F97 DUP3 PUSH2 0x1F58 JUMP JUMPDEST PUSH1 0x20 DUP3 ADD SWAP1 POP SWAP2 SWAP1 POP JUMP JUMPDEST PUSH0 PUSH1 0x20 DUP3 ADD SWAP1 POP DUP2 DUP2 SUB PUSH0 DUP4 ADD MSTORE PUSH2 0x1FB9 DUP2 PUSH2 0x1F80 JUMP JUMPDEST SWAP1 POP SWAP2 SWAP1 POP JUMP JUMPDEST PUSH32 0x596F7520646964206E6F74207061727469636970617465000000000000000000 PUSH0 DUP3 ADD MSTORE POP JUMP JUMPDEST PUSH0 PUSH2 0x1FF4 PUSH1 0x17 DUP4 PUSH2 0x14F5 JUMP JUMPDEST SWAP2 POP PUSH2 0x1FFF DUP3 PUSH2 0x1FC0 JUMP JUMPDEST PUSH1 0x20 DUP3 ADD SWAP1 POP SWAP2 SWAP1 POP JUMP JUMPDEST PUSH0 PUSH1 0x20 DUP3 ADD SWAP1 POP DUP2 DUP2 SUB PUSH0 DUP4 ADD MSTORE PUSH2 0x2021 DUP2 PUSH2 0x1FE8 JUMP JUMPDEST SWAP1 POP SWAP2 SWAP1 POP JUMP JUMPDEST PUSH32 0x4E6F20636F727265637420616E73776572730000000000000000000000000000 PUSH0 DUP3 ADD MSTORE POP JUMP JUMPDEST PUSH0 PUSH2 0x205C PUSH1 0x12 DUP4 PUSH2 0x14F5 JUMP JUMPDEST SWAP2 POP PUSH2 0x2067 DUP3 PUSH2 0x2028 JUMP JUMPDEST PUSH1 0x20 DUP3 ADD SWAP1 POP SWAP2 SWAP1 POP JUMP JUMPDEST PUSH0 PUSH1 0x20 DUP3 ADD SWAP1 POP DUP2 DUP2 SUB PUSH0 DUP4 ADD MSTORE PUSH2 0x2089 DUP2 PUSH2 0x2050 JUMP JUMPDEST SWAP1 POP SWAP2 SWAP1 POP JUMP JUMPDEST PUSH32 0x4E487B7100000000000000000000000000000000000000000000000000000000 PUSH0 MSTORE PUSH1 0x11 PUSH1 0x4 MSTORE PUSH1 0x24 PUSH0 REVERT JUMPDEST PUSH0 PUSH2 0x20C7 DUP3 PUSH2 0x148D JUMP JUMPDEST SWAP2 POP PUSH2 0x20D2 DUP4 PUSH2 0x148D JUMP JUMPDEST SWAP3 POP DUP3 DUP3 ADD SWAP1 POP DUP1 DUP3 GT ISZERO PUSH2 0x20EA JUMPI PUSH2 0x20E9 PUSH2 0x2090 JUMP JUMPDEST JUMPDEST SWAP3 SWAP2 POP POP JUMP JUMPDEST PUSH0 PUSH2 0x20FA DUP3 PUSH2 0x148D JUMP JUMPDEST SWAP2 POP PUSH2 0x2105 DUP4 PUSH2 0x148D JUMP JUMPDEST SWAP3 POP DUP3 DUP3 MUL PUSH2 0x2113 DUP2 PUSH2 0x148D JUMP JUMPDEST SWAP2 POP DUP3 DUP3 DIV DUP5 EQ DUP4 ISZERO OR PUSH2 0x212A JUMPI PUSH2 0x2129 PUSH2 0x2090 JUMP JUMPDEST JUMPDEST POP SWAP3 SWAP2 POP POP JUMP JUMPDEST PUSH32 0x4E487B7100000000000000000000000000000000000000000000000000000000 PUSH0 MSTORE PUSH1 0x12 PUSH1 0x4 MSTORE PUSH1 0x24 PUSH0 REVERT JUMPDEST PUSH0 PUSH2 0x2168 DUP3 PUSH2 0x148D JUMP JUMPDEST SWAP2 POP PUSH2 0x2173 DUP4 PUSH2 0x148D JUMP JUMPDEST SWAP3 POP DUP3 PUSH2 0x2183 JUMPI PUSH2 0x2182 PUSH2 0x2131 JUMP JUMPDEST JUMPDEST DUP3 DUP3 DIV SWAP1 POP SWAP3 SWAP2 POP POP JUMP JUMPDEST PUSH32 0x436F75727365206973206E6F7420616374697665000000000000000000000000 PUSH0 DUP3 ADD MSTORE POP JUMP JUMPDEST PUSH0 PUSH2 0x21C2 PUSH1 0x14 DUP4 PUSH2 0x14F5 JUMP JUMPDEST SWAP2 POP PUSH2 0x21CD DUP3 PUSH2 0x218E JUMP JUMPDEST PUSH1 0x20 DUP3 ADD SWAP1 POP SWAP2 SWAP1 POP JUMP JUMPDEST PUSH0 PUSH1 0x20 DUP3 ADD SWAP1 POP DUP2 DUP2 SUB PUSH0 DUP4 ADD MSTORE PUSH2 0x21EF DUP2 PUSH2 0x21B6 JUMP JUMPDEST SWAP1 POP SWAP2 SWAP1 POP JUMP JUMPDEST PUSH32 0x436F727265637420616E73776572206D757374206265206265747765656E2031 PUSH0 DUP3 ADD MSTORE PUSH32 0x20616E6420340000000000000000000000000000000000000000000000000000 PUSH1 0x20 DUP3 ADD MSTORE POP JUMP JUMPDEST PUSH0 PUSH2 0x2250 PUSH1 0x26 DUP4 PUSH2 0x14F5 JUMP JUMPDEST SWAP2 POP PUSH2 0x225B DUP3 PUSH2 0x21F6 JUMP JUMPDEST PUSH1 0x40 DUP3 ADD SWAP1 POP SWAP2 SWAP1 POP JUMP JUMPDEST PUSH0 PUSH1 0x20 DUP3 ADD SWAP1 POP DUP2 DUP2 SUB PUSH0 DUP4 ADD MSTORE PUSH2 0x227D DUP2 PUSH2 0x2244 JUMP JUMPDEST SWAP1 POP SWAP2 SWAP1 POP JUMP JUMPDEST PUSH0 DUP2 SWAP1 POP DUP2 PUSH0 MSTORE PUSH1 0x20 PUSH0 KECCAK256 SWAP1 POP SWAP2 SWAP1 POP JUMP JUMPDEST PUSH0 PUSH1 0x20 PUSH1 0x1F DUP4 ADD DIV SWAP1 POP SWAP2 SWAP1 POP JUMP JUMPDEST PUSH0 DUP3 DUP3 SHL SWAP1 POP SWAP3 SWAP2 POP POP JUMP JUMPDEST PUSH0 PUSH1 0x8 DUP4 MUL PUSH2 0x22E0 PUSH32 0xFFFFFFFFFFFFFFFFFFFFFFFFFFFFFFFFFFFFFFFFFFFFFFFFFFFFFFFFFFFFFFFF DUP3 PUSH2 0x22A5 JUMP JUMPDEST PUSH2 0x22EA DUP7 DUP4 PUSH2 0x22A5 JUMP JUMPDEST SWAP6 POP DUP1 NOT DUP5 AND SWAP4 POP DUP1 DUP7 AND DUP5 OR SWAP3 POP POP POP SWAP4 SWAP3 POP POP POP JUMP JUMPDEST PUSH0 DUP2 SWAP1 POP SWAP2 SWAP1 POP JUMP JUMPDEST PUSH0 PUSH2 0x2325 PUSH2 0x2320 PUSH2 0x231B DUP5 PUSH2 0x148D JUMP JUMPDEST PUSH2 0x2302 JUMP JUMPDEST PUSH2 0x148D JUMP JUMPDEST SWAP1 POP SWAP2 SWAP1 POP JUMP JUMPDEST PUSH0 DUP2 SWAP1 POP SWAP2 SWAP1 POP JUMP JUMPDEST PUSH2 0x233E DUP4 PUSH2 0x230B JUMP JUMPDEST PUSH2 0x2352 PUSH2 0x234A DUP3 PUSH2 0x232C JUMP JUMPDEST DUP5 DUP5 SLOAD PUSH2 0x22B1 JUMP JUMPDEST DUP3 SSTORE POP POP POP POP JUMP JUMPDEST PUSH0 SWAP1 JUMP JUMPDEST PUSH2 0x2366 PUSH2 0x235A JUMP JUMPDEST PUSH2 0x2371 DUP2 DUP5 DUP5 PUSH2 0x2335 JUMP JUMPDEST POP POP POP JUMP JUMPDEST JUMPDEST DUP2 DUP2 LT ISZERO PUSH2 0x2394 JUMPI PUSH2 0x2389 PUSH0 DUP3 PUSH2 0x235E JUMP JUMPDEST PUSH1 0x1 DUP2 ADD SWAP1 POP PUSH2 0x2377 JUMP JUMPDEST POP POP JUMP JUMPDEST PUSH1 0x1F DUP3 GT ISZERO PUSH2 0x23D9 JUMPI PUSH2 0x23AA DUP2 PUSH2 0x2284 JUMP JUMPDEST PUSH2 0x23B3 DUP5 PUSH2 0x2296 JUMP JUMPDEST DUP2 ADD PUSH1 0x20 DUP6 LT ISZERO PUSH2 0x23C2 JUMPI DUP2 SWAP1 POP JUMPDEST PUSH2 0x23D6 PUSH2 0x23CE DUP6 PUSH2 0x2296 JUMP JUMPDEST DUP4 ADD DUP3 PUSH2 0x2376 JUMP JUMPDEST POP POP JUMPDEST POP POP POP JUMP JUMPDEST PUSH0 DUP3 DUP3 SHR SWAP1 POP SWAP3 SWAP2 POP POP JUMP JUMPDEST PUSH0 PUSH2 0x23F9 PUSH0 NOT DUP5 PUSH1 0x8 MUL PUSH2 0x23DE JUMP JUMPDEST NOT DUP1 DUP4 AND SWAP2 POP POP SWAP3 SWAP2 POP POP JUMP JUMPDEST PUSH0 PUSH2 0x2411 DUP4 DUP4 PUSH2 0x23EA JUMP JUMPDEST SWAP2 POP DUP3 PUSH1 0x2 MUL DUP3 OR SWAP1 POP SWAP3 SWAP2 POP POP JUMP JUMPDEST PUSH2 0x242A DUP3 PUSH2 0x14EB JUMP JUMPDEST PUSH8 0xFFFFFFFFFFFFFFFF DUP2 GT ISZERO PUSH2 0x2443 JUMPI PUSH2 0x2442 PUSH2 0x1A12 JUMP JUMPDEST JUMPDEST PUSH2 0x244D DUP3 SLOAD PUSH2 0x1E9A JUMP JUMPDEST PUSH2 0x2458 DUP3 DUP3 DUP6 PUSH2 0x2398 JUMP JUMPDEST PUSH0 PUSH1 0x20 SWAP1 POP PUSH1 0x1F DUP4 GT PUSH1 0x1 DUP2 EQ PUSH2 0x2489 JUMPI PUSH0 DUP5 ISZERO PUSH2 0x2477 JUMPI DUP3 DUP8 ADD MLOAD SWAP1 POP JUMPDEST PUSH2 0x2481 DUP6 DUP3 PUSH2 0x2406 JUMP JUMPDEST DUP7 SSTORE POP PUSH2 0x24E8 JUMP JUMPDEST PUSH1 0x1F NOT DUP5 AND PUSH2 0x2497 DUP7 PUSH2 0x2284 JUMP JUMPDEST PUSH0 JUMPDEST DUP3 DUP2 LT ISZERO PUSH2 0x24BE JUMPI DUP5 DUP10 ADD MLOAD DUP3 SSTORE PUSH1 0x1 DUP3 ADD SWAP2 POP PUSH1 0x20 DUP6 ADD SWAP5 POP PUSH1 0x20 DUP2 ADD SWAP1 POP PUSH2 0x2499 JUMP JUMPDEST DUP7 DUP4 LT ISZERO PUSH2 0x24DB JUMPI DUP5 DUP10 ADD MLOAD PUSH2 0x24D7 PUSH1 0x1F DUP10 AND DUP3 PUSH2 0x23EA JUMP JUMPDEST DUP4 SSTORE POP JUMPDEST PUSH1 0x1 PUSH1 0x2 DUP9 MUL ADD DUP9 SSTORE POP POP POP JUMPDEST POP POP POP POP POP POP JUMP JUMPDEST PUSH32 0x596F75206861766520616C726561647920616E73776572656400000000000000 PUSH0 DUP3 ADD MSTORE POP JUMP JUMPDEST PUSH0 PUSH2 0x2524 PUSH1 0x19 DUP4 PUSH2 0x14F5 JUMP JUMPDEST SWAP2 POP PUSH2 0x252F DUP3 PUSH2 0x24F0 JUMP JUMPDEST PUSH1 0x20 DUP3 ADD SWAP1 POP SWAP2 SWAP1 POP JUMP JUMPDEST PUSH0 PUSH1 0x20 DUP3 ADD SWAP1 POP DUP2 DUP2 SUB PUSH0 DUP4 ADD MSTORE PUSH2 0x2551 DUP2 PUSH2 0x2518 JUMP JUMPDEST SWAP1 POP SWAP2 SWAP1 POP JUMP JUMPDEST PUSH32 0x4D75737420616E7377657220616C6C207175697A7A6573000000000000000000 PUSH0 DUP3 ADD MSTORE POP JUMP JUMPDEST PUSH0 PUSH2 0x258C PUSH1 0x17 DUP4 PUSH2 0x14F5 JUMP JUMPDEST SWAP2 POP PUSH2 0x2597 DUP3 PUSH2 0x2558 JUMP JUMPDEST PUSH1 0x20 DUP3 ADD SWAP1 POP SWAP2 SWAP1 POP JUMP JUMPDEST PUSH0 PUSH1 0x20 DUP3 ADD SWAP1 POP DUP2 DUP2 SUB PUSH0 DUP4 ADD MSTORE PUSH2 0x25B9 DUP2 PUSH2 0x2580 JUMP JUMPDEST SWAP1 POP SWAP2 SWAP1 POP JUMP JUMPDEST PUSH0 PUSH2 0x25CA DUP3 PUSH2 0x148D JUMP JUMPDEST SWAP2 POP PUSH32 0xFFFFFFFFFFFFFFFFFFFFFFFFFFFFFFFFFFFFFFFFFFFFFFFFFFFFFFFFFFFFFFFF DUP3 SUB PUSH2 0x25FC JUMPI PUSH2 0x25FB PUSH2 0x2090 JUMP JUMPDEST JUMPDEST PUSH1 0x1 DUP3 ADD SWAP1 POP SWAP2 SWAP1 POP JUMP INVALID LOG2 PUSH5 0x6970667358 0x22 SLT KECCAK256 DUP11 0xD9 PUSH6 0x7216ED8A2C85 CALLVALUE EXTCODECOPY GASPRICE 0xAA 0xC1 0xDD JUMPI 0xC4 PUSH26 0x6F616FC8A11AD6BB7914BC79306664736F6C634300081A003300 "
		},
		"gasEstimates": {
			"creation": {
				"codeDepositCost": "1957800",
				"executionCost": "infinite",
				"totalCost": "infinite"
			},
			"external": {
				"addQuiz(string,string[4],uint8)": "infinite",
				"answerQuiz(uint8[])": "infinite",
				"claimReward()": "infinite",
				"correctAnswers(address)": "2890",
				"course()": "infinite",
				"getCourse()": "infinite",
				"getQuizByIndex(uint256)": "infinite",
				"getQuizzes()": "infinite",
				"hasAnswered(address)": "2900",
				"participants(uint256)": "4967",
				"quizzes(uint256)": "infinite",
				"withdraw()": "infinite"
			}
		},
		"methodIdentifiers": {
			"addQuiz(string,string[4],uint8)": "c0ee5b4f",
			"answerQuiz(uint8[])": "d39eaf48",
			"claimReward()": "b88a802f",
			"correctAnswers(address)": "d6b311d4",
			"course()": "dcf63591",
			"getCourse()": "8c14acd5",
			"getQuizByIndex(uint256)": "2c6d6609",
			"getQuizzes()": "5ecd45b9",
			"hasAnswered(address)": "5b67bdb4",
			"participants(uint256)": "35c1d349",
			"quizzes(uint256)": "88409afa",
			"withdraw()": "3ccfd60b"
		}
	},
	"abi": [
		{
			"inputs": [
				{
					"internalType": "string",
					"name": "_name",
					"type": "string"
				},
				{
					"internalType": "uint256",
					"name": "_startDate",
					"type": "uint256"
				},
				{
					"internalType": "uint256",
					"name": "_finishDate",
					"type": "uint256"
				},
				{
					"internalType": "string",
					"name": "_imageIPFS",
					"type": "string"
				},
				{
					"internalType": "string",
					"name": "_description",
					"type": "string"
				}
			],
			"stateMutability": "payable",
			"type": "constructor"
		},
		{
			"inputs": [
				{
					"internalType": "string",
					"name": "_question",
					"type": "string"
				},
				{
					"internalType": "string[4]",
					"name": "_answers",
					"type": "string[4]"
				},
				{
					"internalType": "uint8",
					"name": "_correctAnswer",
					"type": "uint8"
				}
			],
			"name": "addQuiz",
			"outputs": [],
			"stateMutability": "nonpayable",
			"type": "function"
		},
		{
			"inputs": [
				{
					"internalType": "uint8[]",
					"name": "_answers",
					"type": "uint8[]"
				}
			],
			"name": "answerQuiz",
			"outputs": [],
			"stateMutability": "nonpayable",
			"type": "function"
		},
		{
			"inputs": [],
			"name": "claimReward",
			"outputs": [],
			"stateMutability": "nonpayable",
			"type": "function"
		},
		{
			"inputs": [
				{
					"internalType": "address",
					"name": "",
					"type": "address"
				}
			],
			"name": "correctAnswers",
			"outputs": [
				{
					"internalType": "uint256",
					"name": "",
					"type": "uint256"
				}
			],
			"stateMutability": "view",
			"type": "function"
		},
		{
			"inputs": [],
			"name": "course",
			"outputs": [
				{
					"internalType": "string",
					"name": "name",
					"type": "string"
				},
				{
					"internalType": "address",
					"name": "owner",
					"type": "address"
				},
				{
					"internalType": "uint256",
					"name": "startDate",
					"type": "uint256"
				},
				{
					"internalType": "uint256",
					"name": "finishDate",
					"type": "uint256"
				},
				{
					"internalType": "string",
					"name": "imageIPFS",
					"type": "string"
				},
				{
					"internalType": "string",
					"name": "description",
					"type": "string"
				},
				{
					"internalType": "uint256",
					"name": "rewardAmount",
					"type": "uint256"
				}
			],
			"stateMutability": "view",
			"type": "function"
		},
		{
			"inputs": [],
			"name": "getCourse",
			"outputs": [
				{
					"internalType": "string",
					"name": "",
					"type": "string"
				},
				{
					"internalType": "address",
					"name": "",
					"type": "address"
				},
				{
					"internalType": "uint256",
					"name": "",
					"type": "uint256"
				},
				{
					"internalType": "uint256",
					"name": "",
					"type": "uint256"
				},
				{
					"internalType": "string",
					"name": "",
					"type": "string"
				},
				{
					"internalType": "string",
					"name": "",
					"type": "string"
				},
				{
					"internalType": "uint256",
					"name": "",
					"type": "uint256"
				}
			],
			"stateMutability": "view",
			"type": "function"
		},
		{
			"inputs": [
				{
					"internalType": "uint256",
					"name": "index",
					"type": "uint256"
				}
			],
			"name": "getQuizByIndex",
			"outputs": [
				{
					"internalType": "string",
					"name": "",
					"type": "string"
				},
				{
					"internalType": "string[4]",
					"name": "",
					"type": "string[4]"
				},
				{
					"internalType": "uint8",
					"name": "",
					"type": "uint8"
				}
			],
			"stateMutability": "view",
			"type": "function"
		},
		{
			"inputs": [],
			"name": "getQuizzes",
			"outputs": [
				{
					"components": [
						{
							"internalType": "string",
							"name": "question",
							"type": "string"
						},
						{
							"internalType": "string[4]",
							"name": "answers",
							"type": "string[4]"
						},
						{
							"internalType": "uint8",
							"name": "correctAnswer",
							"type": "uint8"
						}
					],
					"internalType": "struct Course.Quiz[]",
					"name": "",
					"type": "tuple[]"
				}
			],
			"stateMutability": "view",
			"type": "function"
		},
		{
			"inputs": [
				{
					"internalType": "address",
					"name": "",
					"type": "address"
				}
			],
			"name": "hasAnswered",
			"outputs": [
				{
					"internalType": "bool",
					"name": "",
					"type": "bool"
				}
			],
			"stateMutability": "view",
			"type": "function"
		},
		{
			"inputs": [
				{
					"internalType": "uint256",
					"name": "",
					"type": "uint256"
				}
			],
			"name": "participants",
			"outputs": [
				{
					"internalType": "address",
					"name": "",
					"type": "address"
				}
			],
			"stateMutability": "view",
			"type": "function"
		},
		{
			"inputs": [
				{
					"internalType": "uint256",
					"name": "",
					"type": "uint256"
				}
			],
			"name": "quizzes",
			"outputs": [
				{
					"internalType": "string",
					"name": "question",
					"type": "string"
				},
				{
					"internalType": "uint8",
					"name": "correctAnswer",
					"type": "uint8"
				}
			],
			"stateMutability": "view",
			"type": "function"
		},
		{
			"inputs": [],
			"name": "withdraw",
			"outputs": [],
			"stateMutability": "nonpayable",
			"type": "function"
		}
	]
}