{
	"contracts/fan.sol": {
		"FanClubFactory": {
			"abi": [
				{
					"inputs": [],
					"stateMutability": "nonpayable",
					"type": "constructor"
				},
				{
					"inputs": [
						{
							"internalType": "address",
							"name": "owner",
							"type": "address"
						}
					],
					"name": "OwnableInvalidOwner",
					"type": "error"
				},
				{
					"inputs": [
						{
							"internalType": "address",
							"name": "account",
							"type": "address"
						}
					],
					"name": "OwnableUnauthorizedAccount",
					"type": "error"
				},
				{
					"anonymous": false,
					"inputs": [
						{
							"indexed": true,
							"internalType": "uint256",
							"name": "clubId",
							"type": "uint256"
						},
						{
							"indexed": false,
							"internalType": "string",
							"name": "name",
							"type": "string"
						},
						{
							"indexed": false,
							"internalType": "enum FanClubFactory.FanType",
							"name": "fanType",
							"type": "uint8"
						},
						{
							"indexed": false,
							"internalType": "address",
							"name": "creator",
							"type": "address"
						},
						{
							"indexed": false,
							"internalType": "string",
							"name": "image",
							"type": "string"
						}
					],
					"name": "FanClubCreated",
					"type": "event"
				},
				{
					"anonymous": false,
					"inputs": [
						{
							"indexed": false,
							"internalType": "enum FanClubFactory.FanType",
							"name": "fanType",
							"type": "uint8"
						},
						{
							"indexed": false,
							"internalType": "address",
							"name": "tokenAddress",
							"type": "address"
						}
					],
					"name": "FanTypeTokenUpdated",
					"type": "event"
				},
				{
					"anonymous": false,
					"inputs": [
						{
							"indexed": true,
							"internalType": "address",
							"name": "previousOwner",
							"type": "address"
						},
						{
							"indexed": true,
							"internalType": "address",
							"name": "newOwner",
							"type": "address"
						}
					],
					"name": "OwnershipTransferred",
					"type": "event"
				},
				{
					"anonymous": false,
					"inputs": [
						{
							"indexed": true,
							"internalType": "uint256",
							"name": "clubId",
							"type": "uint256"
						},
						{
							"indexed": false,
							"internalType": "address",
							"name": "buyer",
							"type": "address"
						},
						{
							"indexed": false,
							"internalType": "uint256",
							"name": "amount",
							"type": "uint256"
						},
						{
							"indexed": false,
							"internalType": "uint256",
							"name": "price",
							"type": "uint256"
						}
					],
					"name": "SharesBought",
					"type": "event"
				},
				{
					"anonymous": false,
					"inputs": [
						{
							"indexed": true,
							"internalType": "uint256",
							"name": "clubId",
							"type": "uint256"
						},
						{
							"indexed": false,
							"internalType": "address",
							"name": "seller",
							"type": "address"
						},
						{
							"indexed": false,
							"internalType": "uint256",
							"name": "amount",
							"type": "uint256"
						},
						{
							"indexed": false,
							"internalType": "uint256",
							"name": "price",
							"type": "uint256"
						}
					],
					"name": "SharesSold",
					"type": "event"
				},
				{
					"inputs": [
						{
							"internalType": "uint256",
							"name": "_clubId",
							"type": "uint256"
						},
						{
							"internalType": "uint256",
							"name": "_amount",
							"type": "uint256"
						}
					],
					"name": "buyShares",
					"outputs": [],
					"stateMutability": "nonpayable",
					"type": "function"
				},
				{
					"inputs": [
						{
							"internalType": "uint256",
							"name": "_shares",
							"type": "uint256"
						}
					],
					"name": "calculatePrice",
					"outputs": [
						{
							"internalType": "uint256",
							"name": "",
							"type": "uint256"
						}
					],
					"stateMutability": "pure",
					"type": "function"
				},
				{
					"inputs": [
						{
							"internalType": "string",
							"name": "_name",
							"type": "string"
						},
						{
							"internalType": "string",
							"name": "_description",
							"type": "string"
						},
						{
							"internalType": "enum FanClubFactory.FanType",
							"name": "_fanType",
							"type": "uint8"
						},
						{
							"internalType": "string",
							"name": "_image",
							"type": "string"
						}
					],
					"name": "createFanClub",
					"outputs": [],
					"stateMutability": "nonpayable",
					"type": "function"
				},
				{
					"inputs": [
						{
							"internalType": "uint256",
							"name": "",
							"type": "uint256"
						}
					],
					"name": "fanClubs",
					"outputs": [
						{
							"internalType": "string",
							"name": "name",
							"type": "string"
						},
						{
							"internalType": "string",
							"name": "description",
							"type": "string"
						},
						{
							"internalType": "enum FanClubFactory.FanType",
							"name": "fanType",
							"type": "uint8"
						},
						{
							"internalType": "address",
							"name": "tokenAddress",
							"type": "address"
						},
						{
							"internalType": "string",
							"name": "image",
							"type": "string"
						},
						{
							"internalType": "uint256",
							"name": "totalShares",
							"type": "uint256"
						},
						{
							"internalType": "uint256",
							"name": "sharePrice",
							"type": "uint256"
						},
						{
							"internalType": "address",
							"name": "creator",
							"type": "address"
						}
					],
					"stateMutability": "view",
					"type": "function"
				},
				{
					"inputs": [
						{
							"internalType": "enum FanClubFactory.FanType",
							"name": "",
							"type": "uint8"
						}
					],
					"name": "fanTypeTokens",
					"outputs": [
						{
							"internalType": "address",
							"name": "",
							"type": "address"
						}
					],
					"stateMutability": "view",
					"type": "function"
				},
				{
					"inputs": [
						{
							"internalType": "uint256",
							"name": "_clubId",
							"type": "uint256"
						}
					],
					"name": "getShareholders",
					"outputs": [
						{
							"internalType": "address[]",
							"name": "",
							"type": "address[]"
						},
						{
							"internalType": "uint256[]",
							"name": "",
							"type": "uint256[]"
						}
					],
					"stateMutability": "view",
					"type": "function"
				},
				{
					"inputs": [],
					"name": "owner",
					"outputs": [
						{
							"internalType": "address",
							"name": "",
							"type": "address"
						}
					],
					"stateMutability": "view",
					"type": "function"
				},
				{
					"inputs": [],
					"name": "renounceOwnership",
					"outputs": [],
					"stateMutability": "nonpayable",
					"type": "function"
				},
				{
					"inputs": [
						{
							"internalType": "uint256",
							"name": "_clubId",
							"type": "uint256"
						},
						{
							"internalType": "uint256",
							"name": "_amount",
							"type": "uint256"
						}
					],
					"name": "sellShares",
					"outputs": [],
					"stateMutability": "nonpayable",
					"type": "function"
				},
				{
					"inputs": [
						{
							"internalType": "enum FanClubFactory.FanType",
							"name": "_fanType",
							"type": "uint8"
						},
						{
							"internalType": "address",
							"name": "_tokenAddress",
							"type": "address"
						}
					],
					"name": "setFanTypeToken",
					"outputs": [],
					"stateMutability": "nonpayable",
					"type": "function"
				},
				{
					"inputs": [
						{
							"internalType": "address",
							"name": "newOwner",
							"type": "address"
						}
					],
					"name": "transferOwnership",
					"outputs": [],
					"stateMutability": "nonpayable",
					"type": "function"
				}
			],
			"devdoc": {
				"errors": {
					"OwnableInvalidOwner(address)": [
						{
							"details": "The owner is not a valid owner account. (eg. `address(0)`)"
						}
					],
					"OwnableUnauthorizedAccount(address)": [
						{
							"details": "The caller account is not authorized to perform an operation."
						}
					]
				},
				"kind": "dev",
				"methods": {
					"owner()": {
						"details": "Returns the address of the current owner."
					},
					"renounceOwnership()": {
						"details": "Leaves the contract without owner. It will not be possible to call `onlyOwner` functions. Can only be called by the current owner. NOTE: Renouncing ownership will leave the contract without an owner, thereby disabling any functionality that is only available to the owner."
					},
					"transferOwnership(address)": {
						"details": "Transfers ownership of the contract to a new account (`newOwner`). Can only be called by the current owner."
					}
				},
				"version": 1
			},
			"evm": {
				"assembly": "    /* \"contracts/fan.sol\":168:6861  contract FanClubFactory is Ownable {... */\n  mstore(0x40, 0x80)\n    /* \"contracts/fan.sol\":1287:1323  constructor() Ownable(msg.sender) {} */\n  callvalue\n  dup1\n  iszero\n  tag_1\n  jumpi\n  0x00\n  dup1\n  revert\ntag_1:\n  pop\n    /* \"contracts/fan.sol\":1309:1319  msg.sender */\n  caller\n    /* \"@openzeppelin/contracts/access/Ownable.sol\":1297:1298  0 */\n  0x00\n    /* \"@openzeppelin/contracts/access/Ownable.sol\":1273:1299  initialOwner == address(0) */\n  0xffffffffffffffffffffffffffffffffffffffff\n  and\n    /* \"@openzeppelin/contracts/access/Ownable.sol\":1273:1285  initialOwner */\n  dup2\n    /* \"@openzeppelin/contracts/access/Ownable.sol\":1273:1299  initialOwner == address(0) */\n  0xffffffffffffffffffffffffffffffffffffffff\n  and\n  sub\n    /* \"@openzeppelin/contracts/access/Ownable.sol\":1269:1364  if (initialOwner == address(0)) {... */\n  tag_5\n  jumpi\n    /* \"@openzeppelin/contracts/access/Ownable.sol\":1350:1351  0 */\n  0x00\n    /* \"@openzeppelin/contracts/access/Ownable.sol\":1322:1353  OwnableInvalidOwner(address(0)) */\n  mload(0x40)\n  0x1e4fbdf700000000000000000000000000000000000000000000000000000000\n  dup2\n  mstore\n  0x04\n  add\n  tag_6\n  swap2\n  swap1\n  tag_7\n  jump\t// in\ntag_6:\n  mload(0x40)\n  dup1\n  swap2\n  sub\n  swap1\n  revert\n    /* \"@openzeppelin/contracts/access/Ownable.sol\":1269:1364  if (initialOwner == address(0)) {... */\ntag_5:\n    /* \"@openzeppelin/contracts/access/Ownable.sol\":1373:1405  _transferOwnership(initialOwner) */\n  tag_8\n    /* \"@openzeppelin/contracts/access/Ownable.sol\":1392:1404  initialOwner */\n  dup2\n    /* \"@openzeppelin/contracts/access/Ownable.sol\":1373:1391  _transferOwnership */\n  shl(0x20, tag_9)\n    /* \"@openzeppelin/contracts/access/Ownable.sol\":1373:1405  _transferOwnership(initialOwner) */\n  0x20\n  shr\n  jump\t// in\ntag_8:\n    /* \"@openzeppelin/contracts/access/Ownable.sol\":1225:1412  constructor(address initialOwner) {... */\n  pop\n    /* \"contracts/fan.sol\":168:6861  contract FanClubFactory is Ownable {... */\n  jump(tag_11)\n    /* \"@openzeppelin/contracts/access/Ownable.sol\":2912:3099  function _transferOwnership(address newOwner) internal virtual {... */\ntag_9:\n    /* \"@openzeppelin/contracts/access/Ownable.sol\":2985:3001  address oldOwner */\n  0x00\n    /* \"@openzeppelin/contracts/access/Ownable.sol\":3004:3010  _owner */\n  dup1\n  0x00\n  swap1\n  sload\n  swap1\n  0x0100\n  exp\n  swap1\n  div\n  0xffffffffffffffffffffffffffffffffffffffff\n  and\n    /* \"@openzeppelin/contracts/access/Ownable.sol\":2985:3010  address oldOwner = _owner */\n  swap1\n  pop\n    /* \"@openzeppelin/contracts/access/Ownable.sol\":3029:3037  newOwner */\n  dup2\n    /* \"@openzeppelin/contracts/access/Ownable.sol\":3020:3026  _owner */\n  0x00\n  dup1\n    /* \"@openzeppelin/contracts/access/Ownable.sol\":3020:3037  _owner = newOwner */\n  0x0100\n  exp\n  dup2\n  sload\n  dup2\n  0xffffffffffffffffffffffffffffffffffffffff\n  mul\n  not\n  and\n  swap1\n  dup4\n  0xffffffffffffffffffffffffffffffffffffffff\n  and\n  mul\n  or\n  swap1\n  sstore\n  pop\n    /* \"@openzeppelin/contracts/access/Ownable.sol\":3083:3091  newOwner */\n  dup2\n    /* \"@openzeppelin/contracts/access/Ownable.sol\":3052:3092  OwnershipTransferred(oldOwner, newOwner) */\n  0xffffffffffffffffffffffffffffffffffffffff\n  and\n    /* \"@openzeppelin/contracts/access/Ownable.sol\":3073:3081  oldOwner */\n  dup2\n    /* \"@openzeppelin/contracts/access/Ownable.sol\":3052:3092  OwnershipTransferred(oldOwner, newOwner) */\n  0xffffffffffffffffffffffffffffffffffffffff\n  and\n  0x8be0079c531659141344cd1fd0a4f28419497f9722a3daafe3b4186f6b6457e0\n  mload(0x40)\n  mload(0x40)\n  dup1\n  swap2\n  sub\n  swap1\n  log3\n    /* \"@openzeppelin/contracts/access/Ownable.sol\":2975:3099  {... */\n  pop\n    /* \"@openzeppelin/contracts/access/Ownable.sol\":2912:3099  function _transferOwnership(address newOwner) internal virtual {... */\n  pop\n  jump\t// out\n    /* \"#utility.yul\":7:133   */\ntag_13:\n    /* \"#utility.yul\":44:51   */\n  0x00\n    /* \"#utility.yul\":84:126   */\n  0xffffffffffffffffffffffffffffffffffffffff\n    /* \"#utility.yul\":77:82   */\n  dup3\n    /* \"#utility.yul\":73:127   */\n  and\n    /* \"#utility.yul\":62:127   */\n  swap1\n  pop\n    /* \"#utility.yul\":7:133   */\n  swap2\n  swap1\n  pop\n  jump\t// out\n    /* \"#utility.yul\":139:235   */\ntag_14:\n    /* \"#utility.yul\":176:183   */\n  0x00\n    /* \"#utility.yul\":205:229   */\n  tag_19\n    /* \"#utility.yul\":223:228   */\n  dup3\n    /* \"#utility.yul\":205:229   */\n  tag_13\n  jump\t// in\ntag_19:\n    /* \"#utility.yul\":194:229   */\n  swap1\n  pop\n    /* \"#utility.yul\":139:235   */\n  swap2\n  swap1\n  pop\n  jump\t// out\n    /* \"#utility.yul\":241:359   */\ntag_15:\n    /* \"#utility.yul\":328:352   */\n  tag_21\n    /* \"#utility.yul\":346:351   */\n  dup2\n    /* \"#utility.yul\":328:352   */\n  tag_14\n  jump\t// in\ntag_21:\n    /* \"#utility.yul\":323:326   */\n  dup3\n    /* \"#utility.yul\":316:353   */\n  mstore\n    /* \"#utility.yul\":241:359   */\n  pop\n  pop\n  jump\t// out\n    /* \"#utility.yul\":365:587   */\ntag_7:\n    /* \"#utility.yul\":458:462   */\n  0x00\n    /* \"#utility.yul\":496:498   */\n  0x20\n    /* \"#utility.yul\":485:494   */\n  dup3\n    /* \"#utility.yul\":481:499   */\n  add\n    /* \"#utility.yul\":473:499   */\n  swap1\n  pop\n    /* \"#utility.yul\":509:580   */\n  tag_23\n    /* \"#utility.yul\":577:578   */\n  0x00\n    /* \"#utility.yul\":566:575   */\n  dup4\n    /* \"#utility.yul\":562:579   */\n  add\n    /* \"#utility.yul\":553:559   */\n  dup5\n    /* \"#utility.yul\":509:580   */\n  tag_15\n  jump\t// in\ntag_23:\n    /* \"#utility.yul\":365:587   */\n  swap3\n  swap2\n  pop\n  pop\n  jump\t// out\n    /* \"contracts/fan.sol\":168:6861  contract FanClubFactory is Ownable {... */\ntag_11:\n  dataSize(sub_0)\n  dup1\n  dataOffset(sub_0)\n  0x00\n  codecopy\n  0x00\n  return\nstop\n\nsub_0: assembly {\n        /* \"contracts/fan.sol\":168:6861  contract FanClubFactory is Ownable {... */\n      mstore(0x40, 0x80)\n      callvalue\n      dup1\n      iszero\n      tag_1\n      jumpi\n      0x00\n      dup1\n      revert\n    tag_1:\n      pop\n      jumpi(tag_2, lt(calldatasize, 0x04))\n      shr(0xe0, calldataload(0x00))\n      dup1\n      0xae59411e\n      gt\n      tag_14\n      jumpi\n      dup1\n      0xae59411e\n      eq\n      tag_8\n      jumpi\n      dup1\n      0xbeebc5da\n      eq\n      tag_9\n      jumpi\n      dup1\n      0xc489171d\n      eq\n      tag_10\n      jumpi\n      dup1\n      0xc5350e07\n      eq\n      tag_11\n      jumpi\n      dup1\n      0xe7ba98d0\n      eq\n      tag_12\n      jumpi\n      dup1\n      0xf2fde38b\n      eq\n      tag_13\n      jumpi\n      jump(tag_2)\n    tag_14:\n      dup1\n      0x2279a970\n      eq\n      tag_3\n      jumpi\n      dup1\n      0x715018a6\n      eq\n      tag_4\n      jumpi\n      dup1\n      0x8145b30a\n      eq\n      tag_5\n      jumpi\n      dup1\n      0x8da5cb5b\n      eq\n      tag_6\n      jumpi\n      dup1\n      0xae104265\n      eq\n      tag_7\n      jumpi\n    tag_2:\n      0x00\n      dup1\n      revert\n        /* \"contracts/fan.sol\":4121:5379  function sellShares(uint256 _clubId, uint256 _amount) external {... */\n    tag_3:\n      tag_15\n      0x04\n      dup1\n      calldatasize\n      sub\n      dup2\n      add\n      swap1\n      tag_16\n      swap2\n      swap1\n      tag_17\n      jump\t// in\n    tag_16:\n      tag_18\n      jump\t// in\n    tag_15:\n      stop\n        /* \"@openzeppelin/contracts/access/Ownable.sol\":2293:2394  function renounceOwnership() public virtual onlyOwner {... */\n    tag_4:\n      tag_19\n      tag_20\n      jump\t// in\n    tag_19:\n      stop\n        /* \"contracts/fan.sol\":813:838  FanClub[] public fanClubs */\n    tag_5:\n      tag_21\n      0x04\n      dup1\n      calldatasize\n      sub\n      dup2\n      add\n      swap1\n      tag_22\n      swap2\n      swap1\n      tag_23\n      jump\t// in\n    tag_22:\n      tag_24\n      jump\t// in\n    tag_21:\n      mload(0x40)\n      tag_25\n      swap9\n      swap8\n      swap7\n      swap6\n      swap5\n      swap4\n      swap3\n      swap2\n      swap1\n      tag_26\n      jump\t// in\n    tag_25:\n      mload(0x40)\n      dup1\n      swap2\n      sub\n      swap1\n      return\n        /* \"@openzeppelin/contracts/access/Ownable.sol\":1638:1723  function owner() public view virtual returns (address) {... */\n    tag_6:\n      tag_27\n      tag_28\n      jump\t// in\n    tag_27:\n      mload(0x40)\n      tag_29\n      swap2\n      swap1\n      tag_30\n      jump\t// in\n    tag_29:\n      mload(0x40)\n      dup1\n      swap2\n      sub\n      swap1\n      return\n        /* \"contracts/fan.sol\":5960:6080  function calculatePrice(uint256 _shares) public pure returns (uint256) {... */\n    tag_7:\n      tag_31\n      0x04\n      dup1\n      calldatasize\n      sub\n      dup2\n      add\n      swap1\n      tag_32\n      swap2\n      swap1\n      tag_23\n      jump\t// in\n    tag_32:\n      tag_33\n      jump\t// in\n    tag_31:\n      mload(0x40)\n      tag_34\n      swap2\n      swap1\n      tag_35\n      jump\t// in\n    tag_34:\n      mload(0x40)\n      dup1\n      swap2\n      sub\n      swap1\n      return\n        /* \"contracts/fan.sol\":1719:2905  function createFanClub(... */\n    tag_8:\n      tag_36\n      0x04\n      dup1\n      calldatasize\n      sub\n      dup2\n      add\n      swap1\n      tag_37\n      swap2\n      swap1\n      tag_38\n      jump\t// in\n    tag_37:\n      tag_39\n      jump\t// in\n    tag_36:\n      stop\n        /* \"contracts/fan.sol\":2952:4073  function buyShares(uint256 _clubId, uint256 _amount) external {... */\n    tag_9:\n      tag_40\n      0x04\n      dup1\n      calldatasize\n      sub\n      dup2\n      add\n      swap1\n      tag_41\n      swap2\n      swap1\n      tag_17\n      jump\t// in\n    tag_41:\n      tag_42\n      jump\t// in\n    tag_40:\n      stop\n        /* \"contracts/fan.sol\":1387:1658  function setFanTypeToken(FanType _fanType, address _tokenAddress) external onlyOwner {... */\n    tag_10:\n      tag_43\n      0x04\n      dup1\n      calldatasize\n      sub\n      dup2\n      add\n      swap1\n      tag_44\n      swap2\n      swap1\n      tag_45\n      jump\t// in\n    tag_44:\n      tag_46\n      jump\t// in\n    tag_43:\n      stop\n        /* \"contracts/fan.sol\":6171:6859  function getShareholders(uint256 _clubId) external view returns (address[] memory, uint256[] memory) {... */\n    tag_11:\n      tag_47\n      0x04\n      dup1\n      calldatasize\n      sub\n      dup2\n      add\n      swap1\n      tag_48\n      swap2\n      swap1\n      tag_23\n      jump\t// in\n    tag_48:\n      tag_49\n      jump\t// in\n    tag_47:\n      mload(0x40)\n      tag_50\n      swap3\n      swap2\n      swap1\n      tag_51\n      jump\t// in\n    tag_50:\n      mload(0x40)\n      dup1\n      swap2\n      sub\n      swap1\n      return\n        /* \"contracts/fan.sol\":722:770  mapping(FanType => address) public fanTypeTokens */\n    tag_12:\n      tag_52\n      0x04\n      dup1\n      calldatasize\n      sub\n      dup2\n      add\n      swap1\n      tag_53\n      swap2\n      swap1\n      tag_54\n      jump\t// in\n    tag_53:\n      tag_55\n      jump\t// in\n    tag_52:\n      mload(0x40)\n      tag_56\n      swap2\n      swap1\n      tag_30\n      jump\t// in\n    tag_56:\n      mload(0x40)\n      dup1\n      swap2\n      sub\n      swap1\n      return\n        /* \"@openzeppelin/contracts/access/Ownable.sol\":2543:2758  function transferOwnership(address newOwner) public virtual onlyOwner {... */\n    tag_13:\n      tag_57\n      0x04\n      dup1\n      calldatasize\n      sub\n      dup2\n      add\n      swap1\n      tag_58\n      swap2\n      swap1\n      tag_59\n      jump\t// in\n    tag_58:\n      tag_60\n      jump\t// in\n    tag_57:\n      stop\n        /* \"contracts/fan.sol\":4121:5379  function sellShares(uint256 _clubId, uint256 _amount) external {... */\n    tag_18:\n        /* \"contracts/fan.sol\":4212:4220  fanClubs */\n      0x02\n        /* \"contracts/fan.sol\":4212:4227  fanClubs.length */\n      dup1\n      sload\n      swap1\n      pop\n        /* \"contracts/fan.sol\":4202:4209  _clubId */\n      dup3\n        /* \"contracts/fan.sol\":4202:4227  _clubId < fanClubs.length */\n      lt\n        /* \"contracts/fan.sol\":4194:4254  require(_clubId < fanClubs.length, \"FanClub does not exist\") */\n      tag_62\n      jumpi\n      mload(0x40)\n      0x08c379a000000000000000000000000000000000000000000000000000000000\n      dup2\n      mstore\n      0x04\n      add\n      tag_63\n      swap1\n      tag_64\n      jump\t// in\n    tag_63:\n      mload(0x40)\n      dup1\n      swap2\n      sub\n      swap1\n      revert\n    tag_62:\n        /* \"contracts/fan.sol\":4282:4283  0 */\n      0x00\n        /* \"contracts/fan.sol\":4272:4279  _amount */\n      dup2\n        /* \"contracts/fan.sol\":4272:4283  _amount > 0 */\n      gt\n        /* \"contracts/fan.sol\":4264:4320  require(_amount > 0, \"Amount must be greater than zero\") */\n      tag_65\n      jumpi\n      mload(0x40)\n      0x08c379a000000000000000000000000000000000000000000000000000000000\n      dup2\n      mstore\n      0x04\n      add\n      tag_66\n      swap1\n      tag_67\n      jump\t// in\n    tag_66:\n      mload(0x40)\n      dup1\n      swap2\n      sub\n      swap1\n      revert\n    tag_65:\n        /* \"contracts/fan.sol\":4331:4351  FanClub storage club */\n      0x00\n        /* \"contracts/fan.sol\":4354:4362  fanClubs */\n      0x02\n        /* \"contracts/fan.sol\":4363:4370  _clubId */\n      dup4\n        /* \"contracts/fan.sol\":4354:4371  fanClubs[_clubId] */\n      dup2\n      sload\n      dup2\n      lt\n      tag_68\n      jumpi\n      tag_69\n      tag_70\n      jump\t// in\n    tag_69:\n    tag_68:\n      swap1\n      0x00\n      mstore\n      keccak256(0x00, 0x20)\n      swap1\n      0x09\n      mul\n      add\n        /* \"contracts/fan.sol\":4331:4371  FanClub storage club = fanClubs[_clubId] */\n      swap1\n      pop\n        /* \"contracts/fan.sol\":4421:4428  _amount */\n      dup2\n        /* \"contracts/fan.sol\":4389:4393  club */\n      dup2\n        /* \"contracts/fan.sol\":4389:4405  club.sharesOwned */\n      0x07\n      add\n        /* \"contracts/fan.sol\":4389:4417  club.sharesOwned[msg.sender] */\n      0x00\n        /* \"contracts/fan.sol\":4406:4416  msg.sender */\n      caller\n        /* \"contracts/fan.sol\":4389:4417  club.sharesOwned[msg.sender] */\n      0xffffffffffffffffffffffffffffffffffffffff\n      and\n      0xffffffffffffffffffffffffffffffffffffffff\n      and\n      dup2\n      mstore\n      0x20\n      add\n      swap1\n      dup2\n      mstore\n      0x20\n      add\n      0x00\n      keccak256\n      sload\n        /* \"contracts/fan.sol\":4389:4428  club.sharesOwned[msg.sender] >= _amount */\n      lt\n      iszero\n        /* \"contracts/fan.sol\":4381:4458  require(club.sharesOwned[msg.sender] >= _amount, \"Not enough shares to sell\") */\n      tag_72\n      jumpi\n      mload(0x40)\n      0x08c379a000000000000000000000000000000000000000000000000000000000\n      dup2\n      mstore\n      0x04\n      add\n      tag_73\n      swap1\n      tag_74\n      jump\t// in\n    tag_73:\n      mload(0x40)\n      dup1\n      swap2\n      sub\n      swap1\n      revert\n    tag_72:\n        /* \"contracts/fan.sol\":4469:4486  address tokenAddr */\n      0x00\n        /* \"contracts/fan.sol\":4489:4493  club */\n      dup2\n        /* \"contracts/fan.sol\":4489:4506  club.tokenAddress */\n      0x02\n      add\n      0x01\n      swap1\n      sload\n      swap1\n      0x0100\n      exp\n      swap1\n      div\n      0xffffffffffffffffffffffffffffffffffffffff\n      and\n        /* \"contracts/fan.sol\":4469:4506  address tokenAddr = club.tokenAddress */\n      swap1\n      pop\n        /* \"contracts/fan.sol\":4516:4531  IERC20 fanToken */\n      0x00\n        /* \"contracts/fan.sol\":4541:4550  tokenAddr */\n      dup2\n        /* \"contracts/fan.sol\":4516:4551  IERC20 fanToken = IERC20(tokenAddr) */\n      swap1\n      pop\n        /* \"contracts/fan.sol\":4562:4580  uint256 totalPrice */\n      0x00\n        /* \"contracts/fan.sol\":4618:4660  calculatePrice(club.totalShares - _amount) */\n      tag_75\n        /* \"contracts/fan.sol\":4652:4659  _amount */\n      dup6\n        /* \"contracts/fan.sol\":4633:4637  club */\n      dup6\n        /* \"contracts/fan.sol\":4633:4649  club.totalShares */\n      0x04\n      add\n      sload\n        /* \"contracts/fan.sol\":4633:4659  club.totalShares - _amount */\n      tag_76\n      swap2\n      swap1\n      tag_77\n      jump\t// in\n    tag_76:\n        /* \"contracts/fan.sol\":4618:4632  calculatePrice */\n      tag_33\n        /* \"contracts/fan.sol\":4618:4660  calculatePrice(club.totalShares - _amount) */\n      jump\t// in\n    tag_75:\n        /* \"contracts/fan.sol\":4583:4615  calculatePrice(club.totalShares) */\n      tag_78\n        /* \"contracts/fan.sol\":4598:4602  club */\n      dup6\n        /* \"contracts/fan.sol\":4598:4614  club.totalShares */\n      0x04\n      add\n      sload\n        /* \"contracts/fan.sol\":4583:4597  calculatePrice */\n      tag_33\n        /* \"contracts/fan.sol\":4583:4615  calculatePrice(club.totalShares) */\n      jump\t// in\n    tag_78:\n        /* \"contracts/fan.sol\":4583:4660  calculatePrice(club.totalShares) - calculatePrice(club.totalShares - _amount) */\n      tag_79\n      swap2\n      swap1\n      tag_77\n      jump\t// in\n    tag_79:\n        /* \"contracts/fan.sol\":4562:4660  uint256 totalPrice = calculatePrice(club.totalShares) - calculatePrice(club.totalShares - _amount) */\n      swap1\n      pop\n        /* \"contracts/fan.sol\":4715:4725  totalPrice */\n      dup1\n        /* \"contracts/fan.sol\":4678:4686  fanToken */\n      dup3\n        /* \"contracts/fan.sol\":4678:4696  fanToken.balanceOf */\n      0xffffffffffffffffffffffffffffffffffffffff\n      and\n      0x70a08231\n        /* \"contracts/fan.sol\":4705:4709  this */\n      address\n        /* \"contracts/fan.sol\":4678:4711  fanToken.balanceOf(address(this)) */\n      mload(0x40)\n      dup3\n      0xffffffff\n      and\n      0xe0\n      shl\n      dup2\n      mstore\n      0x04\n      add\n      tag_80\n      swap2\n      swap1\n      tag_30\n      jump\t// in\n    tag_80:\n      0x20\n      mload(0x40)\n      dup1\n      dup4\n      sub\n      dup2\n      dup7\n      gas\n      staticcall\n      iszero\n      dup1\n      iszero\n      tag_82\n      jumpi\n      returndatasize\n      0x00\n      dup1\n      returndatacopy\n      revert(0x00, returndatasize)\n    tag_82:\n      pop\n      pop\n      pop\n      pop\n      mload(0x40)\n      returndatasize\n      not(0x1f)\n      0x1f\n      dup3\n      add\n      and\n      dup3\n      add\n      dup1\n      0x40\n      mstore\n      pop\n      dup2\n      add\n      swap1\n      tag_83\n      swap2\n      swap1\n      tag_84\n      jump\t// in\n    tag_83:\n        /* \"contracts/fan.sol\":4678:4725  fanToken.balanceOf(address(this)) >= totalPrice */\n      lt\n      iszero\n        /* \"contracts/fan.sol\":4670:4762  require(fanToken.balanceOf(address(this)) >= totalPrice, \"Contract has insufficient tokens\") */\n      tag_85\n      jumpi\n      mload(0x40)\n      0x08c379a000000000000000000000000000000000000000000000000000000000\n      dup2\n      mstore\n      0x04\n      add\n      tag_86\n      swap1\n      tag_87\n      jump\t// in\n    tag_86:\n      mload(0x40)\n      dup1\n      swap2\n      sub\n      swap1\n      revert\n    tag_85:\n        /* \"contracts/fan.sol\":4832:4844  bool success */\n      0x00\n        /* \"contracts/fan.sol\":4847:4855  fanToken */\n      dup3\n        /* \"contracts/fan.sol\":4847:4864  fanToken.transfer */\n      0xffffffffffffffffffffffffffffffffffffffff\n      and\n      0xa9059cbb\n        /* \"contracts/fan.sol\":4865:4875  msg.sender */\n      caller\n        /* \"contracts/fan.sol\":4877:4887  totalPrice */\n      dup5\n        /* \"contracts/fan.sol\":4847:4888  fanToken.transfer(msg.sender, totalPrice) */\n      mload(0x40)\n      dup4\n      0xffffffff\n      and\n      0xe0\n      shl\n      dup2\n      mstore\n      0x04\n      add\n      tag_88\n      swap3\n      swap2\n      swap1\n      tag_89\n      jump\t// in\n    tag_88:\n      0x20\n      mload(0x40)\n      dup1\n      dup4\n      sub\n      dup2\n      0x00\n      dup8\n      gas\n      call\n      iszero\n      dup1\n      iszero\n      tag_91\n      jumpi\n      returndatasize\n      0x00\n      dup1\n      returndatacopy\n      revert(0x00, returndatasize)\n    tag_91:\n      pop\n      pop\n      pop\n      pop\n      mload(0x40)\n      returndatasize\n      not(0x1f)\n      0x1f\n      dup3\n      add\n      and\n      dup3\n      add\n      dup1\n      0x40\n      mstore\n      pop\n      dup2\n      add\n      swap1\n      tag_92\n      swap2\n      swap1\n      tag_93\n      jump\t// in\n    tag_92:\n        /* \"contracts/fan.sol\":4832:4888  bool success = fanToken.transfer(msg.sender, totalPrice) */\n      swap1\n      pop\n        /* \"contracts/fan.sol\":4906:4913  success */\n      dup1\n        /* \"contracts/fan.sol\":4898:4939  require(success, \"Token transfer failed\") */\n      tag_94\n      jumpi\n      mload(0x40)\n      0x08c379a000000000000000000000000000000000000000000000000000000000\n      dup2\n      mstore\n      0x04\n      add\n      tag_95\n      swap1\n      tag_96\n      jump\t// in\n    tag_95:\n      mload(0x40)\n      dup1\n      swap2\n      sub\n      swap1\n      revert\n    tag_94:\n        /* \"contracts/fan.sol\":5006:5013  _amount */\n      dup6\n        /* \"contracts/fan.sol\":4986:4990  club */\n      dup6\n        /* \"contracts/fan.sol\":4986:5002  club.totalShares */\n      0x04\n      add\n      0x00\n        /* \"contracts/fan.sol\":4986:5013  club.totalShares -= _amount */\n      dup3\n      dup3\n      sload\n      tag_97\n      swap2\n      swap1\n      tag_77\n      jump\t// in\n    tag_97:\n      swap3\n      pop\n      pop\n      dup2\n      swap1\n      sstore\n      pop\n        /* \"contracts/fan.sol\":5041:5073  calculatePrice(club.totalShares) */\n      tag_98\n        /* \"contracts/fan.sol\":5056:5060  club */\n      dup6\n        /* \"contracts/fan.sol\":5056:5072  club.totalShares */\n      0x04\n      add\n      sload\n        /* \"contracts/fan.sol\":5041:5055  calculatePrice */\n      tag_33\n        /* \"contracts/fan.sol\":5041:5073  calculatePrice(club.totalShares) */\n      jump\t// in\n    tag_98:\n        /* \"contracts/fan.sol\":5023:5027  club */\n      dup6\n        /* \"contracts/fan.sol\":5023:5038  club.sharePrice */\n      0x05\n      add\n        /* \"contracts/fan.sol\":5023:5073  club.sharePrice = calculatePrice(club.totalShares) */\n      dup2\n      swap1\n      sstore\n      pop\n        /* \"contracts/fan.sol\":5115:5122  _amount */\n      dup6\n        /* \"contracts/fan.sol\":5083:5087  club */\n      dup6\n        /* \"contracts/fan.sol\":5083:5099  club.sharesOwned */\n      0x07\n      add\n        /* \"contracts/fan.sol\":5083:5111  club.sharesOwned[msg.sender] */\n      0x00\n        /* \"contracts/fan.sol\":5100:5110  msg.sender */\n      caller\n        /* \"contracts/fan.sol\":5083:5111  club.sharesOwned[msg.sender] */\n      0xffffffffffffffffffffffffffffffffffffffff\n      and\n      0xffffffffffffffffffffffffffffffffffffffff\n      and\n      dup2\n      mstore\n      0x20\n      add\n      swap1\n      dup2\n      mstore\n      0x20\n      add\n      0x00\n      keccak256\n      0x00\n        /* \"contracts/fan.sol\":5083:5122  club.sharesOwned[msg.sender] -= _amount */\n      dup3\n      dup3\n      sload\n      tag_99\n      swap2\n      swap1\n      tag_77\n      jump\t// in\n    tag_99:\n      swap3\n      pop\n      pop\n      dup2\n      swap1\n      sstore\n      pop\n        /* \"contracts/fan.sol\":5239:5240  0 */\n      0x00\n        /* \"contracts/fan.sol\":5207:5211  club */\n      dup6\n        /* \"contracts/fan.sol\":5207:5223  club.sharesOwned */\n      0x07\n      add\n        /* \"contracts/fan.sol\":5207:5235  club.sharesOwned[msg.sender] */\n      0x00\n        /* \"contracts/fan.sol\":5224:5234  msg.sender */\n      caller\n        /* \"contracts/fan.sol\":5207:5235  club.sharesOwned[msg.sender] */\n      0xffffffffffffffffffffffffffffffffffffffff\n      and\n      0xffffffffffffffffffffffffffffffffffffffff\n      and\n      dup2\n      mstore\n      0x20\n      add\n      swap1\n      dup2\n      mstore\n      0x20\n      add\n      0x00\n      keccak256\n      sload\n        /* \"contracts/fan.sol\":5207:5240  club.sharesOwned[msg.sender] == 0 */\n      sub\n        /* \"contracts/fan.sol\":5203:5305  if (club.sharesOwned[msg.sender] == 0) {... */\n      tag_100\n      jumpi\n        /* \"contracts/fan.sol\":5256:5294  removeShareholder(_clubId, msg.sender) */\n      tag_101\n        /* \"contracts/fan.sol\":5274:5281  _clubId */\n      dup8\n        /* \"contracts/fan.sol\":5283:5293  msg.sender */\n      caller\n        /* \"contracts/fan.sol\":5256:5273  removeShareholder */\n      tag_102\n        /* \"contracts/fan.sol\":5256:5294  removeShareholder(_clubId, msg.sender) */\n      jump\t// in\n    tag_101:\n        /* \"contracts/fan.sol\":5203:5305  if (club.sharesOwned[msg.sender] == 0) {... */\n    tag_100:\n        /* \"contracts/fan.sol\":5331:5338  _clubId */\n      dup7\n        /* \"contracts/fan.sol\":5320:5372  SharesSold(_clubId, msg.sender, _amount, totalPrice) */\n      0xc84ba642853b7fceb52ece6998aa2618edc77f7a182996141f2a470af347cea3\n        /* \"contracts/fan.sol\":5340:5350  msg.sender */\n      caller\n        /* \"contracts/fan.sol\":5352:5359  _amount */\n      dup9\n        /* \"contracts/fan.sol\":5361:5371  totalPrice */\n      dup6\n        /* \"contracts/fan.sol\":5320:5372  SharesSold(_clubId, msg.sender, _amount, totalPrice) */\n      mload(0x40)\n      tag_103\n      swap4\n      swap3\n      swap2\n      swap1\n      tag_104\n      jump\t// in\n    tag_103:\n      mload(0x40)\n      dup1\n      swap2\n      sub\n      swap1\n      log2\n        /* \"contracts/fan.sol\":4184:5379  {... */\n      pop\n      pop\n      pop\n      pop\n      pop\n        /* \"contracts/fan.sol\":4121:5379  function sellShares(uint256 _clubId, uint256 _amount) external {... */\n      pop\n      pop\n      jump\t// out\n        /* \"@openzeppelin/contracts/access/Ownable.sol\":2293:2394  function renounceOwnership() public virtual onlyOwner {... */\n    tag_20:\n        /* \"@openzeppelin/contracts/access/Ownable.sol\":1531:1544  _checkOwner() */\n      tag_106\n        /* \"@openzeppelin/contracts/access/Ownable.sol\":1531:1542  _checkOwner */\n      tag_107\n        /* \"@openzeppelin/contracts/access/Ownable.sol\":1531:1544  _checkOwner() */\n      jump\t// in\n    tag_106:\n        /* \"@openzeppelin/contracts/access/Ownable.sol\":2357:2387  _transferOwnership(address(0)) */\n      tag_109\n        /* \"@openzeppelin/contracts/access/Ownable.sol\":2384:2385  0 */\n      0x00\n        /* \"@openzeppelin/contracts/access/Ownable.sol\":2357:2375  _transferOwnership */\n      tag_110\n        /* \"@openzeppelin/contracts/access/Ownable.sol\":2357:2387  _transferOwnership(address(0)) */\n      jump\t// in\n    tag_109:\n        /* \"@openzeppelin/contracts/access/Ownable.sol\":2293:2394  function renounceOwnership() public virtual onlyOwner {... */\n      jump\t// out\n        /* \"contracts/fan.sol\":813:838  FanClub[] public fanClubs */\n    tag_24:\n      0x02\n      dup2\n      dup2\n      sload\n      dup2\n      lt\n      tag_111\n      jumpi\n      0x00\n      dup1\n      revert\n    tag_111:\n      swap1\n      0x00\n      mstore\n      keccak256(0x00, 0x20)\n      swap1\n      0x09\n      mul\n      add\n      0x00\n      swap2\n      pop\n      swap1\n      pop\n      dup1\n      0x00\n      add\n      dup1\n      sload\n      tag_113\n      swap1\n      tag_114\n      jump\t// in\n    tag_113:\n      dup1\n      0x1f\n      add\n      0x20\n      dup1\n      swap2\n      div\n      mul\n      0x20\n      add\n      mload(0x40)\n      swap1\n      dup2\n      add\n      0x40\n      mstore\n      dup1\n      swap3\n      swap2\n      swap1\n      dup2\n      dup2\n      mstore\n      0x20\n      add\n      dup3\n      dup1\n      sload\n      tag_115\n      swap1\n      tag_114\n      jump\t// in\n    tag_115:\n      dup1\n      iszero\n      tag_116\n      jumpi\n      dup1\n      0x1f\n      lt\n      tag_117\n      jumpi\n      0x0100\n      dup1\n      dup4\n      sload\n      div\n      mul\n      dup4\n      mstore\n      swap2\n      0x20\n      add\n      swap2\n      jump(tag_116)\n    tag_117:\n      dup3\n      add\n      swap2\n      swap1\n      0x00\n      mstore\n      keccak256(0x00, 0x20)\n      swap1\n    tag_118:\n      dup2\n      sload\n      dup2\n      mstore\n      swap1\n      0x01\n      add\n      swap1\n      0x20\n      add\n      dup1\n      dup4\n      gt\n      tag_118\n      jumpi\n      dup3\n      swap1\n      sub\n      0x1f\n      and\n      dup3\n      add\n      swap2\n    tag_116:\n      pop\n      pop\n      pop\n      pop\n      pop\n      swap1\n      dup1\n      0x01\n      add\n      dup1\n      sload\n      tag_119\n      swap1\n      tag_114\n      jump\t// in\n    tag_119:\n      dup1\n      0x1f\n      add\n      0x20\n      dup1\n      swap2\n      div\n      mul\n      0x20\n      add\n      mload(0x40)\n      swap1\n      dup2\n      add\n      0x40\n      mstore\n      dup1\n      swap3\n      swap2\n      swap1\n      dup2\n      dup2\n      mstore\n      0x20\n      add\n      dup3\n      dup1\n      sload\n      tag_120\n      swap1\n      tag_114\n      jump\t// in\n    tag_120:\n      dup1\n      iszero\n      tag_121\n      jumpi\n      dup1\n      0x1f\n      lt\n      tag_122\n      jumpi\n      0x0100\n      dup1\n      dup4\n      sload\n      div\n      mul\n      dup4\n      mstore\n      swap2\n      0x20\n      add\n      swap2\n      jump(tag_121)\n    tag_122:\n      dup3\n      add\n      swap2\n      swap1\n      0x00\n      mstore\n      keccak256(0x00, 0x20)\n      swap1\n    tag_123:\n      dup2\n      sload\n      dup2\n      mstore\n      swap1\n      0x01\n      add\n      swap1\n      0x20\n      add\n      dup1\n      dup4\n      gt\n      tag_123\n      jumpi\n      dup3\n      swap1\n      sub\n      0x1f\n      and\n      dup3\n      add\n      swap2\n    tag_121:\n      pop\n      pop\n      pop\n      pop\n      pop\n      swap1\n      dup1\n      0x02\n      add\n      0x00\n      swap1\n      sload\n      swap1\n      0x0100\n      exp\n      swap1\n      div\n      0xff\n      and\n      swap1\n      dup1\n      0x02\n      add\n      0x01\n      swap1\n      sload\n      swap1\n      0x0100\n      exp\n      swap1\n      div\n      0xffffffffffffffffffffffffffffffffffffffff\n      and\n      swap1\n      dup1\n      0x03\n      add\n      dup1\n      sload\n      tag_124\n      swap1\n      tag_114\n      jump\t// in\n    tag_124:\n      dup1\n      0x1f\n      add\n      0x20\n      dup1\n      swap2\n      div\n      mul\n      0x20\n      add\n      mload(0x40)\n      swap1\n      dup2\n      add\n      0x40\n      mstore\n      dup1\n      swap3\n      swap2\n      swap1\n      dup2\n      dup2\n      mstore\n      0x20\n      add\n      dup3\n      dup1\n      sload\n      tag_125\n      swap1\n      tag_114\n      jump\t// in\n    tag_125:\n      dup1\n      iszero\n      tag_126\n      jumpi\n      dup1\n      0x1f\n      lt\n      tag_127\n      jumpi\n      0x0100\n      dup1\n      dup4\n      sload\n      div\n      mul\n      dup4\n      mstore\n      swap2\n      0x20\n      add\n      swap2\n      jump(tag_126)\n    tag_127:\n      dup3\n      add\n      swap2\n      swap1\n      0x00\n      mstore\n      keccak256(0x00, 0x20)\n      swap1\n    tag_128:\n      dup2\n      sload\n      dup2\n      mstore\n      swap1\n      0x01\n      add\n      swap1\n      0x20\n      add\n      dup1\n      dup4\n      gt\n      tag_128\n      jumpi\n      dup3\n      swap1\n      sub\n      0x1f\n      and\n      dup3\n      add\n      swap2\n    tag_126:\n      pop\n      pop\n      pop\n      pop\n      pop\n      swap1\n      dup1\n      0x04\n      add\n      sload\n      swap1\n      dup1\n      0x05\n      add\n      sload\n      swap1\n      dup1\n      0x06\n      add\n      0x00\n      swap1\n      sload\n      swap1\n      0x0100\n      exp\n      swap1\n      div\n      0xffffffffffffffffffffffffffffffffffffffff\n      and\n      swap1\n      pop\n      dup9\n      jump\t// out\n        /* \"@openzeppelin/contracts/access/Ownable.sol\":1638:1723  function owner() public view virtual returns (address) {... */\n    tag_28:\n        /* \"@openzeppelin/contracts/access/Ownable.sol\":1684:1691  address */\n      0x00\n        /* \"@openzeppelin/contracts/access/Ownable.sol\":1710:1716  _owner */\n      dup1\n      0x00\n      swap1\n      sload\n      swap1\n      0x0100\n      exp\n      swap1\n      div\n      0xffffffffffffffffffffffffffffffffffffffff\n      and\n        /* \"@openzeppelin/contracts/access/Ownable.sol\":1703:1716  return _owner */\n      swap1\n      pop\n        /* \"@openzeppelin/contracts/access/Ownable.sol\":1638:1723  function owner() public view virtual returns (address) {... */\n      swap1\n      jump\t// out\n        /* \"contracts/fan.sol\":5960:6080  function calculatePrice(uint256 _shares) public pure returns (uint256) {... */\n    tag_33:\n        /* \"contracts/fan.sol\":6022:6029  uint256 */\n      0x00\n        /* \"contracts/fan.sol\":6070:6073  400 */\n      0x0190\n        /* \"contracts/fan.sol\":6059:6066  _shares */\n      dup3\n        /* \"contracts/fan.sol\":6049:6056  _shares */\n      dup4\n        /* \"contracts/fan.sol\":6049:6066  _shares * _shares */\n      tag_131\n      swap2\n      swap1\n      tag_132\n      jump\t// in\n    tag_131:\n        /* \"contracts/fan.sol\":6048:6073  (_shares * _shares) / 400 */\n      tag_133\n      swap2\n      swap1\n      tag_134\n      jump\t// in\n    tag_133:\n        /* \"contracts/fan.sol\":6041:6073  return (_shares * _shares) / 400 */\n      swap1\n      pop\n        /* \"contracts/fan.sol\":5960:6080  function calculatePrice(uint256 _shares) public pure returns (uint256) {... */\n      swap2\n      swap1\n      pop\n      jump\t// out\n        /* \"contracts/fan.sol\":1719:2905  function createFanClub(... */\n    tag_39:\n        /* \"contracts/fan.sol\":1915:1932  address tokenAddr */\n      0x00\n        /* \"contracts/fan.sol\":1935:1948  fanTypeTokens */\n      0x01\n        /* \"contracts/fan.sol\":1935:1958  fanTypeTokens[_fanType] */\n      0x00\n        /* \"contracts/fan.sol\":1949:1957  _fanType */\n      dup5\n        /* \"contracts/fan.sol\":1935:1958  fanTypeTokens[_fanType] */\n      0x02\n      dup2\n      gt\n      iszero\n      tag_136\n      jumpi\n      tag_137\n      tag_138\n      jump\t// in\n    tag_137:\n    tag_136:\n      0x02\n      dup2\n      gt\n      iszero\n      tag_139\n      jumpi\n      tag_140\n      tag_138\n      jump\t// in\n    tag_140:\n    tag_139:\n      dup2\n      mstore\n      0x20\n      add\n      swap1\n      dup2\n      mstore\n      0x20\n      add\n      0x00\n      keccak256\n      0x00\n      swap1\n      sload\n      swap1\n      0x0100\n      exp\n      swap1\n      div\n      0xffffffffffffffffffffffffffffffffffffffff\n      and\n        /* \"contracts/fan.sol\":1915:1958  address tokenAddr = fanTypeTokens[_fanType] */\n      swap1\n      pop\n        /* \"contracts/fan.sol\":1997:1998  0 */\n      0x00\n        /* \"contracts/fan.sol\":1976:1999  tokenAddr != address(0) */\n      0xffffffffffffffffffffffffffffffffffffffff\n      and\n        /* \"contracts/fan.sol\":1976:1985  tokenAddr */\n      dup2\n        /* \"contracts/fan.sol\":1976:1999  tokenAddr != address(0) */\n      0xffffffffffffffffffffffffffffffffffffffff\n      and\n      sub\n        /* \"contracts/fan.sol\":1968:2029  require(tokenAddr != address(0), \"Token for FanType not set\") */\n      tag_141\n      jumpi\n      mload(0x40)\n      0x08c379a000000000000000000000000000000000000000000000000000000000\n      dup2\n      mstore\n      0x04\n      add\n      tag_142\n      swap1\n      tag_143\n      jump\t// in\n    tag_142:\n      mload(0x40)\n      dup1\n      swap2\n      sub\n      swap1\n      revert\n    tag_141:\n        /* \"contracts/fan.sol\":2040:2055  IERC20 fanToken */\n      0x00\n        /* \"contracts/fan.sol\":2065:2074  tokenAddr */\n      dup2\n        /* \"contracts/fan.sol\":2040:2075  IERC20 fanToken = IERC20(tokenAddr) */\n      swap1\n      pop\n        /* \"contracts/fan.sol\":2127:2142  10 * (10 ** 18) */\n      0x8ac7230489e80000\n        /* \"contracts/fan.sol\":2093:2101  fanToken */\n      dup2\n        /* \"contracts/fan.sol\":2093:2111  fanToken.balanceOf */\n      0xffffffffffffffffffffffffffffffffffffffff\n      and\n      0x70a08231\n        /* \"contracts/fan.sol\":2112:2122  msg.sender */\n      caller\n        /* \"contracts/fan.sol\":2093:2123  fanToken.balanceOf(msg.sender) */\n      mload(0x40)\n      dup3\n      0xffffffff\n      and\n      0xe0\n      shl\n      dup2\n      mstore\n      0x04\n      add\n      tag_144\n      swap2\n      swap1\n      tag_30\n      jump\t// in\n    tag_144:\n      0x20\n      mload(0x40)\n      dup1\n      dup4\n      sub\n      dup2\n      dup7\n      gas\n      staticcall\n      iszero\n      dup1\n      iszero\n      tag_146\n      jumpi\n      returndatasize\n      0x00\n      dup1\n      returndatacopy\n      revert(0x00, returndatasize)\n    tag_146:\n      pop\n      pop\n      pop\n      pop\n      mload(0x40)\n      returndatasize\n      not(0x1f)\n      0x1f\n      dup3\n      add\n      and\n      dup3\n      add\n      dup1\n      0x40\n      mstore\n      pop\n      dup2\n      add\n      swap1\n      tag_147\n      swap2\n      swap1\n      tag_84\n      jump\t// in\n    tag_147:\n        /* \"contracts/fan.sol\":2093:2142  fanToken.balanceOf(msg.sender) >= 10 * (10 ** 18) */\n      lt\n      iszero\n        /* \"contracts/fan.sol\":2085:2170  require(fanToken.balanceOf(msg.sender) >= 10 * (10 ** 18), \"Insufficient fan tokens\") */\n      tag_148\n      jumpi\n      mload(0x40)\n      0x08c379a000000000000000000000000000000000000000000000000000000000\n      dup2\n      mstore\n      0x04\n      add\n      tag_149\n      swap1\n      tag_150\n      jump\t// in\n    tag_149:\n      mload(0x40)\n      dup1\n      swap2\n      sub\n      swap1\n      revert\n    tag_148:\n        /* \"contracts/fan.sol\":2255:2267  bool success */\n      0x00\n        /* \"contracts/fan.sol\":2270:2278  fanToken */\n      dup2\n        /* \"contracts/fan.sol\":2270:2291  fanToken.transferFrom */\n      0xffffffffffffffffffffffffffffffffffffffff\n      and\n      0x23b872dd\n        /* \"contracts/fan.sol\":2292:2302  msg.sender */\n      caller\n        /* \"contracts/fan.sol\":2312:2316  this */\n      address\n        /* \"contracts/fan.sol\":2319:2334  10 * (10 ** 18) */\n      0x8ac7230489e80000\n        /* \"contracts/fan.sol\":2270:2335  fanToken.transferFrom(msg.sender, address(this), 10 * (10 ** 18)) */\n      mload(0x40)\n      dup5\n      0xffffffff\n      and\n      0xe0\n      shl\n      dup2\n      mstore\n      0x04\n      add\n      tag_151\n      swap4\n      swap3\n      swap2\n      swap1\n      tag_152\n      jump\t// in\n    tag_151:\n      0x20\n      mload(0x40)\n      dup1\n      dup4\n      sub\n      dup2\n      0x00\n      dup8\n      gas\n      call\n      iszero\n      dup1\n      iszero\n      tag_154\n      jumpi\n      returndatasize\n      0x00\n      dup1\n      returndatacopy\n      revert(0x00, returndatasize)\n    tag_154:\n      pop\n      pop\n      pop\n      pop\n      mload(0x40)\n      returndatasize\n      not(0x1f)\n      0x1f\n      dup3\n      add\n      and\n      dup3\n      add\n      dup1\n      0x40\n      mstore\n      pop\n      dup2\n      add\n      swap1\n      tag_155\n      swap2\n      swap1\n      tag_93\n      jump\t// in\n    tag_155:\n        /* \"contracts/fan.sol\":2255:2335  bool success = fanToken.transferFrom(msg.sender, address(this), 10 * (10 ** 18)) */\n      swap1\n      pop\n        /* \"contracts/fan.sol\":2353:2360  success */\n      dup1\n        /* \"contracts/fan.sol\":2345:2386  require(success, \"Token transfer failed\") */\n      tag_156\n      jumpi\n      mload(0x40)\n      0x08c379a000000000000000000000000000000000000000000000000000000000\n      dup2\n      mstore\n      0x04\n      add\n      tag_157\n      swap1\n      tag_96\n      jump\t// in\n    tag_157:\n      mload(0x40)\n      dup1\n      swap2\n      sub\n      swap1\n      revert\n    tag_156:\n        /* \"contracts/fan.sol\":2458:2481  FanClub storage newClub */\n      0x00\n        /* \"contracts/fan.sol\":2484:2492  fanClubs */\n      0x02\n        /* \"contracts/fan.sol\":2484:2499  fanClubs.push() */\n      0x01\n      dup2\n      0x01\n      dup2\n      sload\n      add\n      dup1\n      dup3\n      sstore\n      dup1\n      swap2\n      pop\n      pop\n      sub\n      swap1\n      0x00\n      mstore\n      keccak256(0x00, 0x20)\n      swap1\n      0x09\n      mul\n      add\n        /* \"contracts/fan.sol\":2458:2499  FanClub storage newClub = fanClubs.push() */\n      swap1\n      pop\n        /* \"contracts/fan.sol\":2524:2529  _name */\n      dup8\n        /* \"contracts/fan.sol\":2509:2516  newClub */\n      dup2\n        /* \"contracts/fan.sol\":2509:2521  newClub.name */\n      0x00\n      add\n        /* \"contracts/fan.sol\":2509:2529  newClub.name = _name */\n      swap1\n      dup2\n      tag_159\n      swap2\n      swap1\n      tag_160\n      jump\t// in\n    tag_159:\n      pop\n        /* \"contracts/fan.sol\":2561:2573  _description */\n      dup7\n        /* \"contracts/fan.sol\":2539:2546  newClub */\n      dup2\n        /* \"contracts/fan.sol\":2539:2558  newClub.description */\n      0x01\n      add\n        /* \"contracts/fan.sol\":2539:2573  newClub.description = _description */\n      swap1\n      dup2\n      tag_161\n      swap2\n      swap1\n      tag_160\n      jump\t// in\n    tag_161:\n      pop\n        /* \"contracts/fan.sol\":2601:2609  _fanType */\n      dup6\n        /* \"contracts/fan.sol\":2583:2590  newClub */\n      dup2\n        /* \"contracts/fan.sol\":2583:2598  newClub.fanType */\n      0x02\n      add\n      0x00\n        /* \"contracts/fan.sol\":2583:2609  newClub.fanType = _fanType */\n      0x0100\n      exp\n      dup2\n      sload\n      dup2\n      0xff\n      mul\n      not\n      and\n      swap1\n      dup4\n      0x02\n      dup2\n      gt\n      iszero\n      tag_162\n      jumpi\n      tag_163\n      tag_138\n      jump\t// in\n    tag_163:\n    tag_162:\n      mul\n      or\n      swap1\n      sstore\n      pop\n        /* \"contracts/fan.sol\":2642:2651  tokenAddr */\n      dup4\n        /* \"contracts/fan.sol\":2619:2626  newClub */\n      dup2\n        /* \"contracts/fan.sol\":2619:2639  newClub.tokenAddress */\n      0x02\n      add\n      0x01\n        /* \"contracts/fan.sol\":2619:2651  newClub.tokenAddress = tokenAddr */\n      0x0100\n      exp\n      dup2\n      sload\n      dup2\n      0xffffffffffffffffffffffffffffffffffffffff\n      mul\n      not\n      and\n      swap1\n      dup4\n      0xffffffffffffffffffffffffffffffffffffffff\n      and\n      mul\n      or\n      swap1\n      sstore\n      pop\n        /* \"contracts/fan.sol\":2677:2683  _image */\n      dup5\n        /* \"contracts/fan.sol\":2661:2668  newClub */\n      dup2\n        /* \"contracts/fan.sol\":2661:2674  newClub.image */\n      0x03\n      add\n        /* \"contracts/fan.sol\":2661:2683  newClub.image = _image */\n      swap1\n      dup2\n      tag_164\n      swap2\n      swap1\n      tag_160\n      jump\t// in\n    tag_164:\n      pop\n        /* \"contracts/fan.sol\":2739:2740  0 */\n      0x00\n        /* \"contracts/fan.sol\":2717:2724  newClub */\n      dup2\n        /* \"contracts/fan.sol\":2717:2736  newClub.totalShares */\n      0x04\n      add\n        /* \"contracts/fan.sol\":2717:2740  newClub.totalShares = 0 */\n      dup2\n      swap1\n      sstore\n      pop\n        /* \"contracts/fan.sol\":2771:2772  0 */\n      0x00\n        /* \"contracts/fan.sol\":2750:2757  newClub */\n      dup2\n        /* \"contracts/fan.sol\":2750:2768  newClub.sharePrice */\n      0x05\n      add\n        /* \"contracts/fan.sol\":2750:2772  newClub.sharePrice = 0 */\n      dup2\n      swap1\n      sstore\n      pop\n        /* \"contracts/fan.sol\":2800:2810  msg.sender */\n      caller\n        /* \"contracts/fan.sol\":2782:2789  newClub */\n      dup2\n        /* \"contracts/fan.sol\":2782:2797  newClub.creator */\n      0x06\n      add\n      0x00\n        /* \"contracts/fan.sol\":2782:2810  newClub.creator = msg.sender */\n      0x0100\n      exp\n      dup2\n      sload\n      dup2\n      0xffffffffffffffffffffffffffffffffffffffff\n      mul\n      not\n      and\n      swap1\n      dup4\n      0xffffffffffffffffffffffffffffffffffffffff\n      and\n      mul\n      or\n      swap1\n      sstore\n      pop\n        /* \"contracts/fan.sol\":2859:2860  1 */\n      0x01\n        /* \"contracts/fan.sol\":2841:2849  fanClubs */\n      0x02\n        /* \"contracts/fan.sol\":2841:2856  fanClubs.length */\n      dup1\n      sload\n      swap1\n      pop\n        /* \"contracts/fan.sol\":2841:2860  fanClubs.length - 1 */\n      tag_165\n      swap2\n      swap1\n      tag_77\n      jump\t// in\n    tag_165:\n        /* \"contracts/fan.sol\":2826:2898  FanClubCreated(fanClubs.length - 1, _name, _fanType, msg.sender, _image) */\n      0x62902407f2a51aefafd939f873488b7af4cee2c7aaf999549682d977ff035017\n        /* \"contracts/fan.sol\":2862:2867  _name */\n      dup10\n        /* \"contracts/fan.sol\":2869:2877  _fanType */\n      dup9\n        /* \"contracts/fan.sol\":2879:2889  msg.sender */\n      caller\n        /* \"contracts/fan.sol\":2891:2897  _image */\n      dup10\n        /* \"contracts/fan.sol\":2826:2898  FanClubCreated(fanClubs.length - 1, _name, _fanType, msg.sender, _image) */\n      mload(0x40)\n      tag_166\n      swap5\n      swap4\n      swap3\n      swap2\n      swap1\n      tag_167\n      jump\t// in\n    tag_166:\n      mload(0x40)\n      dup1\n      swap2\n      sub\n      swap1\n      log2\n        /* \"contracts/fan.sol\":1905:2905  {... */\n      pop\n      pop\n      pop\n      pop\n        /* \"contracts/fan.sol\":1719:2905  function createFanClub(... */\n      pop\n      pop\n      pop\n      pop\n      jump\t// out\n        /* \"contracts/fan.sol\":2952:4073  function buyShares(uint256 _clubId, uint256 _amount) external {... */\n    tag_42:\n        /* \"contracts/fan.sol\":3042:3050  fanClubs */\n      0x02\n        /* \"contracts/fan.sol\":3042:3057  fanClubs.length */\n      dup1\n      sload\n      swap1\n      pop\n        /* \"contracts/fan.sol\":3032:3039  _clubId */\n      dup3\n        /* \"contracts/fan.sol\":3032:3057  _clubId < fanClubs.length */\n      lt\n        /* \"contracts/fan.sol\":3024:3084  require(_clubId < fanClubs.length, \"FanClub does not exist\") */\n      tag_169\n      jumpi\n      mload(0x40)\n      0x08c379a000000000000000000000000000000000000000000000000000000000\n      dup2\n      mstore\n      0x04\n      add\n      tag_170\n      swap1\n      tag_64\n      jump\t// in\n    tag_170:\n      mload(0x40)\n      dup1\n      swap2\n      sub\n      swap1\n      revert\n    tag_169:\n        /* \"contracts/fan.sol\":3112:3113  0 */\n      0x00\n        /* \"contracts/fan.sol\":3102:3109  _amount */\n      dup2\n        /* \"contracts/fan.sol\":3102:3113  _amount > 0 */\n      gt\n        /* \"contracts/fan.sol\":3094:3150  require(_amount > 0, \"Amount must be greater than zero\") */\n      tag_171\n      jumpi\n      mload(0x40)\n      0x08c379a000000000000000000000000000000000000000000000000000000000\n      dup2\n      mstore\n      0x04\n      add\n      tag_172\n      swap1\n      tag_67\n      jump\t// in\n    tag_172:\n      mload(0x40)\n      dup1\n      swap2\n      sub\n      swap1\n      revert\n    tag_171:\n        /* \"contracts/fan.sol\":3161:3181  FanClub storage club */\n      0x00\n        /* \"contracts/fan.sol\":3184:3192  fanClubs */\n      0x02\n        /* \"contracts/fan.sol\":3193:3200  _clubId */\n      dup4\n        /* \"contracts/fan.sol\":3184:3201  fanClubs[_clubId] */\n      dup2\n      sload\n      dup2\n      lt\n      tag_173\n      jumpi\n      tag_174\n      tag_70\n      jump\t// in\n    tag_174:\n    tag_173:\n      swap1\n      0x00\n      mstore\n      keccak256(0x00, 0x20)\n      swap1\n      0x09\n      mul\n      add\n        /* \"contracts/fan.sol\":3161:3201  FanClub storage club = fanClubs[_clubId] */\n      swap1\n      pop\n        /* \"contracts/fan.sol\":3211:3228  address tokenAddr */\n      0x00\n        /* \"contracts/fan.sol\":3231:3235  club */\n      dup2\n        /* \"contracts/fan.sol\":3231:3248  club.tokenAddress */\n      0x02\n      add\n      0x01\n      swap1\n      sload\n      swap1\n      0x0100\n      exp\n      swap1\n      div\n      0xffffffffffffffffffffffffffffffffffffffff\n      and\n        /* \"contracts/fan.sol\":3211:3248  address tokenAddr = club.tokenAddress */\n      swap1\n      pop\n        /* \"contracts/fan.sol\":3258:3273  IERC20 fanToken */\n      0x00\n        /* \"contracts/fan.sol\":3283:3292  tokenAddr */\n      dup2\n        /* \"contracts/fan.sol\":3258:3293  IERC20 fanToken = IERC20(tokenAddr) */\n      swap1\n      pop\n        /* \"contracts/fan.sol\":3304:3322  uint256 totalPrice */\n      0x00\n        /* \"contracts/fan.sol\":3325:3367  calculatePrice(club.totalShares + _amount) */\n      tag_176\n        /* \"contracts/fan.sol\":3359:3366  _amount */\n      dup6\n        /* \"contracts/fan.sol\":3340:3344  club */\n      dup6\n        /* \"contracts/fan.sol\":3340:3356  club.totalShares */\n      0x04\n      add\n      sload\n        /* \"contracts/fan.sol\":3340:3366  club.totalShares + _amount */\n      tag_177\n      swap2\n      swap1\n      tag_178\n      jump\t// in\n    tag_177:\n        /* \"contracts/fan.sol\":3325:3339  calculatePrice */\n      tag_33\n        /* \"contracts/fan.sol\":3325:3367  calculatePrice(club.totalShares + _amount) */\n      jump\t// in\n    tag_176:\n        /* \"contracts/fan.sol\":3304:3367  uint256 totalPrice = calculatePrice(club.totalShares + _amount) */\n      swap1\n      pop\n        /* \"contracts/fan.sol\":3419:3429  totalPrice */\n      dup1\n        /* \"contracts/fan.sol\":3385:3393  fanToken */\n      dup3\n        /* \"contracts/fan.sol\":3385:3403  fanToken.balanceOf */\n      0xffffffffffffffffffffffffffffffffffffffff\n      and\n      0x70a08231\n        /* \"contracts/fan.sol\":3404:3414  msg.sender */\n      caller\n        /* \"contracts/fan.sol\":3385:3415  fanToken.balanceOf(msg.sender) */\n      mload(0x40)\n      dup3\n      0xffffffff\n      and\n      0xe0\n      shl\n      dup2\n      mstore\n      0x04\n      add\n      tag_179\n      swap2\n      swap1\n      tag_30\n      jump\t// in\n    tag_179:\n      0x20\n      mload(0x40)\n      dup1\n      dup4\n      sub\n      dup2\n      dup7\n      gas\n      staticcall\n      iszero\n      dup1\n      iszero\n      tag_181\n      jumpi\n      returndatasize\n      0x00\n      dup1\n      returndatacopy\n      revert(0x00, returndatasize)\n    tag_181:\n      pop\n      pop\n      pop\n      pop\n      mload(0x40)\n      returndatasize\n      not(0x1f)\n      0x1f\n      dup3\n      add\n      and\n      dup3\n      add\n      dup1\n      0x40\n      mstore\n      pop\n      dup2\n      add\n      swap1\n      tag_182\n      swap2\n      swap1\n      tag_84\n      jump\t// in\n    tag_182:\n        /* \"contracts/fan.sol\":3385:3429  fanToken.balanceOf(msg.sender) >= totalPrice */\n      lt\n      iszero\n        /* \"contracts/fan.sol\":3377:3467  require(fanToken.balanceOf(msg.sender) >= totalPrice, \"Insufficient tokens to buy shares\") */\n      tag_183\n      jumpi\n      mload(0x40)\n      0x08c379a000000000000000000000000000000000000000000000000000000000\n      dup2\n      mstore\n      0x04\n      add\n      tag_184\n      swap1\n      tag_185\n      jump\t// in\n    tag_184:\n      mload(0x40)\n      dup1\n      swap2\n      sub\n      swap1\n      revert\n    tag_183:\n        /* \"contracts/fan.sol\":3532:3544  bool success */\n      0x00\n        /* \"contracts/fan.sol\":3547:3555  fanToken */\n      dup3\n        /* \"contracts/fan.sol\":3547:3568  fanToken.transferFrom */\n      0xffffffffffffffffffffffffffffffffffffffff\n      and\n      0x23b872dd\n        /* \"contracts/fan.sol\":3569:3579  msg.sender */\n      caller\n        /* \"contracts/fan.sol\":3589:3593  this */\n      address\n        /* \"contracts/fan.sol\":3596:3606  totalPrice */\n      dup6\n        /* \"contracts/fan.sol\":3547:3607  fanToken.transferFrom(msg.sender, address(this), totalPrice) */\n      mload(0x40)\n      dup5\n      0xffffffff\n      and\n      0xe0\n      shl\n      dup2\n      mstore\n      0x04\n      add\n      tag_186\n      swap4\n      swap3\n      swap2\n      swap1\n      tag_187\n      jump\t// in\n    tag_186:\n      0x20\n      mload(0x40)\n      dup1\n      dup4\n      sub\n      dup2\n      0x00\n      dup8\n      gas\n      call\n      iszero\n      dup1\n      iszero\n      tag_189\n      jumpi\n      returndatasize\n      0x00\n      dup1\n      returndatacopy\n      revert(0x00, returndatasize)\n    tag_189:\n      pop\n      pop\n      pop\n      pop\n      mload(0x40)\n      returndatasize\n      not(0x1f)\n      0x1f\n      dup3\n      add\n      and\n      dup3\n      add\n      dup1\n      0x40\n      mstore\n      pop\n      dup2\n      add\n      swap1\n      tag_190\n      swap2\n      swap1\n      tag_93\n      jump\t// in\n    tag_190:\n        /* \"contracts/fan.sol\":3532:3607  bool success = fanToken.transferFrom(msg.sender, address(this), totalPrice) */\n      swap1\n      pop\n        /* \"contracts/fan.sol\":3625:3632  success */\n      dup1\n        /* \"contracts/fan.sol\":3617:3658  require(success, \"Token transfer failed\") */\n      tag_191\n      jumpi\n      mload(0x40)\n      0x08c379a000000000000000000000000000000000000000000000000000000000\n      dup2\n      mstore\n      0x04\n      add\n      tag_192\n      swap1\n      tag_96\n      jump\t// in\n    tag_192:\n      mload(0x40)\n      dup1\n      swap2\n      sub\n      swap1\n      revert\n    tag_191:\n        /* \"contracts/fan.sol\":3725:3732  _amount */\n      dup6\n        /* \"contracts/fan.sol\":3705:3709  club */\n      dup6\n        /* \"contracts/fan.sol\":3705:3721  club.totalShares */\n      0x04\n      add\n      0x00\n        /* \"contracts/fan.sol\":3705:3732  club.totalShares += _amount */\n      dup3\n      dup3\n      sload\n      tag_193\n      swap2\n      swap1\n      tag_178\n      jump\t// in\n    tag_193:\n      swap3\n      pop\n      pop\n      dup2\n      swap1\n      sstore\n      pop\n        /* \"contracts/fan.sol\":3760:3792  calculatePrice(club.totalShares) */\n      tag_194\n        /* \"contracts/fan.sol\":3775:3779  club */\n      dup6\n        /* \"contracts/fan.sol\":3775:3791  club.totalShares */\n      0x04\n      add\n      sload\n        /* \"contracts/fan.sol\":3760:3774  calculatePrice */\n      tag_33\n        /* \"contracts/fan.sol\":3760:3792  calculatePrice(club.totalShares) */\n      jump\t// in\n    tag_194:\n        /* \"contracts/fan.sol\":3742:3746  club */\n      dup6\n        /* \"contracts/fan.sol\":3742:3757  club.sharePrice */\n      0x05\n      add\n        /* \"contracts/fan.sol\":3742:3792  club.sharePrice = calculatePrice(club.totalShares) */\n      dup2\n      swap1\n      sstore\n      pop\n        /* \"contracts/fan.sol\":3885:3886  0 */\n      0x00\n        /* \"contracts/fan.sol\":3853:3857  club */\n      dup6\n        /* \"contracts/fan.sol\":3853:3869  club.sharesOwned */\n      0x07\n      add\n        /* \"contracts/fan.sol\":3853:3881  club.sharesOwned[msg.sender] */\n      0x00\n        /* \"contracts/fan.sol\":3870:3880  msg.sender */\n      caller\n        /* \"contracts/fan.sol\":3853:3881  club.sharesOwned[msg.sender] */\n      0xffffffffffffffffffffffffffffffffffffffff\n      and\n      0xffffffffffffffffffffffffffffffffffffffff\n      and\n      dup2\n      mstore\n      0x20\n      add\n      swap1\n      dup2\n      mstore\n      0x20\n      add\n      0x00\n      keccak256\n      sload\n        /* \"contracts/fan.sol\":3853:3886  club.sharesOwned[msg.sender] == 0 */\n      sub\n        /* \"contracts/fan.sol\":3849:3947  if (club.sharesOwned[msg.sender] == 0) {... */\n      tag_195\n      jumpi\n        /* \"contracts/fan.sol\":3902:3906  club */\n      dup5\n        /* \"contracts/fan.sol\":3902:3919  club.shareholders */\n      0x08\n      add\n        /* \"contracts/fan.sol\":3925:3935  msg.sender */\n      caller\n        /* \"contracts/fan.sol\":3902:3936  club.shareholders.push(msg.sender) */\n      swap1\n      dup1\n      0x01\n      dup2\n      sload\n      add\n      dup1\n      dup3\n      sstore\n      dup1\n      swap2\n      pop\n      pop\n      0x01\n      swap1\n      sub\n      swap1\n      0x00\n      mstore\n      keccak256(0x00, 0x20)\n      add\n      0x00\n      swap1\n      swap2\n      swap1\n      swap2\n      swap1\n      swap2\n      0x0100\n      exp\n      dup2\n      sload\n      dup2\n      0xffffffffffffffffffffffffffffffffffffffff\n      mul\n      not\n      and\n      swap1\n      dup4\n      0xffffffffffffffffffffffffffffffffffffffff\n      and\n      mul\n      or\n      swap1\n      sstore\n      pop\n        /* \"contracts/fan.sol\":3849:3947  if (club.sharesOwned[msg.sender] == 0) {... */\n    tag_195:\n        /* \"contracts/fan.sol\":3989:3996  _amount */\n      dup6\n        /* \"contracts/fan.sol\":3957:3961  club */\n      dup6\n        /* \"contracts/fan.sol\":3957:3973  club.sharesOwned */\n      0x07\n      add\n        /* \"contracts/fan.sol\":3957:3985  club.sharesOwned[msg.sender] */\n      0x00\n        /* \"contracts/fan.sol\":3974:3984  msg.sender */\n      caller\n        /* \"contracts/fan.sol\":3957:3985  club.sharesOwned[msg.sender] */\n      0xffffffffffffffffffffffffffffffffffffffff\n      and\n      0xffffffffffffffffffffffffffffffffffffffff\n      and\n      dup2\n      mstore\n      0x20\n      add\n      swap1\n      dup2\n      mstore\n      0x20\n      add\n      0x00\n      keccak256\n      0x00\n        /* \"contracts/fan.sol\":3957:3996  club.sharesOwned[msg.sender] += _amount */\n      dup3\n      dup3\n      sload\n      tag_197\n      swap2\n      swap1\n      tag_178\n      jump\t// in\n    tag_197:\n      swap3\n      pop\n      pop\n      dup2\n      swap1\n      sstore\n      pop\n        /* \"contracts/fan.sol\":4025:4032  _clubId */\n      dup7\n        /* \"contracts/fan.sol\":4012:4066  SharesBought(_clubId, msg.sender, _amount, totalPrice) */\n      0x0831583cced7554a81e1cd091e811afaadc7d575a17fbd354716145bb597efc9\n        /* \"contracts/fan.sol\":4034:4044  msg.sender */\n      caller\n        /* \"contracts/fan.sol\":4046:4053  _amount */\n      dup9\n        /* \"contracts/fan.sol\":4055:4065  totalPrice */\n      dup6\n        /* \"contracts/fan.sol\":4012:4066  SharesBought(_clubId, msg.sender, _amount, totalPrice) */\n      mload(0x40)\n      tag_198\n      swap4\n      swap3\n      swap2\n      swap1\n      tag_104\n      jump\t// in\n    tag_198:\n      mload(0x40)\n      dup1\n      swap2\n      sub\n      swap1\n      log2\n        /* \"contracts/fan.sol\":3014:4073  {... */\n      pop\n      pop\n      pop\n      pop\n      pop\n        /* \"contracts/fan.sol\":2952:4073  function buyShares(uint256 _clubId, uint256 _amount) external {... */\n      pop\n      pop\n      jump\t// out\n        /* \"contracts/fan.sol\":1387:1658  function setFanTypeToken(FanType _fanType, address _tokenAddress) external onlyOwner {... */\n    tag_46:\n        /* \"@openzeppelin/contracts/access/Ownable.sol\":1531:1544  _checkOwner() */\n      tag_200\n        /* \"@openzeppelin/contracts/access/Ownable.sol\":1531:1542  _checkOwner */\n      tag_107\n        /* \"@openzeppelin/contracts/access/Ownable.sol\":1531:1544  _checkOwner() */\n      jump\t// in\n    tag_200:\n        /* \"contracts/fan.sol\":1515:1516  0 */\n      0x00\n        /* \"contracts/fan.sol\":1490:1517  _tokenAddress != address(0) */\n      0xffffffffffffffffffffffffffffffffffffffff\n      and\n        /* \"contracts/fan.sol\":1490:1503  _tokenAddress */\n      dup2\n        /* \"contracts/fan.sol\":1490:1517  _tokenAddress != address(0) */\n      0xffffffffffffffffffffffffffffffffffffffff\n      and\n      sub\n        /* \"contracts/fan.sol\":1482:1543  require(_tokenAddress != address(0), \"Invalid token address\") */\n      tag_202\n      jumpi\n      mload(0x40)\n      0x08c379a000000000000000000000000000000000000000000000000000000000\n      dup2\n      mstore\n      0x04\n      add\n      tag_203\n      swap1\n      tag_204\n      jump\t// in\n    tag_203:\n      mload(0x40)\n      dup1\n      swap2\n      sub\n      swap1\n      revert\n    tag_202:\n        /* \"contracts/fan.sol\":1579:1592  _tokenAddress */\n      dup1\n        /* \"contracts/fan.sol\":1553:1566  fanTypeTokens */\n      0x01\n        /* \"contracts/fan.sol\":1553:1576  fanTypeTokens[_fanType] */\n      0x00\n        /* \"contracts/fan.sol\":1567:1575  _fanType */\n      dup5\n        /* \"contracts/fan.sol\":1553:1576  fanTypeTokens[_fanType] */\n      0x02\n      dup2\n      gt\n      iszero\n      tag_205\n      jumpi\n      tag_206\n      tag_138\n      jump\t// in\n    tag_206:\n    tag_205:\n      0x02\n      dup2\n      gt\n      iszero\n      tag_207\n      jumpi\n      tag_208\n      tag_138\n      jump\t// in\n    tag_208:\n    tag_207:\n      dup2\n      mstore\n      0x20\n      add\n      swap1\n      dup2\n      mstore\n      0x20\n      add\n      0x00\n      keccak256\n      0x00\n        /* \"contracts/fan.sol\":1553:1592  fanTypeTokens[_fanType] = _tokenAddress */\n      0x0100\n      exp\n      dup2\n      sload\n      dup2\n      0xffffffffffffffffffffffffffffffffffffffff\n      mul\n      not\n      and\n      swap1\n      dup4\n      0xffffffffffffffffffffffffffffffffffffffff\n      and\n      mul\n      or\n      swap1\n      sstore\n      pop\n        /* \"contracts/fan.sol\":1607:1651  FanTypeTokenUpdated(_fanType, _tokenAddress) */\n      0x615656fcadb3d80de64ba2fcf0c227214511e116ef7955ed759db80f8883ee8f\n        /* \"contracts/fan.sol\":1627:1635  _fanType */\n      dup3\n        /* \"contracts/fan.sol\":1637:1650  _tokenAddress */\n      dup3\n        /* \"contracts/fan.sol\":1607:1651  FanTypeTokenUpdated(_fanType, _tokenAddress) */\n      mload(0x40)\n      tag_209\n      swap3\n      swap2\n      swap1\n      tag_210\n      jump\t// in\n    tag_209:\n      mload(0x40)\n      dup1\n      swap2\n      sub\n      swap1\n      log1\n        /* \"contracts/fan.sol\":1387:1658  function setFanTypeToken(FanType _fanType, address _tokenAddress) external onlyOwner {... */\n      pop\n      pop\n      jump\t// out\n        /* \"contracts/fan.sol\":6171:6859  function getShareholders(uint256 _clubId) external view returns (address[] memory, uint256[] memory) {... */\n    tag_49:\n        /* \"contracts/fan.sol\":6236:6252  address[] memory */\n      0x60\n        /* \"contracts/fan.sol\":6254:6270  uint256[] memory */\n      dup1\n        /* \"contracts/fan.sol\":6300:6308  fanClubs */\n      0x02\n        /* \"contracts/fan.sol\":6300:6315  fanClubs.length */\n      dup1\n      sload\n      swap1\n      pop\n        /* \"contracts/fan.sol\":6290:6297  _clubId */\n      dup4\n        /* \"contracts/fan.sol\":6290:6315  _clubId < fanClubs.length */\n      lt\n        /* \"contracts/fan.sol\":6282:6342  require(_clubId < fanClubs.length, \"FanClub does not exist\") */\n      tag_212\n      jumpi\n      mload(0x40)\n      0x08c379a000000000000000000000000000000000000000000000000000000000\n      dup2\n      mstore\n      0x04\n      add\n      tag_213\n      swap1\n      tag_64\n      jump\t// in\n    tag_213:\n      mload(0x40)\n      dup1\n      swap2\n      sub\n      swap1\n      revert\n    tag_212:\n        /* \"contracts/fan.sol\":6353:6373  FanClub storage club */\n      0x00\n        /* \"contracts/fan.sol\":6376:6384  fanClubs */\n      0x02\n        /* \"contracts/fan.sol\":6385:6392  _clubId */\n      dup5\n        /* \"contracts/fan.sol\":6376:6393  fanClubs[_clubId] */\n      dup2\n      sload\n      dup2\n      lt\n      tag_214\n      jumpi\n      tag_215\n      tag_70\n      jump\t// in\n    tag_215:\n    tag_214:\n      swap1\n      0x00\n      mstore\n      keccak256(0x00, 0x20)\n      swap1\n      0x09\n      mul\n      add\n        /* \"contracts/fan.sol\":6353:6393  FanClub storage club = fanClubs[_clubId] */\n      swap1\n      pop\n        /* \"contracts/fan.sol\":6403:6426  uint256 numShareholders */\n      0x00\n        /* \"contracts/fan.sol\":6429:6433  club */\n      dup2\n        /* \"contracts/fan.sol\":6429:6446  club.shareholders */\n      0x08\n      add\n        /* \"contracts/fan.sol\":6429:6453  club.shareholders.length */\n      dup1\n      sload\n      swap1\n      pop\n        /* \"contracts/fan.sol\":6403:6453  uint256 numShareholders = club.shareholders.length */\n      swap1\n      pop\n        /* \"contracts/fan.sol\":6463:6492  address[] memory shareholders */\n      0x00\n        /* \"contracts/fan.sol\":6509:6524  numShareholders */\n      dup2\n        /* \"contracts/fan.sol\":6495:6525  new address[](numShareholders) */\n      0xffffffffffffffff\n      dup2\n      gt\n      iszero\n      tag_217\n      jumpi\n      tag_218\n      tag_219\n      jump\t// in\n    tag_218:\n    tag_217:\n      mload(0x40)\n      swap1\n      dup1\n      dup3\n      mstore\n      dup1\n      0x20\n      mul\n      0x20\n      add\n      dup3\n      add\n      0x40\n      mstore\n      dup1\n      iszero\n      tag_220\n      jumpi\n      dup2\n      0x20\n      add\n      0x20\n      dup3\n      mul\n      dup1\n      calldatasize\n      dup4\n      calldatacopy\n      dup1\n      dup3\n      add\n      swap2\n      pop\n      pop\n      swap1\n      pop\n    tag_220:\n      pop\n        /* \"contracts/fan.sol\":6463:6525  address[] memory shareholders = new address[](numShareholders) */\n      swap1\n      pop\n        /* \"contracts/fan.sol\":6535:6558  uint256[] memory shares */\n      0x00\n        /* \"contracts/fan.sol\":6575:6590  numShareholders */\n      dup3\n        /* \"contracts/fan.sol\":6561:6591  new uint256[](numShareholders) */\n      0xffffffffffffffff\n      dup2\n      gt\n      iszero\n      tag_221\n      jumpi\n      tag_222\n      tag_219\n      jump\t// in\n    tag_222:\n    tag_221:\n      mload(0x40)\n      swap1\n      dup1\n      dup3\n      mstore\n      dup1\n      0x20\n      mul\n      0x20\n      add\n      dup3\n      add\n      0x40\n      mstore\n      dup1\n      iszero\n      tag_223\n      jumpi\n      dup2\n      0x20\n      add\n      0x20\n      dup3\n      mul\n      dup1\n      calldatasize\n      dup4\n      calldatacopy\n      dup1\n      dup3\n      add\n      swap2\n      pop\n      pop\n      swap1\n      pop\n    tag_223:\n      pop\n        /* \"contracts/fan.sol\":6535:6591  uint256[] memory shares = new uint256[](numShareholders) */\n      swap1\n      pop\n        /* \"contracts/fan.sol\":6607:6616  uint256 i */\n      0x00\n        /* \"contracts/fan.sol\":6602:6813  for (uint256 i = 0; i < numShareholders; i++) {... */\n    tag_224:\n        /* \"contracts/fan.sol\":6626:6641  numShareholders */\n      dup4\n        /* \"contracts/fan.sol\":6622:6623  i */\n      dup2\n        /* \"contracts/fan.sol\":6622:6641  i < numShareholders */\n      lt\n        /* \"contracts/fan.sol\":6602:6813  for (uint256 i = 0; i < numShareholders; i++) {... */\n      iszero\n      tag_225\n      jumpi\n        /* \"contracts/fan.sol\":6662:6681  address shareholder */\n      0x00\n        /* \"contracts/fan.sol\":6684:6688  club */\n      dup6\n        /* \"contracts/fan.sol\":6684:6701  club.shareholders */\n      0x08\n      add\n        /* \"contracts/fan.sol\":6702:6703  i */\n      dup3\n        /* \"contracts/fan.sol\":6684:6704  club.shareholders[i] */\n      dup2\n      sload\n      dup2\n      lt\n      tag_227\n      jumpi\n      tag_228\n      tag_70\n      jump\t// in\n    tag_228:\n    tag_227:\n      swap1\n      0x00\n      mstore\n      keccak256(0x00, 0x20)\n      add\n      0x00\n      swap1\n      sload\n      swap1\n      0x0100\n      exp\n      swap1\n      div\n      0xffffffffffffffffffffffffffffffffffffffff\n      and\n        /* \"contracts/fan.sol\":6662:6704  address shareholder = club.shareholders[i] */\n      swap1\n      pop\n        /* \"contracts/fan.sol\":6736:6747  shareholder */\n      dup1\n        /* \"contracts/fan.sol\":6718:6730  shareholders */\n      dup5\n        /* \"contracts/fan.sol\":6731:6732  i */\n      dup4\n        /* \"contracts/fan.sol\":6718:6733  shareholders[i] */\n      dup2\n      mload\n      dup2\n      lt\n      tag_230\n      jumpi\n      tag_231\n      tag_70\n      jump\t// in\n    tag_231:\n    tag_230:\n      0x20\n      mul\n      0x20\n      add\n      add\n        /* \"contracts/fan.sol\":6718:6747  shareholders[i] = shareholder */\n      swap1\n      0xffffffffffffffffffffffffffffffffffffffff\n      and\n      swap1\n      dup2\n      0xffffffffffffffffffffffffffffffffffffffff\n      and\n      dup2\n      mstore\n      pop\n      pop\n        /* \"contracts/fan.sol\":6773:6777  club */\n      dup6\n        /* \"contracts/fan.sol\":6773:6789  club.sharesOwned */\n      0x07\n      add\n        /* \"contracts/fan.sol\":6773:6802  club.sharesOwned[shareholder] */\n      0x00\n        /* \"contracts/fan.sol\":6790:6801  shareholder */\n      dup3\n        /* \"contracts/fan.sol\":6773:6802  club.sharesOwned[shareholder] */\n      0xffffffffffffffffffffffffffffffffffffffff\n      and\n      0xffffffffffffffffffffffffffffffffffffffff\n      and\n      dup2\n      mstore\n      0x20\n      add\n      swap1\n      dup2\n      mstore\n      0x20\n      add\n      0x00\n      keccak256\n      sload\n        /* \"contracts/fan.sol\":6761:6767  shares */\n      dup4\n        /* \"contracts/fan.sol\":6768:6769  i */\n      dup4\n        /* \"contracts/fan.sol\":6761:6770  shares[i] */\n      dup2\n      mload\n      dup2\n      lt\n      tag_232\n      jumpi\n      tag_233\n      tag_70\n      jump\t// in\n    tag_233:\n    tag_232:\n      0x20\n      mul\n      0x20\n      add\n      add\n        /* \"contracts/fan.sol\":6761:6802  shares[i] = club.sharesOwned[shareholder] */\n      dup2\n      dup2\n      mstore\n      pop\n      pop\n        /* \"contracts/fan.sol\":6648:6813  {... */\n      pop\n        /* \"contracts/fan.sol\":6643:6646  i++ */\n      dup1\n      dup1\n      0x01\n      add\n      swap2\n      pop\n      pop\n        /* \"contracts/fan.sol\":6602:6813  for (uint256 i = 0; i < numShareholders; i++) {... */\n      jump(tag_224)\n    tag_225:\n      pop\n        /* \"contracts/fan.sol\":6831:6843  shareholders */\n      dup2\n        /* \"contracts/fan.sol\":6845:6851  shares */\n      dup2\n        /* \"contracts/fan.sol\":6823:6852  return (shareholders, shares) */\n      swap6\n      pop\n      swap6\n      pop\n      pop\n      pop\n      pop\n      pop\n        /* \"contracts/fan.sol\":6171:6859  function getShareholders(uint256 _clubId) external view returns (address[] memory, uint256[] memory) {... */\n      swap2\n      pop\n      swap2\n      jump\t// out\n        /* \"contracts/fan.sol\":722:770  mapping(FanType => address) public fanTypeTokens */\n    tag_55:\n      mstore(0x20, 0x01)\n      dup1\n      0x00\n      mstore\n      keccak256(0x00, 0x40)\n      0x00\n      swap2\n      pop\n      sload\n      swap1\n      0x0100\n      exp\n      swap1\n      div\n      0xffffffffffffffffffffffffffffffffffffffff\n      and\n      dup2\n      jump\t// out\n        /* \"@openzeppelin/contracts/access/Ownable.sol\":2543:2758  function transferOwnership(address newOwner) public virtual onlyOwner {... */\n    tag_60:\n        /* \"@openzeppelin/contracts/access/Ownable.sol\":1531:1544  _checkOwner() */\n      tag_235\n        /* \"@openzeppelin/contracts/access/Ownable.sol\":1531:1542  _checkOwner */\n      tag_107\n        /* \"@openzeppelin/contracts/access/Ownable.sol\":1531:1544  _checkOwner() */\n      jump\t// in\n    tag_235:\n        /* \"@openzeppelin/contracts/access/Ownable.sol\":2647:2648  0 */\n      0x00\n        /* \"@openzeppelin/contracts/access/Ownable.sol\":2627:2649  newOwner == address(0) */\n      0xffffffffffffffffffffffffffffffffffffffff\n      and\n        /* \"@openzeppelin/contracts/access/Ownable.sol\":2627:2635  newOwner */\n      dup2\n        /* \"@openzeppelin/contracts/access/Ownable.sol\":2627:2649  newOwner == address(0) */\n      0xffffffffffffffffffffffffffffffffffffffff\n      and\n      sub\n        /* \"@openzeppelin/contracts/access/Ownable.sol\":2623:2714  if (newOwner == address(0)) {... */\n      tag_237\n      jumpi\n        /* \"@openzeppelin/contracts/access/Ownable.sol\":2700:2701  0 */\n      0x00\n        /* \"@openzeppelin/contracts/access/Ownable.sol\":2672:2703  OwnableInvalidOwner(address(0)) */\n      mload(0x40)\n      0x1e4fbdf700000000000000000000000000000000000000000000000000000000\n      dup2\n      mstore\n      0x04\n      add\n      tag_238\n      swap2\n      swap1\n      tag_30\n      jump\t// in\n    tag_238:\n      mload(0x40)\n      dup1\n      swap2\n      sub\n      swap1\n      revert\n        /* \"@openzeppelin/contracts/access/Ownable.sol\":2623:2714  if (newOwner == address(0)) {... */\n    tag_237:\n        /* \"@openzeppelin/contracts/access/Ownable.sol\":2723:2751  _transferOwnership(newOwner) */\n      tag_239\n        /* \"@openzeppelin/contracts/access/Ownable.sol\":2742:2750  newOwner */\n      dup2\n        /* \"@openzeppelin/contracts/access/Ownable.sol\":2723:2741  _transferOwnership */\n      tag_110\n        /* \"@openzeppelin/contracts/access/Ownable.sol\":2723:2751  _transferOwnership(newOwner) */\n      jump\t// in\n    tag_239:\n        /* \"@openzeppelin/contracts/access/Ownable.sol\":2543:2758  function transferOwnership(address newOwner) public virtual onlyOwner {... */\n      pop\n      jump\t// out\n        /* \"contracts/fan.sol\":5452:5897  function removeShareholder(uint256 _clubId, address _shareholder) internal {... */\n    tag_102:\n        /* \"contracts/fan.sol\":5537:5557  FanClub storage club */\n      0x00\n        /* \"contracts/fan.sol\":5560:5568  fanClubs */\n      0x02\n        /* \"contracts/fan.sol\":5569:5576  _clubId */\n      dup4\n        /* \"contracts/fan.sol\":5560:5577  fanClubs[_clubId] */\n      dup2\n      sload\n      dup2\n      lt\n      tag_241\n      jumpi\n      tag_242\n      tag_70\n      jump\t// in\n    tag_242:\n    tag_241:\n      swap1\n      0x00\n      mstore\n      keccak256(0x00, 0x20)\n      swap1\n      0x09\n      mul\n      add\n        /* \"contracts/fan.sol\":5537:5577  FanClub storage club = fanClubs[_clubId] */\n      swap1\n      pop\n        /* \"contracts/fan.sol\":5587:5601  uint256 length */\n      0x00\n        /* \"contracts/fan.sol\":5604:5608  club */\n      dup2\n        /* \"contracts/fan.sol\":5604:5621  club.shareholders */\n      0x08\n      add\n        /* \"contracts/fan.sol\":5604:5628  club.shareholders.length */\n      dup1\n      sload\n      swap1\n      pop\n        /* \"contracts/fan.sol\":5587:5628  uint256 length = club.shareholders.length */\n      swap1\n      pop\n        /* \"contracts/fan.sol\":5644:5653  uint256 i */\n      0x00\n        /* \"contracts/fan.sol\":5639:5891  for (uint256 i = 0; i < length; i++) {... */\n    tag_244:\n        /* \"contracts/fan.sol\":5663:5669  length */\n      dup2\n        /* \"contracts/fan.sol\":5659:5660  i */\n      dup2\n        /* \"contracts/fan.sol\":5659:5669  i < length */\n      lt\n        /* \"contracts/fan.sol\":5639:5891  for (uint256 i = 0; i < length; i++) {... */\n      iszero\n      tag_245\n      jumpi\n        /* \"contracts/fan.sol\":5718:5730  _shareholder */\n      dup4\n        /* \"contracts/fan.sol\":5694:5730  club.shareholders[i] == _shareholder */\n      0xffffffffffffffffffffffffffffffffffffffff\n      and\n        /* \"contracts/fan.sol\":5694:5698  club */\n      dup4\n        /* \"contracts/fan.sol\":5694:5711  club.shareholders */\n      0x08\n      add\n        /* \"contracts/fan.sol\":5712:5713  i */\n      dup3\n        /* \"contracts/fan.sol\":5694:5714  club.shareholders[i] */\n      dup2\n      sload\n      dup2\n      lt\n      tag_247\n      jumpi\n      tag_248\n      tag_70\n      jump\t// in\n    tag_248:\n    tag_247:\n      swap1\n      0x00\n      mstore\n      keccak256(0x00, 0x20)\n      add\n      0x00\n      swap1\n      sload\n      swap1\n      0x0100\n      exp\n      swap1\n      div\n      0xffffffffffffffffffffffffffffffffffffffff\n      and\n        /* \"contracts/fan.sol\":5694:5730  club.shareholders[i] == _shareholder */\n      0xffffffffffffffffffffffffffffffffffffffff\n      and\n      sub\n        /* \"contracts/fan.sol\":5690:5881  if (club.shareholders[i] == _shareholder) {... */\n      tag_250\n      jumpi\n        /* \"contracts/fan.sol\":5773:5777  club */\n      dup3\n        /* \"contracts/fan.sol\":5773:5790  club.shareholders */\n      0x08\n      add\n        /* \"contracts/fan.sol\":5800:5801  1 */\n      0x01\n        /* \"contracts/fan.sol\":5791:5797  length */\n      dup4\n        /* \"contracts/fan.sol\":5791:5801  length - 1 */\n      tag_251\n      swap2\n      swap1\n      tag_77\n      jump\t// in\n    tag_251:\n        /* \"contracts/fan.sol\":5773:5802  club.shareholders[length - 1] */\n      dup2\n      sload\n      dup2\n      lt\n      tag_252\n      jumpi\n      tag_253\n      tag_70\n      jump\t// in\n    tag_253:\n    tag_252:\n      swap1\n      0x00\n      mstore\n      keccak256(0x00, 0x20)\n      add\n      0x00\n      swap1\n      sload\n      swap1\n      0x0100\n      exp\n      swap1\n      div\n      0xffffffffffffffffffffffffffffffffffffffff\n      and\n        /* \"contracts/fan.sol\":5750:5754  club */\n      dup4\n        /* \"contracts/fan.sol\":5750:5767  club.shareholders */\n      0x08\n      add\n        /* \"contracts/fan.sol\":5768:5769  i */\n      dup3\n        /* \"contracts/fan.sol\":5750:5770  club.shareholders[i] */\n      dup2\n      sload\n      dup2\n      lt\n      tag_255\n      jumpi\n      tag_256\n      tag_70\n      jump\t// in\n    tag_256:\n    tag_255:\n      swap1\n      0x00\n      mstore\n      keccak256(0x00, 0x20)\n      add\n      0x00\n        /* \"contracts/fan.sol\":5750:5802  club.shareholders[i] = club.shareholders[length - 1] */\n      0x0100\n      exp\n      dup2\n      sload\n      dup2\n      0xffffffffffffffffffffffffffffffffffffffff\n      mul\n      not\n      and\n      swap1\n      dup4\n      0xffffffffffffffffffffffffffffffffffffffff\n      and\n      mul\n      or\n      swap1\n      sstore\n      pop\n        /* \"contracts/fan.sol\":5820:5824  club */\n      dup3\n        /* \"contracts/fan.sol\":5820:5837  club.shareholders */\n      0x08\n      add\n        /* \"contracts/fan.sol\":5820:5843  club.shareholders.pop() */\n      dup1\n      sload\n      dup1\n      tag_258\n      jumpi\n      tag_259\n      tag_260\n      jump\t// in\n    tag_259:\n    tag_258:\n      0x01\n      swap1\n      sub\n      dup2\n      dup2\n      swap1\n      0x00\n      mstore\n      keccak256(0x00, 0x20)\n      add\n      exp(0x0100, 0x00)\n      dup2\n      sload\n      swap1\n      0xffffffffffffffffffffffffffffffffffffffff\n      mul\n      not\n      and\n      swap1\n      sstore\n      swap1\n      sstore\n        /* \"contracts/fan.sol\":5861:5866  break */\n      jump(tag_245)\n        /* \"contracts/fan.sol\":5690:5881  if (club.shareholders[i] == _shareholder) {... */\n    tag_250:\n        /* \"contracts/fan.sol\":5671:5674  i++ */\n      dup1\n      dup1\n      0x01\n      add\n      swap2\n      pop\n      pop\n        /* \"contracts/fan.sol\":5639:5891  for (uint256 i = 0; i < length; i++) {... */\n      jump(tag_244)\n    tag_245:\n      pop\n        /* \"contracts/fan.sol\":5527:5897  {... */\n      pop\n      pop\n        /* \"contracts/fan.sol\":5452:5897  function removeShareholder(uint256 _clubId, address _shareholder) internal {... */\n      pop\n      pop\n      jump\t// out\n        /* \"@openzeppelin/contracts/access/Ownable.sol\":1796:1958  function _checkOwner() internal view virtual {... */\n    tag_107:\n        /* \"@openzeppelin/contracts/access/Ownable.sol\":1866:1878  _msgSender() */\n      tag_263\n        /* \"@openzeppelin/contracts/access/Ownable.sol\":1866:1876  _msgSender */\n      tag_264\n        /* \"@openzeppelin/contracts/access/Ownable.sol\":1866:1878  _msgSender() */\n      jump\t// in\n    tag_263:\n        /* \"@openzeppelin/contracts/access/Ownable.sol\":1855:1878  owner() != _msgSender() */\n      0xffffffffffffffffffffffffffffffffffffffff\n      and\n        /* \"@openzeppelin/contracts/access/Ownable.sol\":1855:1862  owner() */\n      tag_265\n        /* \"@openzeppelin/contracts/access/Ownable.sol\":1855:1860  owner */\n      tag_28\n        /* \"@openzeppelin/contracts/access/Ownable.sol\":1855:1862  owner() */\n      jump\t// in\n    tag_265:\n        /* \"@openzeppelin/contracts/access/Ownable.sol\":1855:1878  owner() != _msgSender() */\n      0xffffffffffffffffffffffffffffffffffffffff\n      and\n      eq\n        /* \"@openzeppelin/contracts/access/Ownable.sol\":1851:1952  if (owner() != _msgSender()) {... */\n      tag_266\n      jumpi\n        /* \"@openzeppelin/contracts/access/Ownable.sol\":1928:1940  _msgSender() */\n      tag_267\n        /* \"@openzeppelin/contracts/access/Ownable.sol\":1928:1938  _msgSender */\n      tag_264\n        /* \"@openzeppelin/contracts/access/Ownable.sol\":1928:1940  _msgSender() */\n      jump\t// in\n    tag_267:\n        /* \"@openzeppelin/contracts/access/Ownable.sol\":1901:1941  OwnableUnauthorizedAccount(_msgSender()) */\n      mload(0x40)\n      0x118cdaa700000000000000000000000000000000000000000000000000000000\n      dup2\n      mstore\n      0x04\n      add\n      tag_268\n      swap2\n      swap1\n      tag_30\n      jump\t// in\n    tag_268:\n      mload(0x40)\n      dup1\n      swap2\n      sub\n      swap1\n      revert\n        /* \"@openzeppelin/contracts/access/Ownable.sol\":1851:1952  if (owner() != _msgSender()) {... */\n    tag_266:\n        /* \"@openzeppelin/contracts/access/Ownable.sol\":1796:1958  function _checkOwner() internal view virtual {... */\n      jump\t// out\n        /* \"@openzeppelin/contracts/access/Ownable.sol\":2912:3099  function _transferOwnership(address newOwner) internal virtual {... */\n    tag_110:\n        /* \"@openzeppelin/contracts/access/Ownable.sol\":2985:3001  address oldOwner */\n      0x00\n        /* \"@openzeppelin/contracts/access/Ownable.sol\":3004:3010  _owner */\n      dup1\n      0x00\n      swap1\n      sload\n      swap1\n      0x0100\n      exp\n      swap1\n      div\n      0xffffffffffffffffffffffffffffffffffffffff\n      and\n        /* \"@openzeppelin/contracts/access/Ownable.sol\":2985:3010  address oldOwner = _owner */\n      swap1\n      pop\n        /* \"@openzeppelin/contracts/access/Ownable.sol\":3029:3037  newOwner */\n      dup2\n        /* \"@openzeppelin/contracts/access/Ownable.sol\":3020:3026  _owner */\n      0x00\n      dup1\n        /* \"@openzeppelin/contracts/access/Ownable.sol\":3020:3037  _owner = newOwner */\n      0x0100\n      exp\n      dup2\n      sload\n      dup2\n      0xffffffffffffffffffffffffffffffffffffffff\n      mul\n      not\n      and\n      swap1\n      dup4\n      0xffffffffffffffffffffffffffffffffffffffff\n      and\n      mul\n      or\n      swap1\n      sstore\n      pop\n        /* \"@openzeppelin/contracts/access/Ownable.sol\":3083:3091  newOwner */\n      dup2\n        /* \"@openzeppelin/contracts/access/Ownable.sol\":3052:3092  OwnershipTransferred(oldOwner, newOwner) */\n      0xffffffffffffffffffffffffffffffffffffffff\n      and\n        /* \"@openzeppelin/contracts/access/Ownable.sol\":3073:3081  oldOwner */\n      dup2\n        /* \"@openzeppelin/contracts/access/Ownable.sol\":3052:3092  OwnershipTransferred(oldOwner, newOwner) */\n      0xffffffffffffffffffffffffffffffffffffffff\n      and\n      0x8be0079c531659141344cd1fd0a4f28419497f9722a3daafe3b4186f6b6457e0\n      mload(0x40)\n      mload(0x40)\n      dup1\n      swap2\n      sub\n      swap1\n      log3\n        /* \"@openzeppelin/contracts/access/Ownable.sol\":2975:3099  {... */\n      pop\n        /* \"@openzeppelin/contracts/access/Ownable.sol\":2912:3099  function _transferOwnership(address newOwner) internal virtual {... */\n      pop\n      jump\t// out\n        /* \"@openzeppelin/contracts/utils/Context.sol\":656:752  function _msgSender() internal view virtual returns (address) {... */\n    tag_264:\n        /* \"@openzeppelin/contracts/utils/Context.sol\":709:716  address */\n      0x00\n        /* \"@openzeppelin/contracts/utils/Context.sol\":735:745  msg.sender */\n      caller\n        /* \"@openzeppelin/contracts/utils/Context.sol\":728:745  return msg.sender */\n      swap1\n      pop\n        /* \"@openzeppelin/contracts/utils/Context.sol\":656:752  function _msgSender() internal view virtual returns (address) {... */\n      swap1\n      jump\t// out\n        /* \"#utility.yul\":7:82   */\n    tag_271:\n        /* \"#utility.yul\":40:46   */\n      0x00\n        /* \"#utility.yul\":73:75   */\n      0x40\n        /* \"#utility.yul\":67:76   */\n      mload\n        /* \"#utility.yul\":57:76   */\n      swap1\n      pop\n        /* \"#utility.yul\":7:82   */\n      swap1\n      jump\t// out\n        /* \"#utility.yul\":88:205   */\n    tag_272:\n        /* \"#utility.yul\":197:198   */\n      0x00\n        /* \"#utility.yul\":194:195   */\n      dup1\n        /* \"#utility.yul\":187:199   */\n      revert\n        /* \"#utility.yul\":211:328   */\n    tag_273:\n        /* \"#utility.yul\":320:321   */\n      0x00\n        /* \"#utility.yul\":317:318   */\n      dup1\n        /* \"#utility.yul\":310:322   */\n      revert\n        /* \"#utility.yul\":334:411   */\n    tag_274:\n        /* \"#utility.yul\":371:378   */\n      0x00\n        /* \"#utility.yul\":400:405   */\n      dup2\n        /* \"#utility.yul\":389:405   */\n      swap1\n      pop\n        /* \"#utility.yul\":334:411   */\n      swap2\n      swap1\n      pop\n      jump\t// out\n        /* \"#utility.yul\":417:539   */\n    tag_275:\n        /* \"#utility.yul\":490:514   */\n      tag_365\n        /* \"#utility.yul\":508:513   */\n      dup2\n        /* \"#utility.yul\":490:514   */\n      tag_274\n      jump\t// in\n    tag_365:\n        /* \"#utility.yul\":483:488   */\n      dup2\n        /* \"#utility.yul\":480:515   */\n      eq\n        /* \"#utility.yul\":470:533   */\n      tag_366\n      jumpi\n        /* \"#utility.yul\":529:530   */\n      0x00\n        /* \"#utility.yul\":526:527   */\n      dup1\n        /* \"#utility.yul\":519:531   */\n      revert\n        /* \"#utility.yul\":470:533   */\n    tag_366:\n        /* \"#utility.yul\":417:539   */\n      pop\n      jump\t// out\n        /* \"#utility.yul\":545:684   */\n    tag_276:\n        /* \"#utility.yul\":591:596   */\n      0x00\n        /* \"#utility.yul\":629:635   */\n      dup2\n        /* \"#utility.yul\":616:636   */\n      calldataload\n        /* \"#utility.yul\":607:636   */\n      swap1\n      pop\n        /* \"#utility.yul\":645:678   */\n      tag_368\n        /* \"#utility.yul\":672:677   */\n      dup2\n        /* \"#utility.yul\":645:678   */\n      tag_275\n      jump\t// in\n    tag_368:\n        /* \"#utility.yul\":545:684   */\n      swap3\n      swap2\n      pop\n      pop\n      jump\t// out\n        /* \"#utility.yul\":690:1164   */\n    tag_17:\n        /* \"#utility.yul\":758:764   */\n      0x00\n        /* \"#utility.yul\":766:772   */\n      dup1\n        /* \"#utility.yul\":815:817   */\n      0x40\n        /* \"#utility.yul\":803:812   */\n      dup4\n        /* \"#utility.yul\":794:801   */\n      dup6\n        /* \"#utility.yul\":790:813   */\n      sub\n        /* \"#utility.yul\":786:818   */\n      slt\n        /* \"#utility.yul\":783:902   */\n      iszero\n      tag_370\n      jumpi\n        /* \"#utility.yul\":821:900   */\n      tag_371\n      tag_272\n      jump\t// in\n    tag_371:\n        /* \"#utility.yul\":783:902   */\n    tag_370:\n        /* \"#utility.yul\":941:942   */\n      0x00\n        /* \"#utility.yul\":966:1019   */\n      tag_372\n        /* \"#utility.yul\":1011:1018   */\n      dup6\n        /* \"#utility.yul\":1002:1008   */\n      dup3\n        /* \"#utility.yul\":991:1000   */\n      dup7\n        /* \"#utility.yul\":987:1009   */\n      add\n        /* \"#utility.yul\":966:1019   */\n      tag_276\n      jump\t// in\n    tag_372:\n        /* \"#utility.yul\":956:1019   */\n      swap3\n      pop\n        /* \"#utility.yul\":912:1029   */\n      pop\n        /* \"#utility.yul\":1068:1070   */\n      0x20\n        /* \"#utility.yul\":1094:1147   */\n      tag_373\n        /* \"#utility.yul\":1139:1146   */\n      dup6\n        /* \"#utility.yul\":1130:1136   */\n      dup3\n        /* \"#utility.yul\":1119:1128   */\n      dup7\n        /* \"#utility.yul\":1115:1137   */\n      add\n        /* \"#utility.yul\":1094:1147   */\n      tag_276\n      jump\t// in\n    tag_373:\n        /* \"#utility.yul\":1084:1147   */\n      swap2\n      pop\n        /* \"#utility.yul\":1039:1157   */\n      pop\n        /* \"#utility.yul\":690:1164   */\n      swap3\n      pop\n      swap3\n      swap1\n      pop\n      jump\t// out\n        /* \"#utility.yul\":1170:1499   */\n    tag_23:\n        /* \"#utility.yul\":1229:1235   */\n      0x00\n        /* \"#utility.yul\":1278:1280   */\n      0x20\n        /* \"#utility.yul\":1266:1275   */\n      dup3\n        /* \"#utility.yul\":1257:1264   */\n      dup5\n        /* \"#utility.yul\":1253:1276   */\n      sub\n        /* \"#utility.yul\":1249:1281   */\n      slt\n        /* \"#utility.yul\":1246:1365   */\n      iszero\n      tag_375\n      jumpi\n        /* \"#utility.yul\":1284:1363   */\n      tag_376\n      tag_272\n      jump\t// in\n    tag_376:\n        /* \"#utility.yul\":1246:1365   */\n    tag_375:\n        /* \"#utility.yul\":1404:1405   */\n      0x00\n        /* \"#utility.yul\":1429:1482   */\n      tag_377\n        /* \"#utility.yul\":1474:1481   */\n      dup5\n        /* \"#utility.yul\":1465:1471   */\n      dup3\n        /* \"#utility.yul\":1454:1463   */\n      dup6\n        /* \"#utility.yul\":1450:1472   */\n      add\n        /* \"#utility.yul\":1429:1482   */\n      tag_276\n      jump\t// in\n    tag_377:\n        /* \"#utility.yul\":1419:1482   */\n      swap2\n      pop\n        /* \"#utility.yul\":1375:1492   */\n      pop\n        /* \"#utility.yul\":1170:1499   */\n      swap3\n      swap2\n      pop\n      pop\n      jump\t// out\n        /* \"#utility.yul\":1505:1604   */\n    tag_277:\n        /* \"#utility.yul\":1557:1563   */\n      0x00\n        /* \"#utility.yul\":1591:1596   */\n      dup2\n        /* \"#utility.yul\":1585:1597   */\n      mload\n        /* \"#utility.yul\":1575:1597   */\n      swap1\n      pop\n        /* \"#utility.yul\":1505:1604   */\n      swap2\n      swap1\n      pop\n      jump\t// out\n        /* \"#utility.yul\":1610:1779   */\n    tag_278:\n        /* \"#utility.yul\":1694:1705   */\n      0x00\n        /* \"#utility.yul\":1728:1734   */\n      dup3\n        /* \"#utility.yul\":1723:1726   */\n      dup3\n        /* \"#utility.yul\":1716:1735   */\n      mstore\n        /* \"#utility.yul\":1768:1772   */\n      0x20\n        /* \"#utility.yul\":1763:1766   */\n      dup3\n        /* \"#utility.yul\":1759:1773   */\n      add\n        /* \"#utility.yul\":1744:1773   */\n      swap1\n      pop\n        /* \"#utility.yul\":1610:1779   */\n      swap3\n      swap2\n      pop\n      pop\n      jump\t// out\n        /* \"#utility.yul\":1785:1924   */\n    tag_279:\n        /* \"#utility.yul\":1874:1880   */\n      dup3\n        /* \"#utility.yul\":1869:1872   */\n      dup2\n        /* \"#utility.yul\":1864:1867   */\n      dup4\n        /* \"#utility.yul\":1858:1881   */\n      mcopy\n        /* \"#utility.yul\":1915:1916   */\n      0x00\n        /* \"#utility.yul\":1906:1912   */\n      dup4\n        /* \"#utility.yul\":1901:1904   */\n      dup4\n        /* \"#utility.yul\":1897:1913   */\n      add\n        /* \"#utility.yul\":1890:1917   */\n      mstore\n        /* \"#utility.yul\":1785:1924   */\n      pop\n      pop\n      pop\n      jump\t// out\n        /* \"#utility.yul\":1930:2032   */\n    tag_280:\n        /* \"#utility.yul\":1971:1977   */\n      0x00\n        /* \"#utility.yul\":2022:2024   */\n      0x1f\n        /* \"#utility.yul\":2018:2025   */\n      not\n        /* \"#utility.yul\":2013:2015   */\n      0x1f\n        /* \"#utility.yul\":2006:2011   */\n      dup4\n        /* \"#utility.yul\":2002:2016   */\n      add\n        /* \"#utility.yul\":1998:2026   */\n      and\n        /* \"#utility.yul\":1988:2026   */\n      swap1\n      pop\n        /* \"#utility.yul\":1930:2032   */\n      swap2\n      swap1\n      pop\n      jump\t// out\n        /* \"#utility.yul\":2038:2415   */\n    tag_281:\n        /* \"#utility.yul\":2126:2129   */\n      0x00\n        /* \"#utility.yul\":2154:2193   */\n      tag_383\n        /* \"#utility.yul\":2187:2192   */\n      dup3\n        /* \"#utility.yul\":2154:2193   */\n      tag_277\n      jump\t// in\n    tag_383:\n        /* \"#utility.yul\":2209:2280   */\n      tag_384\n        /* \"#utility.yul\":2273:2279   */\n      dup2\n        /* \"#utility.yul\":2268:2271   */\n      dup6\n        /* \"#utility.yul\":2209:2280   */\n      tag_278\n      jump\t// in\n    tag_384:\n        /* \"#utility.yul\":2202:2280   */\n      swap4\n      pop\n        /* \"#utility.yul\":2289:2354   */\n      tag_385\n        /* \"#utility.yul\":2347:2353   */\n      dup2\n        /* \"#utility.yul\":2342:2345   */\n      dup6\n        /* \"#utility.yul\":2335:2339   */\n      0x20\n        /* \"#utility.yul\":2328:2333   */\n      dup7\n        /* \"#utility.yul\":2324:2340   */\n      add\n        /* \"#utility.yul\":2289:2354   */\n      tag_279\n      jump\t// in\n    tag_385:\n        /* \"#utility.yul\":2379:2408   */\n      tag_386\n        /* \"#utility.yul\":2401:2407   */\n      dup2\n        /* \"#utility.yul\":2379:2408   */\n      tag_280\n      jump\t// in\n    tag_386:\n        /* \"#utility.yul\":2374:2377   */\n      dup5\n        /* \"#utility.yul\":2370:2409   */\n      add\n        /* \"#utility.yul\":2363:2409   */\n      swap2\n      pop\n        /* \"#utility.yul\":2130:2415   */\n      pop\n        /* \"#utility.yul\":2038:2415   */\n      swap3\n      swap2\n      pop\n      pop\n      jump\t// out\n        /* \"#utility.yul\":2421:2601   */\n    tag_138:\n        /* \"#utility.yul\":2469:2546   */\n      0x4e487b7100000000000000000000000000000000000000000000000000000000\n        /* \"#utility.yul\":2466:2467   */\n      0x00\n        /* \"#utility.yul\":2459:2547   */\n      mstore\n        /* \"#utility.yul\":2566:2570   */\n      0x21\n        /* \"#utility.yul\":2563:2564   */\n      0x04\n        /* \"#utility.yul\":2556:2571   */\n      mstore\n        /* \"#utility.yul\":2590:2594   */\n      0x24\n        /* \"#utility.yul\":2587:2588   */\n      0x00\n        /* \"#utility.yul\":2580:2595   */\n      revert\n        /* \"#utility.yul\":2607:2723   */\n    tag_282:\n        /* \"#utility.yul\":2691:2692   */\n      0x03\n        /* \"#utility.yul\":2684:2689   */\n      dup2\n        /* \"#utility.yul\":2681:2693   */\n      lt\n        /* \"#utility.yul\":2671:2717   */\n      tag_389\n      jumpi\n        /* \"#utility.yul\":2697:2715   */\n      tag_390\n      tag_138\n      jump\t// in\n    tag_390:\n        /* \"#utility.yul\":2671:2717   */\n    tag_389:\n        /* \"#utility.yul\":2607:2723   */\n      pop\n      jump\t// out\n        /* \"#utility.yul\":2729:2862   */\n    tag_283:\n        /* \"#utility.yul\":2777:2784   */\n      0x00\n        /* \"#utility.yul\":2806:2811   */\n      dup2\n        /* \"#utility.yul\":2795:2811   */\n      swap1\n      pop\n        /* \"#utility.yul\":2812:2856   */\n      tag_392\n        /* \"#utility.yul\":2850:2855   */\n      dup3\n        /* \"#utility.yul\":2812:2856   */\n      tag_282\n      jump\t// in\n    tag_392:\n        /* \"#utility.yul\":2729:2862   */\n      swap2\n      swap1\n      pop\n      jump\t// out\n        /* \"#utility.yul\":2868:3001   */\n    tag_284:\n        /* \"#utility.yul\":2927:2936   */\n      0x00\n        /* \"#utility.yul\":2960:2995   */\n      tag_394\n        /* \"#utility.yul\":2989:2994   */\n      dup3\n        /* \"#utility.yul\":2960:2995   */\n      tag_283\n      jump\t// in\n    tag_394:\n        /* \"#utility.yul\":2947:2995   */\n      swap1\n      pop\n        /* \"#utility.yul\":2868:3001   */\n      swap2\n      swap1\n      pop\n      jump\t// out\n        /* \"#utility.yul\":3007:3156   */\n    tag_285:\n        /* \"#utility.yul\":3103:3149   */\n      tag_396\n        /* \"#utility.yul\":3143:3148   */\n      dup2\n        /* \"#utility.yul\":3103:3149   */\n      tag_284\n      jump\t// in\n    tag_396:\n        /* \"#utility.yul\":3098:3101   */\n      dup3\n        /* \"#utility.yul\":3091:3150   */\n      mstore\n        /* \"#utility.yul\":3007:3156   */\n      pop\n      pop\n      jump\t// out\n        /* \"#utility.yul\":3162:3288   */\n    tag_286:\n        /* \"#utility.yul\":3199:3206   */\n      0x00\n        /* \"#utility.yul\":3239:3281   */\n      0xffffffffffffffffffffffffffffffffffffffff\n        /* \"#utility.yul\":3232:3237   */\n      dup3\n        /* \"#utility.yul\":3228:3282   */\n      and\n        /* \"#utility.yul\":3217:3282   */\n      swap1\n      pop\n        /* \"#utility.yul\":3162:3288   */\n      swap2\n      swap1\n      pop\n      jump\t// out\n        /* \"#utility.yul\":3294:3390   */\n    tag_287:\n        /* \"#utility.yul\":3331:3338   */\n      0x00\n        /* \"#utility.yul\":3360:3384   */\n      tag_399\n        /* \"#utility.yul\":3378:3383   */\n      dup3\n        /* \"#utility.yul\":3360:3384   */\n      tag_286\n      jump\t// in\n    tag_399:\n        /* \"#utility.yul\":3349:3384   */\n      swap1\n      pop\n        /* \"#utility.yul\":3294:3390   */\n      swap2\n      swap1\n      pop\n      jump\t// out\n        /* \"#utility.yul\":3396:3514   */\n    tag_288:\n        /* \"#utility.yul\":3483:3507   */\n      tag_401\n        /* \"#utility.yul\":3501:3506   */\n      dup2\n        /* \"#utility.yul\":3483:3507   */\n      tag_287\n      jump\t// in\n    tag_401:\n        /* \"#utility.yul\":3478:3481   */\n      dup3\n        /* \"#utility.yul\":3471:3508   */\n      mstore\n        /* \"#utility.yul\":3396:3514   */\n      pop\n      pop\n      jump\t// out\n        /* \"#utility.yul\":3520:3638   */\n    tag_289:\n        /* \"#utility.yul\":3607:3631   */\n      tag_403\n        /* \"#utility.yul\":3625:3630   */\n      dup2\n        /* \"#utility.yul\":3607:3631   */\n      tag_274\n      jump\t// in\n    tag_403:\n        /* \"#utility.yul\":3602:3605   */\n      dup3\n        /* \"#utility.yul\":3595:3632   */\n      mstore\n        /* \"#utility.yul\":3520:3638   */\n      pop\n      pop\n      jump\t// out\n        /* \"#utility.yul\":3644:4932   */\n    tag_26:\n        /* \"#utility.yul\":4002:4006   */\n      0x00\n        /* \"#utility.yul\":4040:4043   */\n      0x0100\n        /* \"#utility.yul\":4029:4038   */\n      dup3\n        /* \"#utility.yul\":4025:4044   */\n      add\n        /* \"#utility.yul\":4017:4044   */\n      swap1\n      pop\n        /* \"#utility.yul\":4090:4099   */\n      dup2\n        /* \"#utility.yul\":4084:4088   */\n      dup2\n        /* \"#utility.yul\":4080:4100   */\n      sub\n        /* \"#utility.yul\":4076:4077   */\n      0x00\n        /* \"#utility.yul\":4065:4074   */\n      dup4\n        /* \"#utility.yul\":4061:4078   */\n      add\n        /* \"#utility.yul\":4054:4101   */\n      mstore\n        /* \"#utility.yul\":4118:4196   */\n      tag_405\n        /* \"#utility.yul\":4191:4195   */\n      dup2\n        /* \"#utility.yul\":4182:4188   */\n      dup12\n        /* \"#utility.yul\":4118:4196   */\n      tag_281\n      jump\t// in\n    tag_405:\n        /* \"#utility.yul\":4110:4196   */\n      swap1\n      pop\n        /* \"#utility.yul\":4243:4252   */\n      dup2\n        /* \"#utility.yul\":4237:4241   */\n      dup2\n        /* \"#utility.yul\":4233:4253   */\n      sub\n        /* \"#utility.yul\":4228:4230   */\n      0x20\n        /* \"#utility.yul\":4217:4226   */\n      dup4\n        /* \"#utility.yul\":4213:4231   */\n      add\n        /* \"#utility.yul\":4206:4254   */\n      mstore\n        /* \"#utility.yul\":4271:4349   */\n      tag_406\n        /* \"#utility.yul\":4344:4348   */\n      dup2\n        /* \"#utility.yul\":4335:4341   */\n      dup11\n        /* \"#utility.yul\":4271:4349   */\n      tag_281\n      jump\t// in\n    tag_406:\n        /* \"#utility.yul\":4263:4349   */\n      swap1\n      pop\n        /* \"#utility.yul\":4359:4440   */\n      tag_407\n        /* \"#utility.yul\":4436:4438   */\n      0x40\n        /* \"#utility.yul\":4425:4434   */\n      dup4\n        /* \"#utility.yul\":4421:4439   */\n      add\n        /* \"#utility.yul\":4412:4418   */\n      dup10\n        /* \"#utility.yul\":4359:4440   */\n      tag_285\n      jump\t// in\n    tag_407:\n        /* \"#utility.yul\":4450:4522   */\n      tag_408\n        /* \"#utility.yul\":4518:4520   */\n      0x60\n        /* \"#utility.yul\":4507:4516   */\n      dup4\n        /* \"#utility.yul\":4503:4521   */\n      add\n        /* \"#utility.yul\":4494:4500   */\n      dup9\n        /* \"#utility.yul\":4450:4522   */\n      tag_288\n      jump\t// in\n    tag_408:\n        /* \"#utility.yul\":4570:4579   */\n      dup2\n        /* \"#utility.yul\":4564:4568   */\n      dup2\n        /* \"#utility.yul\":4560:4580   */\n      sub\n        /* \"#utility.yul\":4554:4557   */\n      0x80\n        /* \"#utility.yul\":4543:4552   */\n      dup4\n        /* \"#utility.yul\":4539:4558   */\n      add\n        /* \"#utility.yul\":4532:4581   */\n      mstore\n        /* \"#utility.yul\":4598:4676   */\n      tag_409\n        /* \"#utility.yul\":4671:4675   */\n      dup2\n        /* \"#utility.yul\":4662:4668   */\n      dup8\n        /* \"#utility.yul\":4598:4676   */\n      tag_281\n      jump\t// in\n    tag_409:\n        /* \"#utility.yul\":4590:4676   */\n      swap1\n      pop\n        /* \"#utility.yul\":4686:4759   */\n      tag_410\n        /* \"#utility.yul\":4754:4757   */\n      0xa0\n        /* \"#utility.yul\":4743:4752   */\n      dup4\n        /* \"#utility.yul\":4739:4758   */\n      add\n        /* \"#utility.yul\":4730:4736   */\n      dup7\n        /* \"#utility.yul\":4686:4759   */\n      tag_289\n      jump\t// in\n    tag_410:\n        /* \"#utility.yul\":4769:4842   */\n      tag_411\n        /* \"#utility.yul\":4837:4840   */\n      0xc0\n        /* \"#utility.yul\":4826:4835   */\n      dup4\n        /* \"#utility.yul\":4822:4841   */\n      add\n        /* \"#utility.yul\":4813:4819   */\n      dup6\n        /* \"#utility.yul\":4769:4842   */\n      tag_289\n      jump\t// in\n    tag_411:\n        /* \"#utility.yul\":4852:4925   */\n      tag_412\n        /* \"#utility.yul\":4920:4923   */\n      0xe0\n        /* \"#utility.yul\":4909:4918   */\n      dup4\n        /* \"#utility.yul\":4905:4924   */\n      add\n        /* \"#utility.yul\":4896:4902   */\n      dup5\n        /* \"#utility.yul\":4852:4925   */\n      tag_288\n      jump\t// in\n    tag_412:\n        /* \"#utility.yul\":3644:4932   */\n      swap10\n      swap9\n      pop\n      pop\n      pop\n      pop\n      pop\n      pop\n      pop\n      pop\n      pop\n      jump\t// out\n        /* \"#utility.yul\":4938:5160   */\n    tag_30:\n        /* \"#utility.yul\":5031:5035   */\n      0x00\n        /* \"#utility.yul\":5069:5071   */\n      0x20\n        /* \"#utility.yul\":5058:5067   */\n      dup3\n        /* \"#utility.yul\":5054:5072   */\n      add\n        /* \"#utility.yul\":5046:5072   */\n      swap1\n      pop\n        /* \"#utility.yul\":5082:5153   */\n      tag_414\n        /* \"#utility.yul\":5150:5151   */\n      0x00\n        /* \"#utility.yul\":5139:5148   */\n      dup4\n        /* \"#utility.yul\":5135:5152   */\n      add\n        /* \"#utility.yul\":5126:5132   */\n      dup5\n        /* \"#utility.yul\":5082:5153   */\n      tag_288\n      jump\t// in\n    tag_414:\n        /* \"#utility.yul\":4938:5160   */\n      swap3\n      swap2\n      pop\n      pop\n      jump\t// out\n        /* \"#utility.yul\":5166:5388   */\n    tag_35:\n        /* \"#utility.yul\":5259:5263   */\n      0x00\n        /* \"#utility.yul\":5297:5299   */\n      0x20\n        /* \"#utility.yul\":5286:5295   */\n      dup3\n        /* \"#utility.yul\":5282:5300   */\n      add\n        /* \"#utility.yul\":5274:5300   */\n      swap1\n      pop\n        /* \"#utility.yul\":5310:5381   */\n      tag_416\n        /* \"#utility.yul\":5378:5379   */\n      0x00\n        /* \"#utility.yul\":5367:5376   */\n      dup4\n        /* \"#utility.yul\":5363:5380   */\n      add\n        /* \"#utility.yul\":5354:5360   */\n      dup5\n        /* \"#utility.yul\":5310:5381   */\n      tag_289\n      jump\t// in\n    tag_416:\n        /* \"#utility.yul\":5166:5388   */\n      swap3\n      swap2\n      pop\n      pop\n      jump\t// out\n        /* \"#utility.yul\":5394:5511   */\n    tag_290:\n        /* \"#utility.yul\":5503:5504   */\n      0x00\n        /* \"#utility.yul\":5500:5501   */\n      dup1\n        /* \"#utility.yul\":5493:5505   */\n      revert\n        /* \"#utility.yul\":5517:5634   */\n    tag_291:\n        /* \"#utility.yul\":5626:5627   */\n      0x00\n        /* \"#utility.yul\":5623:5624   */\n      dup1\n        /* \"#utility.yul\":5616:5628   */\n      revert\n        /* \"#utility.yul\":5640:5820   */\n    tag_219:\n        /* \"#utility.yul\":5688:5765   */\n      0x4e487b7100000000000000000000000000000000000000000000000000000000\n        /* \"#utility.yul\":5685:5686   */\n      0x00\n        /* \"#utility.yul\":5678:5766   */\n      mstore\n        /* \"#utility.yul\":5785:5789   */\n      0x41\n        /* \"#utility.yul\":5782:5783   */\n      0x04\n        /* \"#utility.yul\":5775:5790   */\n      mstore\n        /* \"#utility.yul\":5809:5813   */\n      0x24\n        /* \"#utility.yul\":5806:5807   */\n      0x00\n        /* \"#utility.yul\":5799:5814   */\n      revert\n        /* \"#utility.yul\":5826:6107   */\n    tag_292:\n        /* \"#utility.yul\":5909:5936   */\n      tag_421\n        /* \"#utility.yul\":5931:5935   */\n      dup3\n        /* \"#utility.yul\":5909:5936   */\n      tag_280\n      jump\t// in\n    tag_421:\n        /* \"#utility.yul\":5901:5907   */\n      dup2\n        /* \"#utility.yul\":5897:5937   */\n      add\n        /* \"#utility.yul\":6039:6045   */\n      dup2\n        /* \"#utility.yul\":6027:6037   */\n      dup2\n        /* \"#utility.yul\":6024:6046   */\n      lt\n        /* \"#utility.yul\":6003:6021   */\n      0xffffffffffffffff\n        /* \"#utility.yul\":5991:6001   */\n      dup3\n        /* \"#utility.yul\":5988:6022   */\n      gt\n        /* \"#utility.yul\":5985:6047   */\n      or\n        /* \"#utility.yul\":5982:6070   */\n      iszero\n      tag_422\n      jumpi\n        /* \"#utility.yul\":6050:6068   */\n      tag_423\n      tag_219\n      jump\t// in\n    tag_423:\n        /* \"#utility.yul\":5982:6070   */\n    tag_422:\n        /* \"#utility.yul\":6090:6100   */\n      dup1\n        /* \"#utility.yul\":6086:6088   */\n      0x40\n        /* \"#utility.yul\":6079:6101   */\n      mstore\n        /* \"#utility.yul\":5869:6107   */\n      pop\n        /* \"#utility.yul\":5826:6107   */\n      pop\n      pop\n      jump\t// out\n        /* \"#utility.yul\":6113:6242   */\n    tag_293:\n        /* \"#utility.yul\":6147:6153   */\n      0x00\n        /* \"#utility.yul\":6174:6194   */\n      tag_425\n      tag_271\n      jump\t// in\n    tag_425:\n        /* \"#utility.yul\":6164:6194   */\n      swap1\n      pop\n        /* \"#utility.yul\":6203:6236   */\n      tag_426\n        /* \"#utility.yul\":6231:6235   */\n      dup3\n        /* \"#utility.yul\":6223:6229   */\n      dup3\n        /* \"#utility.yul\":6203:6236   */\n      tag_292\n      jump\t// in\n    tag_426:\n        /* \"#utility.yul\":6113:6242   */\n      swap2\n      swap1\n      pop\n      jump\t// out\n        /* \"#utility.yul\":6248:6556   */\n    tag_294:\n        /* \"#utility.yul\":6310:6314   */\n      0x00\n        /* \"#utility.yul\":6400:6418   */\n      0xffffffffffffffff\n        /* \"#utility.yul\":6392:6398   */\n      dup3\n        /* \"#utility.yul\":6389:6419   */\n      gt\n        /* \"#utility.yul\":6386:6442   */\n      iszero\n      tag_428\n      jumpi\n        /* \"#utility.yul\":6422:6440   */\n      tag_429\n      tag_219\n      jump\t// in\n    tag_429:\n        /* \"#utility.yul\":6386:6442   */\n    tag_428:\n        /* \"#utility.yul\":6460:6489   */\n      tag_430\n        /* \"#utility.yul\":6482:6488   */\n      dup3\n        /* \"#utility.yul\":6460:6489   */\n      tag_280\n      jump\t// in\n    tag_430:\n        /* \"#utility.yul\":6452:6489   */\n      swap1\n      pop\n        /* \"#utility.yul\":6544:6548   */\n      0x20\n        /* \"#utility.yul\":6538:6542   */\n      dup2\n        /* \"#utility.yul\":6534:6549   */\n      add\n        /* \"#utility.yul\":6526:6549   */\n      swap1\n      pop\n        /* \"#utility.yul\":6248:6556   */\n      swap2\n      swap1\n      pop\n      jump\t// out\n        /* \"#utility.yul\":6562:6710   */\n    tag_295:\n        /* \"#utility.yul\":6660:6666   */\n      dup3\n        /* \"#utility.yul\":6655:6658   */\n      dup2\n        /* \"#utility.yul\":6650:6653   */\n      dup4\n        /* \"#utility.yul\":6637:6667   */\n      calldatacopy\n        /* \"#utility.yul\":6701:6702   */\n      0x00\n        /* \"#utility.yul\":6692:6698   */\n      dup4\n        /* \"#utility.yul\":6687:6690   */\n      dup4\n        /* \"#utility.yul\":6683:6699   */\n      add\n        /* \"#utility.yul\":6676:6703   */\n      mstore\n        /* \"#utility.yul\":6562:6710   */\n      pop\n      pop\n      pop\n      jump\t// out\n        /* \"#utility.yul\":6716:7141   */\n    tag_296:\n        /* \"#utility.yul\":6794:6799   */\n      0x00\n        /* \"#utility.yul\":6819:6885   */\n      tag_433\n        /* \"#utility.yul\":6835:6884   */\n      tag_434\n        /* \"#utility.yul\":6877:6883   */\n      dup5\n        /* \"#utility.yul\":6835:6884   */\n      tag_294\n      jump\t// in\n    tag_434:\n        /* \"#utility.yul\":6819:6885   */\n      tag_293\n      jump\t// in\n    tag_433:\n        /* \"#utility.yul\":6810:6885   */\n      swap1\n      pop\n        /* \"#utility.yul\":6908:6914   */\n      dup3\n        /* \"#utility.yul\":6901:6906   */\n      dup2\n        /* \"#utility.yul\":6894:6915   */\n      mstore\n        /* \"#utility.yul\":6946:6950   */\n      0x20\n        /* \"#utility.yul\":6939:6944   */\n      dup2\n        /* \"#utility.yul\":6935:6951   */\n      add\n        /* \"#utility.yul\":6984:6987   */\n      dup5\n        /* \"#utility.yul\":6975:6981   */\n      dup5\n        /* \"#utility.yul\":6970:6973   */\n      dup5\n        /* \"#utility.yul\":6966:6982   */\n      add\n        /* \"#utility.yul\":6963:6988   */\n      gt\n        /* \"#utility.yul\":6960:7072   */\n      iszero\n      tag_435\n      jumpi\n        /* \"#utility.yul\":6991:7070   */\n      tag_436\n      tag_291\n      jump\t// in\n    tag_436:\n        /* \"#utility.yul\":6960:7072   */\n    tag_435:\n        /* \"#utility.yul\":7081:7135   */\n      tag_437\n        /* \"#utility.yul\":7128:7134   */\n      dup5\n        /* \"#utility.yul\":7123:7126   */\n      dup3\n        /* \"#utility.yul\":7118:7121   */\n      dup6\n        /* \"#utility.yul\":7081:7135   */\n      tag_295\n      jump\t// in\n    tag_437:\n        /* \"#utility.yul\":6800:7141   */\n      pop\n        /* \"#utility.yul\":6716:7141   */\n      swap4\n      swap3\n      pop\n      pop\n      pop\n      jump\t// out\n        /* \"#utility.yul\":7161:7501   */\n    tag_297:\n        /* \"#utility.yul\":7217:7222   */\n      0x00\n        /* \"#utility.yul\":7266:7269   */\n      dup3\n        /* \"#utility.yul\":7259:7263   */\n      0x1f\n        /* \"#utility.yul\":7251:7257   */\n      dup4\n        /* \"#utility.yul\":7247:7264   */\n      add\n        /* \"#utility.yul\":7243:7270   */\n      slt\n        /* \"#utility.yul\":7233:7355   */\n      tag_439\n      jumpi\n        /* \"#utility.yul\":7274:7353   */\n      tag_440\n      tag_290\n      jump\t// in\n    tag_440:\n        /* \"#utility.yul\":7233:7355   */\n    tag_439:\n        /* \"#utility.yul\":7391:7397   */\n      dup2\n        /* \"#utility.yul\":7378:7398   */\n      calldataload\n        /* \"#utility.yul\":7416:7495   */\n      tag_441\n        /* \"#utility.yul\":7491:7494   */\n      dup5\n        /* \"#utility.yul\":7483:7489   */\n      dup3\n        /* \"#utility.yul\":7476:7480   */\n      0x20\n        /* \"#utility.yul\":7468:7474   */\n      dup7\n        /* \"#utility.yul\":7464:7481   */\n      add\n        /* \"#utility.yul\":7416:7495   */\n      tag_296\n      jump\t// in\n    tag_441:\n        /* \"#utility.yul\":7407:7495   */\n      swap2\n      pop\n        /* \"#utility.yul\":7223:7501   */\n      pop\n        /* \"#utility.yul\":7161:7501   */\n      swap3\n      swap2\n      pop\n      pop\n      jump\t// out\n        /* \"#utility.yul\":7507:7617   */\n    tag_298:\n        /* \"#utility.yul\":7591:7592   */\n      0x03\n        /* \"#utility.yul\":7584:7589   */\n      dup2\n        /* \"#utility.yul\":7581:7593   */\n      lt\n        /* \"#utility.yul\":7571:7611   */\n      tag_443\n      jumpi\n        /* \"#utility.yul\":7607:7608   */\n      0x00\n        /* \"#utility.yul\":7604:7605   */\n      dup1\n        /* \"#utility.yul\":7597:7609   */\n      revert\n        /* \"#utility.yul\":7571:7611   */\n    tag_443:\n        /* \"#utility.yul\":7507:7617   */\n      pop\n      jump\t// out\n        /* \"#utility.yul\":7623:7784   */\n    tag_299:\n        /* \"#utility.yul\":7680:7685   */\n      0x00\n        /* \"#utility.yul\":7718:7724   */\n      dup2\n        /* \"#utility.yul\":7705:7725   */\n      calldataload\n        /* \"#utility.yul\":7696:7725   */\n      swap1\n      pop\n        /* \"#utility.yul\":7734:7778   */\n      tag_445\n        /* \"#utility.yul\":7772:7777   */\n      dup2\n        /* \"#utility.yul\":7734:7778   */\n      tag_298\n      jump\t// in\n    tag_445:\n        /* \"#utility.yul\":7623:7784   */\n      swap3\n      swap2\n      pop\n      pop\n      jump\t// out\n        /* \"#utility.yul\":7790:9117   */\n    tag_38:\n        /* \"#utility.yul\":7917:7923   */\n      0x00\n        /* \"#utility.yul\":7925:7931   */\n      dup1\n        /* \"#utility.yul\":7933:7939   */\n      0x00\n        /* \"#utility.yul\":7941:7947   */\n      dup1\n        /* \"#utility.yul\":7990:7993   */\n      0x80\n        /* \"#utility.yul\":7978:7987   */\n      dup6\n        /* \"#utility.yul\":7969:7976   */\n      dup8\n        /* \"#utility.yul\":7965:7988   */\n      sub\n        /* \"#utility.yul\":7961:7994   */\n      slt\n        /* \"#utility.yul\":7958:8078   */\n      iszero\n      tag_447\n      jumpi\n        /* \"#utility.yul\":7997:8076   */\n      tag_448\n      tag_272\n      jump\t// in\n    tag_448:\n        /* \"#utility.yul\":7958:8078   */\n    tag_447:\n        /* \"#utility.yul\":8145:8146   */\n      0x00\n        /* \"#utility.yul\":8134:8143   */\n      dup6\n        /* \"#utility.yul\":8130:8147   */\n      add\n        /* \"#utility.yul\":8117:8148   */\n      calldataload\n        /* \"#utility.yul\":8175:8193   */\n      0xffffffffffffffff\n        /* \"#utility.yul\":8167:8173   */\n      dup2\n        /* \"#utility.yul\":8164:8194   */\n      gt\n        /* \"#utility.yul\":8161:8278   */\n      iszero\n      tag_449\n      jumpi\n        /* \"#utility.yul\":8197:8276   */\n      tag_450\n      tag_273\n      jump\t// in\n    tag_450:\n        /* \"#utility.yul\":8161:8278   */\n    tag_449:\n        /* \"#utility.yul\":8302:8365   */\n      tag_451\n        /* \"#utility.yul\":8357:8364   */\n      dup8\n        /* \"#utility.yul\":8348:8354   */\n      dup3\n        /* \"#utility.yul\":8337:8346   */\n      dup9\n        /* \"#utility.yul\":8333:8355   */\n      add\n        /* \"#utility.yul\":8302:8365   */\n      tag_297\n      jump\t// in\n    tag_451:\n        /* \"#utility.yul\":8292:8365   */\n      swap5\n      pop\n        /* \"#utility.yul\":8088:8375   */\n      pop\n        /* \"#utility.yul\":8442:8444   */\n      0x20\n        /* \"#utility.yul\":8431:8440   */\n      dup6\n        /* \"#utility.yul\":8427:8445   */\n      add\n        /* \"#utility.yul\":8414:8446   */\n      calldataload\n        /* \"#utility.yul\":8473:8491   */\n      0xffffffffffffffff\n        /* \"#utility.yul\":8465:8471   */\n      dup2\n        /* \"#utility.yul\":8462:8492   */\n      gt\n        /* \"#utility.yul\":8459:8576   */\n      iszero\n      tag_452\n      jumpi\n        /* \"#utility.yul\":8495:8574   */\n      tag_453\n      tag_273\n      jump\t// in\n    tag_453:\n        /* \"#utility.yul\":8459:8576   */\n    tag_452:\n        /* \"#utility.yul\":8600:8663   */\n      tag_454\n        /* \"#utility.yul\":8655:8662   */\n      dup8\n        /* \"#utility.yul\":8646:8652   */\n      dup3\n        /* \"#utility.yul\":8635:8644   */\n      dup9\n        /* \"#utility.yul\":8631:8653   */\n      add\n        /* \"#utility.yul\":8600:8663   */\n      tag_297\n      jump\t// in\n    tag_454:\n        /* \"#utility.yul\":8590:8663   */\n      swap4\n      pop\n        /* \"#utility.yul\":8385:8673   */\n      pop\n        /* \"#utility.yul\":8712:8714   */\n      0x40\n        /* \"#utility.yul\":8738:8802   */\n      tag_455\n        /* \"#utility.yul\":8794:8801   */\n      dup8\n        /* \"#utility.yul\":8785:8791   */\n      dup3\n        /* \"#utility.yul\":8774:8783   */\n      dup9\n        /* \"#utility.yul\":8770:8792   */\n      add\n        /* \"#utility.yul\":8738:8802   */\n      tag_299\n      jump\t// in\n    tag_455:\n        /* \"#utility.yul\":8728:8802   */\n      swap3\n      pop\n        /* \"#utility.yul\":8683:8812   */\n      pop\n        /* \"#utility.yul\":8879:8881   */\n      0x60\n        /* \"#utility.yul\":8868:8877   */\n      dup6\n        /* \"#utility.yul\":8864:8882   */\n      add\n        /* \"#utility.yul\":8851:8883   */\n      calldataload\n        /* \"#utility.yul\":8910:8928   */\n      0xffffffffffffffff\n        /* \"#utility.yul\":8902:8908   */\n      dup2\n        /* \"#utility.yul\":8899:8929   */\n      gt\n        /* \"#utility.yul\":8896:9013   */\n      iszero\n      tag_456\n      jumpi\n        /* \"#utility.yul\":8932:9011   */\n      tag_457\n      tag_273\n      jump\t// in\n    tag_457:\n        /* \"#utility.yul\":8896:9013   */\n    tag_456:\n        /* \"#utility.yul\":9037:9100   */\n      tag_458\n        /* \"#utility.yul\":9092:9099   */\n      dup8\n        /* \"#utility.yul\":9083:9089   */\n      dup3\n        /* \"#utility.yul\":9072:9081   */\n      dup9\n        /* \"#utility.yul\":9068:9090   */\n      add\n        /* \"#utility.yul\":9037:9100   */\n      tag_297\n      jump\t// in\n    tag_458:\n        /* \"#utility.yul\":9027:9100   */\n      swap2\n      pop\n        /* \"#utility.yul\":8822:9110   */\n      pop\n        /* \"#utility.yul\":7790:9117   */\n      swap3\n      swap6\n      swap2\n      swap5\n      pop\n      swap3\n      pop\n      jump\t// out\n        /* \"#utility.yul\":9123:9245   */\n    tag_300:\n        /* \"#utility.yul\":9196:9220   */\n      tag_460\n        /* \"#utility.yul\":9214:9219   */\n      dup2\n        /* \"#utility.yul\":9196:9220   */\n      tag_287\n      jump\t// in\n    tag_460:\n        /* \"#utility.yul\":9189:9194   */\n      dup2\n        /* \"#utility.yul\":9186:9221   */\n      eq\n        /* \"#utility.yul\":9176:9239   */\n      tag_461\n      jumpi\n        /* \"#utility.yul\":9235:9236   */\n      0x00\n        /* \"#utility.yul\":9232:9233   */\n      dup1\n        /* \"#utility.yul\":9225:9237   */\n      revert\n        /* \"#utility.yul\":9176:9239   */\n    tag_461:\n        /* \"#utility.yul\":9123:9245   */\n      pop\n      jump\t// out\n        /* \"#utility.yul\":9251:9390   */\n    tag_301:\n        /* \"#utility.yul\":9297:9302   */\n      0x00\n        /* \"#utility.yul\":9335:9341   */\n      dup2\n        /* \"#utility.yul\":9322:9342   */\n      calldataload\n        /* \"#utility.yul\":9313:9342   */\n      swap1\n      pop\n        /* \"#utility.yul\":9351:9384   */\n      tag_463\n        /* \"#utility.yul\":9378:9383   */\n      dup2\n        /* \"#utility.yul\":9351:9384   */\n      tag_300\n      jump\t// in\n    tag_463:\n        /* \"#utility.yul\":9251:9390   */\n      swap3\n      swap2\n      pop\n      pop\n      jump\t// out\n        /* \"#utility.yul\":9396:9892   */\n    tag_45:\n        /* \"#utility.yul\":9475:9481   */\n      0x00\n        /* \"#utility.yul\":9483:9489   */\n      dup1\n        /* \"#utility.yul\":9532:9534   */\n      0x40\n        /* \"#utility.yul\":9520:9529   */\n      dup4\n        /* \"#utility.yul\":9511:9518   */\n      dup6\n        /* \"#utility.yul\":9507:9530   */\n      sub\n        /* \"#utility.yul\":9503:9535   */\n      slt\n        /* \"#utility.yul\":9500:9619   */\n      iszero\n      tag_465\n      jumpi\n        /* \"#utility.yul\":9538:9617   */\n      tag_466\n      tag_272\n      jump\t// in\n    tag_466:\n        /* \"#utility.yul\":9500:9619   */\n    tag_465:\n        /* \"#utility.yul\":9658:9659   */\n      0x00\n        /* \"#utility.yul\":9683:9747   */\n      tag_467\n        /* \"#utility.yul\":9739:9746   */\n      dup6\n        /* \"#utility.yul\":9730:9736   */\n      dup3\n        /* \"#utility.yul\":9719:9728   */\n      dup7\n        /* \"#utility.yul\":9715:9737   */\n      add\n        /* \"#utility.yul\":9683:9747   */\n      tag_299\n      jump\t// in\n    tag_467:\n        /* \"#utility.yul\":9673:9747   */\n      swap3\n      pop\n        /* \"#utility.yul\":9629:9757   */\n      pop\n        /* \"#utility.yul\":9796:9798   */\n      0x20\n        /* \"#utility.yul\":9822:9875   */\n      tag_468\n        /* \"#utility.yul\":9867:9874   */\n      dup6\n        /* \"#utility.yul\":9858:9864   */\n      dup3\n        /* \"#utility.yul\":9847:9856   */\n      dup7\n        /* \"#utility.yul\":9843:9865   */\n      add\n        /* \"#utility.yul\":9822:9875   */\n      tag_301\n      jump\t// in\n    tag_468:\n        /* \"#utility.yul\":9812:9875   */\n      swap2\n      pop\n        /* \"#utility.yul\":9767:9885   */\n      pop\n        /* \"#utility.yul\":9396:9892   */\n      swap3\n      pop\n      swap3\n      swap1\n      pop\n      jump\t// out\n        /* \"#utility.yul\":9898:10012   */\n    tag_302:\n        /* \"#utility.yul\":9965:9971   */\n      0x00\n        /* \"#utility.yul\":9999:10004   */\n      dup2\n        /* \"#utility.yul\":9993:10005   */\n      mload\n        /* \"#utility.yul\":9983:10005   */\n      swap1\n      pop\n        /* \"#utility.yul\":9898:10012   */\n      swap2\n      swap1\n      pop\n      jump\t// out\n        /* \"#utility.yul\":10018:10202   */\n    tag_303:\n        /* \"#utility.yul\":10117:10128   */\n      0x00\n        /* \"#utility.yul\":10151:10157   */\n      dup3\n        /* \"#utility.yul\":10146:10149   */\n      dup3\n        /* \"#utility.yul\":10139:10158   */\n      mstore\n        /* \"#utility.yul\":10191:10195   */\n      0x20\n        /* \"#utility.yul\":10186:10189   */\n      dup3\n        /* \"#utility.yul\":10182:10196   */\n      add\n        /* \"#utility.yul\":10167:10196   */\n      swap1\n      pop\n        /* \"#utility.yul\":10018:10202   */\n      swap3\n      swap2\n      pop\n      pop\n      jump\t// out\n        /* \"#utility.yul\":10208:10340   */\n    tag_304:\n        /* \"#utility.yul\":10275:10279   */\n      0x00\n        /* \"#utility.yul\":10298:10301   */\n      dup2\n        /* \"#utility.yul\":10290:10301   */\n      swap1\n      pop\n        /* \"#utility.yul\":10328:10332   */\n      0x20\n        /* \"#utility.yul\":10323:10326   */\n      dup3\n        /* \"#utility.yul\":10319:10333   */\n      add\n        /* \"#utility.yul\":10311:10333   */\n      swap1\n      pop\n        /* \"#utility.yul\":10208:10340   */\n      swap2\n      swap1\n      pop\n      jump\t// out\n        /* \"#utility.yul\":10346:10454   */\n    tag_305:\n        /* \"#utility.yul\":10423:10447   */\n      tag_473\n        /* \"#utility.yul\":10441:10446   */\n      dup2\n        /* \"#utility.yul\":10423:10447   */\n      tag_287\n      jump\t// in\n    tag_473:\n        /* \"#utility.yul\":10418:10421   */\n      dup3\n        /* \"#utility.yul\":10411:10448   */\n      mstore\n        /* \"#utility.yul\":10346:10454   */\n      pop\n      pop\n      jump\t// out\n        /* \"#utility.yul\":10460:10639   */\n    tag_306:\n        /* \"#utility.yul\":10529:10539   */\n      0x00\n        /* \"#utility.yul\":10550:10596   */\n      tag_475\n        /* \"#utility.yul\":10592:10595   */\n      dup4\n        /* \"#utility.yul\":10584:10590   */\n      dup4\n        /* \"#utility.yul\":10550:10596   */\n      tag_305\n      jump\t// in\n    tag_475:\n        /* \"#utility.yul\":10628:10632   */\n      0x20\n        /* \"#utility.yul\":10623:10626   */\n      dup4\n        /* \"#utility.yul\":10619:10633   */\n      add\n        /* \"#utility.yul\":10605:10633   */\n      swap1\n      pop\n        /* \"#utility.yul\":10460:10639   */\n      swap3\n      swap2\n      pop\n      pop\n      jump\t// out\n        /* \"#utility.yul\":10645:10758   */\n    tag_307:\n        /* \"#utility.yul\":10715:10719   */\n      0x00\n        /* \"#utility.yul\":10747:10751   */\n      0x20\n        /* \"#utility.yul\":10742:10745   */\n      dup3\n        /* \"#utility.yul\":10738:10752   */\n      add\n        /* \"#utility.yul\":10730:10752   */\n      swap1\n      pop\n        /* \"#utility.yul\":10645:10758   */\n      swap2\n      swap1\n      pop\n      jump\t// out\n        /* \"#utility.yul\":10794:11526   */\n    tag_308:\n        /* \"#utility.yul\":10913:10916   */\n      0x00\n        /* \"#utility.yul\":10942:10996   */\n      tag_478\n        /* \"#utility.yul\":10990:10995   */\n      dup3\n        /* \"#utility.yul\":10942:10996   */\n      tag_302\n      jump\t// in\n    tag_478:\n        /* \"#utility.yul\":11012:11098   */\n      tag_479\n        /* \"#utility.yul\":11091:11097   */\n      dup2\n        /* \"#utility.yul\":11086:11089   */\n      dup6\n        /* \"#utility.yul\":11012:11098   */\n      tag_303\n      jump\t// in\n    tag_479:\n        /* \"#utility.yul\":11005:11098   */\n      swap4\n      pop\n        /* \"#utility.yul\":11122:11178   */\n      tag_480\n        /* \"#utility.yul\":11172:11177   */\n      dup4\n        /* \"#utility.yul\":11122:11178   */\n      tag_304\n      jump\t// in\n    tag_480:\n        /* \"#utility.yul\":11201:11208   */\n      dup1\n        /* \"#utility.yul\":11232:11233   */\n      0x00\n        /* \"#utility.yul\":11217:11501   */\n    tag_481:\n        /* \"#utility.yul\":11242:11248   */\n      dup4\n        /* \"#utility.yul\":11239:11240   */\n      dup2\n        /* \"#utility.yul\":11236:11249   */\n      lt\n        /* \"#utility.yul\":11217:11501   */\n      iszero\n      tag_483\n      jumpi\n        /* \"#utility.yul\":11318:11324   */\n      dup2\n        /* \"#utility.yul\":11312:11325   */\n      mload\n        /* \"#utility.yul\":11345:11408   */\n      tag_484\n        /* \"#utility.yul\":11404:11407   */\n      dup9\n        /* \"#utility.yul\":11389:11402   */\n      dup3\n        /* \"#utility.yul\":11345:11408   */\n      tag_306\n      jump\t// in\n    tag_484:\n        /* \"#utility.yul\":11338:11408   */\n      swap8\n      pop\n        /* \"#utility.yul\":11431:11491   */\n      tag_485\n        /* \"#utility.yul\":11484:11490   */\n      dup4\n        /* \"#utility.yul\":11431:11491   */\n      tag_307\n      jump\t// in\n    tag_485:\n        /* \"#utility.yul\":11421:11491   */\n      swap3\n      pop\n        /* \"#utility.yul\":11277:11501   */\n      pop\n        /* \"#utility.yul\":11264:11265   */\n      0x01\n        /* \"#utility.yul\":11261:11262   */\n      dup2\n        /* \"#utility.yul\":11257:11266   */\n      add\n        /* \"#utility.yul\":11252:11266   */\n      swap1\n      pop\n        /* \"#utility.yul\":11217:11501   */\n      jump(tag_481)\n    tag_483:\n        /* \"#utility.yul\":11221:11235   */\n      pop\n        /* \"#utility.yul\":11517:11520   */\n      dup6\n        /* \"#utility.yul\":11510:11520   */\n      swap4\n      pop\n        /* \"#utility.yul\":10918:11526   */\n      pop\n      pop\n      pop\n        /* \"#utility.yul\":10794:11526   */\n      swap3\n      swap2\n      pop\n      pop\n      jump\t// out\n        /* \"#utility.yul\":11532:11646   */\n    tag_309:\n        /* \"#utility.yul\":11599:11605   */\n      0x00\n        /* \"#utility.yul\":11633:11638   */\n      dup2\n        /* \"#utility.yul\":11627:11639   */\n      mload\n        /* \"#utility.yul\":11617:11639   */\n      swap1\n      pop\n        /* \"#utility.yul\":11532:11646   */\n      swap2\n      swap1\n      pop\n      jump\t// out\n        /* \"#utility.yul\":11652:11836   */\n    tag_310:\n        /* \"#utility.yul\":11751:11762   */\n      0x00\n        /* \"#utility.yul\":11785:11791   */\n      dup3\n        /* \"#utility.yul\":11780:11783   */\n      dup3\n        /* \"#utility.yul\":11773:11792   */\n      mstore\n        /* \"#utility.yul\":11825:11829   */\n      0x20\n        /* \"#utility.yul\":11820:11823   */\n      dup3\n        /* \"#utility.yul\":11816:11830   */\n      add\n        /* \"#utility.yul\":11801:11830   */\n      swap1\n      pop\n        /* \"#utility.yul\":11652:11836   */\n      swap3\n      swap2\n      pop\n      pop\n      jump\t// out\n        /* \"#utility.yul\":11842:11974   */\n    tag_311:\n        /* \"#utility.yul\":11909:11913   */\n      0x00\n        /* \"#utility.yul\":11932:11935   */\n      dup2\n        /* \"#utility.yul\":11924:11935   */\n      swap1\n      pop\n        /* \"#utility.yul\":11962:11966   */\n      0x20\n        /* \"#utility.yul\":11957:11960   */\n      dup3\n        /* \"#utility.yul\":11953:11967   */\n      add\n        /* \"#utility.yul\":11945:11967   */\n      swap1\n      pop\n        /* \"#utility.yul\":11842:11974   */\n      swap2\n      swap1\n      pop\n      jump\t// out\n        /* \"#utility.yul\":11980:12088   */\n    tag_312:\n        /* \"#utility.yul\":12057:12081   */\n      tag_490\n        /* \"#utility.yul\":12075:12080   */\n      dup2\n        /* \"#utility.yul\":12057:12081   */\n      tag_274\n      jump\t// in\n    tag_490:\n        /* \"#utility.yul\":12052:12055   */\n      dup3\n        /* \"#utility.yul\":12045:12082   */\n      mstore\n        /* \"#utility.yul\":11980:12088   */\n      pop\n      pop\n      jump\t// out\n        /* \"#utility.yul\":12094:12273   */\n    tag_313:\n        /* \"#utility.yul\":12163:12173   */\n      0x00\n        /* \"#utility.yul\":12184:12230   */\n      tag_492\n        /* \"#utility.yul\":12226:12229   */\n      dup4\n        /* \"#utility.yul\":12218:12224   */\n      dup4\n        /* \"#utility.yul\":12184:12230   */\n      tag_312\n      jump\t// in\n    tag_492:\n        /* \"#utility.yul\":12262:12266   */\n      0x20\n        /* \"#utility.yul\":12257:12260   */\n      dup4\n        /* \"#utility.yul\":12253:12267   */\n      add\n        /* \"#utility.yul\":12239:12267   */\n      swap1\n      pop\n        /* \"#utility.yul\":12094:12273   */\n      swap3\n      swap2\n      pop\n      pop\n      jump\t// out\n        /* \"#utility.yul\":12279:12392   */\n    tag_314:\n        /* \"#utility.yul\":12349:12353   */\n      0x00\n        /* \"#utility.yul\":12381:12385   */\n      0x20\n        /* \"#utility.yul\":12376:12379   */\n      dup3\n        /* \"#utility.yul\":12372:12386   */\n      add\n        /* \"#utility.yul\":12364:12386   */\n      swap1\n      pop\n        /* \"#utility.yul\":12279:12392   */\n      swap2\n      swap1\n      pop\n      jump\t// out\n        /* \"#utility.yul\":12428:13160   */\n    tag_315:\n        /* \"#utility.yul\":12547:12550   */\n      0x00\n        /* \"#utility.yul\":12576:12630   */\n      tag_495\n        /* \"#utility.yul\":12624:12629   */\n      dup3\n        /* \"#utility.yul\":12576:12630   */\n      tag_309\n      jump\t// in\n    tag_495:\n        /* \"#utility.yul\":12646:12732   */\n      tag_496\n        /* \"#utility.yul\":12725:12731   */\n      dup2\n        /* \"#utility.yul\":12720:12723   */\n      dup6\n        /* \"#utility.yul\":12646:12732   */\n      tag_310\n      jump\t// in\n    tag_496:\n        /* \"#utility.yul\":12639:12732   */\n      swap4\n      pop\n        /* \"#utility.yul\":12756:12812   */\n      tag_497\n        /* \"#utility.yul\":12806:12811   */\n      dup4\n        /* \"#utility.yul\":12756:12812   */\n      tag_311\n      jump\t// in\n    tag_497:\n        /* \"#utility.yul\":12835:12842   */\n      dup1\n        /* \"#utility.yul\":12866:12867   */\n      0x00\n        /* \"#utility.yul\":12851:13135   */\n    tag_498:\n        /* \"#utility.yul\":12876:12882   */\n      dup4\n        /* \"#utility.yul\":12873:12874   */\n      dup2\n        /* \"#utility.yul\":12870:12883   */\n      lt\n        /* \"#utility.yul\":12851:13135   */\n      iszero\n      tag_500\n      jumpi\n        /* \"#utility.yul\":12952:12958   */\n      dup2\n        /* \"#utility.yul\":12946:12959   */\n      mload\n        /* \"#utility.yul\":12979:13042   */\n      tag_501\n        /* \"#utility.yul\":13038:13041   */\n      dup9\n        /* \"#utility.yul\":13023:13036   */\n      dup3\n        /* \"#utility.yul\":12979:13042   */\n      tag_313\n      jump\t// in\n    tag_501:\n        /* \"#utility.yul\":12972:13042   */\n      swap8\n      pop\n        /* \"#utility.yul\":13065:13125   */\n      tag_502\n        /* \"#utility.yul\":13118:13124   */\n      dup4\n        /* \"#utility.yul\":13065:13125   */\n      tag_314\n      jump\t// in\n    tag_502:\n        /* \"#utility.yul\":13055:13125   */\n      swap3\n      pop\n        /* \"#utility.yul\":12911:13135   */\n      pop\n        /* \"#utility.yul\":12898:12899   */\n      0x01\n        /* \"#utility.yul\":12895:12896   */\n      dup2\n        /* \"#utility.yul\":12891:12900   */\n      add\n        /* \"#utility.yul\":12886:12900   */\n      swap1\n      pop\n        /* \"#utility.yul\":12851:13135   */\n      jump(tag_498)\n    tag_500:\n        /* \"#utility.yul\":12855:12869   */\n      pop\n        /* \"#utility.yul\":13151:13154   */\n      dup6\n        /* \"#utility.yul\":13144:13154   */\n      swap4\n      pop\n        /* \"#utility.yul\":12552:13160   */\n      pop\n      pop\n      pop\n        /* \"#utility.yul\":12428:13160   */\n      swap3\n      swap2\n      pop\n      pop\n      jump\t// out\n        /* \"#utility.yul\":13166:13800   */\n    tag_51:\n        /* \"#utility.yul\":13387:13391   */\n      0x00\n        /* \"#utility.yul\":13425:13427   */\n      0x40\n        /* \"#utility.yul\":13414:13423   */\n      dup3\n        /* \"#utility.yul\":13410:13428   */\n      add\n        /* \"#utility.yul\":13402:13428   */\n      swap1\n      pop\n        /* \"#utility.yul\":13474:13483   */\n      dup2\n        /* \"#utility.yul\":13468:13472   */\n      dup2\n        /* \"#utility.yul\":13464:13484   */\n      sub\n        /* \"#utility.yul\":13460:13461   */\n      0x00\n        /* \"#utility.yul\":13449:13458   */\n      dup4\n        /* \"#utility.yul\":13445:13462   */\n      add\n        /* \"#utility.yul\":13438:13485   */\n      mstore\n        /* \"#utility.yul\":13502:13610   */\n      tag_504\n        /* \"#utility.yul\":13605:13609   */\n      dup2\n        /* \"#utility.yul\":13596:13602   */\n      dup6\n        /* \"#utility.yul\":13502:13610   */\n      tag_308\n      jump\t// in\n    tag_504:\n        /* \"#utility.yul\":13494:13610   */\n      swap1\n      pop\n        /* \"#utility.yul\":13657:13666   */\n      dup2\n        /* \"#utility.yul\":13651:13655   */\n      dup2\n        /* \"#utility.yul\":13647:13667   */\n      sub\n        /* \"#utility.yul\":13642:13644   */\n      0x20\n        /* \"#utility.yul\":13631:13640   */\n      dup4\n        /* \"#utility.yul\":13627:13645   */\n      add\n        /* \"#utility.yul\":13620:13668   */\n      mstore\n        /* \"#utility.yul\":13685:13793   */\n      tag_505\n        /* \"#utility.yul\":13788:13792   */\n      dup2\n        /* \"#utility.yul\":13779:13785   */\n      dup5\n        /* \"#utility.yul\":13685:13793   */\n      tag_315\n      jump\t// in\n    tag_505:\n        /* \"#utility.yul\":13677:13793   */\n      swap1\n      pop\n        /* \"#utility.yul\":13166:13800   */\n      swap4\n      swap3\n      pop\n      pop\n      pop\n      jump\t// out\n        /* \"#utility.yul\":13806:14157   */\n    tag_54:\n        /* \"#utility.yul\":13876:13882   */\n      0x00\n        /* \"#utility.yul\":13925:13927   */\n      0x20\n        /* \"#utility.yul\":13913:13922   */\n      dup3\n        /* \"#utility.yul\":13904:13911   */\n      dup5\n        /* \"#utility.yul\":13900:13923   */\n      sub\n        /* \"#utility.yul\":13896:13928   */\n      slt\n        /* \"#utility.yul\":13893:14012   */\n      iszero\n      tag_507\n      jumpi\n        /* \"#utility.yul\":13931:14010   */\n      tag_508\n      tag_272\n      jump\t// in\n    tag_508:\n        /* \"#utility.yul\":13893:14012   */\n    tag_507:\n        /* \"#utility.yul\":14051:14052   */\n      0x00\n        /* \"#utility.yul\":14076:14140   */\n      tag_509\n        /* \"#utility.yul\":14132:14139   */\n      dup5\n        /* \"#utility.yul\":14123:14129   */\n      dup3\n        /* \"#utility.yul\":14112:14121   */\n      dup6\n        /* \"#utility.yul\":14108:14130   */\n      add\n        /* \"#utility.yul\":14076:14140   */\n      tag_299\n      jump\t// in\n    tag_509:\n        /* \"#utility.yul\":14066:14140   */\n      swap2\n      pop\n        /* \"#utility.yul\":14022:14150   */\n      pop\n        /* \"#utility.yul\":13806:14157   */\n      swap3\n      swap2\n      pop\n      pop\n      jump\t// out\n        /* \"#utility.yul\":14163:14492   */\n    tag_59:\n        /* \"#utility.yul\":14222:14228   */\n      0x00\n        /* \"#utility.yul\":14271:14273   */\n      0x20\n        /* \"#utility.yul\":14259:14268   */\n      dup3\n        /* \"#utility.yul\":14250:14257   */\n      dup5\n        /* \"#utility.yul\":14246:14269   */\n      sub\n        /* \"#utility.yul\":14242:14274   */\n      slt\n        /* \"#utility.yul\":14239:14358   */\n      iszero\n      tag_511\n      jumpi\n        /* \"#utility.yul\":14277:14356   */\n      tag_512\n      tag_272\n      jump\t// in\n    tag_512:\n        /* \"#utility.yul\":14239:14358   */\n    tag_511:\n        /* \"#utility.yul\":14397:14398   */\n      0x00\n        /* \"#utility.yul\":14422:14475   */\n      tag_513\n        /* \"#utility.yul\":14467:14474   */\n      dup5\n        /* \"#utility.yul\":14458:14464   */\n      dup3\n        /* \"#utility.yul\":14447:14456   */\n      dup6\n        /* \"#utility.yul\":14443:14465   */\n      add\n        /* \"#utility.yul\":14422:14475   */\n      tag_301\n      jump\t// in\n    tag_513:\n        /* \"#utility.yul\":14412:14475   */\n      swap2\n      pop\n        /* \"#utility.yul\":14368:14485   */\n      pop\n        /* \"#utility.yul\":14163:14492   */\n      swap3\n      swap2\n      pop\n      pop\n      jump\t// out\n        /* \"#utility.yul\":14498:14670   */\n    tag_316:\n        /* \"#utility.yul\":14638:14662   */\n      0x46616e436c756220646f6573206e6f7420657869737400000000000000000000\n        /* \"#utility.yul\":14634:14635   */\n      0x00\n        /* \"#utility.yul\":14626:14632   */\n      dup3\n        /* \"#utility.yul\":14622:14636   */\n      add\n        /* \"#utility.yul\":14615:14663   */\n      mstore\n        /* \"#utility.yul\":14498:14670   */\n      pop\n      jump\t// out\n        /* \"#utility.yul\":14676:15042   */\n    tag_317:\n        /* \"#utility.yul\":14818:14821   */\n      0x00\n        /* \"#utility.yul\":14839:14906   */\n      tag_516\n        /* \"#utility.yul\":14903:14905   */\n      0x16\n        /* \"#utility.yul\":14898:14901   */\n      dup4\n        /* \"#utility.yul\":14839:14906   */\n      tag_278\n      jump\t// in\n    tag_516:\n        /* \"#utility.yul\":14832:14906   */\n      swap2\n      pop\n        /* \"#utility.yul\":14915:15008   */\n      tag_517\n        /* \"#utility.yul\":15004:15007   */\n      dup3\n        /* \"#utility.yul\":14915:15008   */\n      tag_316\n      jump\t// in\n    tag_517:\n        /* \"#utility.yul\":15033:15035   */\n      0x20\n        /* \"#utility.yul\":15028:15031   */\n      dup3\n        /* \"#utility.yul\":15024:15036   */\n      add\n        /* \"#utility.yul\":15017:15036   */\n      swap1\n      pop\n        /* \"#utility.yul\":14676:15042   */\n      swap2\n      swap1\n      pop\n      jump\t// out\n        /* \"#utility.yul\":15048:15467   */\n    tag_64:\n        /* \"#utility.yul\":15214:15218   */\n      0x00\n        /* \"#utility.yul\":15252:15254   */\n      0x20\n        /* \"#utility.yul\":15241:15250   */\n      dup3\n        /* \"#utility.yul\":15237:15255   */\n      add\n        /* \"#utility.yul\":15229:15255   */\n      swap1\n      pop\n        /* \"#utility.yul\":15301:15310   */\n      dup2\n        /* \"#utility.yul\":15295:15299   */\n      dup2\n        /* \"#utility.yul\":15291:15311   */\n      sub\n        /* \"#utility.yul\":15287:15288   */\n      0x00\n        /* \"#utility.yul\":15276:15285   */\n      dup4\n        /* \"#utility.yul\":15272:15289   */\n      add\n        /* \"#utility.yul\":15265:15312   */\n      mstore\n        /* \"#utility.yul\":15329:15460   */\n      tag_519\n        /* \"#utility.yul\":15455:15459   */\n      dup2\n        /* \"#utility.yul\":15329:15460   */\n      tag_317\n      jump\t// in\n    tag_519:\n        /* \"#utility.yul\":15321:15460   */\n      swap1\n      pop\n        /* \"#utility.yul\":15048:15467   */\n      swap2\n      swap1\n      pop\n      jump\t// out\n        /* \"#utility.yul\":15473:15655   */\n    tag_318:\n        /* \"#utility.yul\":15613:15647   */\n      0x416d6f756e74206d7573742062652067726561746572207468616e207a65726f\n        /* \"#utility.yul\":15609:15610   */\n      0x00\n        /* \"#utility.yul\":15601:15607   */\n      dup3\n        /* \"#utility.yul\":15597:15611   */\n      add\n        /* \"#utility.yul\":15590:15648   */\n      mstore\n        /* \"#utility.yul\":15473:15655   */\n      pop\n      jump\t// out\n        /* \"#utility.yul\":15661:16027   */\n    tag_319:\n        /* \"#utility.yul\":15803:15806   */\n      0x00\n        /* \"#utility.yul\":15824:15891   */\n      tag_522\n        /* \"#utility.yul\":15888:15890   */\n      0x20\n        /* \"#utility.yul\":15883:15886   */\n      dup4\n        /* \"#utility.yul\":15824:15891   */\n      tag_278\n      jump\t// in\n    tag_522:\n        /* \"#utility.yul\":15817:15891   */\n      swap2\n      pop\n        /* \"#utility.yul\":15900:15993   */\n      tag_523\n        /* \"#utility.yul\":15989:15992   */\n      dup3\n        /* \"#utility.yul\":15900:15993   */\n      tag_318\n      jump\t// in\n    tag_523:\n        /* \"#utility.yul\":16018:16020   */\n      0x20\n        /* \"#utility.yul\":16013:16016   */\n      dup3\n        /* \"#utility.yul\":16009:16021   */\n      add\n        /* \"#utility.yul\":16002:16021   */\n      swap1\n      pop\n        /* \"#utility.yul\":15661:16027   */\n      swap2\n      swap1\n      pop\n      jump\t// out\n        /* \"#utility.yul\":16033:16452   */\n    tag_67:\n        /* \"#utility.yul\":16199:16203   */\n      0x00\n        /* \"#utility.yul\":16237:16239   */\n      0x20\n        /* \"#utility.yul\":16226:16235   */\n      dup3\n        /* \"#utility.yul\":16222:16240   */\n      add\n        /* \"#utility.yul\":16214:16240   */\n      swap1\n      pop\n        /* \"#utility.yul\":16286:16295   */\n      dup2\n        /* \"#utility.yul\":16280:16284   */\n      dup2\n        /* \"#utility.yul\":16276:16296   */\n      sub\n        /* \"#utility.yul\":16272:16273   */\n      0x00\n        /* \"#utility.yul\":16261:16270   */\n      dup4\n        /* \"#utility.yul\":16257:16274   */\n      add\n        /* \"#utility.yul\":16250:16297   */\n      mstore\n        /* \"#utility.yul\":16314:16445   */\n      tag_525\n        /* \"#utility.yul\":16440:16444   */\n      dup2\n        /* \"#utility.yul\":16314:16445   */\n      tag_319\n      jump\t// in\n    tag_525:\n        /* \"#utility.yul\":16306:16445   */\n      swap1\n      pop\n        /* \"#utility.yul\":16033:16452   */\n      swap2\n      swap1\n      pop\n      jump\t// out\n        /* \"#utility.yul\":16458:16638   */\n    tag_70:\n        /* \"#utility.yul\":16506:16583   */\n      0x4e487b7100000000000000000000000000000000000000000000000000000000\n        /* \"#utility.yul\":16503:16504   */\n      0x00\n        /* \"#utility.yul\":16496:16584   */\n      mstore\n        /* \"#utility.yul\":16603:16607   */\n      0x32\n        /* \"#utility.yul\":16600:16601   */\n      0x04\n        /* \"#utility.yul\":16593:16608   */\n      mstore\n        /* \"#utility.yul\":16627:16631   */\n      0x24\n        /* \"#utility.yul\":16624:16625   */\n      0x00\n        /* \"#utility.yul\":16617:16632   */\n      revert\n        /* \"#utility.yul\":16644:16819   */\n    tag_320:\n        /* \"#utility.yul\":16784:16811   */\n      0x4e6f7420656e6f7567682073686172657320746f2073656c6c00000000000000\n        /* \"#utility.yul\":16780:16781   */\n      0x00\n        /* \"#utility.yul\":16772:16778   */\n      dup3\n        /* \"#utility.yul\":16768:16782   */\n      add\n        /* \"#utility.yul\":16761:16812   */\n      mstore\n        /* \"#utility.yul\":16644:16819   */\n      pop\n      jump\t// out\n        /* \"#utility.yul\":16825:17191   */\n    tag_321:\n        /* \"#utility.yul\":16967:16970   */\n      0x00\n        /* \"#utility.yul\":16988:17055   */\n      tag_529\n        /* \"#utility.yul\":17052:17054   */\n      0x19\n        /* \"#utility.yul\":17047:17050   */\n      dup4\n        /* \"#utility.yul\":16988:17055   */\n      tag_278\n      jump\t// in\n    tag_529:\n        /* \"#utility.yul\":16981:17055   */\n      swap2\n      pop\n        /* \"#utility.yul\":17064:17157   */\n      tag_530\n        /* \"#utility.yul\":17153:17156   */\n      dup3\n        /* \"#utility.yul\":17064:17157   */\n      tag_320\n      jump\t// in\n    tag_530:\n        /* \"#utility.yul\":17182:17184   */\n      0x20\n        /* \"#utility.yul\":17177:17180   */\n      dup3\n        /* \"#utility.yul\":17173:17185   */\n      add\n        /* \"#utility.yul\":17166:17185   */\n      swap1\n      pop\n        /* \"#utility.yul\":16825:17191   */\n      swap2\n      swap1\n      pop\n      jump\t// out\n        /* \"#utility.yul\":17197:17616   */\n    tag_74:\n        /* \"#utility.yul\":17363:17367   */\n      0x00\n        /* \"#utility.yul\":17401:17403   */\n      0x20\n        /* \"#utility.yul\":17390:17399   */\n      dup3\n        /* \"#utility.yul\":17386:17404   */\n      add\n        /* \"#utility.yul\":17378:17404   */\n      swap1\n      pop\n        /* \"#utility.yul\":17450:17459   */\n      dup2\n        /* \"#utility.yul\":17444:17448   */\n      dup2\n        /* \"#utility.yul\":17440:17460   */\n      sub\n        /* \"#utility.yul\":17436:17437   */\n      0x00\n        /* \"#utility.yul\":17425:17434   */\n      dup4\n        /* \"#utility.yul\":17421:17438   */\n      add\n        /* \"#utility.yul\":17414:17461   */\n      mstore\n        /* \"#utility.yul\":17478:17609   */\n      tag_532\n        /* \"#utility.yul\":17604:17608   */\n      dup2\n        /* \"#utility.yul\":17478:17609   */\n      tag_321\n      jump\t// in\n    tag_532:\n        /* \"#utility.yul\":17470:17609   */\n      swap1\n      pop\n        /* \"#utility.yul\":17197:17616   */\n      swap2\n      swap1\n      pop\n      jump\t// out\n        /* \"#utility.yul\":17622:17802   */\n    tag_322:\n        /* \"#utility.yul\":17670:17747   */\n      0x4e487b7100000000000000000000000000000000000000000000000000000000\n        /* \"#utility.yul\":17667:17668   */\n      0x00\n        /* \"#utility.yul\":17660:17748   */\n      mstore\n        /* \"#utility.yul\":17767:17771   */\n      0x11\n        /* \"#utility.yul\":17764:17765   */\n      0x04\n        /* \"#utility.yul\":17757:17772   */\n      mstore\n        /* \"#utility.yul\":17791:17795   */\n      0x24\n        /* \"#utility.yul\":17788:17789   */\n      0x00\n        /* \"#utility.yul\":17781:17796   */\n      revert\n        /* \"#utility.yul\":17808:18002   */\n    tag_77:\n        /* \"#utility.yul\":17848:17852   */\n      0x00\n        /* \"#utility.yul\":17868:17888   */\n      tag_535\n        /* \"#utility.yul\":17886:17887   */\n      dup3\n        /* \"#utility.yul\":17868:17888   */\n      tag_274\n      jump\t// in\n    tag_535:\n        /* \"#utility.yul\":17863:17888   */\n      swap2\n      pop\n        /* \"#utility.yul\":17902:17922   */\n      tag_536\n        /* \"#utility.yul\":17920:17921   */\n      dup4\n        /* \"#utility.yul\":17902:17922   */\n      tag_274\n      jump\t// in\n    tag_536:\n        /* \"#utility.yul\":17897:17922   */\n      swap3\n      pop\n        /* \"#utility.yul\":17946:17947   */\n      dup3\n        /* \"#utility.yul\":17943:17944   */\n      dup3\n        /* \"#utility.yul\":17939:17948   */\n      sub\n        /* \"#utility.yul\":17931:17948   */\n      swap1\n      pop\n        /* \"#utility.yul\":17970:17971   */\n      dup2\n        /* \"#utility.yul\":17964:17968   */\n      dup2\n        /* \"#utility.yul\":17961:17972   */\n      gt\n        /* \"#utility.yul\":17958:17995   */\n      iszero\n      tag_537\n      jumpi\n        /* \"#utility.yul\":17975:17993   */\n      tag_538\n      tag_322\n      jump\t// in\n    tag_538:\n        /* \"#utility.yul\":17958:17995   */\n    tag_537:\n        /* \"#utility.yul\":17808:18002   */\n      swap3\n      swap2\n      pop\n      pop\n      jump\t// out\n        /* \"#utility.yul\":18008:18151   */\n    tag_323:\n        /* \"#utility.yul\":18065:18070   */\n      0x00\n        /* \"#utility.yul\":18096:18102   */\n      dup2\n        /* \"#utility.yul\":18090:18103   */\n      mload\n        /* \"#utility.yul\":18081:18103   */\n      swap1\n      pop\n        /* \"#utility.yul\":18112:18145   */\n      tag_540\n        /* \"#utility.yul\":18139:18144   */\n      dup2\n        /* \"#utility.yul\":18112:18145   */\n      tag_275\n      jump\t// in\n    tag_540:\n        /* \"#utility.yul\":18008:18151   */\n      swap3\n      swap2\n      pop\n      pop\n      jump\t// out\n        /* \"#utility.yul\":18157:18508   */\n    tag_84:\n        /* \"#utility.yul\":18227:18233   */\n      0x00\n        /* \"#utility.yul\":18276:18278   */\n      0x20\n        /* \"#utility.yul\":18264:18273   */\n      dup3\n        /* \"#utility.yul\":18255:18262   */\n      dup5\n        /* \"#utility.yul\":18251:18274   */\n      sub\n        /* \"#utility.yul\":18247:18279   */\n      slt\n        /* \"#utility.yul\":18244:18363   */\n      iszero\n      tag_542\n      jumpi\n        /* \"#utility.yul\":18282:18361   */\n      tag_543\n      tag_272\n      jump\t// in\n    tag_543:\n        /* \"#utility.yul\":18244:18363   */\n    tag_542:\n        /* \"#utility.yul\":18402:18403   */\n      0x00\n        /* \"#utility.yul\":18427:18491   */\n      tag_544\n        /* \"#utility.yul\":18483:18490   */\n      dup5\n        /* \"#utility.yul\":18474:18480   */\n      dup3\n        /* \"#utility.yul\":18463:18472   */\n      dup6\n        /* \"#utility.yul\":18459:18481   */\n      add\n        /* \"#utility.yul\":18427:18491   */\n      tag_323\n      jump\t// in\n    tag_544:\n        /* \"#utility.yul\":18417:18491   */\n      swap2\n      pop\n        /* \"#utility.yul\":18373:18501   */\n      pop\n        /* \"#utility.yul\":18157:18508   */\n      swap3\n      swap2\n      pop\n      pop\n      jump\t// out\n        /* \"#utility.yul\":18514:18696   */\n    tag_324:\n        /* \"#utility.yul\":18654:18688   */\n      0x436f6e74726163742068617320696e73756666696369656e7420746f6b656e73\n        /* \"#utility.yul\":18650:18651   */\n      0x00\n        /* \"#utility.yul\":18642:18648   */\n      dup3\n        /* \"#utility.yul\":18638:18652   */\n      add\n        /* \"#utility.yul\":18631:18689   */\n      mstore\n        /* \"#utility.yul\":18514:18696   */\n      pop\n      jump\t// out\n        /* \"#utility.yul\":18702:19068   */\n    tag_325:\n        /* \"#utility.yul\":18844:18847   */\n      0x00\n        /* \"#utility.yul\":18865:18932   */\n      tag_547\n        /* \"#utility.yul\":18929:18931   */\n      0x20\n        /* \"#utility.yul\":18924:18927   */\n      dup4\n        /* \"#utility.yul\":18865:18932   */\n      tag_278\n      jump\t// in\n    tag_547:\n        /* \"#utility.yul\":18858:18932   */\n      swap2\n      pop\n        /* \"#utility.yul\":18941:19034   */\n      tag_548\n        /* \"#utility.yul\":19030:19033   */\n      dup3\n        /* \"#utility.yul\":18941:19034   */\n      tag_324\n      jump\t// in\n    tag_548:\n        /* \"#utility.yul\":19059:19061   */\n      0x20\n        /* \"#utility.yul\":19054:19057   */\n      dup3\n        /* \"#utility.yul\":19050:19062   */\n      add\n        /* \"#utility.yul\":19043:19062   */\n      swap1\n      pop\n        /* \"#utility.yul\":18702:19068   */\n      swap2\n      swap1\n      pop\n      jump\t// out\n        /* \"#utility.yul\":19074:19493   */\n    tag_87:\n        /* \"#utility.yul\":19240:19244   */\n      0x00\n        /* \"#utility.yul\":19278:19280   */\n      0x20\n        /* \"#utility.yul\":19267:19276   */\n      dup3\n        /* \"#utility.yul\":19263:19281   */\n      add\n        /* \"#utility.yul\":19255:19281   */\n      swap1\n      pop\n        /* \"#utility.yul\":19327:19336   */\n      dup2\n        /* \"#utility.yul\":19321:19325   */\n      dup2\n        /* \"#utility.yul\":19317:19337   */\n      sub\n        /* \"#utility.yul\":19313:19314   */\n      0x00\n        /* \"#utility.yul\":19302:19311   */\n      dup4\n        /* \"#utility.yul\":19298:19315   */\n      add\n        /* \"#utility.yul\":19291:19338   */\n      mstore\n        /* \"#utility.yul\":19355:19486   */\n      tag_550\n        /* \"#utility.yul\":19481:19485   */\n      dup2\n        /* \"#utility.yul\":19355:19486   */\n      tag_325\n      jump\t// in\n    tag_550:\n        /* \"#utility.yul\":19347:19486   */\n      swap1\n      pop\n        /* \"#utility.yul\":19074:19493   */\n      swap2\n      swap1\n      pop\n      jump\t// out\n        /* \"#utility.yul\":19499:19831   */\n    tag_89:\n        /* \"#utility.yul\":19620:19624   */\n      0x00\n        /* \"#utility.yul\":19658:19660   */\n      0x40\n        /* \"#utility.yul\":19647:19656   */\n      dup3\n        /* \"#utility.yul\":19643:19661   */\n      add\n        /* \"#utility.yul\":19635:19661   */\n      swap1\n      pop\n        /* \"#utility.yul\":19671:19742   */\n      tag_552\n        /* \"#utility.yul\":19739:19740   */\n      0x00\n        /* \"#utility.yul\":19728:19737   */\n      dup4\n        /* \"#utility.yul\":19724:19741   */\n      add\n        /* \"#utility.yul\":19715:19721   */\n      dup6\n        /* \"#utility.yul\":19671:19742   */\n      tag_288\n      jump\t// in\n    tag_552:\n        /* \"#utility.yul\":19752:19824   */\n      tag_553\n        /* \"#utility.yul\":19820:19822   */\n      0x20\n        /* \"#utility.yul\":19809:19818   */\n      dup4\n        /* \"#utility.yul\":19805:19823   */\n      add\n        /* \"#utility.yul\":19796:19802   */\n      dup5\n        /* \"#utility.yul\":19752:19824   */\n      tag_289\n      jump\t// in\n    tag_553:\n        /* \"#utility.yul\":19499:19831   */\n      swap4\n      swap3\n      pop\n      pop\n      pop\n      jump\t// out\n        /* \"#utility.yul\":19837:19927   */\n    tag_326:\n        /* \"#utility.yul\":19871:19878   */\n      0x00\n        /* \"#utility.yul\":19914:19919   */\n      dup2\n        /* \"#utility.yul\":19907:19920   */\n      iszero\n        /* \"#utility.yul\":19900:19921   */\n      iszero\n        /* \"#utility.yul\":19889:19921   */\n      swap1\n      pop\n        /* \"#utility.yul\":19837:19927   */\n      swap2\n      swap1\n      pop\n      jump\t// out\n        /* \"#utility.yul\":19933:20049   */\n    tag_327:\n        /* \"#utility.yul\":20003:20024   */\n      tag_556\n        /* \"#utility.yul\":20018:20023   */\n      dup2\n        /* \"#utility.yul\":20003:20024   */\n      tag_326\n      jump\t// in\n    tag_556:\n        /* \"#utility.yul\":19996:20001   */\n      dup2\n        /* \"#utility.yul\":19993:20025   */\n      eq\n        /* \"#utility.yul\":19983:20043   */\n      tag_557\n      jumpi\n        /* \"#utility.yul\":20039:20040   */\n      0x00\n        /* \"#utility.yul\":20036:20037   */\n      dup1\n        /* \"#utility.yul\":20029:20041   */\n      revert\n        /* \"#utility.yul\":19983:20043   */\n    tag_557:\n        /* \"#utility.yul\":19933:20049   */\n      pop\n      jump\t// out\n        /* \"#utility.yul\":20055:20192   */\n    tag_328:\n        /* \"#utility.yul\":20109:20114   */\n      0x00\n        /* \"#utility.yul\":20140:20146   */\n      dup2\n        /* \"#utility.yul\":20134:20147   */\n      mload\n        /* \"#utility.yul\":20125:20147   */\n      swap1\n      pop\n        /* \"#utility.yul\":20156:20186   */\n      tag_559\n        /* \"#utility.yul\":20180:20185   */\n      dup2\n        /* \"#utility.yul\":20156:20186   */\n      tag_327\n      jump\t// in\n    tag_559:\n        /* \"#utility.yul\":20055:20192   */\n      swap3\n      swap2\n      pop\n      pop\n      jump\t// out\n        /* \"#utility.yul\":20198:20543   */\n    tag_93:\n        /* \"#utility.yul\":20265:20271   */\n      0x00\n        /* \"#utility.yul\":20314:20316   */\n      0x20\n        /* \"#utility.yul\":20302:20311   */\n      dup3\n        /* \"#utility.yul\":20293:20300   */\n      dup5\n        /* \"#utility.yul\":20289:20312   */\n      sub\n        /* \"#utility.yul\":20285:20317   */\n      slt\n        /* \"#utility.yul\":20282:20401   */\n      iszero\n      tag_561\n      jumpi\n        /* \"#utility.yul\":20320:20399   */\n      tag_562\n      tag_272\n      jump\t// in\n    tag_562:\n        /* \"#utility.yul\":20282:20401   */\n    tag_561:\n        /* \"#utility.yul\":20440:20441   */\n      0x00\n        /* \"#utility.yul\":20465:20526   */\n      tag_563\n        /* \"#utility.yul\":20518:20525   */\n      dup5\n        /* \"#utility.yul\":20509:20515   */\n      dup3\n        /* \"#utility.yul\":20498:20507   */\n      dup6\n        /* \"#utility.yul\":20494:20516   */\n      add\n        /* \"#utility.yul\":20465:20526   */\n      tag_328\n      jump\t// in\n    tag_563:\n        /* \"#utility.yul\":20455:20526   */\n      swap2\n      pop\n        /* \"#utility.yul\":20411:20536   */\n      pop\n        /* \"#utility.yul\":20198:20543   */\n      swap3\n      swap2\n      pop\n      pop\n      jump\t// out\n        /* \"#utility.yul\":20549:20720   */\n    tag_329:\n        /* \"#utility.yul\":20689:20712   */\n      0x546f6b656e207472616e73666572206661696c65640000000000000000000000\n        /* \"#utility.yul\":20685:20686   */\n      0x00\n        /* \"#utility.yul\":20677:20683   */\n      dup3\n        /* \"#utility.yul\":20673:20687   */\n      add\n        /* \"#utility.yul\":20666:20713   */\n      mstore\n        /* \"#utility.yul\":20549:20720   */\n      pop\n      jump\t// out\n        /* \"#utility.yul\":20726:21092   */\n    tag_330:\n        /* \"#utility.yul\":20868:20871   */\n      0x00\n        /* \"#utility.yul\":20889:20956   */\n      tag_566\n        /* \"#utility.yul\":20953:20955   */\n      0x15\n        /* \"#utility.yul\":20948:20951   */\n      dup4\n        /* \"#utility.yul\":20889:20956   */\n      tag_278\n      jump\t// in\n    tag_566:\n        /* \"#utility.yul\":20882:20956   */\n      swap2\n      pop\n        /* \"#utility.yul\":20965:21058   */\n      tag_567\n        /* \"#utility.yul\":21054:21057   */\n      dup3\n        /* \"#utility.yul\":20965:21058   */\n      tag_329\n      jump\t// in\n    tag_567:\n        /* \"#utility.yul\":21083:21085   */\n      0x20\n        /* \"#utility.yul\":21078:21081   */\n      dup3\n        /* \"#utility.yul\":21074:21086   */\n      add\n        /* \"#utility.yul\":21067:21086   */\n      swap1\n      pop\n        /* \"#utility.yul\":20726:21092   */\n      swap2\n      swap1\n      pop\n      jump\t// out\n        /* \"#utility.yul\":21098:21517   */\n    tag_96:\n        /* \"#utility.yul\":21264:21268   */\n      0x00\n        /* \"#utility.yul\":21302:21304   */\n      0x20\n        /* \"#utility.yul\":21291:21300   */\n      dup3\n        /* \"#utility.yul\":21287:21305   */\n      add\n        /* \"#utility.yul\":21279:21305   */\n      swap1\n      pop\n        /* \"#utility.yul\":21351:21360   */\n      dup2\n        /* \"#utility.yul\":21345:21349   */\n      dup2\n        /* \"#utility.yul\":21341:21361   */\n      sub\n        /* \"#utility.yul\":21337:21338   */\n      0x00\n        /* \"#utility.yul\":21326:21335   */\n      dup4\n        /* \"#utility.yul\":21322:21339   */\n      add\n        /* \"#utility.yul\":21315:21362   */\n      mstore\n        /* \"#utility.yul\":21379:21510   */\n      tag_569\n        /* \"#utility.yul\":21505:21509   */\n      dup2\n        /* \"#utility.yul\":21379:21510   */\n      tag_330\n      jump\t// in\n    tag_569:\n        /* \"#utility.yul\":21371:21510   */\n      swap1\n      pop\n        /* \"#utility.yul\":21098:21517   */\n      swap2\n      swap1\n      pop\n      jump\t// out\n        /* \"#utility.yul\":21523:21965   */\n    tag_104:\n        /* \"#utility.yul\":21672:21676   */\n      0x00\n        /* \"#utility.yul\":21710:21712   */\n      0x60\n        /* \"#utility.yul\":21699:21708   */\n      dup3\n        /* \"#utility.yul\":21695:21713   */\n      add\n        /* \"#utility.yul\":21687:21713   */\n      swap1\n      pop\n        /* \"#utility.yul\":21723:21794   */\n      tag_571\n        /* \"#utility.yul\":21791:21792   */\n      0x00\n        /* \"#utility.yul\":21780:21789   */\n      dup4\n        /* \"#utility.yul\":21776:21793   */\n      add\n        /* \"#utility.yul\":21767:21773   */\n      dup7\n        /* \"#utility.yul\":21723:21794   */\n      tag_288\n      jump\t// in\n    tag_571:\n        /* \"#utility.yul\":21804:21876   */\n      tag_572\n        /* \"#utility.yul\":21872:21874   */\n      0x20\n        /* \"#utility.yul\":21861:21870   */\n      dup4\n        /* \"#utility.yul\":21857:21875   */\n      add\n        /* \"#utility.yul\":21848:21854   */\n      dup6\n        /* \"#utility.yul\":21804:21876   */\n      tag_289\n      jump\t// in\n    tag_572:\n        /* \"#utility.yul\":21886:21958   */\n      tag_573\n        /* \"#utility.yul\":21954:21956   */\n      0x40\n        /* \"#utility.yul\":21943:21952   */\n      dup4\n        /* \"#utility.yul\":21939:21957   */\n      add\n        /* \"#utility.yul\":21930:21936   */\n      dup5\n        /* \"#utility.yul\":21886:21958   */\n      tag_289\n      jump\t// in\n    tag_573:\n        /* \"#utility.yul\":21523:21965   */\n      swap5\n      swap4\n      pop\n      pop\n      pop\n      pop\n      jump\t// out\n        /* \"#utility.yul\":21971:22151   */\n    tag_331:\n        /* \"#utility.yul\":22019:22096   */\n      0x4e487b7100000000000000000000000000000000000000000000000000000000\n        /* \"#utility.yul\":22016:22017   */\n      0x00\n        /* \"#utility.yul\":22009:22097   */\n      mstore\n        /* \"#utility.yul\":22116:22120   */\n      0x22\n        /* \"#utility.yul\":22113:22114   */\n      0x04\n        /* \"#utility.yul\":22106:22121   */\n      mstore\n        /* \"#utility.yul\":22140:22144   */\n      0x24\n        /* \"#utility.yul\":22137:22138   */\n      0x00\n        /* \"#utility.yul\":22130:22145   */\n      revert\n        /* \"#utility.yul\":22157:22477   */\n    tag_114:\n        /* \"#utility.yul\":22201:22207   */\n      0x00\n        /* \"#utility.yul\":22238:22239   */\n      0x02\n        /* \"#utility.yul\":22232:22236   */\n      dup3\n        /* \"#utility.yul\":22228:22240   */\n      div\n        /* \"#utility.yul\":22218:22240   */\n      swap1\n      pop\n        /* \"#utility.yul\":22285:22286   */\n      0x01\n        /* \"#utility.yul\":22279:22283   */\n      dup3\n        /* \"#utility.yul\":22275:22287   */\n      and\n        /* \"#utility.yul\":22306:22324   */\n      dup1\n        /* \"#utility.yul\":22296:22377   */\n      tag_576\n      jumpi\n        /* \"#utility.yul\":22362:22366   */\n      0x7f\n        /* \"#utility.yul\":22354:22360   */\n      dup3\n        /* \"#utility.yul\":22350:22367   */\n      and\n        /* \"#utility.yul\":22340:22367   */\n      swap2\n      pop\n        /* \"#utility.yul\":22296:22377   */\n    tag_576:\n        /* \"#utility.yul\":22424:22426   */\n      0x20\n        /* \"#utility.yul\":22416:22422   */\n      dup3\n        /* \"#utility.yul\":22413:22427   */\n      lt\n        /* \"#utility.yul\":22393:22411   */\n      dup2\n        /* \"#utility.yul\":22390:22428   */\n      sub\n        /* \"#utility.yul\":22387:22471   */\n      tag_577\n      jumpi\n        /* \"#utility.yul\":22443:22461   */\n      tag_578\n      tag_331\n      jump\t// in\n    tag_578:\n        /* \"#utility.yul\":22387:22471   */\n    tag_577:\n        /* \"#utility.yul\":22208:22477   */\n      pop\n        /* \"#utility.yul\":22157:22477   */\n      swap2\n      swap1\n      pop\n      jump\t// out\n        /* \"#utility.yul\":22483:22893   */\n    tag_132:\n        /* \"#utility.yul\":22523:22530   */\n      0x00\n        /* \"#utility.yul\":22546:22566   */\n      tag_580\n        /* \"#utility.yul\":22564:22565   */\n      dup3\n        /* \"#utility.yul\":22546:22566   */\n      tag_274\n      jump\t// in\n    tag_580:\n        /* \"#utility.yul\":22541:22566   */\n      swap2\n      pop\n        /* \"#utility.yul\":22580:22600   */\n      tag_581\n        /* \"#utility.yul\":22598:22599   */\n      dup4\n        /* \"#utility.yul\":22580:22600   */\n      tag_274\n      jump\t// in\n    tag_581:\n        /* \"#utility.yul\":22575:22600   */\n      swap3\n      pop\n        /* \"#utility.yul\":22635:22636   */\n      dup3\n        /* \"#utility.yul\":22632:22633   */\n      dup3\n        /* \"#utility.yul\":22628:22637   */\n      mul\n        /* \"#utility.yul\":22657:22687   */\n      tag_582\n        /* \"#utility.yul\":22675:22686   */\n      dup2\n        /* \"#utility.yul\":22657:22687   */\n      tag_274\n      jump\t// in\n    tag_582:\n        /* \"#utility.yul\":22646:22687   */\n      swap2\n      pop\n        /* \"#utility.yul\":22836:22837   */\n      dup3\n        /* \"#utility.yul\":22827:22834   */\n      dup3\n        /* \"#utility.yul\":22823:22838   */\n      div\n        /* \"#utility.yul\":22820:22821   */\n      dup5\n        /* \"#utility.yul\":22817:22839   */\n      eq\n        /* \"#utility.yul\":22797:22798   */\n      dup4\n        /* \"#utility.yul\":22790:22799   */\n      iszero\n        /* \"#utility.yul\":22770:22853   */\n      or\n        /* \"#utility.yul\":22747:22886   */\n      tag_583\n      jumpi\n        /* \"#utility.yul\":22866:22884   */\n      tag_584\n      tag_322\n      jump\t// in\n    tag_584:\n        /* \"#utility.yul\":22747:22886   */\n    tag_583:\n        /* \"#utility.yul\":22531:22893   */\n      pop\n        /* \"#utility.yul\":22483:22893   */\n      swap3\n      swap2\n      pop\n      pop\n      jump\t// out\n        /* \"#utility.yul\":22899:23079   */\n    tag_332:\n        /* \"#utility.yul\":22947:23024   */\n      0x4e487b7100000000000000000000000000000000000000000000000000000000\n        /* \"#utility.yul\":22944:22945   */\n      0x00\n        /* \"#utility.yul\":22937:23025   */\n      mstore\n        /* \"#utility.yul\":23044:23048   */\n      0x12\n        /* \"#utility.yul\":23041:23042   */\n      0x04\n        /* \"#utility.yul\":23034:23049   */\n      mstore\n        /* \"#utility.yul\":23068:23072   */\n      0x24\n        /* \"#utility.yul\":23065:23066   */\n      0x00\n        /* \"#utility.yul\":23058:23073   */\n      revert\n        /* \"#utility.yul\":23085:23270   */\n    tag_134:\n        /* \"#utility.yul\":23125:23126   */\n      0x00\n        /* \"#utility.yul\":23142:23162   */\n      tag_587\n        /* \"#utility.yul\":23160:23161   */\n      dup3\n        /* \"#utility.yul\":23142:23162   */\n      tag_274\n      jump\t// in\n    tag_587:\n        /* \"#utility.yul\":23137:23162   */\n      swap2\n      pop\n        /* \"#utility.yul\":23176:23196   */\n      tag_588\n        /* \"#utility.yul\":23194:23195   */\n      dup4\n        /* \"#utility.yul\":23176:23196   */\n      tag_274\n      jump\t// in\n    tag_588:\n        /* \"#utility.yul\":23171:23196   */\n      swap3\n      pop\n        /* \"#utility.yul\":23215:23216   */\n      dup3\n        /* \"#utility.yul\":23205:23240   */\n      tag_589\n      jumpi\n        /* \"#utility.yul\":23220:23238   */\n      tag_590\n      tag_332\n      jump\t// in\n    tag_590:\n        /* \"#utility.yul\":23205:23240   */\n    tag_589:\n        /* \"#utility.yul\":23262:23263   */\n      dup3\n        /* \"#utility.yul\":23259:23260   */\n      dup3\n        /* \"#utility.yul\":23255:23264   */\n      div\n        /* \"#utility.yul\":23250:23264   */\n      swap1\n      pop\n        /* \"#utility.yul\":23085:23270   */\n      swap3\n      swap2\n      pop\n      pop\n      jump\t// out\n        /* \"#utility.yul\":23276:23451   */\n    tag_333:\n        /* \"#utility.yul\":23416:23443   */\n      0x546f6b656e20666f722046616e54797065206e6f742073657400000000000000\n        /* \"#utility.yul\":23412:23413   */\n      0x00\n        /* \"#utility.yul\":23404:23410   */\n      dup3\n        /* \"#utility.yul\":23400:23414   */\n      add\n        /* \"#utility.yul\":23393:23444   */\n      mstore\n        /* \"#utility.yul\":23276:23451   */\n      pop\n      jump\t// out\n        /* \"#utility.yul\":23457:23823   */\n    tag_334:\n        /* \"#utility.yul\":23599:23602   */\n      0x00\n        /* \"#utility.yul\":23620:23687   */\n      tag_593\n        /* \"#utility.yul\":23684:23686   */\n      0x19\n        /* \"#utility.yul\":23679:23682   */\n      dup4\n        /* \"#utility.yul\":23620:23687   */\n      tag_278\n      jump\t// in\n    tag_593:\n        /* \"#utility.yul\":23613:23687   */\n      swap2\n      pop\n        /* \"#utility.yul\":23696:23789   */\n      tag_594\n        /* \"#utility.yul\":23785:23788   */\n      dup3\n        /* \"#utility.yul\":23696:23789   */\n      tag_333\n      jump\t// in\n    tag_594:\n        /* \"#utility.yul\":23814:23816   */\n      0x20\n        /* \"#utility.yul\":23809:23812   */\n      dup3\n        /* \"#utility.yul\":23805:23817   */\n      add\n        /* \"#utility.yul\":23798:23817   */\n      swap1\n      pop\n        /* \"#utility.yul\":23457:23823   */\n      swap2\n      swap1\n      pop\n      jump\t// out\n        /* \"#utility.yul\":23829:24248   */\n    tag_143:\n        /* \"#utility.yul\":23995:23999   */\n      0x00\n        /* \"#utility.yul\":24033:24035   */\n      0x20\n        /* \"#utility.yul\":24022:24031   */\n      dup3\n        /* \"#utility.yul\":24018:24036   */\n      add\n        /* \"#utility.yul\":24010:24036   */\n      swap1\n      pop\n        /* \"#utility.yul\":24082:24091   */\n      dup2\n        /* \"#utility.yul\":24076:24080   */\n      dup2\n        /* \"#utility.yul\":24072:24092   */\n      sub\n        /* \"#utility.yul\":24068:24069   */\n      0x00\n        /* \"#utility.yul\":24057:24066   */\n      dup4\n        /* \"#utility.yul\":24053:24070   */\n      add\n        /* \"#utility.yul\":24046:24093   */\n      mstore\n        /* \"#utility.yul\":24110:24241   */\n      tag_596\n        /* \"#utility.yul\":24236:24240   */\n      dup2\n        /* \"#utility.yul\":24110:24241   */\n      tag_334\n      jump\t// in\n    tag_596:\n        /* \"#utility.yul\":24102:24241   */\n      swap1\n      pop\n        /* \"#utility.yul\":23829:24248   */\n      swap2\n      swap1\n      pop\n      jump\t// out\n        /* \"#utility.yul\":24254:24427   */\n    tag_335:\n        /* \"#utility.yul\":24394:24419   */\n      0x496e73756666696369656e742066616e20746f6b656e73000000000000000000\n        /* \"#utility.yul\":24390:24391   */\n      0x00\n        /* \"#utility.yul\":24382:24388   */\n      dup3\n        /* \"#utility.yul\":24378:24392   */\n      add\n        /* \"#utility.yul\":24371:24420   */\n      mstore\n        /* \"#utility.yul\":24254:24427   */\n      pop\n      jump\t// out\n        /* \"#utility.yul\":24433:24799   */\n    tag_336:\n        /* \"#utility.yul\":24575:24578   */\n      0x00\n        /* \"#utility.yul\":24596:24663   */\n      tag_599\n        /* \"#utility.yul\":24660:24662   */\n      0x17\n        /* \"#utility.yul\":24655:24658   */\n      dup4\n        /* \"#utility.yul\":24596:24663   */\n      tag_278\n      jump\t// in\n    tag_599:\n        /* \"#utility.yul\":24589:24663   */\n      swap2\n      pop\n        /* \"#utility.yul\":24672:24765   */\n      tag_600\n        /* \"#utility.yul\":24761:24764   */\n      dup3\n        /* \"#utility.yul\":24672:24765   */\n      tag_335\n      jump\t// in\n    tag_600:\n        /* \"#utility.yul\":24790:24792   */\n      0x20\n        /* \"#utility.yul\":24785:24788   */\n      dup3\n        /* \"#utility.yul\":24781:24793   */\n      add\n        /* \"#utility.yul\":24774:24793   */\n      swap1\n      pop\n        /* \"#utility.yul\":24433:24799   */\n      swap2\n      swap1\n      pop\n      jump\t// out\n        /* \"#utility.yul\":24805:25224   */\n    tag_150:\n        /* \"#utility.yul\":24971:24975   */\n      0x00\n        /* \"#utility.yul\":25009:25011   */\n      0x20\n        /* \"#utility.yul\":24998:25007   */\n      dup3\n        /* \"#utility.yul\":24994:25012   */\n      add\n        /* \"#utility.yul\":24986:25012   */\n      swap1\n      pop\n        /* \"#utility.yul\":25058:25067   */\n      dup2\n        /* \"#utility.yul\":25052:25056   */\n      dup2\n        /* \"#utility.yul\":25048:25068   */\n      sub\n        /* \"#utility.yul\":25044:25045   */\n      0x00\n        /* \"#utility.yul\":25033:25042   */\n      dup4\n        /* \"#utility.yul\":25029:25046   */\n      add\n        /* \"#utility.yul\":25022:25069   */\n      mstore\n        /* \"#utility.yul\":25086:25217   */\n      tag_602\n        /* \"#utility.yul\":25212:25216   */\n      dup2\n        /* \"#utility.yul\":25086:25217   */\n      tag_336\n      jump\t// in\n    tag_602:\n        /* \"#utility.yul\":25078:25217   */\n      swap1\n      pop\n        /* \"#utility.yul\":24805:25224   */\n      swap2\n      swap1\n      pop\n      jump\t// out\n        /* \"#utility.yul\":25230:25334   */\n    tag_337:\n        /* \"#utility.yul\":25294:25301   */\n      0x00\n        /* \"#utility.yul\":25323:25328   */\n      dup2\n        /* \"#utility.yul\":25312:25328   */\n      swap1\n      pop\n        /* \"#utility.yul\":25230:25334   */\n      swap2\n      swap1\n      pop\n      jump\t// out\n        /* \"#utility.yul\":25340:25400   */\n    tag_338:\n        /* \"#utility.yul\":25368:25371   */\n      0x00\n        /* \"#utility.yul\":25389:25394   */\n      dup2\n        /* \"#utility.yul\":25382:25394   */\n      swap1\n      pop\n        /* \"#utility.yul\":25340:25400   */\n      swap2\n      swap1\n      pop\n      jump\t// out\n        /* \"#utility.yul\":25406:25602   */\n    tag_339:\n        /* \"#utility.yul\":25483:25492   */\n      0x00\n        /* \"#utility.yul\":25516:25596   */\n      tag_606\n        /* \"#utility.yul\":25534:25595   */\n      tag_607\n        /* \"#utility.yul\":25543:25594   */\n      tag_608\n        /* \"#utility.yul\":25588:25593   */\n      dup5\n        /* \"#utility.yul\":25543:25594   */\n      tag_337\n      jump\t// in\n    tag_608:\n        /* \"#utility.yul\":25534:25595   */\n      tag_338\n      jump\t// in\n    tag_607:\n        /* \"#utility.yul\":25516:25596   */\n      tag_274\n      jump\t// in\n    tag_606:\n        /* \"#utility.yul\":25503:25596   */\n      swap1\n      pop\n        /* \"#utility.yul\":25406:25602   */\n      swap2\n      swap1\n      pop\n      jump\t// out\n        /* \"#utility.yul\":25608:25793   */\n    tag_340:\n        /* \"#utility.yul\":25722:25786   */\n      tag_610\n        /* \"#utility.yul\":25780:25785   */\n      dup2\n        /* \"#utility.yul\":25722:25786   */\n      tag_339\n      jump\t// in\n    tag_610:\n        /* \"#utility.yul\":25717:25720   */\n      dup3\n        /* \"#utility.yul\":25710:25787   */\n      mstore\n        /* \"#utility.yul\":25608:25793   */\n      pop\n      pop\n      jump\t// out\n        /* \"#utility.yul\":25799:26295   */\n    tag_152:\n        /* \"#utility.yul\":25975:25979   */\n      0x00\n        /* \"#utility.yul\":26013:26015   */\n      0x60\n        /* \"#utility.yul\":26002:26011   */\n      dup3\n        /* \"#utility.yul\":25998:26016   */\n      add\n        /* \"#utility.yul\":25990:26016   */\n      swap1\n      pop\n        /* \"#utility.yul\":26026:26097   */\n      tag_612\n        /* \"#utility.yul\":26094:26095   */\n      0x00\n        /* \"#utility.yul\":26083:26092   */\n      dup4\n        /* \"#utility.yul\":26079:26096   */\n      add\n        /* \"#utility.yul\":26070:26076   */\n      dup7\n        /* \"#utility.yul\":26026:26097   */\n      tag_288\n      jump\t// in\n    tag_612:\n        /* \"#utility.yul\":26107:26179   */\n      tag_613\n        /* \"#utility.yul\":26175:26177   */\n      0x20\n        /* \"#utility.yul\":26164:26173   */\n      dup4\n        /* \"#utility.yul\":26160:26178   */\n      add\n        /* \"#utility.yul\":26151:26157   */\n      dup6\n        /* \"#utility.yul\":26107:26179   */\n      tag_288\n      jump\t// in\n    tag_613:\n        /* \"#utility.yul\":26189:26288   */\n      tag_614\n        /* \"#utility.yul\":26284:26286   */\n      0x40\n        /* \"#utility.yul\":26273:26282   */\n      dup4\n        /* \"#utility.yul\":26269:26287   */\n      add\n        /* \"#utility.yul\":26260:26266   */\n      dup5\n        /* \"#utility.yul\":26189:26288   */\n      tag_340\n      jump\t// in\n    tag_614:\n        /* \"#utility.yul\":25799:26295   */\n      swap5\n      swap4\n      pop\n      pop\n      pop\n      pop\n      jump\t// out\n        /* \"#utility.yul\":26301:26442   */\n    tag_341:\n        /* \"#utility.yul\":26350:26354   */\n      0x00\n        /* \"#utility.yul\":26373:26376   */\n      dup2\n        /* \"#utility.yul\":26365:26376   */\n      swap1\n      pop\n        /* \"#utility.yul\":26396:26399   */\n      dup2\n        /* \"#utility.yul\":26393:26394   */\n      0x00\n        /* \"#utility.yul\":26386:26400   */\n      mstore\n        /* \"#utility.yul\":26430:26434   */\n      0x20\n        /* \"#utility.yul\":26427:26428   */\n      0x00\n        /* \"#utility.yul\":26417:26435   */\n      keccak256\n        /* \"#utility.yul\":26409:26435   */\n      swap1\n      pop\n        /* \"#utility.yul\":26301:26442   */\n      swap2\n      swap1\n      pop\n      jump\t// out\n        /* \"#utility.yul\":26448:26541   */\n    tag_342:\n        /* \"#utility.yul\":26485:26491   */\n      0x00\n        /* \"#utility.yul\":26532:26534   */\n      0x20\n        /* \"#utility.yul\":26527:26529   */\n      0x1f\n        /* \"#utility.yul\":26520:26525   */\n      dup4\n        /* \"#utility.yul\":26516:26530   */\n      add\n        /* \"#utility.yul\":26512:26535   */\n      div\n        /* \"#utility.yul\":26502:26535   */\n      swap1\n      pop\n        /* \"#utility.yul\":26448:26541   */\n      swap2\n      swap1\n      pop\n      jump\t// out\n        /* \"#utility.yul\":26547:26654   */\n    tag_343:\n        /* \"#utility.yul\":26591:26599   */\n      0x00\n        /* \"#utility.yul\":26641:26646   */\n      dup3\n        /* \"#utility.yul\":26635:26639   */\n      dup3\n        /* \"#utility.yul\":26631:26647   */\n      shl\n        /* \"#utility.yul\":26610:26647   */\n      swap1\n      pop\n        /* \"#utility.yul\":26547:26654   */\n      swap3\n      swap2\n      pop\n      pop\n      jump\t// out\n        /* \"#utility.yul\":26660:27053   */\n    tag_344:\n        /* \"#utility.yul\":26729:26735   */\n      0x00\n        /* \"#utility.yul\":26779:26780   */\n      0x08\n        /* \"#utility.yul\":26767:26777   */\n      dup4\n        /* \"#utility.yul\":26763:26781   */\n      mul\n        /* \"#utility.yul\":26802:26899   */\n      tag_619\n        /* \"#utility.yul\":26832:26898   */\n      0xffffffffffffffffffffffffffffffffffffffffffffffffffffffffffffffff\n        /* \"#utility.yul\":26821:26830   */\n      dup3\n        /* \"#utility.yul\":26802:26899   */\n      tag_343\n      jump\t// in\n    tag_619:\n        /* \"#utility.yul\":26920:26959   */\n      tag_620\n        /* \"#utility.yul\":26950:26958   */\n      dup7\n        /* \"#utility.yul\":26939:26948   */\n      dup4\n        /* \"#utility.yul\":26920:26959   */\n      tag_343\n      jump\t// in\n    tag_620:\n        /* \"#utility.yul\":26908:26959   */\n      swap6\n      pop\n        /* \"#utility.yul\":26992:26996   */\n      dup1\n        /* \"#utility.yul\":26988:26997   */\n      not\n        /* \"#utility.yul\":26981:26986   */\n      dup5\n        /* \"#utility.yul\":26977:26998   */\n      and\n        /* \"#utility.yul\":26968:26998   */\n      swap4\n      pop\n        /* \"#utility.yul\":27041:27045   */\n      dup1\n        /* \"#utility.yul\":27031:27039   */\n      dup7\n        /* \"#utility.yul\":27027:27046   */\n      and\n        /* \"#utility.yul\":27020:27025   */\n      dup5\n        /* \"#utility.yul\":27017:27047   */\n      or\n        /* \"#utility.yul\":27007:27047   */\n      swap3\n      pop\n        /* \"#utility.yul\":26736:27053   */\n      pop\n      pop\n        /* \"#utility.yul\":26660:27053   */\n      swap4\n      swap3\n      pop\n      pop\n      pop\n      jump\t// out\n        /* \"#utility.yul\":27059:27201   */\n    tag_345:\n        /* \"#utility.yul\":27109:27118   */\n      0x00\n        /* \"#utility.yul\":27142:27195   */\n      tag_622\n        /* \"#utility.yul\":27160:27194   */\n      tag_623\n        /* \"#utility.yul\":27169:27193   */\n      tag_624\n        /* \"#utility.yul\":27187:27192   */\n      dup5\n        /* \"#utility.yul\":27169:27193   */\n      tag_274\n      jump\t// in\n    tag_624:\n        /* \"#utility.yul\":27160:27194   */\n      tag_338\n      jump\t// in\n    tag_623:\n        /* \"#utility.yul\":27142:27195   */\n      tag_274\n      jump\t// in\n    tag_622:\n        /* \"#utility.yul\":27129:27195   */\n      swap1\n      pop\n        /* \"#utility.yul\":27059:27201   */\n      swap2\n      swap1\n      pop\n      jump\t// out\n        /* \"#utility.yul\":27207:27282   */\n    tag_346:\n        /* \"#utility.yul\":27250:27253   */\n      0x00\n        /* \"#utility.yul\":27271:27276   */\n      dup2\n        /* \"#utility.yul\":27264:27276   */\n      swap1\n      pop\n        /* \"#utility.yul\":27207:27282   */\n      swap2\n      swap1\n      pop\n      jump\t// out\n        /* \"#utility.yul\":27288:27557   */\n    tag_347:\n        /* \"#utility.yul\":27398:27437   */\n      tag_627\n        /* \"#utility.yul\":27429:27436   */\n      dup4\n        /* \"#utility.yul\":27398:27437   */\n      tag_345\n      jump\t// in\n    tag_627:\n        /* \"#utility.yul\":27459:27550   */\n      tag_628\n        /* \"#utility.yul\":27508:27549   */\n      tag_629\n        /* \"#utility.yul\":27532:27548   */\n      dup3\n        /* \"#utility.yul\":27508:27549   */\n      tag_346\n      jump\t// in\n    tag_629:\n        /* \"#utility.yul\":27500:27506   */\n      dup5\n        /* \"#utility.yul\":27493:27497   */\n      dup5\n        /* \"#utility.yul\":27487:27498   */\n      sload\n        /* \"#utility.yul\":27459:27550   */\n      tag_344\n      jump\t// in\n    tag_628:\n        /* \"#utility.yul\":27453:27457   */\n      dup3\n        /* \"#utility.yul\":27446:27551   */\n      sstore\n        /* \"#utility.yul\":27364:27557   */\n      pop\n        /* \"#utility.yul\":27288:27557   */\n      pop\n      pop\n      pop\n      jump\t// out\n        /* \"#utility.yul\":27563:27636   */\n    tag_348:\n        /* \"#utility.yul\":27608:27611   */\n      0x00\n        /* \"#utility.yul\":27563:27636   */\n      swap1\n      jump\t// out\n        /* \"#utility.yul\":27642:27831   */\n    tag_349:\n        /* \"#utility.yul\":27719:27751   */\n      tag_632\n      tag_348\n      jump\t// in\n    tag_632:\n        /* \"#utility.yul\":27760:27825   */\n      tag_633\n        /* \"#utility.yul\":27818:27824   */\n      dup2\n        /* \"#utility.yul\":27810:27816   */\n      dup5\n        /* \"#utility.yul\":27804:27808   */\n      dup5\n        /* \"#utility.yul\":27760:27825   */\n      tag_347\n      jump\t// in\n    tag_633:\n        /* \"#utility.yul\":27695:27831   */\n      pop\n        /* \"#utility.yul\":27642:27831   */\n      pop\n      pop\n      jump\t// out\n        /* \"#utility.yul\":27837:28023   */\n    tag_350:\n        /* \"#utility.yul\":27897:28017   */\n    tag_635:\n        /* \"#utility.yul\":27914:27917   */\n      dup2\n        /* \"#utility.yul\":27907:27912   */\n      dup2\n        /* \"#utility.yul\":27904:27918   */\n      lt\n        /* \"#utility.yul\":27897:28017   */\n      iszero\n      tag_637\n      jumpi\n        /* \"#utility.yul\":27968:28007   */\n      tag_638\n        /* \"#utility.yul\":28005:28006   */\n      0x00\n        /* \"#utility.yul\":27998:28003   */\n      dup3\n        /* \"#utility.yul\":27968:28007   */\n      tag_349\n      jump\t// in\n    tag_638:\n        /* \"#utility.yul\":27941:27942   */\n      0x01\n        /* \"#utility.yul\":27934:27939   */\n      dup2\n        /* \"#utility.yul\":27930:27943   */\n      add\n        /* \"#utility.yul\":27921:27943   */\n      swap1\n      pop\n        /* \"#utility.yul\":27897:28017   */\n      jump(tag_635)\n    tag_637:\n        /* \"#utility.yul\":27837:28023   */\n      pop\n      pop\n      jump\t// out\n        /* \"#utility.yul\":28029:28572   */\n    tag_351:\n        /* \"#utility.yul\":28130:28132   */\n      0x1f\n        /* \"#utility.yul\":28125:28128   */\n      dup3\n        /* \"#utility.yul\":28122:28133   */\n      gt\n        /* \"#utility.yul\":28119:28565   */\n      iszero\n      tag_640\n      jumpi\n        /* \"#utility.yul\":28164:28202   */\n      tag_641\n        /* \"#utility.yul\":28196:28201   */\n      dup2\n        /* \"#utility.yul\":28164:28202   */\n      tag_341\n      jump\t// in\n    tag_641:\n        /* \"#utility.yul\":28248:28277   */\n      tag_642\n        /* \"#utility.yul\":28266:28276   */\n      dup5\n        /* \"#utility.yul\":28248:28277   */\n      tag_342\n      jump\t// in\n    tag_642:\n        /* \"#utility.yul\":28238:28246   */\n      dup2\n        /* \"#utility.yul\":28234:28278   */\n      add\n        /* \"#utility.yul\":28431:28433   */\n      0x20\n        /* \"#utility.yul\":28419:28429   */\n      dup6\n        /* \"#utility.yul\":28416:28434   */\n      lt\n        /* \"#utility.yul\":28413:28462   */\n      iszero\n      tag_643\n      jumpi\n        /* \"#utility.yul\":28452:28460   */\n      dup2\n        /* \"#utility.yul\":28437:28460   */\n      swap1\n      pop\n        /* \"#utility.yul\":28413:28462   */\n    tag_643:\n        /* \"#utility.yul\":28475:28555   */\n      tag_644\n        /* \"#utility.yul\":28531:28553   */\n      tag_645\n        /* \"#utility.yul\":28549:28552   */\n      dup6\n        /* \"#utility.yul\":28531:28553   */\n      tag_342\n      jump\t// in\n    tag_645:\n        /* \"#utility.yul\":28521:28529   */\n      dup4\n        /* \"#utility.yul\":28517:28554   */\n      add\n        /* \"#utility.yul\":28504:28515   */\n      dup3\n        /* \"#utility.yul\":28475:28555   */\n      tag_350\n      jump\t// in\n    tag_644:\n        /* \"#utility.yul\":28134:28565   */\n      pop\n      pop\n        /* \"#utility.yul\":28119:28565   */\n    tag_640:\n        /* \"#utility.yul\":28029:28572   */\n      pop\n      pop\n      pop\n      jump\t// out\n        /* \"#utility.yul\":28578:28695   */\n    tag_352:\n        /* \"#utility.yul\":28632:28640   */\n      0x00\n        /* \"#utility.yul\":28682:28687   */\n      dup3\n        /* \"#utility.yul\":28676:28680   */\n      dup3\n        /* \"#utility.yul\":28672:28688   */\n      shr\n        /* \"#utility.yul\":28651:28688   */\n      swap1\n      pop\n        /* \"#utility.yul\":28578:28695   */\n      swap3\n      swap2\n      pop\n      pop\n      jump\t// out\n        /* \"#utility.yul\":28701:28870   */\n    tag_353:\n        /* \"#utility.yul\":28745:28751   */\n      0x00\n        /* \"#utility.yul\":28778:28829   */\n      tag_648\n        /* \"#utility.yul\":28826:28827   */\n      0x00\n        /* \"#utility.yul\":28822:28828   */\n      not\n        /* \"#utility.yul\":28814:28819   */\n      dup5\n        /* \"#utility.yul\":28811:28812   */\n      0x08\n        /* \"#utility.yul\":28807:28820   */\n      mul\n        /* \"#utility.yul\":28778:28829   */\n      tag_352\n      jump\t// in\n    tag_648:\n        /* \"#utility.yul\":28774:28830   */\n      not\n        /* \"#utility.yul\":28859:28863   */\n      dup1\n        /* \"#utility.yul\":28853:28857   */\n      dup4\n        /* \"#utility.yul\":28849:28864   */\n      and\n        /* \"#utility.yul\":28839:28864   */\n      swap2\n      pop\n        /* \"#utility.yul\":28752:28870   */\n      pop\n        /* \"#utility.yul\":28701:28870   */\n      swap3\n      swap2\n      pop\n      pop\n      jump\t// out\n        /* \"#utility.yul\":28875:29170   */\n    tag_354:\n        /* \"#utility.yul\":28951:28955   */\n      0x00\n        /* \"#utility.yul\":29097:29126   */\n      tag_650\n        /* \"#utility.yul\":29122:29125   */\n      dup4\n        /* \"#utility.yul\":29116:29120   */\n      dup4\n        /* \"#utility.yul\":29097:29126   */\n      tag_353\n      jump\t// in\n    tag_650:\n        /* \"#utility.yul\":29089:29126   */\n      swap2\n      pop\n        /* \"#utility.yul\":29159:29162   */\n      dup3\n        /* \"#utility.yul\":29156:29157   */\n      0x02\n        /* \"#utility.yul\":29152:29163   */\n      mul\n        /* \"#utility.yul\":29146:29150   */\n      dup3\n        /* \"#utility.yul\":29143:29164   */\n      or\n        /* \"#utility.yul\":29135:29164   */\n      swap1\n      pop\n        /* \"#utility.yul\":28875:29170   */\n      swap3\n      swap2\n      pop\n      pop\n      jump\t// out\n        /* \"#utility.yul\":29175:30570   */\n    tag_160:\n        /* \"#utility.yul\":29292:29329   */\n      tag_652\n        /* \"#utility.yul\":29325:29328   */\n      dup3\n        /* \"#utility.yul\":29292:29329   */\n      tag_277\n      jump\t// in\n    tag_652:\n        /* \"#utility.yul\":29394:29412   */\n      0xffffffffffffffff\n        /* \"#utility.yul\":29386:29392   */\n      dup2\n        /* \"#utility.yul\":29383:29413   */\n      gt\n        /* \"#utility.yul\":29380:29436   */\n      iszero\n      tag_653\n      jumpi\n        /* \"#utility.yul\":29416:29434   */\n      tag_654\n      tag_219\n      jump\t// in\n    tag_654:\n        /* \"#utility.yul\":29380:29436   */\n    tag_653:\n        /* \"#utility.yul\":29460:29498   */\n      tag_655\n        /* \"#utility.yul\":29492:29496   */\n      dup3\n        /* \"#utility.yul\":29486:29497   */\n      sload\n        /* \"#utility.yul\":29460:29498   */\n      tag_114\n      jump\t// in\n    tag_655:\n        /* \"#utility.yul\":29545:29612   */\n      tag_656\n        /* \"#utility.yul\":29605:29611   */\n      dup3\n        /* \"#utility.yul\":29597:29603   */\n      dup3\n        /* \"#utility.yul\":29591:29595   */\n      dup6\n        /* \"#utility.yul\":29545:29612   */\n      tag_351\n      jump\t// in\n    tag_656:\n        /* \"#utility.yul\":29639:29640   */\n      0x00\n        /* \"#utility.yul\":29663:29667   */\n      0x20\n        /* \"#utility.yul\":29650:29667   */\n      swap1\n      pop\n        /* \"#utility.yul\":29695:29697   */\n      0x1f\n        /* \"#utility.yul\":29687:29693   */\n      dup4\n        /* \"#utility.yul\":29684:29698   */\n      gt\n        /* \"#utility.yul\":29712:29713   */\n      0x01\n        /* \"#utility.yul\":29707:30325   */\n      dup2\n      eq\n      tag_658\n      jumpi\n        /* \"#utility.yul\":30369:30370   */\n      0x00\n        /* \"#utility.yul\":30386:30392   */\n      dup5\n        /* \"#utility.yul\":30383:30460   */\n      iszero\n      tag_659\n      jumpi\n        /* \"#utility.yul\":30435:30444   */\n      dup3\n        /* \"#utility.yul\":30430:30433   */\n      dup8\n        /* \"#utility.yul\":30426:30445   */\n      add\n        /* \"#utility.yul\":30420:30446   */\n      mload\n        /* \"#utility.yul\":30411:30446   */\n      swap1\n      pop\n        /* \"#utility.yul\":30383:30460   */\n    tag_659:\n        /* \"#utility.yul\":30486:30553   */\n      tag_660\n        /* \"#utility.yul\":30546:30552   */\n      dup6\n        /* \"#utility.yul\":30539:30544   */\n      dup3\n        /* \"#utility.yul\":30486:30553   */\n      tag_354\n      jump\t// in\n    tag_660:\n        /* \"#utility.yul\":30480:30484   */\n      dup7\n        /* \"#utility.yul\":30473:30554   */\n      sstore\n        /* \"#utility.yul\":30342:30564   */\n      pop\n        /* \"#utility.yul\":29677:30564   */\n      jump(tag_657)\n        /* \"#utility.yul\":29707:30325   */\n    tag_658:\n        /* \"#utility.yul\":29759:29763   */\n      0x1f\n        /* \"#utility.yul\":29755:29764   */\n      not\n        /* \"#utility.yul\":29747:29753   */\n      dup5\n        /* \"#utility.yul\":29743:29765   */\n      and\n        /* \"#utility.yul\":29793:29830   */\n      tag_661\n        /* \"#utility.yul\":29825:29829   */\n      dup7\n        /* \"#utility.yul\":29793:29830   */\n      tag_341\n      jump\t// in\n    tag_661:\n        /* \"#utility.yul\":29852:29853   */\n      0x00\n        /* \"#utility.yul\":29866:30074   */\n    tag_662:\n        /* \"#utility.yul\":29880:29887   */\n      dup3\n        /* \"#utility.yul\":29877:29878   */\n      dup2\n        /* \"#utility.yul\":29874:29888   */\n      lt\n        /* \"#utility.yul\":29866:30074   */\n      iszero\n      tag_664\n      jumpi\n        /* \"#utility.yul\":29959:29968   */\n      dup5\n        /* \"#utility.yul\":29954:29957   */\n      dup10\n        /* \"#utility.yul\":29950:29969   */\n      add\n        /* \"#utility.yul\":29944:29970   */\n      mload\n        /* \"#utility.yul\":29936:29942   */\n      dup3\n        /* \"#utility.yul\":29929:29971   */\n      sstore\n        /* \"#utility.yul\":30010:30011   */\n      0x01\n        /* \"#utility.yul\":30002:30008   */\n      dup3\n        /* \"#utility.yul\":29998:30012   */\n      add\n        /* \"#utility.yul\":29988:30012   */\n      swap2\n      pop\n        /* \"#utility.yul\":30057:30059   */\n      0x20\n        /* \"#utility.yul\":30046:30055   */\n      dup6\n        /* \"#utility.yul\":30042:30060   */\n      add\n        /* \"#utility.yul\":30029:30060   */\n      swap5\n      pop\n        /* \"#utility.yul\":29903:29907   */\n      0x20\n        /* \"#utility.yul\":29900:29901   */\n      dup2\n        /* \"#utility.yul\":29896:29908   */\n      add\n        /* \"#utility.yul\":29891:29908   */\n      swap1\n      pop\n        /* \"#utility.yul\":29866:30074   */\n      jump(tag_662)\n    tag_664:\n        /* \"#utility.yul\":30102:30108   */\n      dup7\n        /* \"#utility.yul\":30093:30100   */\n      dup4\n        /* \"#utility.yul\":30090:30109   */\n      lt\n        /* \"#utility.yul\":30087:30266   */\n      iszero\n      tag_665\n      jumpi\n        /* \"#utility.yul\":30160:30169   */\n      dup5\n        /* \"#utility.yul\":30155:30158   */\n      dup10\n        /* \"#utility.yul\":30151:30170   */\n      add\n        /* \"#utility.yul\":30145:30171   */\n      mload\n        /* \"#utility.yul\":30203:30251   */\n      tag_666\n        /* \"#utility.yul\":30245:30249   */\n      0x1f\n        /* \"#utility.yul\":30237:30243   */\n      dup10\n        /* \"#utility.yul\":30233:30250   */\n      and\n        /* \"#utility.yul\":30222:30231   */\n      dup3\n        /* \"#utility.yul\":30203:30251   */\n      tag_353\n      jump\t// in\n    tag_666:\n        /* \"#utility.yul\":30195:30201   */\n      dup4\n        /* \"#utility.yul\":30188:30252   */\n      sstore\n        /* \"#utility.yul\":30110:30266   */\n      pop\n        /* \"#utility.yul\":30087:30266   */\n    tag_665:\n        /* \"#utility.yul\":30312:30313   */\n      0x01\n        /* \"#utility.yul\":30308:30309   */\n      0x02\n        /* \"#utility.yul\":30300:30306   */\n      dup9\n        /* \"#utility.yul\":30296:30310   */\n      mul\n        /* \"#utility.yul\":30292:30314   */\n      add\n        /* \"#utility.yul\":30286:30290   */\n      dup9\n        /* \"#utility.yul\":30279:30315   */\n      sstore\n        /* \"#utility.yul\":29714:30325   */\n      pop\n      pop\n      pop\n        /* \"#utility.yul\":29677:30564   */\n    tag_657:\n      pop\n        /* \"#utility.yul\":29267:30570   */\n      pop\n      pop\n      pop\n        /* \"#utility.yul\":29175:30570   */\n      pop\n      pop\n      jump\t// out\n        /* \"#utility.yul\":30576:31329   */\n    tag_167:\n        /* \"#utility.yul\":30802:30806   */\n      0x00\n        /* \"#utility.yul\":30840:30843   */\n      0x80\n        /* \"#utility.yul\":30829:30838   */\n      dup3\n        /* \"#utility.yul\":30825:30844   */\n      add\n        /* \"#utility.yul\":30817:30844   */\n      swap1\n      pop\n        /* \"#utility.yul\":30890:30899   */\n      dup2\n        /* \"#utility.yul\":30884:30888   */\n      dup2\n        /* \"#utility.yul\":30880:30900   */\n      sub\n        /* \"#utility.yul\":30876:30877   */\n      0x00\n        /* \"#utility.yul\":30865:30874   */\n      dup4\n        /* \"#utility.yul\":30861:30878   */\n      add\n        /* \"#utility.yul\":30854:30901   */\n      mstore\n        /* \"#utility.yul\":30918:30996   */\n      tag_668\n        /* \"#utility.yul\":30991:30995   */\n      dup2\n        /* \"#utility.yul\":30982:30988   */\n      dup8\n        /* \"#utility.yul\":30918:30996   */\n      tag_281\n      jump\t// in\n    tag_668:\n        /* \"#utility.yul\":30910:30996   */\n      swap1\n      pop\n        /* \"#utility.yul\":31006:31087   */\n      tag_669\n        /* \"#utility.yul\":31083:31085   */\n      0x20\n        /* \"#utility.yul\":31072:31081   */\n      dup4\n        /* \"#utility.yul\":31068:31086   */\n      add\n        /* \"#utility.yul\":31059:31065   */\n      dup7\n        /* \"#utility.yul\":31006:31087   */\n      tag_285\n      jump\t// in\n    tag_669:\n        /* \"#utility.yul\":31097:31169   */\n      tag_670\n        /* \"#utility.yul\":31165:31167   */\n      0x40\n        /* \"#utility.yul\":31154:31163   */\n      dup4\n        /* \"#utility.yul\":31150:31168   */\n      add\n        /* \"#utility.yul\":31141:31147   */\n      dup6\n        /* \"#utility.yul\":31097:31169   */\n      tag_288\n      jump\t// in\n    tag_670:\n        /* \"#utility.yul\":31216:31225   */\n      dup2\n        /* \"#utility.yul\":31210:31214   */\n      dup2\n        /* \"#utility.yul\":31206:31226   */\n      sub\n        /* \"#utility.yul\":31201:31203   */\n      0x60\n        /* \"#utility.yul\":31190:31199   */\n      dup4\n        /* \"#utility.yul\":31186:31204   */\n      add\n        /* \"#utility.yul\":31179:31227   */\n      mstore\n        /* \"#utility.yul\":31244:31322   */\n      tag_671\n        /* \"#utility.yul\":31317:31321   */\n      dup2\n        /* \"#utility.yul\":31308:31314   */\n      dup5\n        /* \"#utility.yul\":31244:31322   */\n      tag_281\n      jump\t// in\n    tag_671:\n        /* \"#utility.yul\":31236:31322   */\n      swap1\n      pop\n        /* \"#utility.yul\":30576:31329   */\n      swap6\n      swap5\n      pop\n      pop\n      pop\n      pop\n      pop\n      jump\t// out\n        /* \"#utility.yul\":31335:31526   */\n    tag_178:\n        /* \"#utility.yul\":31375:31378   */\n      0x00\n        /* \"#utility.yul\":31394:31414   */\n      tag_673\n        /* \"#utility.yul\":31412:31413   */\n      dup3\n        /* \"#utility.yul\":31394:31414   */\n      tag_274\n      jump\t// in\n    tag_673:\n        /* \"#utility.yul\":31389:31414   */\n      swap2\n      pop\n        /* \"#utility.yul\":31428:31448   */\n      tag_674\n        /* \"#utility.yul\":31446:31447   */\n      dup4\n        /* \"#utility.yul\":31428:31448   */\n      tag_274\n      jump\t// in\n    tag_674:\n        /* \"#utility.yul\":31423:31448   */\n      swap3\n      pop\n        /* \"#utility.yul\":31471:31472   */\n      dup3\n        /* \"#utility.yul\":31468:31469   */\n      dup3\n        /* \"#utility.yul\":31464:31473   */\n      add\n        /* \"#utility.yul\":31457:31473   */\n      swap1\n      pop\n        /* \"#utility.yul\":31492:31495   */\n      dup1\n        /* \"#utility.yul\":31489:31490   */\n      dup3\n        /* \"#utility.yul\":31486:31496   */\n      gt\n        /* \"#utility.yul\":31483:31519   */\n      iszero\n      tag_675\n      jumpi\n        /* \"#utility.yul\":31499:31517   */\n      tag_676\n      tag_322\n      jump\t// in\n    tag_676:\n        /* \"#utility.yul\":31483:31519   */\n    tag_675:\n        /* \"#utility.yul\":31335:31526   */\n      swap3\n      swap2\n      pop\n      pop\n      jump\t// out\n        /* \"#utility.yul\":31532:31752   */\n    tag_355:\n        /* \"#utility.yul\":31672:31706   */\n      0x496e73756666696369656e7420746f6b656e7320746f20627579207368617265\n        /* \"#utility.yul\":31668:31669   */\n      0x00\n        /* \"#utility.yul\":31660:31666   */\n      dup3\n        /* \"#utility.yul\":31656:31670   */\n      add\n        /* \"#utility.yul\":31649:31707   */\n      mstore\n        /* \"#utility.yul\":31741:31744   */\n      0x7300000000000000000000000000000000000000000000000000000000000000\n        /* \"#utility.yul\":31736:31738   */\n      0x20\n        /* \"#utility.yul\":31728:31734   */\n      dup3\n        /* \"#utility.yul\":31724:31739   */\n      add\n        /* \"#utility.yul\":31717:31745   */\n      mstore\n        /* \"#utility.yul\":31532:31752   */\n      pop\n      jump\t// out\n        /* \"#utility.yul\":31758:32124   */\n    tag_356:\n        /* \"#utility.yul\":31900:31903   */\n      0x00\n        /* \"#utility.yul\":31921:31988   */\n      tag_679\n        /* \"#utility.yul\":31985:31987   */\n      0x21\n        /* \"#utility.yul\":31980:31983   */\n      dup4\n        /* \"#utility.yul\":31921:31988   */\n      tag_278\n      jump\t// in\n    tag_679:\n        /* \"#utility.yul\":31914:31988   */\n      swap2\n      pop\n        /* \"#utility.yul\":31997:32090   */\n      tag_680\n        /* \"#utility.yul\":32086:32089   */\n      dup3\n        /* \"#utility.yul\":31997:32090   */\n      tag_355\n      jump\t// in\n    tag_680:\n        /* \"#utility.yul\":32115:32117   */\n      0x40\n        /* \"#utility.yul\":32110:32113   */\n      dup3\n        /* \"#utility.yul\":32106:32118   */\n      add\n        /* \"#utility.yul\":32099:32118   */\n      swap1\n      pop\n        /* \"#utility.yul\":31758:32124   */\n      swap2\n      swap1\n      pop\n      jump\t// out\n        /* \"#utility.yul\":32130:32549   */\n    tag_185:\n        /* \"#utility.yul\":32296:32300   */\n      0x00\n        /* \"#utility.yul\":32334:32336   */\n      0x20\n        /* \"#utility.yul\":32323:32332   */\n      dup3\n        /* \"#utility.yul\":32319:32337   */\n      add\n        /* \"#utility.yul\":32311:32337   */\n      swap1\n      pop\n        /* \"#utility.yul\":32383:32392   */\n      dup2\n        /* \"#utility.yul\":32377:32381   */\n      dup2\n        /* \"#utility.yul\":32373:32393   */\n      sub\n        /* \"#utility.yul\":32369:32370   */\n      0x00\n        /* \"#utility.yul\":32358:32367   */\n      dup4\n        /* \"#utility.yul\":32354:32371   */\n      add\n        /* \"#utility.yul\":32347:32394   */\n      mstore\n        /* \"#utility.yul\":32411:32542   */\n      tag_682\n        /* \"#utility.yul\":32537:32541   */\n      dup2\n        /* \"#utility.yul\":32411:32542   */\n      tag_356\n      jump\t// in\n    tag_682:\n        /* \"#utility.yul\":32403:32542   */\n      swap1\n      pop\n        /* \"#utility.yul\":32130:32549   */\n      swap2\n      swap1\n      pop\n      jump\t// out\n        /* \"#utility.yul\":32555:32997   */\n    tag_187:\n        /* \"#utility.yul\":32704:32708   */\n      0x00\n        /* \"#utility.yul\":32742:32744   */\n      0x60\n        /* \"#utility.yul\":32731:32740   */\n      dup3\n        /* \"#utility.yul\":32727:32745   */\n      add\n        /* \"#utility.yul\":32719:32745   */\n      swap1\n      pop\n        /* \"#utility.yul\":32755:32826   */\n      tag_684\n        /* \"#utility.yul\":32823:32824   */\n      0x00\n        /* \"#utility.yul\":32812:32821   */\n      dup4\n        /* \"#utility.yul\":32808:32825   */\n      add\n        /* \"#utility.yul\":32799:32805   */\n      dup7\n        /* \"#utility.yul\":32755:32826   */\n      tag_288\n      jump\t// in\n    tag_684:\n        /* \"#utility.yul\":32836:32908   */\n      tag_685\n        /* \"#utility.yul\":32904:32906   */\n      0x20\n        /* \"#utility.yul\":32893:32902   */\n      dup4\n        /* \"#utility.yul\":32889:32907   */\n      add\n        /* \"#utility.yul\":32880:32886   */\n      dup6\n        /* \"#utility.yul\":32836:32908   */\n      tag_288\n      jump\t// in\n    tag_685:\n        /* \"#utility.yul\":32918:32990   */\n      tag_686\n        /* \"#utility.yul\":32986:32988   */\n      0x40\n        /* \"#utility.yul\":32975:32984   */\n      dup4\n        /* \"#utility.yul\":32971:32989   */\n      add\n        /* \"#utility.yul\":32962:32968   */\n      dup5\n        /* \"#utility.yul\":32918:32990   */\n      tag_289\n      jump\t// in\n    tag_686:\n        /* \"#utility.yul\":32555:32997   */\n      swap5\n      swap4\n      pop\n      pop\n      pop\n      pop\n      jump\t// out\n        /* \"#utility.yul\":33003:33174   */\n    tag_357:\n        /* \"#utility.yul\":33143:33166   */\n      0x496e76616c696420746f6b656e20616464726573730000000000000000000000\n        /* \"#utility.yul\":33139:33140   */\n      0x00\n        /* \"#utility.yul\":33131:33137   */\n      dup3\n        /* \"#utility.yul\":33127:33141   */\n      add\n        /* \"#utility.yul\":33120:33167   */\n      mstore\n        /* \"#utility.yul\":33003:33174   */\n      pop\n      jump\t// out\n        /* \"#utility.yul\":33180:33546   */\n    tag_358:\n        /* \"#utility.yul\":33322:33325   */\n      0x00\n        /* \"#utility.yul\":33343:33410   */\n      tag_689\n        /* \"#utility.yul\":33407:33409   */\n      0x15\n        /* \"#utility.yul\":33402:33405   */\n      dup4\n        /* \"#utility.yul\":33343:33410   */\n      tag_278\n      jump\t// in\n    tag_689:\n        /* \"#utility.yul\":33336:33410   */\n      swap2\n      pop\n        /* \"#utility.yul\":33419:33512   */\n      tag_690\n        /* \"#utility.yul\":33508:33511   */\n      dup3\n        /* \"#utility.yul\":33419:33512   */\n      tag_357\n      jump\t// in\n    tag_690:\n        /* \"#utility.yul\":33537:33539   */\n      0x20\n        /* \"#utility.yul\":33532:33535   */\n      dup3\n        /* \"#utility.yul\":33528:33540   */\n      add\n        /* \"#utility.yul\":33521:33540   */\n      swap1\n      pop\n        /* \"#utility.yul\":33180:33546   */\n      swap2\n      swap1\n      pop\n      jump\t// out\n        /* \"#utility.yul\":33552:33971   */\n    tag_204:\n        /* \"#utility.yul\":33718:33722   */\n      0x00\n        /* \"#utility.yul\":33756:33758   */\n      0x20\n        /* \"#utility.yul\":33745:33754   */\n      dup3\n        /* \"#utility.yul\":33741:33759   */\n      add\n        /* \"#utility.yul\":33733:33759   */\n      swap1\n      pop\n        /* \"#utility.yul\":33805:33814   */\n      dup2\n        /* \"#utility.yul\":33799:33803   */\n      dup2\n        /* \"#utility.yul\":33795:33815   */\n      sub\n        /* \"#utility.yul\":33791:33792   */\n      0x00\n        /* \"#utility.yul\":33780:33789   */\n      dup4\n        /* \"#utility.yul\":33776:33793   */\n      add\n        /* \"#utility.yul\":33769:33816   */\n      mstore\n        /* \"#utility.yul\":33833:33964   */\n      tag_692\n        /* \"#utility.yul\":33959:33963   */\n      dup2\n        /* \"#utility.yul\":33833:33964   */\n      tag_358\n      jump\t// in\n    tag_692:\n        /* \"#utility.yul\":33825:33964   */\n      swap1\n      pop\n        /* \"#utility.yul\":33552:33971   */\n      swap2\n      swap1\n      pop\n      jump\t// out\n        /* \"#utility.yul\":33977:34327   */\n    tag_210:\n        /* \"#utility.yul\":34107:34111   */\n      0x00\n        /* \"#utility.yul\":34145:34147   */\n      0x40\n        /* \"#utility.yul\":34134:34143   */\n      dup3\n        /* \"#utility.yul\":34130:34148   */\n      add\n        /* \"#utility.yul\":34122:34148   */\n      swap1\n      pop\n        /* \"#utility.yul\":34158:34238   */\n      tag_694\n        /* \"#utility.yul\":34235:34236   */\n      0x00\n        /* \"#utility.yul\":34224:34233   */\n      dup4\n        /* \"#utility.yul\":34220:34237   */\n      add\n        /* \"#utility.yul\":34211:34217   */\n      dup6\n        /* \"#utility.yul\":34158:34238   */\n      tag_285\n      jump\t// in\n    tag_694:\n        /* \"#utility.yul\":34248:34320   */\n      tag_695\n        /* \"#utility.yul\":34316:34318   */\n      0x20\n        /* \"#utility.yul\":34305:34314   */\n      dup4\n        /* \"#utility.yul\":34301:34319   */\n      add\n        /* \"#utility.yul\":34292:34298   */\n      dup5\n        /* \"#utility.yul\":34248:34320   */\n      tag_288\n      jump\t// in\n    tag_695:\n        /* \"#utility.yul\":33977:34327   */\n      swap4\n      swap3\n      pop\n      pop\n      pop\n      jump\t// out\n        /* \"#utility.yul\":34333:34513   */\n    tag_260:\n        /* \"#utility.yul\":34381:34458   */\n      0x4e487b7100000000000000000000000000000000000000000000000000000000\n        /* \"#utility.yul\":34378:34379   */\n      0x00\n        /* \"#utility.yul\":34371:34459   */\n      mstore\n        /* \"#utility.yul\":34478:34482   */\n      0x31\n        /* \"#utility.yul\":34475:34476   */\n      0x04\n        /* \"#utility.yul\":34468:34483   */\n      mstore\n        /* \"#utility.yul\":34502:34506   */\n      0x24\n        /* \"#utility.yul\":34499:34500   */\n      0x00\n        /* \"#utility.yul\":34492:34507   */\n      revert\n\n    auxdata: 0xa2646970667358221220beb94c64c4c5f10fbb3756781e87667a69a0062a7d02096c7351350be12434c064736f6c634300081a0033\n}\n",
				"bytecode": {
					"linkReferences": {},
					"object": "608060405234801561000f575f80fd5b50335f73ffffffffffffffffffffffffffffffffffffffff168173ffffffffffffffffffffffffffffffffffffffff1603610081575f6040517f1e4fbdf70000000000000000000000000000000000000000000000000000000081526004016100789190610196565b60405180910390fd5b6100908161009660201b60201c565b506101af565b5f805f9054906101000a900473ffffffffffffffffffffffffffffffffffffffff169050815f806101000a81548173ffffffffffffffffffffffffffffffffffffffff021916908373ffffffffffffffffffffffffffffffffffffffff1602179055508173ffffffffffffffffffffffffffffffffffffffff168173ffffffffffffffffffffffffffffffffffffffff167f8be0079c531659141344cd1fd0a4f28419497f9722a3daafe3b4186f6b6457e060405160405180910390a35050565b5f73ffffffffffffffffffffffffffffffffffffffff82169050919050565b5f61018082610157565b9050919050565b61019081610176565b82525050565b5f6020820190506101a95f830184610187565b92915050565b6128e6806101bc5f395ff3fe608060405234801561000f575f80fd5b50600436106100a7575f3560e01c8063ae59411e1161006f578063ae59411e14610156578063beebc5da14610172578063c489171d1461018e578063c5350e07146101aa578063e7ba98d0146101db578063f2fde38b1461020b576100a7565b80632279a970146100ab578063715018a6146100c75780638145b30a146100d15780638da5cb5b14610108578063ae10426514610126575b5f80fd5b6100c560048036038101906100c091906117b3565b610227565b005b6100cf610645565b005b6100eb60048036038101906100e691906117f1565b610658565b6040516100ff98979695949392919061194d565b60405180910390f35b610110610888565b60405161011d91906119de565b60405180910390f35b610140600480360381019061013b91906117f1565b6108af565b60405161014d91906119f7565b60405180910390f35b610170600480360381019061016b9190611b5f565b6108d0565b005b61018c600480360381019061018791906117b3565b610c95565b005b6101a860048036038101906101a39190611c41565b611074565b005b6101c460048036038101906101bf91906117f1565b61119a565b6040516101d2929190611ded565b60405180910390f35b6101f560048036038101906101f09190611e22565b6113c0565b60405161020291906119de565b60405180910390f35b61022560048036038101906102209190611e4d565b6113f0565b005b600280549050821061026e576040517f08c379a000000000000000000000000000000000000000000000000000000000815260040161026590611ec2565b60405180910390fd5b5f81116102b0576040517f08c379a00000000000000000000000000000000000000000000000000000000081526004016102a790611f2a565b60405180910390fd5b5f600283815481106102c5576102c4611f48565b5b905f5260205f209060090201905081816007015f3373ffffffffffffffffffffffffffffffffffffffff1673ffffffffffffffffffffffffffffffffffffffff1681526020019081526020015f20541015610355576040517f08c379a000000000000000000000000000000000000000000000000000000000815260040161034c90611fbf565b60405180910390fd5b5f8160020160019054906101000a900473ffffffffffffffffffffffffffffffffffffffff1690505f8190505f61039a858560040154610395919061200a565b6108af565b6103a785600401546108af565b6103b1919061200a565b9050808273ffffffffffffffffffffffffffffffffffffffff166370a08231306040518263ffffffff1660e01b81526004016103ed91906119de565b602060405180830381865afa158015610408573d5f803e3d5ffd5b505050506040513d601f19601f8201168201806040525081019061042c9190612051565b101561046d576040517f08c379a0000000000000000000000000000000000000000000000000000000008152600401610464906120c6565b60405180910390fd5b5f8273ffffffffffffffffffffffffffffffffffffffff1663a9059cbb33846040518363ffffffff1660e01b81526004016104a99291906120e4565b6020604051808303815f875af11580156104c5573d5f803e3d5ffd5b505050506040513d601f19601f820116820180604052508101906104e99190612140565b90508061052b576040517f08c379a0000000000000000000000000000000000000000000000000000000008152600401610522906121b5565b60405180910390fd5b85856004015f82825461053e919061200a565b9250508190555061055285600401546108af565b856005018190555085856007015f3373ffffffffffffffffffffffffffffffffffffffff1673ffffffffffffffffffffffffffffffffffffffff1681526020019081526020015f205f8282546105a8919061200a565b925050819055505f856007015f3373ffffffffffffffffffffffffffffffffffffffff1673ffffffffffffffffffffffffffffffffffffffff1681526020019081526020015f205403610600576105ff8733611474565b5b867fc84ba642853b7fceb52ece6998aa2618edc77f7a182996141f2a470af347cea3338885604051610634939291906121d3565b60405180910390a250505050505050565b61064d611620565b6106565f6116a7565b565b60028181548110610667575f80fd5b905f5260205f2090600902015f91509050805f01805461068690612235565b80601f01602080910402602001604051908101604052809291908181526020018280546106b290612235565b80156106fd5780601f106106d4576101008083540402835291602001916106fd565b820191905f5260205f20905b8154815290600101906020018083116106e057829003601f168201915b50505050509080600101805461071290612235565b80601f016020809104026020016040519081016040528092919081815260200182805461073e90612235565b80156107895780601f1061076057610100808354040283529160200191610789565b820191905f5260205f20905b81548152906001019060200180831161076c57829003601f168201915b505050505090806002015f9054906101000a900460ff16908060020160019054906101000a900473ffffffffffffffffffffffffffffffffffffffff16908060030180546107d690612235565b80601f016020809104026020016040519081016040528092919081815260200182805461080290612235565b801561084d5780601f106108245761010080835404028352916020019161084d565b820191905f5260205f20905b81548152906001019060200180831161083057829003601f168201915b505050505090806004015490806005015490806006015f9054906101000a900473ffffffffffffffffffffffffffffffffffffffff16905088565b5f805f9054906101000a900473ffffffffffffffffffffffffffffffffffffffff16905090565b5f61019082836108bf9190612265565b6108c991906122d3565b9050919050565b5f60015f8460028111156108e7576108e661188c565b5b60028111156108f9576108f861188c565b5b81526020019081526020015f205f9054906101000a900473ffffffffffffffffffffffffffffffffffffffff1690505f73ffffffffffffffffffffffffffffffffffffffff168173ffffffffffffffffffffffffffffffffffffffff1603610996576040517f08c379a000000000000000000000000000000000000000000000000000000000815260040161098d9061234d565b60405180910390fd5b5f819050678ac7230489e800008173ffffffffffffffffffffffffffffffffffffffff166370a08231336040518263ffffffff1660e01b81526004016109dc91906119de565b602060405180830381865afa1580156109f7573d5f803e3d5ffd5b505050506040513d601f19601f82011682018060405250810190610a1b9190612051565b1015610a5c576040517f08c379a0000000000000000000000000000000000000000000000000000000008152600401610a53906123b5565b60405180910390fd5b5f8173ffffffffffffffffffffffffffffffffffffffff166323b872dd3330678ac7230489e800006040518463ffffffff1660e01b8152600401610aa293929190612415565b6020604051808303815f875af1158015610abe573d5f803e3d5ffd5b505050506040513d601f19601f82011682018060405250810190610ae29190612140565b905080610b24576040517f08c379a0000000000000000000000000000000000000000000000000000000008152600401610b1b906121b5565b60405180910390fd5b5f600260018160018154018082558091505003905f5260205f209060090201905087815f019081610b5591906125de565b5086816001019081610b6791906125de565b5085816002015f6101000a81548160ff02191690836002811115610b8e57610b8d61188c565b5b0217905550838160020160016101000a81548173ffffffffffffffffffffffffffffffffffffffff021916908373ffffffffffffffffffffffffffffffffffffffff16021790555084816003019081610be791906125de565b505f81600401819055505f816005018190555033816006015f6101000a81548173ffffffffffffffffffffffffffffffffffffffff021916908373ffffffffffffffffffffffffffffffffffffffff1602179055506001600280549050610c4e919061200a565b7f62902407f2a51aefafd939f873488b7af4cee2c7aaf999549682d977ff03501789883389604051610c8394939291906126ad565b60405180910390a25050505050505050565b6002805490508210610cdc576040517f08c379a0000000000000000000000000000000000000000000000000000000008152600401610cd390611ec2565b60405180910390fd5b5f8111610d1e576040517f08c379a0000000000000000000000000000000000000000000000000000000008152600401610d1590611f2a565b60405180910390fd5b5f60028381548110610d3357610d32611f48565b5b905f5260205f20906009020190505f8160020160019054906101000a900473ffffffffffffffffffffffffffffffffffffffff1690505f8190505f610d86858560040154610d8191906126fe565b6108af565b9050808273ffffffffffffffffffffffffffffffffffffffff166370a08231336040518263ffffffff1660e01b8152600401610dc291906119de565b602060405180830381865afa158015610ddd573d5f803e3d5ffd5b505050506040513d601f19601f82011682018060405250810190610e019190612051565b1015610e42576040517f08c379a0000000000000000000000000000000000000000000000000000000008152600401610e39906127a1565b60405180910390fd5b5f8273ffffffffffffffffffffffffffffffffffffffff166323b872dd3330856040518463ffffffff1660e01b8152600401610e80939291906127bf565b6020604051808303815f875af1158015610e9c573d5f803e3d5ffd5b505050506040513d601f19601f82011682018060405250810190610ec09190612140565b905080610f02576040517f08c379a0000000000000000000000000000000000000000000000000000000008152600401610ef9906121b5565b60405180910390fd5b85856004015f828254610f1591906126fe565b92505081905550610f2985600401546108af565b85600501819055505f856007015f3373ffffffffffffffffffffffffffffffffffffffff1673ffffffffffffffffffffffffffffffffffffffff1681526020019081526020015f205403610fda578460080133908060018154018082558091505060019003905f5260205f20015f9091909190916101000a81548173ffffffffffffffffffffffffffffffffffffffff021916908373ffffffffffffffffffffffffffffffffffffffff1602179055505b85856007015f3373ffffffffffffffffffffffffffffffffffffffff1673ffffffffffffffffffffffffffffffffffffffff1681526020019081526020015f205f82825461102891906126fe565b92505081905550867f0831583cced7554a81e1cd091e811afaadc7d575a17fbd354716145bb597efc9338885604051611063939291906121d3565b60405180910390a250505050505050565b61107c611620565b5f73ffffffffffffffffffffffffffffffffffffffff168173ffffffffffffffffffffffffffffffffffffffff16036110ea576040517f08c379a00000000000000000000000000000000000000000000000000000000081526004016110e19061283e565b60405180910390fd5b8060015f8460028111156111015761110061188c565b5b60028111156111135761111261188c565b5b81526020019081526020015f205f6101000a81548173ffffffffffffffffffffffffffffffffffffffff021916908373ffffffffffffffffffffffffffffffffffffffff1602179055507f615656fcadb3d80de64ba2fcf0c227214511e116ef7955ed759db80f8883ee8f828260405161118e92919061285c565b60405180910390a15050565b60608060028054905083106111e4576040517f08c379a00000000000000000000000000000000000000000000000000000000081526004016111db90611ec2565b60405180910390fd5b5f600284815481106111f9576111f8611f48565b5b905f5260205f20906009020190505f816008018054905090505f8167ffffffffffffffff81111561122d5761122c611a18565b5b60405190808252806020026020018201604052801561125b5781602001602082028036833780820191505090505b5090505f8267ffffffffffffffff81111561127957611278611a18565b5b6040519080825280602002602001820160405280156112a75781602001602082028036833780820191505090505b5090505f5b838110156113b0575f8560080182815481106112cb576112ca611f48565b5b905f5260205f20015f9054906101000a900473ffffffffffffffffffffffffffffffffffffffff1690508084838151811061130957611308611f48565b5b602002602001019073ffffffffffffffffffffffffffffffffffffffff16908173ffffffffffffffffffffffffffffffffffffffff1681525050856007015f8273ffffffffffffffffffffffffffffffffffffffff1673ffffffffffffffffffffffffffffffffffffffff1681526020019081526020015f205483838151811061139657611395611f48565b5b6020026020010181815250505080806001019150506112ac565b5081819550955050505050915091565b6001602052805f5260405f205f915054906101000a900473ffffffffffffffffffffffffffffffffffffffff1681565b6113f8611620565b5f73ffffffffffffffffffffffffffffffffffffffff168173ffffffffffffffffffffffffffffffffffffffff1603611468575f6040517f1e4fbdf700000000000000000000000000000000000000000000000000000000815260040161145f91906119de565b60405180910390fd5b611471816116a7565b50565b5f6002838154811061148957611488611f48565b5b905f5260205f20906009020190505f816008018054905090505f5b81811015611619578373ffffffffffffffffffffffffffffffffffffffff168360080182815481106114d9576114d8611f48565b5b905f5260205f20015f9054906101000a900473ffffffffffffffffffffffffffffffffffffffff1673ffffffffffffffffffffffffffffffffffffffff160361160c578260080160018361152d919061200a565b8154811061153e5761153d611f48565b5b905f5260205f20015f9054906101000a900473ffffffffffffffffffffffffffffffffffffffff1683600801828154811061157c5761157b611f48565b5b905f5260205f20015f6101000a81548173ffffffffffffffffffffffffffffffffffffffff021916908373ffffffffffffffffffffffffffffffffffffffff160217905550826008018054806115d5576115d4612883565b5b600190038181905f5260205f20015f6101000a81549073ffffffffffffffffffffffffffffffffffffffff02191690559055611619565b80806001019150506114a4565b5050505050565b611628611768565b73ffffffffffffffffffffffffffffffffffffffff16611646610888565b73ffffffffffffffffffffffffffffffffffffffff16146116a557611669611768565b6040517f118cdaa700000000000000000000000000000000000000000000000000000000815260040161169c91906119de565b60405180910390fd5b565b5f805f9054906101000a900473ffffffffffffffffffffffffffffffffffffffff169050815f806101000a81548173ffffffffffffffffffffffffffffffffffffffff021916908373ffffffffffffffffffffffffffffffffffffffff1602179055508173ffffffffffffffffffffffffffffffffffffffff168173ffffffffffffffffffffffffffffffffffffffff167f8be0079c531659141344cd1fd0a4f28419497f9722a3daafe3b4186f6b6457e060405160405180910390a35050565b5f33905090565b5f604051905090565b5f80fd5b5f80fd5b5f819050919050565b61179281611780565b811461179c575f80fd5b50565b5f813590506117ad81611789565b92915050565b5f80604083850312156117c9576117c8611778565b5b5f6117d68582860161179f565b92505060206117e78582860161179f565b9150509250929050565b5f6020828403121561180657611805611778565b5b5f6118138482850161179f565b91505092915050565b5f81519050919050565b5f82825260208201905092915050565b8281835e5f83830152505050565b5f601f19601f8301169050919050565b5f61185e8261181c565b6118688185611826565b9350611878818560208601611836565b61188181611844565b840191505092915050565b7f4e487b71000000000000000000000000000000000000000000000000000000005f52602160045260245ffd5b600381106118ca576118c961188c565b5b50565b5f8190506118da826118b9565b919050565b5f6118e9826118cd565b9050919050565b6118f9816118df565b82525050565b5f73ffffffffffffffffffffffffffffffffffffffff82169050919050565b5f611928826118ff565b9050919050565b6119388161191e565b82525050565b61194781611780565b82525050565b5f610100820190508181035f830152611966818b611854565b9050818103602083015261197a818a611854565b905061198960408301896118f0565b611996606083018861192f565b81810360808301526119a88187611854565b90506119b760a083018661193e565b6119c460c083018561193e565b6119d160e083018461192f565b9998505050505050505050565b5f6020820190506119f15f83018461192f565b92915050565b5f602082019050611a0a5f83018461193e565b92915050565b5f80fd5b5f80fd5b7f4e487b71000000000000000000000000000000000000000000000000000000005f52604160045260245ffd5b611a4e82611844565b810181811067ffffffffffffffff82111715611a6d57611a6c611a18565b5b80604052505050565b5f611a7f61176f565b9050611a8b8282611a45565b919050565b5f67ffffffffffffffff821115611aaa57611aa9611a18565b5b611ab382611844565b9050602081019050919050565b828183375f83830152505050565b5f611ae0611adb84611a90565b611a76565b905082815260208101848484011115611afc57611afb611a14565b5b611b07848285611ac0565b509392505050565b5f82601f830112611b2357611b22611a10565b5b8135611b33848260208601611ace565b91505092915050565b60038110611b48575f80fd5b50565b5f81359050611b5981611b3c565b92915050565b5f805f8060808587031215611b7757611b76611778565b5b5f85013567ffffffffffffffff811115611b9457611b9361177c565b5b611ba087828801611b0f565b945050602085013567ffffffffffffffff811115611bc157611bc061177c565b5b611bcd87828801611b0f565b9350506040611bde87828801611b4b565b925050606085013567ffffffffffffffff811115611bff57611bfe61177c565b5b611c0b87828801611b0f565b91505092959194509250565b611c208161191e565b8114611c2a575f80fd5b50565b5f81359050611c3b81611c17565b92915050565b5f8060408385031215611c5757611c56611778565b5b5f611c6485828601611b4b565b9250506020611c7585828601611c2d565b9150509250929050565b5f81519050919050565b5f82825260208201905092915050565b5f819050602082019050919050565b611cb18161191e565b82525050565b5f611cc28383611ca8565b60208301905092915050565b5f602082019050919050565b5f611ce482611c7f565b611cee8185611c89565b9350611cf983611c99565b805f5b83811015611d29578151611d108882611cb7565b9750611d1b83611cce565b925050600181019050611cfc565b5085935050505092915050565b5f81519050919050565b5f82825260208201905092915050565b5f819050602082019050919050565b611d6881611780565b82525050565b5f611d798383611d5f565b60208301905092915050565b5f602082019050919050565b5f611d9b82611d36565b611da58185611d40565b9350611db083611d50565b805f5b83811015611de0578151611dc78882611d6e565b9750611dd283611d85565b925050600181019050611db3565b5085935050505092915050565b5f6040820190508181035f830152611e058185611cda565b90508181036020830152611e198184611d91565b90509392505050565b5f60208284031215611e3757611e36611778565b5b5f611e4484828501611b4b565b91505092915050565b5f60208284031215611e6257611e61611778565b5b5f611e6f84828501611c2d565b91505092915050565b7f46616e436c756220646f6573206e6f74206578697374000000000000000000005f82015250565b5f611eac601683611826565b9150611eb782611e78565b602082019050919050565b5f6020820190508181035f830152611ed981611ea0565b9050919050565b7f416d6f756e74206d7573742062652067726561746572207468616e207a65726f5f82015250565b5f611f14602083611826565b9150611f1f82611ee0565b602082019050919050565b5f6020820190508181035f830152611f4181611f08565b9050919050565b7f4e487b71000000000000000000000000000000000000000000000000000000005f52603260045260245ffd5b7f4e6f7420656e6f7567682073686172657320746f2073656c6c000000000000005f82015250565b5f611fa9601983611826565b9150611fb482611f75565b602082019050919050565b5f6020820190508181035f830152611fd681611f9d565b9050919050565b7f4e487b71000000000000000000000000000000000000000000000000000000005f52601160045260245ffd5b5f61201482611780565b915061201f83611780565b925082820390508181111561203757612036611fdd565b5b92915050565b5f8151905061204b81611789565b92915050565b5f6020828403121561206657612065611778565b5b5f6120738482850161203d565b91505092915050565b7f436f6e74726163742068617320696e73756666696369656e7420746f6b656e735f82015250565b5f6120b0602083611826565b91506120bb8261207c565b602082019050919050565b5f6020820190508181035f8301526120dd816120a4565b9050919050565b5f6040820190506120f75f83018561192f565b612104602083018461193e565b9392505050565b5f8115159050919050565b61211f8161210b565b8114612129575f80fd5b50565b5f8151905061213a81612116565b92915050565b5f6020828403121561215557612154611778565b5b5f6121628482850161212c565b91505092915050565b7f546f6b656e207472616e73666572206661696c656400000000000000000000005f82015250565b5f61219f601583611826565b91506121aa8261216b565b602082019050919050565b5f6020820190508181035f8301526121cc81612193565b9050919050565b5f6060820190506121e65f83018661192f565b6121f3602083018561193e565b612200604083018461193e565b949350505050565b7f4e487b71000000000000000000000000000000000000000000000000000000005f52602260045260245ffd5b5f600282049050600182168061224c57607f821691505b60208210810361225f5761225e612208565b5b50919050565b5f61226f82611780565b915061227a83611780565b925082820261228881611780565b9150828204841483151761229f5761229e611fdd565b5b5092915050565b7f4e487b71000000000000000000000000000000000000000000000000000000005f52601260045260245ffd5b5f6122dd82611780565b91506122e883611780565b9250826122f8576122f76122a6565b5b828204905092915050565b7f546f6b656e20666f722046616e54797065206e6f7420736574000000000000005f82015250565b5f612337601983611826565b915061234282612303565b602082019050919050565b5f6020820190508181035f8301526123648161232b565b9050919050565b7f496e73756666696369656e742066616e20746f6b656e730000000000000000005f82015250565b5f61239f601783611826565b91506123aa8261236b565b602082019050919050565b5f6020820190508181035f8301526123cc81612393565b9050919050565b5f819050919050565b5f819050919050565b5f6123ff6123fa6123f5846123d3565b6123dc565b611780565b9050919050565b61240f816123e5565b82525050565b5f6060820190506124285f83018661192f565b612435602083018561192f565b6124426040830184612406565b949350505050565b5f819050815f5260205f209050919050565b5f6020601f8301049050919050565b5f82821b905092915050565b5f600883026124a67fffffffffffffffffffffffffffffffffffffffffffffffffffffffffffffffff8261246b565b6124b0868361246b565b95508019841693508086168417925050509392505050565b5f6124e26124dd6124d884611780565b6123dc565b611780565b9050919050565b5f819050919050565b6124fb836124c8565b61250f612507826124e9565b848454612477565b825550505050565b5f90565b612523612517565b61252e8184846124f2565b505050565b5b81811015612551576125465f8261251b565b600181019050612534565b5050565b601f821115612596576125678161244a565b6125708461245c565b8101602085101561257f578190505b61259361258b8561245c565b830182612533565b50505b505050565b5f82821c905092915050565b5f6125b65f198460080261259b565b1980831691505092915050565b5f6125ce83836125a7565b9150826002028217905092915050565b6125e78261181c565b67ffffffffffffffff811115612600576125ff611a18565b5b61260a8254612235565b612615828285612555565b5f60209050601f831160018114612646575f8415612634578287015190505b61263e85826125c3565b8655506126a5565b601f1984166126548661244a565b5f5b8281101561267b57848901518255600182019150602085019450602081019050612656565b868310156126985784890151612694601f8916826125a7565b8355505b6001600288020188555050505b505050505050565b5f6080820190508181035f8301526126c58187611854565b90506126d460208301866118f0565b6126e1604083018561192f565b81810360608301526126f38184611854565b905095945050505050565b5f61270882611780565b915061271383611780565b925082820190508082111561272b5761272a611fdd565b5b92915050565b7f496e73756666696369656e7420746f6b656e7320746f206275792073686172655f8201527f7300000000000000000000000000000000000000000000000000000000000000602082015250565b5f61278b602183611826565b915061279682612731565b604082019050919050565b5f6020820190508181035f8301526127b88161277f565b9050919050565b5f6060820190506127d25f83018661192f565b6127df602083018561192f565b6127ec604083018461193e565b949350505050565b7f496e76616c696420746f6b656e206164647265737300000000000000000000005f82015250565b5f612828601583611826565b9150612833826127f4565b602082019050919050565b5f6020820190508181035f8301526128558161281c565b9050919050565b5f60408201905061286f5f8301856118f0565b61287c602083018461192f565b9392505050565b7f4e487b71000000000000000000000000000000000000000000000000000000005f52603160045260245ffdfea2646970667358221220beb94c64c4c5f10fbb3756781e87667a69a0062a7d02096c7351350be12434c064736f6c634300081a0033",
					"opcodes": "PUSH1 0x80 PUSH1 0x40 MSTORE CALLVALUE DUP1 ISZERO PUSH2 0xF JUMPI PUSH0 DUP1 REVERT JUMPDEST POP CALLER PUSH0 PUSH20 0xFFFFFFFFFFFFFFFFFFFFFFFFFFFFFFFFFFFFFFFF AND DUP2 PUSH20 0xFFFFFFFFFFFFFFFFFFFFFFFFFFFFFFFFFFFFFFFF AND SUB PUSH2 0x81 JUMPI PUSH0 PUSH1 0x40 MLOAD PUSH32 0x1E4FBDF700000000000000000000000000000000000000000000000000000000 DUP2 MSTORE PUSH1 0x4 ADD PUSH2 0x78 SWAP2 SWAP1 PUSH2 0x196 JUMP JUMPDEST PUSH1 0x40 MLOAD DUP1 SWAP2 SUB SWAP1 REVERT JUMPDEST PUSH2 0x90 DUP2 PUSH2 0x96 PUSH1 0x20 SHL PUSH1 0x20 SHR JUMP JUMPDEST POP PUSH2 0x1AF JUMP JUMPDEST PUSH0 DUP1 PUSH0 SWAP1 SLOAD SWAP1 PUSH2 0x100 EXP SWAP1 DIV PUSH20 0xFFFFFFFFFFFFFFFFFFFFFFFFFFFFFFFFFFFFFFFF AND SWAP1 POP DUP2 PUSH0 DUP1 PUSH2 0x100 EXP DUP2 SLOAD DUP2 PUSH20 0xFFFFFFFFFFFFFFFFFFFFFFFFFFFFFFFFFFFFFFFF MUL NOT AND SWAP1 DUP4 PUSH20 0xFFFFFFFFFFFFFFFFFFFFFFFFFFFFFFFFFFFFFFFF AND MUL OR SWAP1 SSTORE POP DUP2 PUSH20 0xFFFFFFFFFFFFFFFFFFFFFFFFFFFFFFFFFFFFFFFF AND DUP2 PUSH20 0xFFFFFFFFFFFFFFFFFFFFFFFFFFFFFFFFFFFFFFFF AND PUSH32 0x8BE0079C531659141344CD1FD0A4F28419497F9722A3DAAFE3B4186F6B6457E0 PUSH1 0x40 MLOAD PUSH1 0x40 MLOAD DUP1 SWAP2 SUB SWAP1 LOG3 POP POP JUMP JUMPDEST PUSH0 PUSH20 0xFFFFFFFFFFFFFFFFFFFFFFFFFFFFFFFFFFFFFFFF DUP3 AND SWAP1 POP SWAP2 SWAP1 POP JUMP JUMPDEST PUSH0 PUSH2 0x180 DUP3 PUSH2 0x157 JUMP JUMPDEST SWAP1 POP SWAP2 SWAP1 POP JUMP JUMPDEST PUSH2 0x190 DUP2 PUSH2 0x176 JUMP JUMPDEST DUP3 MSTORE POP POP JUMP JUMPDEST PUSH0 PUSH1 0x20 DUP3 ADD SWAP1 POP PUSH2 0x1A9 PUSH0 DUP4 ADD DUP5 PUSH2 0x187 JUMP JUMPDEST SWAP3 SWAP2 POP POP JUMP JUMPDEST PUSH2 0x28E6 DUP1 PUSH2 0x1BC PUSH0 CODECOPY PUSH0 RETURN INVALID PUSH1 0x80 PUSH1 0x40 MSTORE CALLVALUE DUP1 ISZERO PUSH2 0xF JUMPI PUSH0 DUP1 REVERT JUMPDEST POP PUSH1 0x4 CALLDATASIZE LT PUSH2 0xA7 JUMPI PUSH0 CALLDATALOAD PUSH1 0xE0 SHR DUP1 PUSH4 0xAE59411E GT PUSH2 0x6F JUMPI DUP1 PUSH4 0xAE59411E EQ PUSH2 0x156 JUMPI DUP1 PUSH4 0xBEEBC5DA EQ PUSH2 0x172 JUMPI DUP1 PUSH4 0xC489171D EQ PUSH2 0x18E JUMPI DUP1 PUSH4 0xC5350E07 EQ PUSH2 0x1AA JUMPI DUP1 PUSH4 0xE7BA98D0 EQ PUSH2 0x1DB JUMPI DUP1 PUSH4 0xF2FDE38B EQ PUSH2 0x20B JUMPI PUSH2 0xA7 JUMP JUMPDEST DUP1 PUSH4 0x2279A970 EQ PUSH2 0xAB JUMPI DUP1 PUSH4 0x715018A6 EQ PUSH2 0xC7 JUMPI DUP1 PUSH4 0x8145B30A EQ PUSH2 0xD1 JUMPI DUP1 PUSH4 0x8DA5CB5B EQ PUSH2 0x108 JUMPI DUP1 PUSH4 0xAE104265 EQ PUSH2 0x126 JUMPI JUMPDEST PUSH0 DUP1 REVERT JUMPDEST PUSH2 0xC5 PUSH1 0x4 DUP1 CALLDATASIZE SUB DUP2 ADD SWAP1 PUSH2 0xC0 SWAP2 SWAP1 PUSH2 0x17B3 JUMP JUMPDEST PUSH2 0x227 JUMP JUMPDEST STOP JUMPDEST PUSH2 0xCF PUSH2 0x645 JUMP JUMPDEST STOP JUMPDEST PUSH2 0xEB PUSH1 0x4 DUP1 CALLDATASIZE SUB DUP2 ADD SWAP1 PUSH2 0xE6 SWAP2 SWAP1 PUSH2 0x17F1 JUMP JUMPDEST PUSH2 0x658 JUMP JUMPDEST PUSH1 0x40 MLOAD PUSH2 0xFF SWAP9 SWAP8 SWAP7 SWAP6 SWAP5 SWAP4 SWAP3 SWAP2 SWAP1 PUSH2 0x194D JUMP JUMPDEST PUSH1 0x40 MLOAD DUP1 SWAP2 SUB SWAP1 RETURN JUMPDEST PUSH2 0x110 PUSH2 0x888 JUMP JUMPDEST PUSH1 0x40 MLOAD PUSH2 0x11D SWAP2 SWAP1 PUSH2 0x19DE JUMP JUMPDEST PUSH1 0x40 MLOAD DUP1 SWAP2 SUB SWAP1 RETURN JUMPDEST PUSH2 0x140 PUSH1 0x4 DUP1 CALLDATASIZE SUB DUP2 ADD SWAP1 PUSH2 0x13B SWAP2 SWAP1 PUSH2 0x17F1 JUMP JUMPDEST PUSH2 0x8AF JUMP JUMPDEST PUSH1 0x40 MLOAD PUSH2 0x14D SWAP2 SWAP1 PUSH2 0x19F7 JUMP JUMPDEST PUSH1 0x40 MLOAD DUP1 SWAP2 SUB SWAP1 RETURN JUMPDEST PUSH2 0x170 PUSH1 0x4 DUP1 CALLDATASIZE SUB DUP2 ADD SWAP1 PUSH2 0x16B SWAP2 SWAP1 PUSH2 0x1B5F JUMP JUMPDEST PUSH2 0x8D0 JUMP JUMPDEST STOP JUMPDEST PUSH2 0x18C PUSH1 0x4 DUP1 CALLDATASIZE SUB DUP2 ADD SWAP1 PUSH2 0x187 SWAP2 SWAP1 PUSH2 0x17B3 JUMP JUMPDEST PUSH2 0xC95 JUMP JUMPDEST STOP JUMPDEST PUSH2 0x1A8 PUSH1 0x4 DUP1 CALLDATASIZE SUB DUP2 ADD SWAP1 PUSH2 0x1A3 SWAP2 SWAP1 PUSH2 0x1C41 JUMP JUMPDEST PUSH2 0x1074 JUMP JUMPDEST STOP JUMPDEST PUSH2 0x1C4 PUSH1 0x4 DUP1 CALLDATASIZE SUB DUP2 ADD SWAP1 PUSH2 0x1BF SWAP2 SWAP1 PUSH2 0x17F1 JUMP JUMPDEST PUSH2 0x119A JUMP JUMPDEST PUSH1 0x40 MLOAD PUSH2 0x1D2 SWAP3 SWAP2 SWAP1 PUSH2 0x1DED JUMP JUMPDEST PUSH1 0x40 MLOAD DUP1 SWAP2 SUB SWAP1 RETURN JUMPDEST PUSH2 0x1F5 PUSH1 0x4 DUP1 CALLDATASIZE SUB DUP2 ADD SWAP1 PUSH2 0x1F0 SWAP2 SWAP1 PUSH2 0x1E22 JUMP JUMPDEST PUSH2 0x13C0 JUMP JUMPDEST PUSH1 0x40 MLOAD PUSH2 0x202 SWAP2 SWAP1 PUSH2 0x19DE JUMP JUMPDEST PUSH1 0x40 MLOAD DUP1 SWAP2 SUB SWAP1 RETURN JUMPDEST PUSH2 0x225 PUSH1 0x4 DUP1 CALLDATASIZE SUB DUP2 ADD SWAP1 PUSH2 0x220 SWAP2 SWAP1 PUSH2 0x1E4D JUMP JUMPDEST PUSH2 0x13F0 JUMP JUMPDEST STOP JUMPDEST PUSH1 0x2 DUP1 SLOAD SWAP1 POP DUP3 LT PUSH2 0x26E JUMPI PUSH1 0x40 MLOAD PUSH32 0x8C379A000000000000000000000000000000000000000000000000000000000 DUP2 MSTORE PUSH1 0x4 ADD PUSH2 0x265 SWAP1 PUSH2 0x1EC2 JUMP JUMPDEST PUSH1 0x40 MLOAD DUP1 SWAP2 SUB SWAP1 REVERT JUMPDEST PUSH0 DUP2 GT PUSH2 0x2B0 JUMPI PUSH1 0x40 MLOAD PUSH32 0x8C379A000000000000000000000000000000000000000000000000000000000 DUP2 MSTORE PUSH1 0x4 ADD PUSH2 0x2A7 SWAP1 PUSH2 0x1F2A JUMP JUMPDEST PUSH1 0x40 MLOAD DUP1 SWAP2 SUB SWAP1 REVERT JUMPDEST PUSH0 PUSH1 0x2 DUP4 DUP2 SLOAD DUP2 LT PUSH2 0x2C5 JUMPI PUSH2 0x2C4 PUSH2 0x1F48 JUMP JUMPDEST JUMPDEST SWAP1 PUSH0 MSTORE PUSH1 0x20 PUSH0 KECCAK256 SWAP1 PUSH1 0x9 MUL ADD SWAP1 POP DUP2 DUP2 PUSH1 0x7 ADD PUSH0 CALLER PUSH20 0xFFFFFFFFFFFFFFFFFFFFFFFFFFFFFFFFFFFFFFFF AND PUSH20 0xFFFFFFFFFFFFFFFFFFFFFFFFFFFFFFFFFFFFFFFF AND DUP2 MSTORE PUSH1 0x20 ADD SWAP1 DUP2 MSTORE PUSH1 0x20 ADD PUSH0 KECCAK256 SLOAD LT ISZERO PUSH2 0x355 JUMPI PUSH1 0x40 MLOAD PUSH32 0x8C379A000000000000000000000000000000000000000000000000000000000 DUP2 MSTORE PUSH1 0x4 ADD PUSH2 0x34C SWAP1 PUSH2 0x1FBF JUMP JUMPDEST PUSH1 0x40 MLOAD DUP1 SWAP2 SUB SWAP1 REVERT JUMPDEST PUSH0 DUP2 PUSH1 0x2 ADD PUSH1 0x1 SWAP1 SLOAD SWAP1 PUSH2 0x100 EXP SWAP1 DIV PUSH20 0xFFFFFFFFFFFFFFFFFFFFFFFFFFFFFFFFFFFFFFFF AND SWAP1 POP PUSH0 DUP2 SWAP1 POP PUSH0 PUSH2 0x39A DUP6 DUP6 PUSH1 0x4 ADD SLOAD PUSH2 0x395 SWAP2 SWAP1 PUSH2 0x200A JUMP JUMPDEST PUSH2 0x8AF JUMP JUMPDEST PUSH2 0x3A7 DUP6 PUSH1 0x4 ADD SLOAD PUSH2 0x8AF JUMP JUMPDEST PUSH2 0x3B1 SWAP2 SWAP1 PUSH2 0x200A JUMP JUMPDEST SWAP1 POP DUP1 DUP3 PUSH20 0xFFFFFFFFFFFFFFFFFFFFFFFFFFFFFFFFFFFFFFFF AND PUSH4 0x70A08231 ADDRESS PUSH1 0x40 MLOAD DUP3 PUSH4 0xFFFFFFFF AND PUSH1 0xE0 SHL DUP2 MSTORE PUSH1 0x4 ADD PUSH2 0x3ED SWAP2 SWAP1 PUSH2 0x19DE JUMP JUMPDEST PUSH1 0x20 PUSH1 0x40 MLOAD DUP1 DUP4 SUB DUP2 DUP7 GAS STATICCALL ISZERO DUP1 ISZERO PUSH2 0x408 JUMPI RETURNDATASIZE PUSH0 DUP1 RETURNDATACOPY RETURNDATASIZE PUSH0 REVERT JUMPDEST POP POP POP POP PUSH1 0x40 MLOAD RETURNDATASIZE PUSH1 0x1F NOT PUSH1 0x1F DUP3 ADD AND DUP3 ADD DUP1 PUSH1 0x40 MSTORE POP DUP2 ADD SWAP1 PUSH2 0x42C SWAP2 SWAP1 PUSH2 0x2051 JUMP JUMPDEST LT ISZERO PUSH2 0x46D JUMPI PUSH1 0x40 MLOAD PUSH32 0x8C379A000000000000000000000000000000000000000000000000000000000 DUP2 MSTORE PUSH1 0x4 ADD PUSH2 0x464 SWAP1 PUSH2 0x20C6 JUMP JUMPDEST PUSH1 0x40 MLOAD DUP1 SWAP2 SUB SWAP1 REVERT JUMPDEST PUSH0 DUP3 PUSH20 0xFFFFFFFFFFFFFFFFFFFFFFFFFFFFFFFFFFFFFFFF AND PUSH4 0xA9059CBB CALLER DUP5 PUSH1 0x40 MLOAD DUP4 PUSH4 0xFFFFFFFF AND PUSH1 0xE0 SHL DUP2 MSTORE PUSH1 0x4 ADD PUSH2 0x4A9 SWAP3 SWAP2 SWAP1 PUSH2 0x20E4 JUMP JUMPDEST PUSH1 0x20 PUSH1 0x40 MLOAD DUP1 DUP4 SUB DUP2 PUSH0 DUP8 GAS CALL ISZERO DUP1 ISZERO PUSH2 0x4C5 JUMPI RETURNDATASIZE PUSH0 DUP1 RETURNDATACOPY RETURNDATASIZE PUSH0 REVERT JUMPDEST POP POP POP POP PUSH1 0x40 MLOAD RETURNDATASIZE PUSH1 0x1F NOT PUSH1 0x1F DUP3 ADD AND DUP3 ADD DUP1 PUSH1 0x40 MSTORE POP DUP2 ADD SWAP1 PUSH2 0x4E9 SWAP2 SWAP1 PUSH2 0x2140 JUMP JUMPDEST SWAP1 POP DUP1 PUSH2 0x52B JUMPI PUSH1 0x40 MLOAD PUSH32 0x8C379A000000000000000000000000000000000000000000000000000000000 DUP2 MSTORE PUSH1 0x4 ADD PUSH2 0x522 SWAP1 PUSH2 0x21B5 JUMP JUMPDEST PUSH1 0x40 MLOAD DUP1 SWAP2 SUB SWAP1 REVERT JUMPDEST DUP6 DUP6 PUSH1 0x4 ADD PUSH0 DUP3 DUP3 SLOAD PUSH2 0x53E SWAP2 SWAP1 PUSH2 0x200A JUMP JUMPDEST SWAP3 POP POP DUP2 SWAP1 SSTORE POP PUSH2 0x552 DUP6 PUSH1 0x4 ADD SLOAD PUSH2 0x8AF JUMP JUMPDEST DUP6 PUSH1 0x5 ADD DUP2 SWAP1 SSTORE POP DUP6 DUP6 PUSH1 0x7 ADD PUSH0 CALLER PUSH20 0xFFFFFFFFFFFFFFFFFFFFFFFFFFFFFFFFFFFFFFFF AND PUSH20 0xFFFFFFFFFFFFFFFFFFFFFFFFFFFFFFFFFFFFFFFF AND DUP2 MSTORE PUSH1 0x20 ADD SWAP1 DUP2 MSTORE PUSH1 0x20 ADD PUSH0 KECCAK256 PUSH0 DUP3 DUP3 SLOAD PUSH2 0x5A8 SWAP2 SWAP1 PUSH2 0x200A JUMP JUMPDEST SWAP3 POP POP DUP2 SWAP1 SSTORE POP PUSH0 DUP6 PUSH1 0x7 ADD PUSH0 CALLER PUSH20 0xFFFFFFFFFFFFFFFFFFFFFFFFFFFFFFFFFFFFFFFF AND PUSH20 0xFFFFFFFFFFFFFFFFFFFFFFFFFFFFFFFFFFFFFFFF AND DUP2 MSTORE PUSH1 0x20 ADD SWAP1 DUP2 MSTORE PUSH1 0x20 ADD PUSH0 KECCAK256 SLOAD SUB PUSH2 0x600 JUMPI PUSH2 0x5FF DUP8 CALLER PUSH2 0x1474 JUMP JUMPDEST JUMPDEST DUP7 PUSH32 0xC84BA642853B7FCEB52ECE6998AA2618EDC77F7A182996141F2A470AF347CEA3 CALLER DUP9 DUP6 PUSH1 0x40 MLOAD PUSH2 0x634 SWAP4 SWAP3 SWAP2 SWAP1 PUSH2 0x21D3 JUMP JUMPDEST PUSH1 0x40 MLOAD DUP1 SWAP2 SUB SWAP1 LOG2 POP POP POP POP POP POP POP JUMP JUMPDEST PUSH2 0x64D PUSH2 0x1620 JUMP JUMPDEST PUSH2 0x656 PUSH0 PUSH2 0x16A7 JUMP JUMPDEST JUMP JUMPDEST PUSH1 0x2 DUP2 DUP2 SLOAD DUP2 LT PUSH2 0x667 JUMPI PUSH0 DUP1 REVERT JUMPDEST SWAP1 PUSH0 MSTORE PUSH1 0x20 PUSH0 KECCAK256 SWAP1 PUSH1 0x9 MUL ADD PUSH0 SWAP2 POP SWAP1 POP DUP1 PUSH0 ADD DUP1 SLOAD PUSH2 0x686 SWAP1 PUSH2 0x2235 JUMP JUMPDEST DUP1 PUSH1 0x1F ADD PUSH1 0x20 DUP1 SWAP2 DIV MUL PUSH1 0x20 ADD PUSH1 0x40 MLOAD SWAP1 DUP2 ADD PUSH1 0x40 MSTORE DUP1 SWAP3 SWAP2 SWAP1 DUP2 DUP2 MSTORE PUSH1 0x20 ADD DUP3 DUP1 SLOAD PUSH2 0x6B2 SWAP1 PUSH2 0x2235 JUMP JUMPDEST DUP1 ISZERO PUSH2 0x6FD JUMPI DUP1 PUSH1 0x1F LT PUSH2 0x6D4 JUMPI PUSH2 0x100 DUP1 DUP4 SLOAD DIV MUL DUP4 MSTORE SWAP2 PUSH1 0x20 ADD SWAP2 PUSH2 0x6FD JUMP JUMPDEST DUP3 ADD SWAP2 SWAP1 PUSH0 MSTORE PUSH1 0x20 PUSH0 KECCAK256 SWAP1 JUMPDEST DUP2 SLOAD DUP2 MSTORE SWAP1 PUSH1 0x1 ADD SWAP1 PUSH1 0x20 ADD DUP1 DUP4 GT PUSH2 0x6E0 JUMPI DUP3 SWAP1 SUB PUSH1 0x1F AND DUP3 ADD SWAP2 JUMPDEST POP POP POP POP POP SWAP1 DUP1 PUSH1 0x1 ADD DUP1 SLOAD PUSH2 0x712 SWAP1 PUSH2 0x2235 JUMP JUMPDEST DUP1 PUSH1 0x1F ADD PUSH1 0x20 DUP1 SWAP2 DIV MUL PUSH1 0x20 ADD PUSH1 0x40 MLOAD SWAP1 DUP2 ADD PUSH1 0x40 MSTORE DUP1 SWAP3 SWAP2 SWAP1 DUP2 DUP2 MSTORE PUSH1 0x20 ADD DUP3 DUP1 SLOAD PUSH2 0x73E SWAP1 PUSH2 0x2235 JUMP JUMPDEST DUP1 ISZERO PUSH2 0x789 JUMPI DUP1 PUSH1 0x1F LT PUSH2 0x760 JUMPI PUSH2 0x100 DUP1 DUP4 SLOAD DIV MUL DUP4 MSTORE SWAP2 PUSH1 0x20 ADD SWAP2 PUSH2 0x789 JUMP JUMPDEST DUP3 ADD SWAP2 SWAP1 PUSH0 MSTORE PUSH1 0x20 PUSH0 KECCAK256 SWAP1 JUMPDEST DUP2 SLOAD DUP2 MSTORE SWAP1 PUSH1 0x1 ADD SWAP1 PUSH1 0x20 ADD DUP1 DUP4 GT PUSH2 0x76C JUMPI DUP3 SWAP1 SUB PUSH1 0x1F AND DUP3 ADD SWAP2 JUMPDEST POP POP POP POP POP SWAP1 DUP1 PUSH1 0x2 ADD PUSH0 SWAP1 SLOAD SWAP1 PUSH2 0x100 EXP SWAP1 DIV PUSH1 0xFF AND SWAP1 DUP1 PUSH1 0x2 ADD PUSH1 0x1 SWAP1 SLOAD SWAP1 PUSH2 0x100 EXP SWAP1 DIV PUSH20 0xFFFFFFFFFFFFFFFFFFFFFFFFFFFFFFFFFFFFFFFF AND SWAP1 DUP1 PUSH1 0x3 ADD DUP1 SLOAD PUSH2 0x7D6 SWAP1 PUSH2 0x2235 JUMP JUMPDEST DUP1 PUSH1 0x1F ADD PUSH1 0x20 DUP1 SWAP2 DIV MUL PUSH1 0x20 ADD PUSH1 0x40 MLOAD SWAP1 DUP2 ADD PUSH1 0x40 MSTORE DUP1 SWAP3 SWAP2 SWAP1 DUP2 DUP2 MSTORE PUSH1 0x20 ADD DUP3 DUP1 SLOAD PUSH2 0x802 SWAP1 PUSH2 0x2235 JUMP JUMPDEST DUP1 ISZERO PUSH2 0x84D JUMPI DUP1 PUSH1 0x1F LT PUSH2 0x824 JUMPI PUSH2 0x100 DUP1 DUP4 SLOAD DIV MUL DUP4 MSTORE SWAP2 PUSH1 0x20 ADD SWAP2 PUSH2 0x84D JUMP JUMPDEST DUP3 ADD SWAP2 SWAP1 PUSH0 MSTORE PUSH1 0x20 PUSH0 KECCAK256 SWAP1 JUMPDEST DUP2 SLOAD DUP2 MSTORE SWAP1 PUSH1 0x1 ADD SWAP1 PUSH1 0x20 ADD DUP1 DUP4 GT PUSH2 0x830 JUMPI DUP3 SWAP1 SUB PUSH1 0x1F AND DUP3 ADD SWAP2 JUMPDEST POP POP POP POP POP SWAP1 DUP1 PUSH1 0x4 ADD SLOAD SWAP1 DUP1 PUSH1 0x5 ADD SLOAD SWAP1 DUP1 PUSH1 0x6 ADD PUSH0 SWAP1 SLOAD SWAP1 PUSH2 0x100 EXP SWAP1 DIV PUSH20 0xFFFFFFFFFFFFFFFFFFFFFFFFFFFFFFFFFFFFFFFF AND SWAP1 POP DUP9 JUMP JUMPDEST PUSH0 DUP1 PUSH0 SWAP1 SLOAD SWAP1 PUSH2 0x100 EXP SWAP1 DIV PUSH20 0xFFFFFFFFFFFFFFFFFFFFFFFFFFFFFFFFFFFFFFFF AND SWAP1 POP SWAP1 JUMP JUMPDEST PUSH0 PUSH2 0x190 DUP3 DUP4 PUSH2 0x8BF SWAP2 SWAP1 PUSH2 0x2265 JUMP JUMPDEST PUSH2 0x8C9 SWAP2 SWAP1 PUSH2 0x22D3 JUMP JUMPDEST SWAP1 POP SWAP2 SWAP1 POP JUMP JUMPDEST PUSH0 PUSH1 0x1 PUSH0 DUP5 PUSH1 0x2 DUP2 GT ISZERO PUSH2 0x8E7 JUMPI PUSH2 0x8E6 PUSH2 0x188C JUMP JUMPDEST JUMPDEST PUSH1 0x2 DUP2 GT ISZERO PUSH2 0x8F9 JUMPI PUSH2 0x8F8 PUSH2 0x188C JUMP JUMPDEST JUMPDEST DUP2 MSTORE PUSH1 0x20 ADD SWAP1 DUP2 MSTORE PUSH1 0x20 ADD PUSH0 KECCAK256 PUSH0 SWAP1 SLOAD SWAP1 PUSH2 0x100 EXP SWAP1 DIV PUSH20 0xFFFFFFFFFFFFFFFFFFFFFFFFFFFFFFFFFFFFFFFF AND SWAP1 POP PUSH0 PUSH20 0xFFFFFFFFFFFFFFFFFFFFFFFFFFFFFFFFFFFFFFFF AND DUP2 PUSH20 0xFFFFFFFFFFFFFFFFFFFFFFFFFFFFFFFFFFFFFFFF AND SUB PUSH2 0x996 JUMPI PUSH1 0x40 MLOAD PUSH32 0x8C379A000000000000000000000000000000000000000000000000000000000 DUP2 MSTORE PUSH1 0x4 ADD PUSH2 0x98D SWAP1 PUSH2 0x234D JUMP JUMPDEST PUSH1 0x40 MLOAD DUP1 SWAP2 SUB SWAP1 REVERT JUMPDEST PUSH0 DUP2 SWAP1 POP PUSH8 0x8AC7230489E80000 DUP2 PUSH20 0xFFFFFFFFFFFFFFFFFFFFFFFFFFFFFFFFFFFFFFFF AND PUSH4 0x70A08231 CALLER PUSH1 0x40 MLOAD DUP3 PUSH4 0xFFFFFFFF AND PUSH1 0xE0 SHL DUP2 MSTORE PUSH1 0x4 ADD PUSH2 0x9DC SWAP2 SWAP1 PUSH2 0x19DE JUMP JUMPDEST PUSH1 0x20 PUSH1 0x40 MLOAD DUP1 DUP4 SUB DUP2 DUP7 GAS STATICCALL ISZERO DUP1 ISZERO PUSH2 0x9F7 JUMPI RETURNDATASIZE PUSH0 DUP1 RETURNDATACOPY RETURNDATASIZE PUSH0 REVERT JUMPDEST POP POP POP POP PUSH1 0x40 MLOAD RETURNDATASIZE PUSH1 0x1F NOT PUSH1 0x1F DUP3 ADD AND DUP3 ADD DUP1 PUSH1 0x40 MSTORE POP DUP2 ADD SWAP1 PUSH2 0xA1B SWAP2 SWAP1 PUSH2 0x2051 JUMP JUMPDEST LT ISZERO PUSH2 0xA5C JUMPI PUSH1 0x40 MLOAD PUSH32 0x8C379A000000000000000000000000000000000000000000000000000000000 DUP2 MSTORE PUSH1 0x4 ADD PUSH2 0xA53 SWAP1 PUSH2 0x23B5 JUMP JUMPDEST PUSH1 0x40 MLOAD DUP1 SWAP2 SUB SWAP1 REVERT JUMPDEST PUSH0 DUP2 PUSH20 0xFFFFFFFFFFFFFFFFFFFFFFFFFFFFFFFFFFFFFFFF AND PUSH4 0x23B872DD CALLER ADDRESS PUSH8 0x8AC7230489E80000 PUSH1 0x40 MLOAD DUP5 PUSH4 0xFFFFFFFF AND PUSH1 0xE0 SHL DUP2 MSTORE PUSH1 0x4 ADD PUSH2 0xAA2 SWAP4 SWAP3 SWAP2 SWAP1 PUSH2 0x2415 JUMP JUMPDEST PUSH1 0x20 PUSH1 0x40 MLOAD DUP1 DUP4 SUB DUP2 PUSH0 DUP8 GAS CALL ISZERO DUP1 ISZERO PUSH2 0xABE JUMPI RETURNDATASIZE PUSH0 DUP1 RETURNDATACOPY RETURNDATASIZE PUSH0 REVERT JUMPDEST POP POP POP POP PUSH1 0x40 MLOAD RETURNDATASIZE PUSH1 0x1F NOT PUSH1 0x1F DUP3 ADD AND DUP3 ADD DUP1 PUSH1 0x40 MSTORE POP DUP2 ADD SWAP1 PUSH2 0xAE2 SWAP2 SWAP1 PUSH2 0x2140 JUMP JUMPDEST SWAP1 POP DUP1 PUSH2 0xB24 JUMPI PUSH1 0x40 MLOAD PUSH32 0x8C379A000000000000000000000000000000000000000000000000000000000 DUP2 MSTORE PUSH1 0x4 ADD PUSH2 0xB1B SWAP1 PUSH2 0x21B5 JUMP JUMPDEST PUSH1 0x40 MLOAD DUP1 SWAP2 SUB SWAP1 REVERT JUMPDEST PUSH0 PUSH1 0x2 PUSH1 0x1 DUP2 PUSH1 0x1 DUP2 SLOAD ADD DUP1 DUP3 SSTORE DUP1 SWAP2 POP POP SUB SWAP1 PUSH0 MSTORE PUSH1 0x20 PUSH0 KECCAK256 SWAP1 PUSH1 0x9 MUL ADD SWAP1 POP DUP8 DUP2 PUSH0 ADD SWAP1 DUP2 PUSH2 0xB55 SWAP2 SWAP1 PUSH2 0x25DE JUMP JUMPDEST POP DUP7 DUP2 PUSH1 0x1 ADD SWAP1 DUP2 PUSH2 0xB67 SWAP2 SWAP1 PUSH2 0x25DE JUMP JUMPDEST POP DUP6 DUP2 PUSH1 0x2 ADD PUSH0 PUSH2 0x100 EXP DUP2 SLOAD DUP2 PUSH1 0xFF MUL NOT AND SWAP1 DUP4 PUSH1 0x2 DUP2 GT ISZERO PUSH2 0xB8E JUMPI PUSH2 0xB8D PUSH2 0x188C JUMP JUMPDEST JUMPDEST MUL OR SWAP1 SSTORE POP DUP4 DUP2 PUSH1 0x2 ADD PUSH1 0x1 PUSH2 0x100 EXP DUP2 SLOAD DUP2 PUSH20 0xFFFFFFFFFFFFFFFFFFFFFFFFFFFFFFFFFFFFFFFF MUL NOT AND SWAP1 DUP4 PUSH20 0xFFFFFFFFFFFFFFFFFFFFFFFFFFFFFFFFFFFFFFFF AND MUL OR SWAP1 SSTORE POP DUP5 DUP2 PUSH1 0x3 ADD SWAP1 DUP2 PUSH2 0xBE7 SWAP2 SWAP1 PUSH2 0x25DE JUMP JUMPDEST POP PUSH0 DUP2 PUSH1 0x4 ADD DUP2 SWAP1 SSTORE POP PUSH0 DUP2 PUSH1 0x5 ADD DUP2 SWAP1 SSTORE POP CALLER DUP2 PUSH1 0x6 ADD PUSH0 PUSH2 0x100 EXP DUP2 SLOAD DUP2 PUSH20 0xFFFFFFFFFFFFFFFFFFFFFFFFFFFFFFFFFFFFFFFF MUL NOT AND SWAP1 DUP4 PUSH20 0xFFFFFFFFFFFFFFFFFFFFFFFFFFFFFFFFFFFFFFFF AND MUL OR SWAP1 SSTORE POP PUSH1 0x1 PUSH1 0x2 DUP1 SLOAD SWAP1 POP PUSH2 0xC4E SWAP2 SWAP1 PUSH2 0x200A JUMP JUMPDEST PUSH32 0x62902407F2A51AEFAFD939F873488B7AF4CEE2C7AAF999549682D977FF035017 DUP10 DUP9 CALLER DUP10 PUSH1 0x40 MLOAD PUSH2 0xC83 SWAP5 SWAP4 SWAP3 SWAP2 SWAP1 PUSH2 0x26AD JUMP JUMPDEST PUSH1 0x40 MLOAD DUP1 SWAP2 SUB SWAP1 LOG2 POP POP POP POP POP POP POP POP JUMP JUMPDEST PUSH1 0x2 DUP1 SLOAD SWAP1 POP DUP3 LT PUSH2 0xCDC JUMPI PUSH1 0x40 MLOAD PUSH32 0x8C379A000000000000000000000000000000000000000000000000000000000 DUP2 MSTORE PUSH1 0x4 ADD PUSH2 0xCD3 SWAP1 PUSH2 0x1EC2 JUMP JUMPDEST PUSH1 0x40 MLOAD DUP1 SWAP2 SUB SWAP1 REVERT JUMPDEST PUSH0 DUP2 GT PUSH2 0xD1E JUMPI PUSH1 0x40 MLOAD PUSH32 0x8C379A000000000000000000000000000000000000000000000000000000000 DUP2 MSTORE PUSH1 0x4 ADD PUSH2 0xD15 SWAP1 PUSH2 0x1F2A JUMP JUMPDEST PUSH1 0x40 MLOAD DUP1 SWAP2 SUB SWAP1 REVERT JUMPDEST PUSH0 PUSH1 0x2 DUP4 DUP2 SLOAD DUP2 LT PUSH2 0xD33 JUMPI PUSH2 0xD32 PUSH2 0x1F48 JUMP JUMPDEST JUMPDEST SWAP1 PUSH0 MSTORE PUSH1 0x20 PUSH0 KECCAK256 SWAP1 PUSH1 0x9 MUL ADD SWAP1 POP PUSH0 DUP2 PUSH1 0x2 ADD PUSH1 0x1 SWAP1 SLOAD SWAP1 PUSH2 0x100 EXP SWAP1 DIV PUSH20 0xFFFFFFFFFFFFFFFFFFFFFFFFFFFFFFFFFFFFFFFF AND SWAP1 POP PUSH0 DUP2 SWAP1 POP PUSH0 PUSH2 0xD86 DUP6 DUP6 PUSH1 0x4 ADD SLOAD PUSH2 0xD81 SWAP2 SWAP1 PUSH2 0x26FE JUMP JUMPDEST PUSH2 0x8AF JUMP JUMPDEST SWAP1 POP DUP1 DUP3 PUSH20 0xFFFFFFFFFFFFFFFFFFFFFFFFFFFFFFFFFFFFFFFF AND PUSH4 0x70A08231 CALLER PUSH1 0x40 MLOAD DUP3 PUSH4 0xFFFFFFFF AND PUSH1 0xE0 SHL DUP2 MSTORE PUSH1 0x4 ADD PUSH2 0xDC2 SWAP2 SWAP1 PUSH2 0x19DE JUMP JUMPDEST PUSH1 0x20 PUSH1 0x40 MLOAD DUP1 DUP4 SUB DUP2 DUP7 GAS STATICCALL ISZERO DUP1 ISZERO PUSH2 0xDDD JUMPI RETURNDATASIZE PUSH0 DUP1 RETURNDATACOPY RETURNDATASIZE PUSH0 REVERT JUMPDEST POP POP POP POP PUSH1 0x40 MLOAD RETURNDATASIZE PUSH1 0x1F NOT PUSH1 0x1F DUP3 ADD AND DUP3 ADD DUP1 PUSH1 0x40 MSTORE POP DUP2 ADD SWAP1 PUSH2 0xE01 SWAP2 SWAP1 PUSH2 0x2051 JUMP JUMPDEST LT ISZERO PUSH2 0xE42 JUMPI PUSH1 0x40 MLOAD PUSH32 0x8C379A000000000000000000000000000000000000000000000000000000000 DUP2 MSTORE PUSH1 0x4 ADD PUSH2 0xE39 SWAP1 PUSH2 0x27A1 JUMP JUMPDEST PUSH1 0x40 MLOAD DUP1 SWAP2 SUB SWAP1 REVERT JUMPDEST PUSH0 DUP3 PUSH20 0xFFFFFFFFFFFFFFFFFFFFFFFFFFFFFFFFFFFFFFFF AND PUSH4 0x23B872DD CALLER ADDRESS DUP6 PUSH1 0x40 MLOAD DUP5 PUSH4 0xFFFFFFFF AND PUSH1 0xE0 SHL DUP2 MSTORE PUSH1 0x4 ADD PUSH2 0xE80 SWAP4 SWAP3 SWAP2 SWAP1 PUSH2 0x27BF JUMP JUMPDEST PUSH1 0x20 PUSH1 0x40 MLOAD DUP1 DUP4 SUB DUP2 PUSH0 DUP8 GAS CALL ISZERO DUP1 ISZERO PUSH2 0xE9C JUMPI RETURNDATASIZE PUSH0 DUP1 RETURNDATACOPY RETURNDATASIZE PUSH0 REVERT JUMPDEST POP POP POP POP PUSH1 0x40 MLOAD RETURNDATASIZE PUSH1 0x1F NOT PUSH1 0x1F DUP3 ADD AND DUP3 ADD DUP1 PUSH1 0x40 MSTORE POP DUP2 ADD SWAP1 PUSH2 0xEC0 SWAP2 SWAP1 PUSH2 0x2140 JUMP JUMPDEST SWAP1 POP DUP1 PUSH2 0xF02 JUMPI PUSH1 0x40 MLOAD PUSH32 0x8C379A000000000000000000000000000000000000000000000000000000000 DUP2 MSTORE PUSH1 0x4 ADD PUSH2 0xEF9 SWAP1 PUSH2 0x21B5 JUMP JUMPDEST PUSH1 0x40 MLOAD DUP1 SWAP2 SUB SWAP1 REVERT JUMPDEST DUP6 DUP6 PUSH1 0x4 ADD PUSH0 DUP3 DUP3 SLOAD PUSH2 0xF15 SWAP2 SWAP1 PUSH2 0x26FE JUMP JUMPDEST SWAP3 POP POP DUP2 SWAP1 SSTORE POP PUSH2 0xF29 DUP6 PUSH1 0x4 ADD SLOAD PUSH2 0x8AF JUMP JUMPDEST DUP6 PUSH1 0x5 ADD DUP2 SWAP1 SSTORE POP PUSH0 DUP6 PUSH1 0x7 ADD PUSH0 CALLER PUSH20 0xFFFFFFFFFFFFFFFFFFFFFFFFFFFFFFFFFFFFFFFF AND PUSH20 0xFFFFFFFFFFFFFFFFFFFFFFFFFFFFFFFFFFFFFFFF AND DUP2 MSTORE PUSH1 0x20 ADD SWAP1 DUP2 MSTORE PUSH1 0x20 ADD PUSH0 KECCAK256 SLOAD SUB PUSH2 0xFDA JUMPI DUP5 PUSH1 0x8 ADD CALLER SWAP1 DUP1 PUSH1 0x1 DUP2 SLOAD ADD DUP1 DUP3 SSTORE DUP1 SWAP2 POP POP PUSH1 0x1 SWAP1 SUB SWAP1 PUSH0 MSTORE PUSH1 0x20 PUSH0 KECCAK256 ADD PUSH0 SWAP1 SWAP2 SWAP1 SWAP2 SWAP1 SWAP2 PUSH2 0x100 EXP DUP2 SLOAD DUP2 PUSH20 0xFFFFFFFFFFFFFFFFFFFFFFFFFFFFFFFFFFFFFFFF MUL NOT AND SWAP1 DUP4 PUSH20 0xFFFFFFFFFFFFFFFFFFFFFFFFFFFFFFFFFFFFFFFF AND MUL OR SWAP1 SSTORE POP JUMPDEST DUP6 DUP6 PUSH1 0x7 ADD PUSH0 CALLER PUSH20 0xFFFFFFFFFFFFFFFFFFFFFFFFFFFFFFFFFFFFFFFF AND PUSH20 0xFFFFFFFFFFFFFFFFFFFFFFFFFFFFFFFFFFFFFFFF AND DUP2 MSTORE PUSH1 0x20 ADD SWAP1 DUP2 MSTORE PUSH1 0x20 ADD PUSH0 KECCAK256 PUSH0 DUP3 DUP3 SLOAD PUSH2 0x1028 SWAP2 SWAP1 PUSH2 0x26FE JUMP JUMPDEST SWAP3 POP POP DUP2 SWAP1 SSTORE POP DUP7 PUSH32 0x831583CCED7554A81E1CD091E811AFAADC7D575A17FBD354716145BB597EFC9 CALLER DUP9 DUP6 PUSH1 0x40 MLOAD PUSH2 0x1063 SWAP4 SWAP3 SWAP2 SWAP1 PUSH2 0x21D3 JUMP JUMPDEST PUSH1 0x40 MLOAD DUP1 SWAP2 SUB SWAP1 LOG2 POP POP POP POP POP POP POP JUMP JUMPDEST PUSH2 0x107C PUSH2 0x1620 JUMP JUMPDEST PUSH0 PUSH20 0xFFFFFFFFFFFFFFFFFFFFFFFFFFFFFFFFFFFFFFFF AND DUP2 PUSH20 0xFFFFFFFFFFFFFFFFFFFFFFFFFFFFFFFFFFFFFFFF AND SUB PUSH2 0x10EA JUMPI PUSH1 0x40 MLOAD PUSH32 0x8C379A000000000000000000000000000000000000000000000000000000000 DUP2 MSTORE PUSH1 0x4 ADD PUSH2 0x10E1 SWAP1 PUSH2 0x283E JUMP JUMPDEST PUSH1 0x40 MLOAD DUP1 SWAP2 SUB SWAP1 REVERT JUMPDEST DUP1 PUSH1 0x1 PUSH0 DUP5 PUSH1 0x2 DUP2 GT ISZERO PUSH2 0x1101 JUMPI PUSH2 0x1100 PUSH2 0x188C JUMP JUMPDEST JUMPDEST PUSH1 0x2 DUP2 GT ISZERO PUSH2 0x1113 JUMPI PUSH2 0x1112 PUSH2 0x188C JUMP JUMPDEST JUMPDEST DUP2 MSTORE PUSH1 0x20 ADD SWAP1 DUP2 MSTORE PUSH1 0x20 ADD PUSH0 KECCAK256 PUSH0 PUSH2 0x100 EXP DUP2 SLOAD DUP2 PUSH20 0xFFFFFFFFFFFFFFFFFFFFFFFFFFFFFFFFFFFFFFFF MUL NOT AND SWAP1 DUP4 PUSH20 0xFFFFFFFFFFFFFFFFFFFFFFFFFFFFFFFFFFFFFFFF AND MUL OR SWAP1 SSTORE POP PUSH32 0x615656FCADB3D80DE64BA2FCF0C227214511E116EF7955ED759DB80F8883EE8F DUP3 DUP3 PUSH1 0x40 MLOAD PUSH2 0x118E SWAP3 SWAP2 SWAP1 PUSH2 0x285C JUMP JUMPDEST PUSH1 0x40 MLOAD DUP1 SWAP2 SUB SWAP1 LOG1 POP POP JUMP JUMPDEST PUSH1 0x60 DUP1 PUSH1 0x2 DUP1 SLOAD SWAP1 POP DUP4 LT PUSH2 0x11E4 JUMPI PUSH1 0x40 MLOAD PUSH32 0x8C379A000000000000000000000000000000000000000000000000000000000 DUP2 MSTORE PUSH1 0x4 ADD PUSH2 0x11DB SWAP1 PUSH2 0x1EC2 JUMP JUMPDEST PUSH1 0x40 MLOAD DUP1 SWAP2 SUB SWAP1 REVERT JUMPDEST PUSH0 PUSH1 0x2 DUP5 DUP2 SLOAD DUP2 LT PUSH2 0x11F9 JUMPI PUSH2 0x11F8 PUSH2 0x1F48 JUMP JUMPDEST JUMPDEST SWAP1 PUSH0 MSTORE PUSH1 0x20 PUSH0 KECCAK256 SWAP1 PUSH1 0x9 MUL ADD SWAP1 POP PUSH0 DUP2 PUSH1 0x8 ADD DUP1 SLOAD SWAP1 POP SWAP1 POP PUSH0 DUP2 PUSH8 0xFFFFFFFFFFFFFFFF DUP2 GT ISZERO PUSH2 0x122D JUMPI PUSH2 0x122C PUSH2 0x1A18 JUMP JUMPDEST JUMPDEST PUSH1 0x40 MLOAD SWAP1 DUP1 DUP3 MSTORE DUP1 PUSH1 0x20 MUL PUSH1 0x20 ADD DUP3 ADD PUSH1 0x40 MSTORE DUP1 ISZERO PUSH2 0x125B JUMPI DUP2 PUSH1 0x20 ADD PUSH1 0x20 DUP3 MUL DUP1 CALLDATASIZE DUP4 CALLDATACOPY DUP1 DUP3 ADD SWAP2 POP POP SWAP1 POP JUMPDEST POP SWAP1 POP PUSH0 DUP3 PUSH8 0xFFFFFFFFFFFFFFFF DUP2 GT ISZERO PUSH2 0x1279 JUMPI PUSH2 0x1278 PUSH2 0x1A18 JUMP JUMPDEST JUMPDEST PUSH1 0x40 MLOAD SWAP1 DUP1 DUP3 MSTORE DUP1 PUSH1 0x20 MUL PUSH1 0x20 ADD DUP3 ADD PUSH1 0x40 MSTORE DUP1 ISZERO PUSH2 0x12A7 JUMPI DUP2 PUSH1 0x20 ADD PUSH1 0x20 DUP3 MUL DUP1 CALLDATASIZE DUP4 CALLDATACOPY DUP1 DUP3 ADD SWAP2 POP POP SWAP1 POP JUMPDEST POP SWAP1 POP PUSH0 JUMPDEST DUP4 DUP2 LT ISZERO PUSH2 0x13B0 JUMPI PUSH0 DUP6 PUSH1 0x8 ADD DUP3 DUP2 SLOAD DUP2 LT PUSH2 0x12CB JUMPI PUSH2 0x12CA PUSH2 0x1F48 JUMP JUMPDEST JUMPDEST SWAP1 PUSH0 MSTORE PUSH1 0x20 PUSH0 KECCAK256 ADD PUSH0 SWAP1 SLOAD SWAP1 PUSH2 0x100 EXP SWAP1 DIV PUSH20 0xFFFFFFFFFFFFFFFFFFFFFFFFFFFFFFFFFFFFFFFF AND SWAP1 POP DUP1 DUP5 DUP4 DUP2 MLOAD DUP2 LT PUSH2 0x1309 JUMPI PUSH2 0x1308 PUSH2 0x1F48 JUMP JUMPDEST JUMPDEST PUSH1 0x20 MUL PUSH1 0x20 ADD ADD SWAP1 PUSH20 0xFFFFFFFFFFFFFFFFFFFFFFFFFFFFFFFFFFFFFFFF AND SWAP1 DUP2 PUSH20 0xFFFFFFFFFFFFFFFFFFFFFFFFFFFFFFFFFFFFFFFF AND DUP2 MSTORE POP POP DUP6 PUSH1 0x7 ADD PUSH0 DUP3 PUSH20 0xFFFFFFFFFFFFFFFFFFFFFFFFFFFFFFFFFFFFFFFF AND PUSH20 0xFFFFFFFFFFFFFFFFFFFFFFFFFFFFFFFFFFFFFFFF AND DUP2 MSTORE PUSH1 0x20 ADD SWAP1 DUP2 MSTORE PUSH1 0x20 ADD PUSH0 KECCAK256 SLOAD DUP4 DUP4 DUP2 MLOAD DUP2 LT PUSH2 0x1396 JUMPI PUSH2 0x1395 PUSH2 0x1F48 JUMP JUMPDEST JUMPDEST PUSH1 0x20 MUL PUSH1 0x20 ADD ADD DUP2 DUP2 MSTORE POP POP POP DUP1 DUP1 PUSH1 0x1 ADD SWAP2 POP POP PUSH2 0x12AC JUMP JUMPDEST POP DUP2 DUP2 SWAP6 POP SWAP6 POP POP POP POP POP SWAP2 POP SWAP2 JUMP JUMPDEST PUSH1 0x1 PUSH1 0x20 MSTORE DUP1 PUSH0 MSTORE PUSH1 0x40 PUSH0 KECCAK256 PUSH0 SWAP2 POP SLOAD SWAP1 PUSH2 0x100 EXP SWAP1 DIV PUSH20 0xFFFFFFFFFFFFFFFFFFFFFFFFFFFFFFFFFFFFFFFF AND DUP2 JUMP JUMPDEST PUSH2 0x13F8 PUSH2 0x1620 JUMP JUMPDEST PUSH0 PUSH20 0xFFFFFFFFFFFFFFFFFFFFFFFFFFFFFFFFFFFFFFFF AND DUP2 PUSH20 0xFFFFFFFFFFFFFFFFFFFFFFFFFFFFFFFFFFFFFFFF AND SUB PUSH2 0x1468 JUMPI PUSH0 PUSH1 0x40 MLOAD PUSH32 0x1E4FBDF700000000000000000000000000000000000000000000000000000000 DUP2 MSTORE PUSH1 0x4 ADD PUSH2 0x145F SWAP2 SWAP1 PUSH2 0x19DE JUMP JUMPDEST PUSH1 0x40 MLOAD DUP1 SWAP2 SUB SWAP1 REVERT JUMPDEST PUSH2 0x1471 DUP2 PUSH2 0x16A7 JUMP JUMPDEST POP JUMP JUMPDEST PUSH0 PUSH1 0x2 DUP4 DUP2 SLOAD DUP2 LT PUSH2 0x1489 JUMPI PUSH2 0x1488 PUSH2 0x1F48 JUMP JUMPDEST JUMPDEST SWAP1 PUSH0 MSTORE PUSH1 0x20 PUSH0 KECCAK256 SWAP1 PUSH1 0x9 MUL ADD SWAP1 POP PUSH0 DUP2 PUSH1 0x8 ADD DUP1 SLOAD SWAP1 POP SWAP1 POP PUSH0 JUMPDEST DUP2 DUP2 LT ISZERO PUSH2 0x1619 JUMPI DUP4 PUSH20 0xFFFFFFFFFFFFFFFFFFFFFFFFFFFFFFFFFFFFFFFF AND DUP4 PUSH1 0x8 ADD DUP3 DUP2 SLOAD DUP2 LT PUSH2 0x14D9 JUMPI PUSH2 0x14D8 PUSH2 0x1F48 JUMP JUMPDEST JUMPDEST SWAP1 PUSH0 MSTORE PUSH1 0x20 PUSH0 KECCAK256 ADD PUSH0 SWAP1 SLOAD SWAP1 PUSH2 0x100 EXP SWAP1 DIV PUSH20 0xFFFFFFFFFFFFFFFFFFFFFFFFFFFFFFFFFFFFFFFF AND PUSH20 0xFFFFFFFFFFFFFFFFFFFFFFFFFFFFFFFFFFFFFFFF AND SUB PUSH2 0x160C JUMPI DUP3 PUSH1 0x8 ADD PUSH1 0x1 DUP4 PUSH2 0x152D SWAP2 SWAP1 PUSH2 0x200A JUMP JUMPDEST DUP2 SLOAD DUP2 LT PUSH2 0x153E JUMPI PUSH2 0x153D PUSH2 0x1F48 JUMP JUMPDEST JUMPDEST SWAP1 PUSH0 MSTORE PUSH1 0x20 PUSH0 KECCAK256 ADD PUSH0 SWAP1 SLOAD SWAP1 PUSH2 0x100 EXP SWAP1 DIV PUSH20 0xFFFFFFFFFFFFFFFFFFFFFFFFFFFFFFFFFFFFFFFF AND DUP4 PUSH1 0x8 ADD DUP3 DUP2 SLOAD DUP2 LT PUSH2 0x157C JUMPI PUSH2 0x157B PUSH2 0x1F48 JUMP JUMPDEST JUMPDEST SWAP1 PUSH0 MSTORE PUSH1 0x20 PUSH0 KECCAK256 ADD PUSH0 PUSH2 0x100 EXP DUP2 SLOAD DUP2 PUSH20 0xFFFFFFFFFFFFFFFFFFFFFFFFFFFFFFFFFFFFFFFF MUL NOT AND SWAP1 DUP4 PUSH20 0xFFFFFFFFFFFFFFFFFFFFFFFFFFFFFFFFFFFFFFFF AND MUL OR SWAP1 SSTORE POP DUP3 PUSH1 0x8 ADD DUP1 SLOAD DUP1 PUSH2 0x15D5 JUMPI PUSH2 0x15D4 PUSH2 0x2883 JUMP JUMPDEST JUMPDEST PUSH1 0x1 SWAP1 SUB DUP2 DUP2 SWAP1 PUSH0 MSTORE PUSH1 0x20 PUSH0 KECCAK256 ADD PUSH0 PUSH2 0x100 EXP DUP2 SLOAD SWAP1 PUSH20 0xFFFFFFFFFFFFFFFFFFFFFFFFFFFFFFFFFFFFFFFF MUL NOT AND SWAP1 SSTORE SWAP1 SSTORE PUSH2 0x1619 JUMP JUMPDEST DUP1 DUP1 PUSH1 0x1 ADD SWAP2 POP POP PUSH2 0x14A4 JUMP JUMPDEST POP POP POP POP POP JUMP JUMPDEST PUSH2 0x1628 PUSH2 0x1768 JUMP JUMPDEST PUSH20 0xFFFFFFFFFFFFFFFFFFFFFFFFFFFFFFFFFFFFFFFF AND PUSH2 0x1646 PUSH2 0x888 JUMP JUMPDEST PUSH20 0xFFFFFFFFFFFFFFFFFFFFFFFFFFFFFFFFFFFFFFFF AND EQ PUSH2 0x16A5 JUMPI PUSH2 0x1669 PUSH2 0x1768 JUMP JUMPDEST PUSH1 0x40 MLOAD PUSH32 0x118CDAA700000000000000000000000000000000000000000000000000000000 DUP2 MSTORE PUSH1 0x4 ADD PUSH2 0x169C SWAP2 SWAP1 PUSH2 0x19DE JUMP JUMPDEST PUSH1 0x40 MLOAD DUP1 SWAP2 SUB SWAP1 REVERT JUMPDEST JUMP JUMPDEST PUSH0 DUP1 PUSH0 SWAP1 SLOAD SWAP1 PUSH2 0x100 EXP SWAP1 DIV PUSH20 0xFFFFFFFFFFFFFFFFFFFFFFFFFFFFFFFFFFFFFFFF AND SWAP1 POP DUP2 PUSH0 DUP1 PUSH2 0x100 EXP DUP2 SLOAD DUP2 PUSH20 0xFFFFFFFFFFFFFFFFFFFFFFFFFFFFFFFFFFFFFFFF MUL NOT AND SWAP1 DUP4 PUSH20 0xFFFFFFFFFFFFFFFFFFFFFFFFFFFFFFFFFFFFFFFF AND MUL OR SWAP1 SSTORE POP DUP2 PUSH20 0xFFFFFFFFFFFFFFFFFFFFFFFFFFFFFFFFFFFFFFFF AND DUP2 PUSH20 0xFFFFFFFFFFFFFFFFFFFFFFFFFFFFFFFFFFFFFFFF AND PUSH32 0x8BE0079C531659141344CD1FD0A4F28419497F9722A3DAAFE3B4186F6B6457E0 PUSH1 0x40 MLOAD PUSH1 0x40 MLOAD DUP1 SWAP2 SUB SWAP1 LOG3 POP POP JUMP JUMPDEST PUSH0 CALLER SWAP1 POP SWAP1 JUMP JUMPDEST PUSH0 PUSH1 0x40 MLOAD SWAP1 POP SWAP1 JUMP JUMPDEST PUSH0 DUP1 REVERT JUMPDEST PUSH0 DUP1 REVERT JUMPDEST PUSH0 DUP2 SWAP1 POP SWAP2 SWAP1 POP JUMP JUMPDEST PUSH2 0x1792 DUP2 PUSH2 0x1780 JUMP JUMPDEST DUP2 EQ PUSH2 0x179C JUMPI PUSH0 DUP1 REVERT JUMPDEST POP JUMP JUMPDEST PUSH0 DUP2 CALLDATALOAD SWAP1 POP PUSH2 0x17AD DUP2 PUSH2 0x1789 JUMP JUMPDEST SWAP3 SWAP2 POP POP JUMP JUMPDEST PUSH0 DUP1 PUSH1 0x40 DUP4 DUP6 SUB SLT ISZERO PUSH2 0x17C9 JUMPI PUSH2 0x17C8 PUSH2 0x1778 JUMP JUMPDEST JUMPDEST PUSH0 PUSH2 0x17D6 DUP6 DUP3 DUP7 ADD PUSH2 0x179F JUMP JUMPDEST SWAP3 POP POP PUSH1 0x20 PUSH2 0x17E7 DUP6 DUP3 DUP7 ADD PUSH2 0x179F JUMP JUMPDEST SWAP2 POP POP SWAP3 POP SWAP3 SWAP1 POP JUMP JUMPDEST PUSH0 PUSH1 0x20 DUP3 DUP5 SUB SLT ISZERO PUSH2 0x1806 JUMPI PUSH2 0x1805 PUSH2 0x1778 JUMP JUMPDEST JUMPDEST PUSH0 PUSH2 0x1813 DUP5 DUP3 DUP6 ADD PUSH2 0x179F JUMP JUMPDEST SWAP2 POP POP SWAP3 SWAP2 POP POP JUMP JUMPDEST PUSH0 DUP2 MLOAD SWAP1 POP SWAP2 SWAP1 POP JUMP JUMPDEST PUSH0 DUP3 DUP3 MSTORE PUSH1 0x20 DUP3 ADD SWAP1 POP SWAP3 SWAP2 POP POP JUMP JUMPDEST DUP3 DUP2 DUP4 MCOPY PUSH0 DUP4 DUP4 ADD MSTORE POP POP POP JUMP JUMPDEST PUSH0 PUSH1 0x1F NOT PUSH1 0x1F DUP4 ADD AND SWAP1 POP SWAP2 SWAP1 POP JUMP JUMPDEST PUSH0 PUSH2 0x185E DUP3 PUSH2 0x181C JUMP JUMPDEST PUSH2 0x1868 DUP2 DUP6 PUSH2 0x1826 JUMP JUMPDEST SWAP4 POP PUSH2 0x1878 DUP2 DUP6 PUSH1 0x20 DUP7 ADD PUSH2 0x1836 JUMP JUMPDEST PUSH2 0x1881 DUP2 PUSH2 0x1844 JUMP JUMPDEST DUP5 ADD SWAP2 POP POP SWAP3 SWAP2 POP POP JUMP JUMPDEST PUSH32 0x4E487B7100000000000000000000000000000000000000000000000000000000 PUSH0 MSTORE PUSH1 0x21 PUSH1 0x4 MSTORE PUSH1 0x24 PUSH0 REVERT JUMPDEST PUSH1 0x3 DUP2 LT PUSH2 0x18CA JUMPI PUSH2 0x18C9 PUSH2 0x188C JUMP JUMPDEST JUMPDEST POP JUMP JUMPDEST PUSH0 DUP2 SWAP1 POP PUSH2 0x18DA DUP3 PUSH2 0x18B9 JUMP JUMPDEST SWAP2 SWAP1 POP JUMP JUMPDEST PUSH0 PUSH2 0x18E9 DUP3 PUSH2 0x18CD JUMP JUMPDEST SWAP1 POP SWAP2 SWAP1 POP JUMP JUMPDEST PUSH2 0x18F9 DUP2 PUSH2 0x18DF JUMP JUMPDEST DUP3 MSTORE POP POP JUMP JUMPDEST PUSH0 PUSH20 0xFFFFFFFFFFFFFFFFFFFFFFFFFFFFFFFFFFFFFFFF DUP3 AND SWAP1 POP SWAP2 SWAP1 POP JUMP JUMPDEST PUSH0 PUSH2 0x1928 DUP3 PUSH2 0x18FF JUMP JUMPDEST SWAP1 POP SWAP2 SWAP1 POP JUMP JUMPDEST PUSH2 0x1938 DUP2 PUSH2 0x191E JUMP JUMPDEST DUP3 MSTORE POP POP JUMP JUMPDEST PUSH2 0x1947 DUP2 PUSH2 0x1780 JUMP JUMPDEST DUP3 MSTORE POP POP JUMP JUMPDEST PUSH0 PUSH2 0x100 DUP3 ADD SWAP1 POP DUP2 DUP2 SUB PUSH0 DUP4 ADD MSTORE PUSH2 0x1966 DUP2 DUP12 PUSH2 0x1854 JUMP JUMPDEST SWAP1 POP DUP2 DUP2 SUB PUSH1 0x20 DUP4 ADD MSTORE PUSH2 0x197A DUP2 DUP11 PUSH2 0x1854 JUMP JUMPDEST SWAP1 POP PUSH2 0x1989 PUSH1 0x40 DUP4 ADD DUP10 PUSH2 0x18F0 JUMP JUMPDEST PUSH2 0x1996 PUSH1 0x60 DUP4 ADD DUP9 PUSH2 0x192F JUMP JUMPDEST DUP2 DUP2 SUB PUSH1 0x80 DUP4 ADD MSTORE PUSH2 0x19A8 DUP2 DUP8 PUSH2 0x1854 JUMP JUMPDEST SWAP1 POP PUSH2 0x19B7 PUSH1 0xA0 DUP4 ADD DUP7 PUSH2 0x193E JUMP JUMPDEST PUSH2 0x19C4 PUSH1 0xC0 DUP4 ADD DUP6 PUSH2 0x193E JUMP JUMPDEST PUSH2 0x19D1 PUSH1 0xE0 DUP4 ADD DUP5 PUSH2 0x192F JUMP JUMPDEST SWAP10 SWAP9 POP POP POP POP POP POP POP POP POP JUMP JUMPDEST PUSH0 PUSH1 0x20 DUP3 ADD SWAP1 POP PUSH2 0x19F1 PUSH0 DUP4 ADD DUP5 PUSH2 0x192F JUMP JUMPDEST SWAP3 SWAP2 POP POP JUMP JUMPDEST PUSH0 PUSH1 0x20 DUP3 ADD SWAP1 POP PUSH2 0x1A0A PUSH0 DUP4 ADD DUP5 PUSH2 0x193E JUMP JUMPDEST SWAP3 SWAP2 POP POP JUMP JUMPDEST PUSH0 DUP1 REVERT JUMPDEST PUSH0 DUP1 REVERT JUMPDEST PUSH32 0x4E487B7100000000000000000000000000000000000000000000000000000000 PUSH0 MSTORE PUSH1 0x41 PUSH1 0x4 MSTORE PUSH1 0x24 PUSH0 REVERT JUMPDEST PUSH2 0x1A4E DUP3 PUSH2 0x1844 JUMP JUMPDEST DUP2 ADD DUP2 DUP2 LT PUSH8 0xFFFFFFFFFFFFFFFF DUP3 GT OR ISZERO PUSH2 0x1A6D JUMPI PUSH2 0x1A6C PUSH2 0x1A18 JUMP JUMPDEST JUMPDEST DUP1 PUSH1 0x40 MSTORE POP POP POP JUMP JUMPDEST PUSH0 PUSH2 0x1A7F PUSH2 0x176F JUMP JUMPDEST SWAP1 POP PUSH2 0x1A8B DUP3 DUP3 PUSH2 0x1A45 JUMP JUMPDEST SWAP2 SWAP1 POP JUMP JUMPDEST PUSH0 PUSH8 0xFFFFFFFFFFFFFFFF DUP3 GT ISZERO PUSH2 0x1AAA JUMPI PUSH2 0x1AA9 PUSH2 0x1A18 JUMP JUMPDEST JUMPDEST PUSH2 0x1AB3 DUP3 PUSH2 0x1844 JUMP JUMPDEST SWAP1 POP PUSH1 0x20 DUP2 ADD SWAP1 POP SWAP2 SWAP1 POP JUMP JUMPDEST DUP3 DUP2 DUP4 CALLDATACOPY PUSH0 DUP4 DUP4 ADD MSTORE POP POP POP JUMP JUMPDEST PUSH0 PUSH2 0x1AE0 PUSH2 0x1ADB DUP5 PUSH2 0x1A90 JUMP JUMPDEST PUSH2 0x1A76 JUMP JUMPDEST SWAP1 POP DUP3 DUP2 MSTORE PUSH1 0x20 DUP2 ADD DUP5 DUP5 DUP5 ADD GT ISZERO PUSH2 0x1AFC JUMPI PUSH2 0x1AFB PUSH2 0x1A14 JUMP JUMPDEST JUMPDEST PUSH2 0x1B07 DUP5 DUP3 DUP6 PUSH2 0x1AC0 JUMP JUMPDEST POP SWAP4 SWAP3 POP POP POP JUMP JUMPDEST PUSH0 DUP3 PUSH1 0x1F DUP4 ADD SLT PUSH2 0x1B23 JUMPI PUSH2 0x1B22 PUSH2 0x1A10 JUMP JUMPDEST JUMPDEST DUP2 CALLDATALOAD PUSH2 0x1B33 DUP5 DUP3 PUSH1 0x20 DUP7 ADD PUSH2 0x1ACE JUMP JUMPDEST SWAP2 POP POP SWAP3 SWAP2 POP POP JUMP JUMPDEST PUSH1 0x3 DUP2 LT PUSH2 0x1B48 JUMPI PUSH0 DUP1 REVERT JUMPDEST POP JUMP JUMPDEST PUSH0 DUP2 CALLDATALOAD SWAP1 POP PUSH2 0x1B59 DUP2 PUSH2 0x1B3C JUMP JUMPDEST SWAP3 SWAP2 POP POP JUMP JUMPDEST PUSH0 DUP1 PUSH0 DUP1 PUSH1 0x80 DUP6 DUP8 SUB SLT ISZERO PUSH2 0x1B77 JUMPI PUSH2 0x1B76 PUSH2 0x1778 JUMP JUMPDEST JUMPDEST PUSH0 DUP6 ADD CALLDATALOAD PUSH8 0xFFFFFFFFFFFFFFFF DUP2 GT ISZERO PUSH2 0x1B94 JUMPI PUSH2 0x1B93 PUSH2 0x177C JUMP JUMPDEST JUMPDEST PUSH2 0x1BA0 DUP8 DUP3 DUP9 ADD PUSH2 0x1B0F JUMP JUMPDEST SWAP5 POP POP PUSH1 0x20 DUP6 ADD CALLDATALOAD PUSH8 0xFFFFFFFFFFFFFFFF DUP2 GT ISZERO PUSH2 0x1BC1 JUMPI PUSH2 0x1BC0 PUSH2 0x177C JUMP JUMPDEST JUMPDEST PUSH2 0x1BCD DUP8 DUP3 DUP9 ADD PUSH2 0x1B0F JUMP JUMPDEST SWAP4 POP POP PUSH1 0x40 PUSH2 0x1BDE DUP8 DUP3 DUP9 ADD PUSH2 0x1B4B JUMP JUMPDEST SWAP3 POP POP PUSH1 0x60 DUP6 ADD CALLDATALOAD PUSH8 0xFFFFFFFFFFFFFFFF DUP2 GT ISZERO PUSH2 0x1BFF JUMPI PUSH2 0x1BFE PUSH2 0x177C JUMP JUMPDEST JUMPDEST PUSH2 0x1C0B DUP8 DUP3 DUP9 ADD PUSH2 0x1B0F JUMP JUMPDEST SWAP2 POP POP SWAP3 SWAP6 SWAP2 SWAP5 POP SWAP3 POP JUMP JUMPDEST PUSH2 0x1C20 DUP2 PUSH2 0x191E JUMP JUMPDEST DUP2 EQ PUSH2 0x1C2A JUMPI PUSH0 DUP1 REVERT JUMPDEST POP JUMP JUMPDEST PUSH0 DUP2 CALLDATALOAD SWAP1 POP PUSH2 0x1C3B DUP2 PUSH2 0x1C17 JUMP JUMPDEST SWAP3 SWAP2 POP POP JUMP JUMPDEST PUSH0 DUP1 PUSH1 0x40 DUP4 DUP6 SUB SLT ISZERO PUSH2 0x1C57 JUMPI PUSH2 0x1C56 PUSH2 0x1778 JUMP JUMPDEST JUMPDEST PUSH0 PUSH2 0x1C64 DUP6 DUP3 DUP7 ADD PUSH2 0x1B4B JUMP JUMPDEST SWAP3 POP POP PUSH1 0x20 PUSH2 0x1C75 DUP6 DUP3 DUP7 ADD PUSH2 0x1C2D JUMP JUMPDEST SWAP2 POP POP SWAP3 POP SWAP3 SWAP1 POP JUMP JUMPDEST PUSH0 DUP2 MLOAD SWAP1 POP SWAP2 SWAP1 POP JUMP JUMPDEST PUSH0 DUP3 DUP3 MSTORE PUSH1 0x20 DUP3 ADD SWAP1 POP SWAP3 SWAP2 POP POP JUMP JUMPDEST PUSH0 DUP2 SWAP1 POP PUSH1 0x20 DUP3 ADD SWAP1 POP SWAP2 SWAP1 POP JUMP JUMPDEST PUSH2 0x1CB1 DUP2 PUSH2 0x191E JUMP JUMPDEST DUP3 MSTORE POP POP JUMP JUMPDEST PUSH0 PUSH2 0x1CC2 DUP4 DUP4 PUSH2 0x1CA8 JUMP JUMPDEST PUSH1 0x20 DUP4 ADD SWAP1 POP SWAP3 SWAP2 POP POP JUMP JUMPDEST PUSH0 PUSH1 0x20 DUP3 ADD SWAP1 POP SWAP2 SWAP1 POP JUMP JUMPDEST PUSH0 PUSH2 0x1CE4 DUP3 PUSH2 0x1C7F JUMP JUMPDEST PUSH2 0x1CEE DUP2 DUP6 PUSH2 0x1C89 JUMP JUMPDEST SWAP4 POP PUSH2 0x1CF9 DUP4 PUSH2 0x1C99 JUMP JUMPDEST DUP1 PUSH0 JUMPDEST DUP4 DUP2 LT ISZERO PUSH2 0x1D29 JUMPI DUP2 MLOAD PUSH2 0x1D10 DUP9 DUP3 PUSH2 0x1CB7 JUMP JUMPDEST SWAP8 POP PUSH2 0x1D1B DUP4 PUSH2 0x1CCE JUMP JUMPDEST SWAP3 POP POP PUSH1 0x1 DUP2 ADD SWAP1 POP PUSH2 0x1CFC JUMP JUMPDEST POP DUP6 SWAP4 POP POP POP POP SWAP3 SWAP2 POP POP JUMP JUMPDEST PUSH0 DUP2 MLOAD SWAP1 POP SWAP2 SWAP1 POP JUMP JUMPDEST PUSH0 DUP3 DUP3 MSTORE PUSH1 0x20 DUP3 ADD SWAP1 POP SWAP3 SWAP2 POP POP JUMP JUMPDEST PUSH0 DUP2 SWAP1 POP PUSH1 0x20 DUP3 ADD SWAP1 POP SWAP2 SWAP1 POP JUMP JUMPDEST PUSH2 0x1D68 DUP2 PUSH2 0x1780 JUMP JUMPDEST DUP3 MSTORE POP POP JUMP JUMPDEST PUSH0 PUSH2 0x1D79 DUP4 DUP4 PUSH2 0x1D5F JUMP JUMPDEST PUSH1 0x20 DUP4 ADD SWAP1 POP SWAP3 SWAP2 POP POP JUMP JUMPDEST PUSH0 PUSH1 0x20 DUP3 ADD SWAP1 POP SWAP2 SWAP1 POP JUMP JUMPDEST PUSH0 PUSH2 0x1D9B DUP3 PUSH2 0x1D36 JUMP JUMPDEST PUSH2 0x1DA5 DUP2 DUP6 PUSH2 0x1D40 JUMP JUMPDEST SWAP4 POP PUSH2 0x1DB0 DUP4 PUSH2 0x1D50 JUMP JUMPDEST DUP1 PUSH0 JUMPDEST DUP4 DUP2 LT ISZERO PUSH2 0x1DE0 JUMPI DUP2 MLOAD PUSH2 0x1DC7 DUP9 DUP3 PUSH2 0x1D6E JUMP JUMPDEST SWAP8 POP PUSH2 0x1DD2 DUP4 PUSH2 0x1D85 JUMP JUMPDEST SWAP3 POP POP PUSH1 0x1 DUP2 ADD SWAP1 POP PUSH2 0x1DB3 JUMP JUMPDEST POP DUP6 SWAP4 POP POP POP POP SWAP3 SWAP2 POP POP JUMP JUMPDEST PUSH0 PUSH1 0x40 DUP3 ADD SWAP1 POP DUP2 DUP2 SUB PUSH0 DUP4 ADD MSTORE PUSH2 0x1E05 DUP2 DUP6 PUSH2 0x1CDA JUMP JUMPDEST SWAP1 POP DUP2 DUP2 SUB PUSH1 0x20 DUP4 ADD MSTORE PUSH2 0x1E19 DUP2 DUP5 PUSH2 0x1D91 JUMP JUMPDEST SWAP1 POP SWAP4 SWAP3 POP POP POP JUMP JUMPDEST PUSH0 PUSH1 0x20 DUP3 DUP5 SUB SLT ISZERO PUSH2 0x1E37 JUMPI PUSH2 0x1E36 PUSH2 0x1778 JUMP JUMPDEST JUMPDEST PUSH0 PUSH2 0x1E44 DUP5 DUP3 DUP6 ADD PUSH2 0x1B4B JUMP JUMPDEST SWAP2 POP POP SWAP3 SWAP2 POP POP JUMP JUMPDEST PUSH0 PUSH1 0x20 DUP3 DUP5 SUB SLT ISZERO PUSH2 0x1E62 JUMPI PUSH2 0x1E61 PUSH2 0x1778 JUMP JUMPDEST JUMPDEST PUSH0 PUSH2 0x1E6F DUP5 DUP3 DUP6 ADD PUSH2 0x1C2D JUMP JUMPDEST SWAP2 POP POP SWAP3 SWAP2 POP POP JUMP JUMPDEST PUSH32 0x46616E436C756220646F6573206E6F7420657869737400000000000000000000 PUSH0 DUP3 ADD MSTORE POP JUMP JUMPDEST PUSH0 PUSH2 0x1EAC PUSH1 0x16 DUP4 PUSH2 0x1826 JUMP JUMPDEST SWAP2 POP PUSH2 0x1EB7 DUP3 PUSH2 0x1E78 JUMP JUMPDEST PUSH1 0x20 DUP3 ADD SWAP1 POP SWAP2 SWAP1 POP JUMP JUMPDEST PUSH0 PUSH1 0x20 DUP3 ADD SWAP1 POP DUP2 DUP2 SUB PUSH0 DUP4 ADD MSTORE PUSH2 0x1ED9 DUP2 PUSH2 0x1EA0 JUMP JUMPDEST SWAP1 POP SWAP2 SWAP1 POP JUMP JUMPDEST PUSH32 0x416D6F756E74206D7573742062652067726561746572207468616E207A65726F PUSH0 DUP3 ADD MSTORE POP JUMP JUMPDEST PUSH0 PUSH2 0x1F14 PUSH1 0x20 DUP4 PUSH2 0x1826 JUMP JUMPDEST SWAP2 POP PUSH2 0x1F1F DUP3 PUSH2 0x1EE0 JUMP JUMPDEST PUSH1 0x20 DUP3 ADD SWAP1 POP SWAP2 SWAP1 POP JUMP JUMPDEST PUSH0 PUSH1 0x20 DUP3 ADD SWAP1 POP DUP2 DUP2 SUB PUSH0 DUP4 ADD MSTORE PUSH2 0x1F41 DUP2 PUSH2 0x1F08 JUMP JUMPDEST SWAP1 POP SWAP2 SWAP1 POP JUMP JUMPDEST PUSH32 0x4E487B7100000000000000000000000000000000000000000000000000000000 PUSH0 MSTORE PUSH1 0x32 PUSH1 0x4 MSTORE PUSH1 0x24 PUSH0 REVERT JUMPDEST PUSH32 0x4E6F7420656E6F7567682073686172657320746F2073656C6C00000000000000 PUSH0 DUP3 ADD MSTORE POP JUMP JUMPDEST PUSH0 PUSH2 0x1FA9 PUSH1 0x19 DUP4 PUSH2 0x1826 JUMP JUMPDEST SWAP2 POP PUSH2 0x1FB4 DUP3 PUSH2 0x1F75 JUMP JUMPDEST PUSH1 0x20 DUP3 ADD SWAP1 POP SWAP2 SWAP1 POP JUMP JUMPDEST PUSH0 PUSH1 0x20 DUP3 ADD SWAP1 POP DUP2 DUP2 SUB PUSH0 DUP4 ADD MSTORE PUSH2 0x1FD6 DUP2 PUSH2 0x1F9D JUMP JUMPDEST SWAP1 POP SWAP2 SWAP1 POP JUMP JUMPDEST PUSH32 0x4E487B7100000000000000000000000000000000000000000000000000000000 PUSH0 MSTORE PUSH1 0x11 PUSH1 0x4 MSTORE PUSH1 0x24 PUSH0 REVERT JUMPDEST PUSH0 PUSH2 0x2014 DUP3 PUSH2 0x1780 JUMP JUMPDEST SWAP2 POP PUSH2 0x201F DUP4 PUSH2 0x1780 JUMP JUMPDEST SWAP3 POP DUP3 DUP3 SUB SWAP1 POP DUP2 DUP2 GT ISZERO PUSH2 0x2037 JUMPI PUSH2 0x2036 PUSH2 0x1FDD JUMP JUMPDEST JUMPDEST SWAP3 SWAP2 POP POP JUMP JUMPDEST PUSH0 DUP2 MLOAD SWAP1 POP PUSH2 0x204B DUP2 PUSH2 0x1789 JUMP JUMPDEST SWAP3 SWAP2 POP POP JUMP JUMPDEST PUSH0 PUSH1 0x20 DUP3 DUP5 SUB SLT ISZERO PUSH2 0x2066 JUMPI PUSH2 0x2065 PUSH2 0x1778 JUMP JUMPDEST JUMPDEST PUSH0 PUSH2 0x2073 DUP5 DUP3 DUP6 ADD PUSH2 0x203D JUMP JUMPDEST SWAP2 POP POP SWAP3 SWAP2 POP POP JUMP JUMPDEST PUSH32 0x436F6E74726163742068617320696E73756666696369656E7420746F6B656E73 PUSH0 DUP3 ADD MSTORE POP JUMP JUMPDEST PUSH0 PUSH2 0x20B0 PUSH1 0x20 DUP4 PUSH2 0x1826 JUMP JUMPDEST SWAP2 POP PUSH2 0x20BB DUP3 PUSH2 0x207C JUMP JUMPDEST PUSH1 0x20 DUP3 ADD SWAP1 POP SWAP2 SWAP1 POP JUMP JUMPDEST PUSH0 PUSH1 0x20 DUP3 ADD SWAP1 POP DUP2 DUP2 SUB PUSH0 DUP4 ADD MSTORE PUSH2 0x20DD DUP2 PUSH2 0x20A4 JUMP JUMPDEST SWAP1 POP SWAP2 SWAP1 POP JUMP JUMPDEST PUSH0 PUSH1 0x40 DUP3 ADD SWAP1 POP PUSH2 0x20F7 PUSH0 DUP4 ADD DUP6 PUSH2 0x192F JUMP JUMPDEST PUSH2 0x2104 PUSH1 0x20 DUP4 ADD DUP5 PUSH2 0x193E JUMP JUMPDEST SWAP4 SWAP3 POP POP POP JUMP JUMPDEST PUSH0 DUP2 ISZERO ISZERO SWAP1 POP SWAP2 SWAP1 POP JUMP JUMPDEST PUSH2 0x211F DUP2 PUSH2 0x210B JUMP JUMPDEST DUP2 EQ PUSH2 0x2129 JUMPI PUSH0 DUP1 REVERT JUMPDEST POP JUMP JUMPDEST PUSH0 DUP2 MLOAD SWAP1 POP PUSH2 0x213A DUP2 PUSH2 0x2116 JUMP JUMPDEST SWAP3 SWAP2 POP POP JUMP JUMPDEST PUSH0 PUSH1 0x20 DUP3 DUP5 SUB SLT ISZERO PUSH2 0x2155 JUMPI PUSH2 0x2154 PUSH2 0x1778 JUMP JUMPDEST JUMPDEST PUSH0 PUSH2 0x2162 DUP5 DUP3 DUP6 ADD PUSH2 0x212C JUMP JUMPDEST SWAP2 POP POP SWAP3 SWAP2 POP POP JUMP JUMPDEST PUSH32 0x546F6B656E207472616E73666572206661696C65640000000000000000000000 PUSH0 DUP3 ADD MSTORE POP JUMP JUMPDEST PUSH0 PUSH2 0x219F PUSH1 0x15 DUP4 PUSH2 0x1826 JUMP JUMPDEST SWAP2 POP PUSH2 0x21AA DUP3 PUSH2 0x216B JUMP JUMPDEST PUSH1 0x20 DUP3 ADD SWAP1 POP SWAP2 SWAP1 POP JUMP JUMPDEST PUSH0 PUSH1 0x20 DUP3 ADD SWAP1 POP DUP2 DUP2 SUB PUSH0 DUP4 ADD MSTORE PUSH2 0x21CC DUP2 PUSH2 0x2193 JUMP JUMPDEST SWAP1 POP SWAP2 SWAP1 POP JUMP JUMPDEST PUSH0 PUSH1 0x60 DUP3 ADD SWAP1 POP PUSH2 0x21E6 PUSH0 DUP4 ADD DUP7 PUSH2 0x192F JUMP JUMPDEST PUSH2 0x21F3 PUSH1 0x20 DUP4 ADD DUP6 PUSH2 0x193E JUMP JUMPDEST PUSH2 0x2200 PUSH1 0x40 DUP4 ADD DUP5 PUSH2 0x193E JUMP JUMPDEST SWAP5 SWAP4 POP POP POP POP JUMP JUMPDEST PUSH32 0x4E487B7100000000000000000000000000000000000000000000000000000000 PUSH0 MSTORE PUSH1 0x22 PUSH1 0x4 MSTORE PUSH1 0x24 PUSH0 REVERT JUMPDEST PUSH0 PUSH1 0x2 DUP3 DIV SWAP1 POP PUSH1 0x1 DUP3 AND DUP1 PUSH2 0x224C JUMPI PUSH1 0x7F DUP3 AND SWAP2 POP JUMPDEST PUSH1 0x20 DUP3 LT DUP2 SUB PUSH2 0x225F JUMPI PUSH2 0x225E PUSH2 0x2208 JUMP JUMPDEST JUMPDEST POP SWAP2 SWAP1 POP JUMP JUMPDEST PUSH0 PUSH2 0x226F DUP3 PUSH2 0x1780 JUMP JUMPDEST SWAP2 POP PUSH2 0x227A DUP4 PUSH2 0x1780 JUMP JUMPDEST SWAP3 POP DUP3 DUP3 MUL PUSH2 0x2288 DUP2 PUSH2 0x1780 JUMP JUMPDEST SWAP2 POP DUP3 DUP3 DIV DUP5 EQ DUP4 ISZERO OR PUSH2 0x229F JUMPI PUSH2 0x229E PUSH2 0x1FDD JUMP JUMPDEST JUMPDEST POP SWAP3 SWAP2 POP POP JUMP JUMPDEST PUSH32 0x4E487B7100000000000000000000000000000000000000000000000000000000 PUSH0 MSTORE PUSH1 0x12 PUSH1 0x4 MSTORE PUSH1 0x24 PUSH0 REVERT JUMPDEST PUSH0 PUSH2 0x22DD DUP3 PUSH2 0x1780 JUMP JUMPDEST SWAP2 POP PUSH2 0x22E8 DUP4 PUSH2 0x1780 JUMP JUMPDEST SWAP3 POP DUP3 PUSH2 0x22F8 JUMPI PUSH2 0x22F7 PUSH2 0x22A6 JUMP JUMPDEST JUMPDEST DUP3 DUP3 DIV SWAP1 POP SWAP3 SWAP2 POP POP JUMP JUMPDEST PUSH32 0x546F6B656E20666F722046616E54797065206E6F742073657400000000000000 PUSH0 DUP3 ADD MSTORE POP JUMP JUMPDEST PUSH0 PUSH2 0x2337 PUSH1 0x19 DUP4 PUSH2 0x1826 JUMP JUMPDEST SWAP2 POP PUSH2 0x2342 DUP3 PUSH2 0x2303 JUMP JUMPDEST PUSH1 0x20 DUP3 ADD SWAP1 POP SWAP2 SWAP1 POP JUMP JUMPDEST PUSH0 PUSH1 0x20 DUP3 ADD SWAP1 POP DUP2 DUP2 SUB PUSH0 DUP4 ADD MSTORE PUSH2 0x2364 DUP2 PUSH2 0x232B JUMP JUMPDEST SWAP1 POP SWAP2 SWAP1 POP JUMP JUMPDEST PUSH32 0x496E73756666696369656E742066616E20746F6B656E73000000000000000000 PUSH0 DUP3 ADD MSTORE POP JUMP JUMPDEST PUSH0 PUSH2 0x239F PUSH1 0x17 DUP4 PUSH2 0x1826 JUMP JUMPDEST SWAP2 POP PUSH2 0x23AA DUP3 PUSH2 0x236B JUMP JUMPDEST PUSH1 0x20 DUP3 ADD SWAP1 POP SWAP2 SWAP1 POP JUMP JUMPDEST PUSH0 PUSH1 0x20 DUP3 ADD SWAP1 POP DUP2 DUP2 SUB PUSH0 DUP4 ADD MSTORE PUSH2 0x23CC DUP2 PUSH2 0x2393 JUMP JUMPDEST SWAP1 POP SWAP2 SWAP1 POP JUMP JUMPDEST PUSH0 DUP2 SWAP1 POP SWAP2 SWAP1 POP JUMP JUMPDEST PUSH0 DUP2 SWAP1 POP SWAP2 SWAP1 POP JUMP JUMPDEST PUSH0 PUSH2 0x23FF PUSH2 0x23FA PUSH2 0x23F5 DUP5 PUSH2 0x23D3 JUMP JUMPDEST PUSH2 0x23DC JUMP JUMPDEST PUSH2 0x1780 JUMP JUMPDEST SWAP1 POP SWAP2 SWAP1 POP JUMP JUMPDEST PUSH2 0x240F DUP2 PUSH2 0x23E5 JUMP JUMPDEST DUP3 MSTORE POP POP JUMP JUMPDEST PUSH0 PUSH1 0x60 DUP3 ADD SWAP1 POP PUSH2 0x2428 PUSH0 DUP4 ADD DUP7 PUSH2 0x192F JUMP JUMPDEST PUSH2 0x2435 PUSH1 0x20 DUP4 ADD DUP6 PUSH2 0x192F JUMP JUMPDEST PUSH2 0x2442 PUSH1 0x40 DUP4 ADD DUP5 PUSH2 0x2406 JUMP JUMPDEST SWAP5 SWAP4 POP POP POP POP JUMP JUMPDEST PUSH0 DUP2 SWAP1 POP DUP2 PUSH0 MSTORE PUSH1 0x20 PUSH0 KECCAK256 SWAP1 POP SWAP2 SWAP1 POP JUMP JUMPDEST PUSH0 PUSH1 0x20 PUSH1 0x1F DUP4 ADD DIV SWAP1 POP SWAP2 SWAP1 POP JUMP JUMPDEST PUSH0 DUP3 DUP3 SHL SWAP1 POP SWAP3 SWAP2 POP POP JUMP JUMPDEST PUSH0 PUSH1 0x8 DUP4 MUL PUSH2 0x24A6 PUSH32 0xFFFFFFFFFFFFFFFFFFFFFFFFFFFFFFFFFFFFFFFFFFFFFFFFFFFFFFFFFFFFFFFF DUP3 PUSH2 0x246B JUMP JUMPDEST PUSH2 0x24B0 DUP7 DUP4 PUSH2 0x246B JUMP JUMPDEST SWAP6 POP DUP1 NOT DUP5 AND SWAP4 POP DUP1 DUP7 AND DUP5 OR SWAP3 POP POP POP SWAP4 SWAP3 POP POP POP JUMP JUMPDEST PUSH0 PUSH2 0x24E2 PUSH2 0x24DD PUSH2 0x24D8 DUP5 PUSH2 0x1780 JUMP JUMPDEST PUSH2 0x23DC JUMP JUMPDEST PUSH2 0x1780 JUMP JUMPDEST SWAP1 POP SWAP2 SWAP1 POP JUMP JUMPDEST PUSH0 DUP2 SWAP1 POP SWAP2 SWAP1 POP JUMP JUMPDEST PUSH2 0x24FB DUP4 PUSH2 0x24C8 JUMP JUMPDEST PUSH2 0x250F PUSH2 0x2507 DUP3 PUSH2 0x24E9 JUMP JUMPDEST DUP5 DUP5 SLOAD PUSH2 0x2477 JUMP JUMPDEST DUP3 SSTORE POP POP POP POP JUMP JUMPDEST PUSH0 SWAP1 JUMP JUMPDEST PUSH2 0x2523 PUSH2 0x2517 JUMP JUMPDEST PUSH2 0x252E DUP2 DUP5 DUP5 PUSH2 0x24F2 JUMP JUMPDEST POP POP POP JUMP JUMPDEST JUMPDEST DUP2 DUP2 LT ISZERO PUSH2 0x2551 JUMPI PUSH2 0x2546 PUSH0 DUP3 PUSH2 0x251B JUMP JUMPDEST PUSH1 0x1 DUP2 ADD SWAP1 POP PUSH2 0x2534 JUMP JUMPDEST POP POP JUMP JUMPDEST PUSH1 0x1F DUP3 GT ISZERO PUSH2 0x2596 JUMPI PUSH2 0x2567 DUP2 PUSH2 0x244A JUMP JUMPDEST PUSH2 0x2570 DUP5 PUSH2 0x245C JUMP JUMPDEST DUP2 ADD PUSH1 0x20 DUP6 LT ISZERO PUSH2 0x257F JUMPI DUP2 SWAP1 POP JUMPDEST PUSH2 0x2593 PUSH2 0x258B DUP6 PUSH2 0x245C JUMP JUMPDEST DUP4 ADD DUP3 PUSH2 0x2533 JUMP JUMPDEST POP POP JUMPDEST POP POP POP JUMP JUMPDEST PUSH0 DUP3 DUP3 SHR SWAP1 POP SWAP3 SWAP2 POP POP JUMP JUMPDEST PUSH0 PUSH2 0x25B6 PUSH0 NOT DUP5 PUSH1 0x8 MUL PUSH2 0x259B JUMP JUMPDEST NOT DUP1 DUP4 AND SWAP2 POP POP SWAP3 SWAP2 POP POP JUMP JUMPDEST PUSH0 PUSH2 0x25CE DUP4 DUP4 PUSH2 0x25A7 JUMP JUMPDEST SWAP2 POP DUP3 PUSH1 0x2 MUL DUP3 OR SWAP1 POP SWAP3 SWAP2 POP POP JUMP JUMPDEST PUSH2 0x25E7 DUP3 PUSH2 0x181C JUMP JUMPDEST PUSH8 0xFFFFFFFFFFFFFFFF DUP2 GT ISZERO PUSH2 0x2600 JUMPI PUSH2 0x25FF PUSH2 0x1A18 JUMP JUMPDEST JUMPDEST PUSH2 0x260A DUP3 SLOAD PUSH2 0x2235 JUMP JUMPDEST PUSH2 0x2615 DUP3 DUP3 DUP6 PUSH2 0x2555 JUMP JUMPDEST PUSH0 PUSH1 0x20 SWAP1 POP PUSH1 0x1F DUP4 GT PUSH1 0x1 DUP2 EQ PUSH2 0x2646 JUMPI PUSH0 DUP5 ISZERO PUSH2 0x2634 JUMPI DUP3 DUP8 ADD MLOAD SWAP1 POP JUMPDEST PUSH2 0x263E DUP6 DUP3 PUSH2 0x25C3 JUMP JUMPDEST DUP7 SSTORE POP PUSH2 0x26A5 JUMP JUMPDEST PUSH1 0x1F NOT DUP5 AND PUSH2 0x2654 DUP7 PUSH2 0x244A JUMP JUMPDEST PUSH0 JUMPDEST DUP3 DUP2 LT ISZERO PUSH2 0x267B JUMPI DUP5 DUP10 ADD MLOAD DUP3 SSTORE PUSH1 0x1 DUP3 ADD SWAP2 POP PUSH1 0x20 DUP6 ADD SWAP5 POP PUSH1 0x20 DUP2 ADD SWAP1 POP PUSH2 0x2656 JUMP JUMPDEST DUP7 DUP4 LT ISZERO PUSH2 0x2698 JUMPI DUP5 DUP10 ADD MLOAD PUSH2 0x2694 PUSH1 0x1F DUP10 AND DUP3 PUSH2 0x25A7 JUMP JUMPDEST DUP4 SSTORE POP JUMPDEST PUSH1 0x1 PUSH1 0x2 DUP9 MUL ADD DUP9 SSTORE POP POP POP JUMPDEST POP POP POP POP POP POP JUMP JUMPDEST PUSH0 PUSH1 0x80 DUP3 ADD SWAP1 POP DUP2 DUP2 SUB PUSH0 DUP4 ADD MSTORE PUSH2 0x26C5 DUP2 DUP8 PUSH2 0x1854 JUMP JUMPDEST SWAP1 POP PUSH2 0x26D4 PUSH1 0x20 DUP4 ADD DUP7 PUSH2 0x18F0 JUMP JUMPDEST PUSH2 0x26E1 PUSH1 0x40 DUP4 ADD DUP6 PUSH2 0x192F JUMP JUMPDEST DUP2 DUP2 SUB PUSH1 0x60 DUP4 ADD MSTORE PUSH2 0x26F3 DUP2 DUP5 PUSH2 0x1854 JUMP JUMPDEST SWAP1 POP SWAP6 SWAP5 POP POP POP POP POP JUMP JUMPDEST PUSH0 PUSH2 0x2708 DUP3 PUSH2 0x1780 JUMP JUMPDEST SWAP2 POP PUSH2 0x2713 DUP4 PUSH2 0x1780 JUMP JUMPDEST SWAP3 POP DUP3 DUP3 ADD SWAP1 POP DUP1 DUP3 GT ISZERO PUSH2 0x272B JUMPI PUSH2 0x272A PUSH2 0x1FDD JUMP JUMPDEST JUMPDEST SWAP3 SWAP2 POP POP JUMP JUMPDEST PUSH32 0x496E73756666696369656E7420746F6B656E7320746F20627579207368617265 PUSH0 DUP3 ADD MSTORE PUSH32 0x7300000000000000000000000000000000000000000000000000000000000000 PUSH1 0x20 DUP3 ADD MSTORE POP JUMP JUMPDEST PUSH0 PUSH2 0x278B PUSH1 0x21 DUP4 PUSH2 0x1826 JUMP JUMPDEST SWAP2 POP PUSH2 0x2796 DUP3 PUSH2 0x2731 JUMP JUMPDEST PUSH1 0x40 DUP3 ADD SWAP1 POP SWAP2 SWAP1 POP JUMP JUMPDEST PUSH0 PUSH1 0x20 DUP3 ADD SWAP1 POP DUP2 DUP2 SUB PUSH0 DUP4 ADD MSTORE PUSH2 0x27B8 DUP2 PUSH2 0x277F JUMP JUMPDEST SWAP1 POP SWAP2 SWAP1 POP JUMP JUMPDEST PUSH0 PUSH1 0x60 DUP3 ADD SWAP1 POP PUSH2 0x27D2 PUSH0 DUP4 ADD DUP7 PUSH2 0x192F JUMP JUMPDEST PUSH2 0x27DF PUSH1 0x20 DUP4 ADD DUP6 PUSH2 0x192F JUMP JUMPDEST PUSH2 0x27EC PUSH1 0x40 DUP4 ADD DUP5 PUSH2 0x193E JUMP JUMPDEST SWAP5 SWAP4 POP POP POP POP JUMP JUMPDEST PUSH32 0x496E76616C696420746F6B656E20616464726573730000000000000000000000 PUSH0 DUP3 ADD MSTORE POP JUMP JUMPDEST PUSH0 PUSH2 0x2828 PUSH1 0x15 DUP4 PUSH2 0x1826 JUMP JUMPDEST SWAP2 POP PUSH2 0x2833 DUP3 PUSH2 0x27F4 JUMP JUMPDEST PUSH1 0x20 DUP3 ADD SWAP1 POP SWAP2 SWAP1 POP JUMP JUMPDEST PUSH0 PUSH1 0x20 DUP3 ADD SWAP1 POP DUP2 DUP2 SUB PUSH0 DUP4 ADD MSTORE PUSH2 0x2855 DUP2 PUSH2 0x281C JUMP JUMPDEST SWAP1 POP SWAP2 SWAP1 POP JUMP JUMPDEST PUSH0 PUSH1 0x40 DUP3 ADD SWAP1 POP PUSH2 0x286F PUSH0 DUP4 ADD DUP6 PUSH2 0x18F0 JUMP JUMPDEST PUSH2 0x287C PUSH1 0x20 DUP4 ADD DUP5 PUSH2 0x192F JUMP JUMPDEST SWAP4 SWAP3 POP POP POP JUMP JUMPDEST PUSH32 0x4E487B7100000000000000000000000000000000000000000000000000000000 PUSH0 MSTORE PUSH1 0x31 PUSH1 0x4 MSTORE PUSH1 0x24 PUSH0 REVERT INVALID LOG2 PUSH5 0x6970667358 0x22 SLT KECCAK256 0xBE 0xB9 0x4C PUSH5 0xC4C5F10FBB CALLDATACOPY JUMP PUSH25 0x1E87667A69A0062A7D02096C7351350BE12434C064736F6C63 NUMBER STOP ADDMOD BYTE STOP CALLER "
				},
				"gasEstimates": {
					"creation": {
						"codeDepositCost": "2094000",
						"executionCost": "infinite",
						"totalCost": "infinite"
					},
					"external": {
						"buyShares(uint256,uint256)": "infinite",
						"calculatePrice(uint256)": "infinite",
						"createFanClub(string,string,uint8,string)": "infinite",
						"fanClubs(uint256)": "infinite",
						"fanTypeTokens(uint8)": "2873",
						"getShareholders(uint256)": "infinite",
						"owner()": "2582",
						"renounceOwnership()": "infinite",
						"sellShares(uint256,uint256)": "infinite",
						"setFanTypeToken(uint8,address)": "infinite",
						"transferOwnership(address)": "infinite"
					},
					"internal": {
						"removeShareholder(uint256,address)": "infinite"
					}
				},
				"methodIdentifiers": {
					"buyShares(uint256,uint256)": "beebc5da",
					"calculatePrice(uint256)": "ae104265",
					"createFanClub(string,string,uint8,string)": "ae59411e",
					"fanClubs(uint256)": "8145b30a",
					"fanTypeTokens(uint8)": "e7ba98d0",
					"getShareholders(uint256)": "c5350e07",
					"owner()": "8da5cb5b",
					"renounceOwnership()": "715018a6",
					"sellShares(uint256,uint256)": "2279a970",
					"setFanTypeToken(uint8,address)": "c489171d",
					"transferOwnership(address)": "f2fde38b"
				}
			},
			"storageLayout": {
				"storage": [
					{
						"astId": 8,
						"contract": "contracts/fan.sol:FanClubFactory",
						"label": "_owner",
						"offset": 0,
						"slot": "0",
						"type": "t_address"
					},
					{
						"astId": 295,
						"contract": "contracts/fan.sol:FanClubFactory",
						"label": "fanTypeTokens",
						"offset": 0,
						"slot": "1",
						"type": "t_mapping(t_enum(FanType)265,t_address)"
					},
					{
						"astId": 299,
						"contract": "contracts/fan.sol:FanClubFactory",
						"label": "fanClubs",
						"offset": 0,
						"slot": "2",
						"type": "t_array(t_struct(FanClub)290_storage)dyn_storage"
					}
				],
				"types": {
					"t_address": {
						"encoding": "inplace",
						"label": "address",
						"numberOfBytes": "20"
					},
					"t_array(t_address)dyn_storage": {
						"base": "t_address",
						"encoding": "dynamic_array",
						"label": "address[]",
						"numberOfBytes": "32"
					},
					"t_array(t_struct(FanClub)290_storage)dyn_storage": {
						"base": "t_struct(FanClub)290_storage",
						"encoding": "dynamic_array",
						"label": "struct FanClubFactory.FanClub[]",
						"numberOfBytes": "32"
					},
					"t_enum(FanType)265": {
						"encoding": "inplace",
						"label": "enum FanClubFactory.FanType",
						"numberOfBytes": "1"
					},
					"t_mapping(t_address,t_uint256)": {
						"encoding": "mapping",
						"key": "t_address",
						"label": "mapping(address => uint256)",
						"numberOfBytes": "32",
						"value": "t_uint256"
					},
					"t_mapping(t_enum(FanType)265,t_address)": {
						"encoding": "mapping",
						"key": "t_enum(FanType)265",
						"label": "mapping(enum FanClubFactory.FanType => address)",
						"numberOfBytes": "32",
						"value": "t_address"
					},
					"t_string_storage": {
						"encoding": "bytes",
						"label": "string",
						"numberOfBytes": "32"
					},
					"t_struct(FanClub)290_storage": {
						"encoding": "inplace",
						"label": "struct FanClubFactory.FanClub",
						"members": [
							{
								"astId": 267,
								"contract": "contracts/fan.sol:FanClubFactory",
								"label": "name",
								"offset": 0,
								"slot": "0",
								"type": "t_string_storage"
							},
							{
								"astId": 269,
								"contract": "contracts/fan.sol:FanClubFactory",
								"label": "description",
								"offset": 0,
								"slot": "1",
								"type": "t_string_storage"
							},
							{
								"astId": 272,
								"contract": "contracts/fan.sol:FanClubFactory",
								"label": "fanType",
								"offset": 0,
								"slot": "2",
								"type": "t_enum(FanType)265"
							},
							{
								"astId": 274,
								"contract": "contracts/fan.sol:FanClubFactory",
								"label": "tokenAddress",
								"offset": 1,
								"slot": "2",
								"type": "t_address"
							},
							{
								"astId": 276,
								"contract": "contracts/fan.sol:FanClubFactory",
								"label": "image",
								"offset": 0,
								"slot": "3",
								"type": "t_string_storage"
							},
							{
								"astId": 278,
								"contract": "contracts/fan.sol:FanClubFactory",
								"label": "totalShares",
								"offset": 0,
								"slot": "4",
								"type": "t_uint256"
							},
							{
								"astId": 280,
								"contract": "contracts/fan.sol:FanClubFactory",
								"label": "sharePrice",
								"offset": 0,
								"slot": "5",
								"type": "t_uint256"
							},
							{
								"astId": 282,
								"contract": "contracts/fan.sol:FanClubFactory",
								"label": "creator",
								"offset": 0,
								"slot": "6",
								"type": "t_address"
							},
							{
								"astId": 286,
								"contract": "contracts/fan.sol:FanClubFactory",
								"label": "sharesOwned",
								"offset": 0,
								"slot": "7",
								"type": "t_mapping(t_address,t_uint256)"
							},
							{
								"astId": 289,
								"contract": "contracts/fan.sol:FanClubFactory",
								"label": "shareholders",
								"offset": 0,
								"slot": "8",
								"type": "t_array(t_address)dyn_storage"
							}
						],
						"numberOfBytes": "288"
					},
					"t_uint256": {
						"encoding": "inplace",
						"label": "uint256",
						"numberOfBytes": "32"
					}
				}
			},
			"userdoc": {
				"kind": "user",
				"methods": {},
				"version": 1
			}
		}
	}
}